{
  "contractName": "HelloWorld",
  "abi": [
    {
      "constant": true,
      "inputs": [],
      "name": "say",
      "outputs": [
        {
          "name": "",
          "type": "string"
        }
      ],
      "payable": false,
      "stateMutability": "pure",
      "type": "function"
    },
    {
      "constant": true,
      "inputs": [
        {
          "name": "name",
          "type": "string"
        }
      ],
      "name": "print",
      "outputs": [
        {
          "name": "",
          "type": "string"
        }
      ],
      "payable": false,
      "stateMutability": "pure",
      "type": "function"
    },
    {
      "constant": false,
      "inputs": [],
      "name": "getBalance",
      "outputs": [
        {
          "name": "",
          "type": "uint256"
        }
      ],
      "payable": false,
      "stateMutability": "nonpayable",
      "type": "function"
    }
  ],
  "bytecode": "0x6060604052341561000f57600080fd5b61029b8061001e6000396000f300606060405260043610610057576000357c0100000000000000000000000000000000000000000000000000000000900463ffffffff16806311114af11461005c57806312065fe014610132578063954ab4b21461015b575b600080fd5b341561006757600080fd5b6100b7600480803590602001908201803590602001908080601f016020809104026020016040519081016040528093929190818152602001838380828437820191505050505050919050506101e9565b6040518080602001828103825283818151815260200191508051906020019080838360005b838110156100f75780820151818401526020810190506100dc565b50505050905090810190601f1680156101245780820380516001836020036101000a031916815260200191505b509250505060405180910390f35b341561013d57600080fd5b6101456101f9565b6040518082815260200191505060405180910390f35b341561016657600080fd5b61016e610218565b6040518080602001828103825283818151815260200191508051906020019080838360005b838110156101ae578082015181840152602081019050610193565b50505050905090810190601f1680156101db5780820380516001836020036101000a031916815260200191505b509250505060405180910390f35b6101f161025b565b819050919050565b60003073ffffffffffffffffffffffffffffffffffffffff1631905090565b61022061025b565b6040805190810160405280600381526020017f48656c0000000000000000000000000000000000000000000000000000000000815250905090565b6020604051908101604052806000815250905600a165627a7a723058206ebe4b3be95e00f5bf0a32b62b6d7f9bcf03dabf290c58556d8c6b61b7fae1a10029",
  "source": "pragma solidity ^0.4.17;\n\ncontract HelloWorld {\n    function say() public pure returns (string) {\n        return \"Hel\";\n    }\n\n    //\n    function print(string name) public pure returns (string) {\n        return name;\n    }\n\n    function getBalance() returns (uint){\n        return this.balance;\n    }\n}",
  "sourcePath": "/Users/zhouzhihui/codebase/gitProjects/ganacheDemo/delete2/contracts/HelloWorld.sol",
  "compiler": {
    "name": "solc",
    "version": "0.4.21+commit.dfe3193c.Emscripten.clang"
  },
  "schemaVersion": "2.0.0",
  "updatedAt": "2018-04-16T05:57:51.087Z"
}