{
  "contractName": "Migrations",
  "abi": [
    {
      "constant": true,
      "inputs": [],
      "name": "getUsers",
      "outputs": [
        {
          "name": "",
          "type": "uint256[]"
        },
        {
          "name": "",
          "type": "bytes32[]"
        },
        {
          "name": "",
          "type": "uint256[]"
        }
      ],
      "payable": false,
      "stateMutability": "view",
      "type": "function"
    },
    {
      "constant": true,
      "inputs": [
        {
          "name": "",
          "type": "uint256"
        }
      ],
      "name": "users",
      "outputs": [
        {
          "name": "id",
          "type": "uint256"
        },
        {
          "name": "name",
          "type": "bytes32"
        },
        {
          "name": "point",
          "type": "uint256"
        }
      ],
      "payable": false,
      "stateMutability": "view",
      "type": "function"
    },
    {
      "constant": true,
      "inputs": [],
      "name": "last_completed_migration",
      "outputs": [
        {
          "name": "",
          "type": "uint256"
        }
      ],
      "payable": false,
      "stateMutability": "view",
      "type": "function"
    },
    {
      "constant": true,
      "inputs": [
        {
          "name": "id",
          "type": "uint256"
        }
      ],
      "name": "getName",
      "outputs": [
        {
          "name": "",
          "type": "string"
        }
      ],
      "payable": false,
      "stateMutability": "view",
      "type": "function"
    },
    {
      "constant": true,
      "inputs": [],
      "name": "owner",
      "outputs": [
        {
          "name": "",
          "type": "address"
        }
      ],
      "payable": false,
      "stateMutability": "view",
      "type": "function"
    },
    {
      "constant": false,
      "inputs": [
        {
          "name": "id",
          "type": "uint256"
        }
      ],
      "name": "plusFive",
      "outputs": [
        {
          "name": "suc",
          "type": "bool"
        }
      ],
      "payable": false,
      "stateMutability": "nonpayable",
      "type": "function"
    },
    {
      "constant": false,
      "inputs": [
        {
          "name": "userName",
          "type": "bytes32"
        },
        {
          "name": "userPoint",
          "type": "uint256"
        }
      ],
      "name": "addUser",
      "outputs": [
        {
          "name": "userID",
          "type": "uint256"
        },
        {
          "name": "success",
          "type": "bool"
        }
      ],
      "payable": false,
      "stateMutability": "nonpayable",
      "type": "function"
    },
    {
      "inputs": [],
      "payable": false,
      "stateMutability": "nonpayable",
      "type": "constructor"
    },
    {
      "constant": false,
      "inputs": [
        {
          "name": "key",
          "type": "uint256"
        },
        {
          "name": "value",
          "type": "uint256"
        }
      ],
      "name": "set",
      "outputs": [],
      "payable": false,
      "stateMutability": "nonpayable",
      "type": "function"
    },
    {
      "constant": true,
      "inputs": [
        {
          "name": "key",
          "type": "uint256"
        }
      ],
      "name": "get",
      "outputs": [
        {
          "name": "value",
          "type": "uint256"
        }
      ],
      "payable": false,
      "stateMutability": "view",
      "type": "function"
    },
    {
      "constant": true,
      "inputs": [],
      "name": "say",
      "outputs": [
        {
          "name": "",
          "type": "string"
        }
      ],
      "payable": false,
      "stateMutability": "pure",
      "type": "function"
    },
    {
      "constant": true,
      "inputs": [
        {
          "name": "name",
          "type": "string"
        }
      ],
      "name": "print",
      "outputs": [
        {
          "name": "",
          "type": "string"
        }
      ],
      "payable": false,
      "stateMutability": "pure",
      "type": "function"
    },
    {
      "constant": true,
      "inputs": [
        {
          "name": "_data",
          "type": "bytes"
        }
      ],
      "name": "useUtil",
      "outputs": [
        {
          "name": "",
          "type": "uint256"
        }
      ],
      "payable": false,
      "stateMutability": "pure",
      "type": "function"
    },
    {
      "constant": true,
      "inputs": [],
      "name": "getMigration",
      "outputs": [
        {
          "name": "",
          "type": "uint256"
        }
      ],
      "payable": false,
      "stateMutability": "view",
      "type": "function"
    },
    {
      "constant": false,
      "inputs": [
        {
          "name": "completed",
          "type": "uint256"
        }
      ],
      "name": "setCompleted",
      "outputs": [],
      "payable": false,
      "stateMutability": "nonpayable",
      "type": "function"
    },
    {
      "constant": false,
      "inputs": [
        {
          "name": "new_address",
          "type": "address"
        }
      ],
      "name": "upgrade",
      "outputs": [],
      "payable": false,
      "stateMutability": "nonpayable",
      "type": "function"
    }
  ],
  "bytecode": "0x608060405234801561001057600080fd5b5033600260006101000a81548173ffffffffffffffffffffffffffffffffffffffff021916908373ffffffffffffffffffffffffffffffffffffffff16021790555061100c806100616000396000f3006080604052600436106100da576000357c0100000000000000000000000000000000000000000000000000000000900463ffffffff168062ce8e3e146100df5780630900f010146101db57806311114af11461021e5780631ab06ee514610300578063223eb640146103375780632c841f5814610362578063365b98b2146103df578063445df0ac146104365780636b8ff574146104615780638da5cb5b146105075780639507d39a1461055e578063954ab4b21461059f578063a8293c281461062f578063b69ea68414610674578063fdacd576146106ce575b600080fd5b3480156100eb57600080fd5b506100f46106fb565b60405180806020018060200180602001848103845287818151815260200191508051906020019060200280838360005b8381101561013f578082015181840152602081019050610124565b50505050905001848103835286818151815260200191508051906020019060200280838360005b83811015610181578082015181840152602081019050610166565b50505050905001848103825285818151815260200191508051906020019060200280838360005b838110156101c35780820151818401526020810190506101a8565b50505050905001965050505050505060405180910390f35b3480156101e757600080fd5b5061021c600480360381019080803573ffffffffffffffffffffffffffffffffffffffff16906020019092919050505061089b565b005b34801561022a57600080fd5b50610285600480360381019080803590602001908201803590602001908080601f0160208091040260200160405190810160405280939291908181526020018383808284378201915050505050509192919290505050610984565b6040518080602001828103825283818151815260200191508051906020019080838360005b838110156102c55780820151818401526020810190506102aa565b50505050905090810190601f1680156102f25780820380516001836020036101000a031916815260200191505b509250505060405180910390f35b34801561030c57600080fd5b50610335600480360381019080803590602001909291908035906020019092919050505061098e565b005b34801561034357600080fd5b5061034c6109e0565b6040518082815260200191505060405180910390f35b34801561036e57600080fd5b506103c9600480360381019080803590602001908201803590602001908080601f01602080910402602001604051908101604052809392919081815260200183838082843782019150505050505091929192905050506109ea565b6040518082815260200191505060405180910390f35b3480156103eb57600080fd5b5061040a600480360381019080803590602001909291905050506109fc565b604051808481526020018360001916600019168152602001828152602001935050505060405180910390f35b34801561044257600080fd5b5061044b610a35565b6040518082815260200191505060405180910390f35b34801561046d57600080fd5b5061048c60048036038101908080359060200190929190505050610a3b565b6040518080602001828103825283818151815260200191508051906020019080838360005b838110156104cc5780820151818401526020810190506104b1565b50505050905090810190601f1680156104f95780820380516001836020036101000a031916815260200191505b509250505060405180910390f35b34801561051357600080fd5b5061051c610a6d565b604051808273ffffffffffffffffffffffffffffffffffffffff1673ffffffffffffffffffffffffffffffffffffffff16815260200191505060405180910390f35b34801561056a57600080fd5b5061058960048036038101908080359060200190929190505050610a93565b6040518082815260200191505060405180910390f35b3480156105ab57600080fd5b506105b4610ab0565b6040518080602001828103825283818151815260200191508051906020019080838360005b838110156105f45780820151818401526020810190506105d9565b50505050905090810190601f1680156106215780820380516001836020036101000a031916815260200191505b509250505060405180910390f35b34801561063b57600080fd5b5061065a60048036038101908080359060200190929190505050610aed565b604051808215151515815260200191505060405180910390f35b34801561068057600080fd5b506106ad600480360381019080803560001916906020019092919080359060200190929190505050610b40565b60405180838152602001821515151581526020019250505060405180910390f35b3480156106da57600080fd5b506106f960048036038101908080359060200190929190505050610bea565b005b6060806060600060608060606000610711610fbb565b6000805490509550856040519080825280602002602001820160405280156107485781602001602082028038833980820191505090505b5094508560405190808252806020026020018201604052801561077a5781602001602082028038833980820191505090505b509350856040519080825280602002602001820160405280156107ac5781602001602082028038833980820191505090505b509250600091505b85821015610887576000828154811015156107cb57fe5b9060005260206000209060030201606060405190810160405290816000820154815260200160018201546000191660001916815260200160028201548152505090508060000151858381518110151561082057fe5b90602001906020020181815250508060200151848381518110151561084157fe5b9060200190602002019060001916908160001916815250508060400151838381518110151561086c57fe5b906020019060200201818152505081806001019250506107b4565b848484985098509850505050505050909192565b6000600260009054906101000a900473ffffffffffffffffffffffffffffffffffffffff1673ffffffffffffffffffffffffffffffffffffffff163373ffffffffffffffffffffffffffffffffffffffff161415610980578190508073ffffffffffffffffffffffffffffffffffffffff1663fdacd5766003546040518263ffffffff167c010000000000000000000000000000000000000000000000000000000002815260040180828152602001915050600060405180830381600087803b15801561096757600080fd5b505af115801561097b573d6000803e3d6000fd5b505050505b5050565b6060819050919050565b60405180807f7878730000000000000000000000000000000000000000000000000000000000815250600301905060405180910390a08060046000848152602001908152602001600020819055505050565b6000600354905090565b60006109f582610c4b565b9050919050565b600081815481101515610a0b57fe5b90600052602060002090600302016000915090508060000154908060010154908060020154905083565b60035481565b6060610a66600083815481101515610a4f57fe5b906000526020600020906003020160010154610dbf565b9050919050565b600260009054906101000a900473ffffffffffffffffffffffffffffffffffffffff1681565b600060046000838152602001908152602001600020549050919050565b60606040805190810160405280600e81526020017f68656c6c6f206d73686b2e746f70000000000000000000000000000000000000815250905090565b60006005600083815481101515610b0057fe5b90600052602060002090600302016002015401600083815481101515610b2257fe5b90600052602060002090600302016002018190555060019050919050565b600080610b4b610fbb565b60016000815480929190600101919050559250828160000181815250508481602001906000191690816000191681525050838160400181815250506000819080600181540180825580915050906001820390600052602060002090600302016000909192909190915060008201518160000155602082015181600101906000191690556040820151816002015550505082600192509250509250929050565b600260009054906101000a900473ffffffffffffffffffffffffffffffffffffffff1673ffffffffffffffffffffffffffffffffffffffff163373ffffffffffffffffffffffffffffffffffffffff161415610c4857806003819055505b50565b60008060008060009250600490505b8451811015610db4578481815181101515610c7157fe5b9060200101517f010000000000000000000000000000000000000000000000000000000000000090047f0100000000000000000000000000000000000000000000000000000000000000027f01000000000000000000000000000000000000000000000000000000000000009004915060308210158015610cf25750603a82105b15610d0b576030826004859060020a0201039250610da7565b60618210158015610d1c5750606782105b15610d3857600a6061836004869060020a020103019250610da6565b6040517f08c379a00000000000000000000000000000000000000000000000000000000081526004018080602001828103825260118152602001807f6279746573546f55696e74206572726f7200000000000000000000000000000081525060200191505060405180910390fd5b5b8080600101915050610c5a565b829350505050919050565b6060806000806000606060206040519080825280601f01601f191660200182016040528015610dfd5781602001602082028038833980820191505090505b50945060009350600092505b6020831015610ec7578260080260020a876001900402600102915060007f010000000000000000000000000000000000000000000000000000000000000002827effffffffffffffffffffffffffffffffffffffffffffffffffffffffffffff1916141515610eba57818585815181101515610e8157fe5b9060200101907effffffffffffffffffffffffffffffffffffffffffffffffffffffffffffff1916908160001a90535083806001019450505b8280600101935050610e09565b836040519080825280601f01601f191660200182016040528015610efa5781602001602082028038833980820191505090505b509050600092505b83831015610fae578483815181101515610f1857fe5b9060200101517f010000000000000000000000000000000000000000000000000000000000000090047f0100000000000000000000000000000000000000000000000000000000000000028184815181101515610f7157fe5b9060200101907effffffffffffffffffffffffffffffffffffffffffffffffffffffffffffff1916908160001a9053508280600101935050610f02565b8095505050505050919050565b60606040519081016040528060008152602001600080191681526020016000815250905600a165627a7a7230582019d49e3861189bdfe95b3c9397bf51e7bab8db9883aa7a6204816699af692fc40029",
  "source": "pragma solidity ^0.4.23;\n\nimport './libs/Utils.sol';\nimport './user/User.sol';\n\ncontract Migrations is Users {\n  address public owner;\n  uint public last_completed_migration;\n\n  mapping(uint256 => uint256) data;\n\n  constructor() public {\n    owner = msg.sender;\n  }\n\n  function set(uint256 key, uint256 value) public {\n    log0(\"xxs\");\n    data[key] = value;\n  }\n    \n  function get(uint256 key) view public returns (uint256 value) {\n    value = data[key];\n  }\n\n  function say() public pure returns (string) {\n    return \"hello mshk.top\";\n  }\n\n  function print(string name) public pure returns (string) {\n    return name;\n  }\n\n  function useUtil(bytes _data) public pure returns(uint) {\n    return Utils.bytesToUint(_data);\n  }\n\n  function getMigration() public view returns(uint) {\n    return last_completed_migration;\n  }\n\n  modifier restricted() {\n    if (msg.sender == owner) _;\n  }\n\n  function setCompleted(uint completed) public restricted {\n    last_completed_migration = completed;\n  }\n\n  function upgrade(address new_address) public restricted {\n    Migrations upgraded = Migrations(new_address);\n    upgraded.setCompleted(last_completed_migration);\n  }\n}\n",
  "sourcePath": "D:\\tron\\demo\\truffle-demo\\contracts\\Migrations.sol",
  "compiler": {
    "name": "solc",
    "version": "0.4.24+commit.e67f0147.Emscripten.clang"
  },
  "schemaVersion": "2.0.1",
  "updatedAt": "2018-09-04T09:19:35.965Z"
}