{
  "contractName": "Migrations",
  "abi": [
    {
      "constant": true,
      "inputs": [],
      "name": "getUsers",
      "outputs": [
        {
          "name": "",
          "type": "uint256[]"
        },
        {
          "name": "",
          "type": "bytes32[]"
        },
        {
          "name": "",
          "type": "uint256[]"
        }
      ],
      "payable": false,
      "stateMutability": "view",
      "type": "function"
    },
    {
      "constant": true,
      "inputs": [
        {
          "name": "",
          "type": "uint256"
        }
      ],
      "name": "users",
      "outputs": [
        {
          "name": "id",
          "type": "uint256"
        },
        {
          "name": "name",
          "type": "bytes32"
        },
        {
          "name": "point",
          "type": "uint256"
        }
      ],
      "payable": false,
      "stateMutability": "view",
      "type": "function"
    },
    {
      "constant": true,
      "inputs": [],
      "name": "last_completed_migration",
      "outputs": [
        {
          "name": "",
          "type": "uint256"
        }
      ],
      "payable": false,
      "stateMutability": "view",
      "type": "function"
    },
    {
      "constant": true,
      "inputs": [
        {
          "name": "id",
          "type": "uint256"
        }
      ],
      "name": "getName",
      "outputs": [
        {
          "name": "",
          "type": "string"
        }
      ],
      "payable": false,
      "stateMutability": "view",
      "type": "function"
    },
    {
      "constant": true,
      "inputs": [],
      "name": "owner",
      "outputs": [
        {
          "name": "",
          "type": "address"
        }
      ],
      "payable": false,
      "stateMutability": "view",
      "type": "function"
    },
    {
      "constant": false,
      "inputs": [
        {
          "name": "id",
          "type": "uint256"
        }
      ],
      "name": "plusFive",
      "outputs": [
        {
          "name": "suc",
          "type": "bool"
        }
      ],
      "payable": false,
      "stateMutability": "nonpayable",
      "type": "function"
    },
    {
      "constant": false,
      "inputs": [
        {
          "name": "userName",
          "type": "bytes32"
        },
        {
          "name": "userPoint",
          "type": "uint256"
        }
      ],
      "name": "addUser",
      "outputs": [
        {
          "name": "userID",
          "type": "uint256"
        },
        {
          "name": "success",
          "type": "bool"
        }
      ],
      "payable": false,
      "stateMutability": "nonpayable",
      "type": "function"
    },
    {
      "inputs": [],
      "payable": false,
      "stateMutability": "nonpayable",
      "type": "constructor"
    },
    {
      "constant": false,
      "inputs": [
        {
          "name": "key",
          "type": "uint256"
        },
        {
          "name": "value",
          "type": "uint256"
        }
      ],
      "name": "set",
      "outputs": [],
      "payable": false,
      "stateMutability": "nonpayable",
      "type": "function"
    },
    {
      "constant": true,
      "inputs": [
        {
          "name": "key",
          "type": "uint256"
        }
      ],
      "name": "get",
      "outputs": [
        {
          "name": "value",
          "type": "uint256"
        }
      ],
      "payable": false,
      "stateMutability": "view",
      "type": "function"
    },
    {
      "constant": true,
      "inputs": [],
      "name": "say",
      "outputs": [
        {
          "name": "",
          "type": "string"
        }
      ],
      "payable": false,
      "stateMutability": "pure",
      "type": "function"
    },
    {
      "constant": true,
      "inputs": [
        {
          "name": "name",
          "type": "string"
        }
      ],
      "name": "print",
      "outputs": [
        {
          "name": "",
          "type": "string"
        }
      ],
      "payable": false,
      "stateMutability": "pure",
      "type": "function"
    },
    {
      "constant": true,
      "inputs": [
        {
          "name": "_data",
          "type": "bytes"
        }
      ],
      "name": "useUtil",
      "outputs": [
        {
          "name": "",
          "type": "uint256"
        }
      ],
      "payable": false,
      "stateMutability": "pure",
      "type": "function"
    },
    {
      "constant": true,
      "inputs": [],
      "name": "utilAlgorithm",
      "outputs": [
        {
          "name": "",
          "type": "uint256"
        }
      ],
      "payable": false,
      "stateMutability": "pure",
      "type": "function"
    },
    {
      "constant": true,
      "inputs": [],
      "name": "getMigration",
      "outputs": [
        {
          "name": "",
          "type": "uint256"
        }
      ],
      "payable": false,
      "stateMutability": "view",
      "type": "function"
    },
    {
      "constant": false,
      "inputs": [
        {
          "name": "completed",
          "type": "uint256"
        }
      ],
      "name": "setCompleted",
      "outputs": [],
      "payable": false,
      "stateMutability": "nonpayable",
      "type": "function"
    },
    {
      "constant": false,
      "inputs": [
        {
          "name": "new_address",
          "type": "address"
        }
      ],
      "name": "upgrade",
      "outputs": [],
      "payable": false,
      "stateMutability": "nonpayable",
      "type": "function"
    }
  ],
  "bytecode": "0x608060405234801561001057600080fd5b5033600260006101000a81548173ffffffffffffffffffffffffffffffffffffffff021916908373ffffffffffffffffffffffffffffffffffffffff1602179055506110e4806100616000396000f3006080604052600436106100e5576000357c0100000000000000000000000000000000000000000000000000000000900463ffffffff168062ce8e3e146100ea5780630900f010146101e657806311114af1146102295780631ab06ee51461030b578063223eb640146103425780632c841f581461036d578063365b98b2146103ea578063445df0ac146104415780636b8ff5741461046c5780638da5cb5b146105125780638f282391146105695780639507d39a14610594578063954ab4b2146105d5578063a8293c2814610665578063b69ea684146106aa578063fdacd57614610704575b600080fd5b3480156100f657600080fd5b506100ff610731565b60405180806020018060200180602001848103845287818151815260200191508051906020019060200280838360005b8381101561014a57808201518184015260208101905061012f565b50505050905001848103835286818151815260200191508051906020019060200280838360005b8381101561018c578082015181840152602081019050610171565b50505050905001848103825285818151815260200191508051906020019060200280838360005b838110156101ce5780820151818401526020810190506101b3565b50505050905001965050505050505060405180910390f35b3480156101f257600080fd5b50610227600480360381019080803573ffffffffffffffffffffffffffffffffffffffff1690602001909291905050506108d1565b005b34801561023557600080fd5b50610290600480360381019080803590602001908201803590602001908080601f01602080910402602001604051908101604052809392919081815260200183838082843782019150505050505091929192905050506109ba565b6040518080602001828103825283818151815260200191508051906020019080838360005b838110156102d05780820151818401526020810190506102b5565b50505050905090810190601f1680156102fd5780820380516001836020036101000a031916815260200191505b509250505060405180910390f35b34801561031757600080fd5b5061034060048036038101908080359060200190929190803590602001909291905050506109c4565b005b34801561034e57600080fd5b50610357610a16565b6040518082815260200191505060405180910390f35b34801561037957600080fd5b506103d4600480360381019080803590602001908201803590602001908080601f0160208091040260200160405190810160405280939291908181526020018383808284378201915050505050509192919290505050610a20565b6040518082815260200191505060405180910390f35b3480156103f657600080fd5b5061041560048036038101908080359060200190929190505050610a32565b604051808481526020018360001916600019168152602001828152602001935050505060405180910390f35b34801561044d57600080fd5b50610456610a6b565b6040518082815260200191505060405180910390f35b34801561047857600080fd5b5061049760048036038101908080359060200190929190505050610a71565b6040518080602001828103825283818151815260200191508051906020019080838360005b838110156104d75780820151818401526020810190506104bc565b50505050905090810190601f1680156105045780820380516001836020036101000a031916815260200191505b509250505060405180910390f35b34801561051e57600080fd5b50610527610aa3565b604051808273ffffffffffffffffffffffffffffffffffffffff1673ffffffffffffffffffffffffffffffffffffffff16815260200191505060405180910390f35b34801561057557600080fd5b5061057e610ac9565b6040518082815260200191505060405180910390f35b3480156105a057600080fd5b506105bf60048036038101908080359060200190929190505050610b6b565b6040518082815260200191505060405180910390f35b3480156105e157600080fd5b506105ea610b88565b6040518080602001828103825283818151815260200191508051906020019080838360005b8381101561062a57808201518184015260208101905061060f565b50505050905090810190601f1680156106575780820380516001836020036101000a031916815260200191505b509250505060405180910390f35b34801561067157600080fd5b5061069060048036038101908080359060200190929190505050610bc5565b604051808215151515815260200191505060405180910390f35b3480156106b657600080fd5b506106e3600480360381019080803560001916906020019092919080359060200190929190505050610c18565b60405180838152602001821515151581526020019250505060405180910390f35b34801561071057600080fd5b5061072f60048036038101908080359060200190929190505050610cc2565b005b6060806060600060608060606000610747611093565b60008054905095508560405190808252806020026020018201604052801561077e5781602001602082028038833980820191505090505b509450856040519080825280602002602001820160405280156107b05781602001602082028038833980820191505090505b509350856040519080825280602002602001820160405280156107e25781602001602082028038833980820191505090505b509250600091505b858210156108bd5760008281548110151561080157fe5b9060005260206000209060030201606060405190810160405290816000820154815260200160018201546000191660001916815260200160028201548152505090508060000151858381518110151561085657fe5b90602001906020020181815250508060200151848381518110151561087757fe5b906020019060200201906000191690816000191681525050806040015183838151811015156108a257fe5b906020019060200201818152505081806001019250506107ea565b848484985098509850505050505050909192565b6000600260009054906101000a900473ffffffffffffffffffffffffffffffffffffffff1673ffffffffffffffffffffffffffffffffffffffff163373ffffffffffffffffffffffffffffffffffffffff1614156109b6578190508073ffffffffffffffffffffffffffffffffffffffff1663fdacd5766003546040518263ffffffff167c010000000000000000000000000000000000000000000000000000000002815260040180828152602001915050600060405180830381600087803b15801561099d57600080fd5b505af11580156109b1573d6000803e3d6000fd5b505050505b5050565b6060819050919050565b60405180807f7878730000000000000000000000000000000000000000000000000000000000815250600301905060405180910390a08060046000848152602001908152602001600020819055505050565b6000600354905090565b6000610a2b82610d23565b9050919050565b600081815481101515610a4157fe5b90600052602060002090600302016000915090508060000154908060010154908060020154905083565b60035481565b6060610a9c600083815481101515610a8557fe5b906000526020600020906003020160010154610e97565b9050919050565b600260009054906101000a900473ffffffffffffffffffffffffffffffffffffffff1681565b600073__Utils_________________________________638f2823916040518163ffffffff167c010000000000000000000000000000000000000000000000000000000002815260040160206040518083038186803b158015610b2b57600080fd5b505af4158015610b3f573d6000803e3d6000fd5b505050506040513d6020811015610b5557600080fd5b8101908080519060200190929190505050905090565b600060046000838152602001908152602001600020549050919050565b60606040805190810160405280600e81526020017f68656c6c6f206d73686b2e746f70000000000000000000000000000000000000815250905090565b60006005600083815481101515610bd857fe5b90600052602060002090600302016002015401600083815481101515610bfa57fe5b90600052602060002090600302016002018190555060019050919050565b600080610c23611093565b60016000815480929190600101919050559250828160000181815250508481602001906000191690816000191681525050838160400181815250506000819080600181540180825580915050906001820390600052602060002090600302016000909192909190915060008201518160000155602082015181600101906000191690556040820151816002015550505082600192509250509250929050565b600260009054906101000a900473ffffffffffffffffffffffffffffffffffffffff1673ffffffffffffffffffffffffffffffffffffffff163373ffffffffffffffffffffffffffffffffffffffff161415610d2057806003819055505b50565b60008060008060009250600490505b8451811015610e8c578481815181101515610d4957fe5b9060200101517f010000000000000000000000000000000000000000000000000000000000000090047f0100000000000000000000000000000000000000000000000000000000000000027f01000000000000000000000000000000000000000000000000000000000000009004915060308210158015610dca5750603a82105b15610de3576030826004859060020a0201039250610e7f565b60618210158015610df45750606782105b15610e1057600a6061836004869060020a020103019250610e7e565b6040517f08c379a00000000000000000000000000000000000000000000000000000000081526004018080602001828103825260118152602001807f6279746573546f55696e74206572726f7200000000000000000000000000000081525060200191505060405180910390fd5b5b8080600101915050610d32565b829350505050919050565b6060806000806000606060206040519080825280601f01601f191660200182016040528015610ed55781602001602082028038833980820191505090505b50945060009350600092505b6020831015610f9f578260080260020a876001900402600102915060007f010000000000000000000000000000000000000000000000000000000000000002827effffffffffffffffffffffffffffffffffffffffffffffffffffffffffffff1916141515610f9257818585815181101515610f5957fe5b9060200101907effffffffffffffffffffffffffffffffffffffffffffffffffffffffffffff1916908160001a90535083806001019450505b8280600101935050610ee1565b836040519080825280601f01601f191660200182016040528015610fd25781602001602082028038833980820191505090505b509050600092505b83831015611086578483815181101515610ff057fe5b9060200101517f010000000000000000000000000000000000000000000000000000000000000090047f010000000000000000000000000000000000000000000000000000000000000002818481518110151561104957fe5b9060200101907effffffffffffffffffffffffffffffffffffffffffffffffffffffffffffff1916908160001a9053508280600101935050610fda565b8095505050505050919050565b60606040519081016040528060008152602001600080191681526020016000815250905600a165627a7a723058209fa9aff9e9f274fb69c34a791cc9500a5c8f789b87a5899bac545a43ab0845e00029",
  "source": "pragma solidity ^0.4.23;\n\nimport './libs/Utils.sol';\nimport './user/User.sol';\n\ncontract Migrations is Users {\n  address public owner;\n  uint public last_completed_migration;\n\n  mapping(uint256 => uint256) data;\n\n  constructor() public {\n    owner = msg.sender;\n  }\n\n  function set(uint256 key, uint256 value) public {\n    log0(\"xxs\");\n    data[key] = value;\n  }\n    \n  function get(uint256 key) view public returns (uint256 value) {\n    value = data[key];\n  }\n\n  function say() public pure returns (string) {\n    return \"hello mshk.top\";\n  }\n\n  function print(string name) public pure returns (string) {\n    return name;\n  }\n\n  function useUtil(bytes _data) public pure returns(uint) {\n    return Utils.bytesToUint(_data);\n  }\n\n  function utilAlgorithm() public pure returns(uint) {\n    return Utils.utilAlgorithm();\n  }\n\n  function getMigration() public view returns(uint) {\n    return last_completed_migration;\n  }\n\n  modifier restricted() {\n    if (msg.sender == owner) _;\n  }\n\n  function setCompleted(uint completed) public restricted {\n    last_completed_migration = completed;\n  }\n\n  function upgrade(address new_address) public restricted {\n    Migrations upgraded = Migrations(new_address);\n    upgraded.setCompleted(last_completed_migration);\n  }\n}\n",
  "sourcePath": "D:\\codebase\\blockchain\\ganacheDemo\\accountTron\\demo\\truffle-demo\\contracts\\Migrations.sol",
  "compiler": {
    "name": "solc",
    "version": "0.4.24+commit.e67f0147.Emscripten.clang"
  },
  "schemaVersion": "2.0.1",
  "updatedAt": "2018-10-22T03:23:39.281Z"
}