{
  "contractName": "Migrations",
  "abi": [
    {
      "constant": true,
      "inputs": [],
      "name": "getUsers",
      "outputs": [
        {
          "name": "",
          "type": "uint256[]"
        },
        {
          "name": "",
          "type": "bytes32[]"
        },
        {
          "name": "",
          "type": "uint256[]"
        }
      ],
      "payable": false,
      "stateMutability": "view",
      "type": "function"
    },
    {
      "constant": true,
      "inputs": [],
      "name": "getName",
      "outputs": [
        {
          "name": "",
          "type": "string"
        }
      ],
      "payable": false,
      "stateMutability": "pure",
      "type": "function"
    },
    {
      "constant": true,
      "inputs": [
        {
          "name": "",
          "type": "uint256"
        }
      ],
      "name": "users",
      "outputs": [
        {
          "name": "id",
          "type": "uint256"
        },
        {
          "name": "name",
          "type": "bytes32"
        },
        {
          "name": "point",
          "type": "uint256"
        }
      ],
      "payable": false,
      "stateMutability": "view",
      "type": "function"
    },
    {
      "constant": true,
      "inputs": [],
      "name": "last_completed_migration",
      "outputs": [
        {
          "name": "",
          "type": "uint256"
        }
      ],
      "payable": false,
      "stateMutability": "view",
      "type": "function"
    },
    {
      "constant": true,
      "inputs": [],
      "name": "utils",
      "outputs": [
        {
          "name": "",
          "type": "address"
        }
      ],
      "payable": false,
      "stateMutability": "view",
      "type": "function"
    },
    {
      "constant": true,
      "inputs": [],
      "name": "owner",
      "outputs": [
        {
          "name": "",
          "type": "address"
        }
      ],
      "payable": false,
      "stateMutability": "view",
      "type": "function"
    },
    {
      "constant": false,
      "inputs": [
        {
          "name": "id",
          "type": "uint256"
        }
      ],
      "name": "plusFive",
      "outputs": [
        {
          "name": "suc",
          "type": "bool"
        }
      ],
      "payable": false,
      "stateMutability": "nonpayable",
      "type": "function"
    },
    {
      "constant": false,
      "inputs": [
        {
          "name": "userName",
          "type": "bytes32"
        },
        {
          "name": "userPoint",
          "type": "uint256"
        }
      ],
      "name": "addUser",
      "outputs": [
        {
          "name": "userID",
          "type": "uint256"
        },
        {
          "name": "success",
          "type": "bool"
        }
      ],
      "payable": false,
      "stateMutability": "nonpayable",
      "type": "function"
    },
    {
      "inputs": [],
      "payable": false,
      "stateMutability": "nonpayable",
      "type": "constructor"
    },
    {
      "constant": false,
      "inputs": [
        {
          "name": "_addr",
          "type": "address"
        }
      ],
      "name": "setGeneticAlgorithmAddress",
      "outputs": [],
      "payable": false,
      "stateMutability": "nonpayable",
      "type": "function"
    },
    {
      "constant": false,
      "inputs": [
        {
          "name": "key",
          "type": "uint256"
        },
        {
          "name": "value",
          "type": "uint256"
        }
      ],
      "name": "set",
      "outputs": [],
      "payable": false,
      "stateMutability": "nonpayable",
      "type": "function"
    },
    {
      "constant": true,
      "inputs": [
        {
          "name": "key",
          "type": "uint256"
        }
      ],
      "name": "get",
      "outputs": [
        {
          "name": "value",
          "type": "uint256"
        }
      ],
      "payable": false,
      "stateMutability": "view",
      "type": "function"
    },
    {
      "constant": true,
      "inputs": [],
      "name": "say",
      "outputs": [
        {
          "name": "",
          "type": "string"
        }
      ],
      "payable": false,
      "stateMutability": "pure",
      "type": "function"
    },
    {
      "constant": true,
      "inputs": [
        {
          "name": "name",
          "type": "string"
        }
      ],
      "name": "print",
      "outputs": [
        {
          "name": "",
          "type": "string"
        }
      ],
      "payable": false,
      "stateMutability": "pure",
      "type": "function"
    },
    {
      "constant": true,
      "inputs": [
        {
          "name": "_data",
          "type": "bytes"
        }
      ],
      "name": "useUtil",
      "outputs": [
        {
          "name": "",
          "type": "uint256"
        }
      ],
      "payable": false,
      "stateMutability": "view",
      "type": "function"
    },
    {
      "constant": true,
      "inputs": [],
      "name": "utilAlgorithm",
      "outputs": [
        {
          "name": "",
          "type": "uint256"
        }
      ],
      "payable": false,
      "stateMutability": "view",
      "type": "function"
    },
    {
      "constant": true,
      "inputs": [],
      "name": "getMigration",
      "outputs": [
        {
          "name": "",
          "type": "uint256"
        }
      ],
      "payable": false,
      "stateMutability": "view",
      "type": "function"
    },
    {
      "constant": false,
      "inputs": [
        {
          "name": "completed",
          "type": "uint256"
        }
      ],
      "name": "setCompleted",
      "outputs": [],
      "payable": false,
      "stateMutability": "nonpayable",
      "type": "function"
    },
    {
      "constant": false,
      "inputs": [
        {
          "name": "new_address",
          "type": "address"
        }
      ],
      "name": "upgrade",
      "outputs": [],
      "payable": false,
      "stateMutability": "nonpayable",
      "type": "function"
    }
  ],
  "bytecode": "0x608060405234801561001057600080fd5b5033600360006101000a81548173ffffffffffffffffffffffffffffffffffffffff021916908373ffffffffffffffffffffffffffffffffffffffff160217905550610fdc806100616000396000f3006080604052600436106100fb576000357c0100000000000000000000000000000000000000000000000000000000900463ffffffff168062ce8e3e146101005780630900f010146101fc57806311114af11461023f578063169365dd1461032157806317d7de7c146103645780631ab06ee5146103f4578063223eb6401461042b5780632c841f5814610456578063365b98b2146104d3578063445df0ac1461052a5780635a29638d146105555780638da5cb5b146105ac5780638f282391146106035780639507d39a1461062e578063954ab4b21461066f578063a8293c28146106ff578063b69ea68414610744578063fdacd5761461079e575b600080fd5b34801561010c57600080fd5b506101156107cb565b60405180806020018060200180602001848103845287818151815260200191508051906020019060200280838360005b83811015610160578082015181840152602081019050610145565b50505050905001848103835286818151815260200191508051906020019060200280838360005b838110156101a2578082015181840152602081019050610187565b50505050905001848103825285818151815260200191508051906020019060200280838360005b838110156101e45780820151818401526020810190506101c9565b50505050905001965050505050505060405180910390f35b34801561020857600080fd5b5061023d600480360381019080803573ffffffffffffffffffffffffffffffffffffffff16906020019092919050505061096b565b005b34801561024b57600080fd5b506102a6600480360381019080803590602001908201803590602001908080601f0160208091040260200160405190810160405280939291908181526020018383808284378201915050505050509192919290505050610a54565b6040518080602001828103825283818151815260200191508051906020019080838360005b838110156102e65780820151818401526020810190506102cb565b50505050905090810190601f1680156103135780820380516001836020036101000a031916815260200191505b509250505060405180910390f35b34801561032d57600080fd5b50610362600480360381019080803573ffffffffffffffffffffffffffffffffffffffff169060200190929190505050610a5e565b005b34801561037057600080fd5b50610379610aa8565b6040518080602001828103825283818151815260200191508051906020019080838360005b838110156103b957808201518184015260208101905061039e565b50505050905090810190601f1680156103e65780820380516001836020036101000a031916815260200191505b509250505060405180910390f35b34801561040057600080fd5b506104296004803603810190808035906020019092919080359060200190929190505050610ae5565b005b34801561043757600080fd5b50610440610b37565b6040518082815260200191505060405180910390f35b34801561046257600080fd5b506104bd600480360381019080803590602001908201803590602001908080601f0160208091040260200160405190810160405280939291908181526020018383808284378201915050505050509192919290505050610b41565b6040518082815260200191505060405180910390f35b3480156104df57600080fd5b506104fe60048036038101908080359060200190929190505050610c80565b604051808481526020018360001916600019168152602001828152602001935050505060405180910390f35b34801561053657600080fd5b5061053f610cb9565b6040518082815260200191505060405180910390f35b34801561056157600080fd5b5061056a610cbf565b604051808273ffffffffffffffffffffffffffffffffffffffff1673ffffffffffffffffffffffffffffffffffffffff16815260200191505060405180910390f35b3480156105b857600080fd5b506105c1610ce5565b604051808273ffffffffffffffffffffffffffffffffffffffff1673ffffffffffffffffffffffffffffffffffffffff16815260200191505060405180910390f35b34801561060f57600080fd5b50610618610d0b565b6040518082815260200191505060405180910390f35b34801561063a57600080fd5b5061065960048036038101908080359060200190929190505050610dd3565b6040518082815260200191505060405180910390f35b34801561067b57600080fd5b50610684610df0565b6040518080602001828103825283818151815260200191508051906020019080838360005b838110156106c45780820151818401526020810190506106a9565b50505050905090810190601f1680156106f15780820380516001836020036101000a031916815260200191505b509250505060405180910390f35b34801561070b57600080fd5b5061072a60048036038101908080359060200190929190505050610e2d565b604051808215151515815260200191505060405180910390f35b34801561075057600080fd5b5061077d600480360381019080803560001916906020019092919080359060200190929190505050610e80565b60405180838152602001821515151581526020019250505060405180910390f35b3480156107aa57600080fd5b506107c960048036038101908080359060200190929190505050610f2a565b005b60608060606000606080606060006107e1610f8b565b6000805490509550856040519080825280602002602001820160405280156108185781602001602082028038833980820191505090505b5094508560405190808252806020026020018201604052801561084a5781602001602082028038833980820191505090505b5093508560405190808252806020026020018201604052801561087c5781602001602082028038833980820191505090505b509250600091505b858210156109575760008281548110151561089b57fe5b906000526020600020906003020160606040519081016040529081600082015481526020016001820154600019166000191681526020016002820154815250509050806000015185838151811015156108f057fe5b90602001906020020181815250508060200151848381518110151561091157fe5b9060200190602002019060001916908160001916815250508060400151838381518110151561093c57fe5b90602001906020020181815250508180600101925050610884565b848484985098509850505050505050909192565b6000600360009054906101000a900473ffffffffffffffffffffffffffffffffffffffff1673ffffffffffffffffffffffffffffffffffffffff163373ffffffffffffffffffffffffffffffffffffffff161415610a50578190508073ffffffffffffffffffffffffffffffffffffffff1663fdacd5766004546040518263ffffffff167c010000000000000000000000000000000000000000000000000000000002815260040180828152602001915050600060405180830381600087803b158015610a3757600080fd5b505af1158015610a4b573d6000803e3d6000fd5b505050505b5050565b6060819050919050565b600081905080600260006101000a81548173ffffffffffffffffffffffffffffffffffffffff021916908373ffffffffffffffffffffffffffffffffffffffff1602179055505050565b60606040805190810160405280600781526020017f6765744e616d6500000000000000000000000000000000000000000000000000815250905090565b60405180807f7878730000000000000000000000000000000000000000000000000000000000815250600301905060405180910390a08060056000848152602001908152602001600020819055505050565b6000600454905090565b600080600260009054906101000a900473ffffffffffffffffffffffffffffffffffffffff1673ffffffffffffffffffffffffffffffffffffffff166302d06d05846040518263ffffffff167c01000000000000000000000000000000000000000000000000000000000281526004018080602001828103825283818151815260200191508051906020019080838360005b83811015610bee578082015181840152602081019050610bd3565b50505050905090810190601f168015610c1b5780820380516001836020036101000a031916815260200191505b5092505050602060405180830381600087803b158015610c3a57600080fd5b505af1158015610c4e573d6000803e3d6000fd5b505050506040513d6020811015610c6457600080fd5b8101908080519060200190929190505050905080915050919050565b600081815481101515610c8f57fe5b90600052602060002090600302016000915090508060000154908060010154908060020154905083565b60045481565b600260009054906101000a900473ffffffffffffffffffffffffffffffffffffffff1681565b600360009054906101000a900473ffffffffffffffffffffffffffffffffffffffff1681565b6000600260009054906101000a900473ffffffffffffffffffffffffffffffffffffffff1673ffffffffffffffffffffffffffffffffffffffff16638f2823916040518163ffffffff167c0100000000000000000000000000000000000000000000000000000000028152600401602060405180830381600087803b158015610d9357600080fd5b505af1158015610da7573d6000803e3d6000fd5b505050506040513d6020811015610dbd57600080fd5b8101908080519060200190929190505050905090565b600060056000838152602001908152602001600020549050919050565b60606040805190810160405280600e81526020017f68656c6c6f206d73686b2e746f70000000000000000000000000000000000000815250905090565b60006005600083815481101515610e4057fe5b90600052602060002090600302016002015401600083815481101515610e6257fe5b90600052602060002090600302016002018190555060019050919050565b600080610e8b610f8b565b60016000815480929190600101919050559250828160000181815250508481602001906000191690816000191681525050838160400181815250506000819080600181540180825580915050906001820390600052602060002090600302016000909192909190915060008201518160000155602082015181600101906000191690556040820151816002015550505082600192509250509250929050565b600360009054906101000a900473ffffffffffffffffffffffffffffffffffffffff1673ffffffffffffffffffffffffffffffffffffffff163373ffffffffffffffffffffffffffffffffffffffff161415610f8857806004819055505b50565b60606040519081016040528060008152602001600080191681526020016000815250905600a165627a7a7230582033c5c0bf3a8d200c019fed05bc732659c2d9ae4bba11d5cdee032babafeb06b80029",
  "source": "pragma solidity ^0.4.23;\n\nimport './libs/Utils.sol';\nimport './user/User.sol';\n\ncontract Migrations is Users {\n  Utils public utils;\n  address public owner;\n  uint public last_completed_migration;\n\n  mapping(uint256 => uint256) data;\n\n  constructor() public {\n    owner = msg.sender;\n  }\n\n  function setGeneticAlgorithmAddress(address _addr) public {\n        Utils candidateContract = Utils(_addr);\n        utils = candidateContract;\n    }\n\n  function set(uint256 key, uint256 value) public {\n    log0(\"xxs\");\n    data[key] = value;\n  }\n    \n  function get(uint256 key) view public returns (uint256 value) {\n    value = data[key];\n  }\n\n  function say() public pure returns (string) {\n    return \"hello mshk.top\";\n  }\n\n  function print(string name) public pure returns (string) {\n    return name;\n  }\n\n  function useUtil(bytes _data) public view returns(uint) {\n    uint va = utils.bytesToUint(_data);\n    return va;\n  }\n\n  function utilAlgorithm() public view returns(uint) {\n    return utils.utilAlgorithm();\n  }\n\n  function getMigration() public view returns(uint) {\n    return last_completed_migration;\n  }\n\n  modifier restricted() {\n    if (msg.sender == owner) _;\n  }\n\n  function setCompleted(uint completed) public restricted {\n    last_completed_migration = completed;\n  }\n\n  function upgrade(address new_address) public restricted {\n    Migrations upgraded = Migrations(new_address);\n    upgraded.setCompleted(last_completed_migration);\n  }\n}\n",
  "sourcePath": "D:\\codebase\\blockchain\\ganacheDemo\\accountTron\\demo\\truffle-demo\\contracts\\Migrations.sol",
  "compiler": {
    "name": "solc",
    "version": "0.4.24+commit.e67f0147.Emscripten.clang"
  },
  "schemaVersion": "2.0.1",
  "updatedAt": "2018-10-22T04:37:50.892Z"
}