{
  "contractName": "Users",
  "abi": [
    {
      "constant": true,
      "inputs": [
        {
          "name": "",
          "type": "uint256"
        }
      ],
      "name": "users",
      "outputs": [
        {
          "name": "id",
          "type": "uint256"
        },
        {
          "name": "name",
          "type": "bytes32"
        },
        {
          "name": "point",
          "type": "uint256"
        }
      ],
      "payable": false,
      "stateMutability": "view",
      "type": "function"
    },
    {
      "constant": false,
      "inputs": [
        {
          "name": "userName",
          "type": "bytes32"
        },
        {
          "name": "userPoint",
          "type": "uint256"
        }
      ],
      "name": "addUser",
      "outputs": [
        {
          "name": "userID",
          "type": "uint256"
        },
        {
          "name": "success",
          "type": "bool"
        }
      ],
      "payable": false,
      "stateMutability": "nonpayable",
      "type": "function"
    },
    {
      "constant": true,
      "inputs": [],
      "name": "getUsers",
      "outputs": [
        {
          "name": "",
          "type": "uint256[]"
        },
        {
          "name": "",
          "type": "bytes32[]"
        },
        {
          "name": "",
          "type": "uint256[]"
        }
      ],
      "payable": false,
      "stateMutability": "view",
      "type": "function"
    },
    {
      "constant": false,
      "inputs": [
        {
          "name": "id",
          "type": "uint256"
        }
      ],
      "name": "plusFive",
      "outputs": [
        {
          "name": "suc",
          "type": "bool"
        }
      ],
      "payable": false,
      "stateMutability": "nonpayable",
      "type": "function"
    },
    {
      "constant": true,
      "inputs": [
        {
          "name": "id",
          "type": "uint256"
        }
      ],
      "name": "getName",
      "outputs": [
        {
          "name": "",
          "type": "string"
        }
      ],
      "payable": false,
      "stateMutability": "view",
      "type": "function"
    }
  ],
  "bytecode": "0x608060405234801561001057600080fd5b5061085e806100206000396000f30060806040526004361061006c576000357c0100000000000000000000000000000000000000000000000000000000900463ffffffff168062ce8e3e14610071578063365b98b21461016d5780636b8ff574146101c4578063a8293c281461026a578063b69ea684146102af575b600080fd5b34801561007d57600080fd5b50610086610309565b60405180806020018060200180602001848103845287818151815260200191508051906020019060200280838360005b838110156100d15780820151818401526020810190506100b6565b50505050905001848103835286818151815260200191508051906020019060200280838360005b838110156101135780820151818401526020810190506100f8565b50505050905001848103825285818151815260200191508051906020019060200280838360005b8381101561015557808201518184015260208101905061013a565b50505050905001965050505050505060405180910390f35b34801561017957600080fd5b50610198600480360381019080803590602001909291905050506104a9565b604051808481526020018360001916600019168152602001828152602001935050505060405180910390f35b3480156101d057600080fd5b506101ef600480360381019080803590602001909291905050506104e2565b6040518080602001828103825283818151815260200191508051906020019080838360005b8381101561022f578082015181840152602081019050610214565b50505050905090810190601f16801561025c5780820380516001836020036101000a031916815260200191505b509250505060405180910390f35b34801561027657600080fd5b5061029560048036038101908080359060200190929190505050610514565b604051808215151515815260200191505060405180910390f35b3480156102bb57600080fd5b506102e8600480360381019080803560001916906020019092919080359060200190929190505050610567565b60405180838152602001821515151581526020019250505060405180910390f35b606080606060006060806060600061031f61080d565b6000805490509550856040519080825280602002602001820160405280156103565781602001602082028038833980820191505090505b509450856040519080825280602002602001820160405280156103885781602001602082028038833980820191505090505b509350856040519080825280602002602001820160405280156103ba5781602001602082028038833980820191505090505b509250600091505b85821015610495576000828154811015156103d957fe5b9060005260206000209060030201606060405190810160405290816000820154815260200160018201546000191660001916815260200160028201548152505090508060000151858381518110151561042e57fe5b90602001906020020181815250508060200151848381518110151561044f57fe5b9060200190602002019060001916908160001916815250508060400151838381518110151561047a57fe5b906020019060200201818152505081806001019250506103c2565b848484985098509850505050505050909192565b6000818154811015156104b857fe5b90600052602060002090600302016000915090508060000154908060010154908060020154905083565b606061050d6000838154811015156104f657fe5b906000526020600020906003020160010154610611565b9050919050565b6000600560008381548110151561052757fe5b9060005260206000209060030201600201540160008381548110151561054957fe5b90600052602060002090600302016002018190555060019050919050565b60008061057261080d565b60016000815480929190600101919050559250828160000181815250508481602001906000191690816000191681525050838160400181815250506000819080600181540180825580915050906001820390600052602060002090600302016000909192909190915060008201518160000155602082015181600101906000191690556040820151816002015550505082600192509250509250929050565b6060806000806000606060206040519080825280601f01601f19166020018201604052801561064f5781602001602082028038833980820191505090505b50945060009350600092505b6020831015610719578260080260020a876001900402600102915060007f010000000000000000000000000000000000000000000000000000000000000002827effffffffffffffffffffffffffffffffffffffffffffffffffffffffffffff191614151561070c578185858151811015156106d357fe5b9060200101907effffffffffffffffffffffffffffffffffffffffffffffffffffffffffffff1916908160001a90535083806001019450505b828060010193505061065b565b836040519080825280601f01601f19166020018201604052801561074c5781602001602082028038833980820191505090505b509050600092505b8383101561080057848381518110151561076a57fe5b9060200101517f010000000000000000000000000000000000000000000000000000000000000090047f01000000000000000000000000000000000000000000000000000000000000000281848151811015156107c357fe5b9060200101907effffffffffffffffffffffffffffffffffffffffffffffffffffffffffffff1916908160001a9053508280600101935050610754565b8095505050505050919050565b60606040519081016040528060008152602001600080191681526020016000815250905600a165627a7a723058202e4d4aa8b0cbfd99e1659b3b2690847fdecd5e098b1e03b65c952977d702c5bf0029",
  "source": "pragma solidity ^0.4.23;\r\n\r\n// pragma experimental ABIEncoderV2;\r\n\r\nimport \"../libs/Utils.sol\";\r\n\r\ncontract Users {\r\n    struct Participant {\r\n        uint id;\r\n        bytes32 name;\r\n        uint point;\r\n    }\r\n\r\n    Participant[] public users;\r\n    uint userCount;\r\n    function addUser(bytes32 userName, uint userPoint) public returns (uint userID, bool success) {\r\n        userID = userCount++;\r\n        Participant memory newUser;\r\n        newUser.id = userID;\r\n        newUser.name = userName;\r\n        newUser.point = userPoint;\r\n        users.push(newUser);\r\n        return (userID, true);\r\n    }\r\n\r\n    function getUsers() public view returns (uint[], bytes32[], uint[]) {\r\n        uint length = users.length;\r\n        uint[] memory usersID = new uint[](length);\r\n        bytes32[] memory userNames = new bytes32[](length);\r\n        uint[] memory userPoints = new uint[](length);\r\n        for (uint i = 0; i < length; i++) {\r\n            Participant memory showUser;\r\n            showUser = users[i];\r\n            usersID[i] = showUser.id;\r\n            userNames[i] = showUser.name;\r\n            userPoints[i] = showUser.point;\r\n        }\r\n        return (usersID, userNames, userPoints);\r\n    }\r\n\r\n    function plusFive(uint id) public returns (bool suc) {\r\n        users[id].point = users[id].point + 5;\r\n        return true;\r\n    }\r\n\r\n    function getName(uint id) public view returns (string) {\r\n        return Utils.bytesToString(users[id].name);\r\n    }\r\n}",
  "sourcePath": "D:\\codebase\\blockchain\\ganacheDemo\\accountTron\\demo\\truffle-demo\\contracts\\user\\User.sol",
  "compiler": {
    "name": "solc",
    "version": "0.4.24+commit.e67f0147.Emscripten.clang"
  },
  "schemaVersion": "2.0.1",
  "updatedAt": "2018-10-22T03:23:39.140Z"
}