{
  "contractName": "Users",
  "abi": [
    {
      "constant": true,
      "inputs": [
        {
          "name": "",
          "type": "uint256"
        }
      ],
      "name": "users",
      "outputs": [
        {
          "name": "id",
          "type": "uint256"
        },
        {
          "name": "name",
          "type": "bytes32"
        },
        {
          "name": "point",
          "type": "uint256"
        }
      ],
      "payable": false,
      "stateMutability": "view",
      "type": "function"
    },
    {
      "constant": false,
      "inputs": [
        {
          "name": "userName",
          "type": "bytes32"
        },
        {
          "name": "userPoint",
          "type": "uint256"
        }
      ],
      "name": "addUser",
      "outputs": [
        {
          "name": "userID",
          "type": "uint256"
        },
        {
          "name": "success",
          "type": "bool"
        }
      ],
      "payable": false,
      "stateMutability": "nonpayable",
      "type": "function"
    },
    {
      "constant": true,
      "inputs": [],
      "name": "getUsers",
      "outputs": [
        {
          "name": "",
          "type": "uint256[]"
        },
        {
          "name": "",
          "type": "bytes32[]"
        },
        {
          "name": "",
          "type": "uint256[]"
        }
      ],
      "payable": false,
      "stateMutability": "view",
      "type": "function"
    },
    {
      "constant": false,
      "inputs": [
        {
          "name": "id",
          "type": "uint256"
        }
      ],
      "name": "plusFive",
      "outputs": [
        {
          "name": "suc",
          "type": "bool"
        }
      ],
      "payable": false,
      "stateMutability": "nonpayable",
      "type": "function"
    },
    {
      "constant": true,
      "inputs": [],
      "name": "getName",
      "outputs": [
        {
          "name": "",
          "type": "string"
        }
      ],
      "payable": false,
      "stateMutability": "pure",
      "type": "function"
    }
  ],
  "bytecode": "0x608060405234801561001057600080fd5b50610657806100206000396000f30060806040526004361061006c576000357c0100000000000000000000000000000000000000000000000000000000900463ffffffff168062ce8e3e1461007157806317d7de7c1461016d578063365b98b2146101fd578063a8293c2814610254578063b69ea68414610299575b600080fd5b34801561007d57600080fd5b506100866102f3565b60405180806020018060200180602001848103845287818151815260200191508051906020019060200280838360005b838110156100d15780820151818401526020810190506100b6565b50505050905001848103835286818151815260200191508051906020019060200280838360005b838110156101135780820151818401526020810190506100f8565b50505050905001848103825285818151815260200191508051906020019060200280838360005b8381101561015557808201518184015260208101905061013a565b50505050905001965050505050505060405180910390f35b34801561017957600080fd5b50610182610493565b6040518080602001828103825283818151815260200191508051906020019080838360005b838110156101c25780820151818401526020810190506101a7565b50505050905090810190601f1680156101ef5780820380516001836020036101000a031916815260200191505b509250505060405180910390f35b34801561020957600080fd5b50610228600480360381019080803590602001909291905050506104d0565b604051808481526020018360001916600019168152602001828152602001935050505060405180910390f35b34801561026057600080fd5b5061027f60048036038101908080359060200190929190505050610509565b604051808215151515815260200191505060405180910390f35b3480156102a557600080fd5b506102d260048036038101908080356000191690602001909291908035906020019092919050505061055c565b60405180838152602001821515151581526020019250505060405180910390f35b6060806060600060608060606000610309610606565b6000805490509550856040519080825280602002602001820160405280156103405781602001602082028038833980820191505090505b509450856040519080825280602002602001820160405280156103725781602001602082028038833980820191505090505b509350856040519080825280602002602001820160405280156103a45781602001602082028038833980820191505090505b509250600091505b8582101561047f576000828154811015156103c357fe5b9060005260206000209060030201606060405190810160405290816000820154815260200160018201546000191660001916815260200160028201548152505090508060000151858381518110151561041857fe5b90602001906020020181815250508060200151848381518110151561043957fe5b9060200190602002019060001916908160001916815250508060400151838381518110151561046457fe5b906020019060200201818152505081806001019250506103ac565b848484985098509850505050505050909192565b60606040805190810160405280600781526020017f6765744e616d6500000000000000000000000000000000000000000000000000815250905090565b6000818154811015156104df57fe5b90600052602060002090600302016000915090508060000154908060010154908060020154905083565b6000600560008381548110151561051c57fe5b9060005260206000209060030201600201540160008381548110151561053e57fe5b90600052602060002090600302016002018190555060019050919050565b600080610567610606565b60016000815480929190600101919050559250828160000181815250508481602001906000191690816000191681525050838160400181815250506000819080600181540180825580915050906001820390600052602060002090600302016000909192909190915060008201518160000155602082015181600101906000191690556040820151816002015550505082600192509250509250929050565b60606040519081016040528060008152602001600080191681526020016000815250905600a165627a7a7230582096d99ac5605502e425aca2e5d457a7c2c29e0507c4d5fa54b61513a8d4fba7210029",
  "source": "pragma solidity ^0.4.23;\r\n\r\n// pragma experimental ABIEncoderV2;\r\n\r\nimport \"../libs/Utils.sol\";\r\n\r\ncontract Users {\r\n    struct Participant {\r\n        uint id;\r\n        bytes32 name;\r\n        uint point;\r\n    }\r\n\r\n    Participant[] public users;\r\n    uint userCount;\r\n    function addUser(bytes32 userName, uint userPoint) public returns (uint userID, bool success) {\r\n        userID = userCount++;\r\n        Participant memory newUser;\r\n        newUser.id = userID;\r\n        newUser.name = userName;\r\n        newUser.point = userPoint;\r\n        users.push(newUser);\r\n        return (userID, true);\r\n    }\r\n\r\n    function getUsers() public view returns (uint[], bytes32[], uint[]) {\r\n        uint length = users.length;\r\n        uint[] memory usersID = new uint[](length);\r\n        bytes32[] memory userNames = new bytes32[](length);\r\n        uint[] memory userPoints = new uint[](length);\r\n        for (uint i = 0; i < length; i++) {\r\n            Participant memory showUser;\r\n            showUser = users[i];\r\n            usersID[i] = showUser.id;\r\n            userNames[i] = showUser.name;\r\n            userPoints[i] = showUser.point;\r\n        }\r\n        return (usersID, userNames, userPoints);\r\n    }\r\n\r\n    function plusFive(uint id) public returns (bool suc) {\r\n        users[id].point = users[id].point + 5;\r\n        return true;\r\n    }\r\n\r\n    function getName() public pure returns (string) {\r\n        return \"getName\";\r\n    }\r\n}",
  "sourcePath": "D:\\codebase\\blockchain\\ganacheDemo\\accountTron\\demo\\truffle-demo\\contracts\\user\\User.sol",
  "compiler": {
    "name": "solc",
    "version": "0.4.24+commit.e67f0147.Emscripten.clang"
  },
  "schemaVersion": "2.0.1",
  "updatedAt": "2018-10-22T05:51:20.158Z"
}