{
  "contractName": "Users",
  "abi": [
    {
      "constant": true,
      "inputs": [
        {
          "name": "",
          "type": "uint256"
        }
      ],
      "name": "users",
      "outputs": [
        {
          "name": "id",
          "type": "uint256"
        },
        {
          "name": "name",
          "type": "bytes32"
        },
        {
          "name": "point",
          "type": "uint256"
        }
      ],
      "payable": false,
      "stateMutability": "view",
      "type": "function"
    },
    {
      "constant": false,
      "inputs": [
        {
          "name": "userName",
          "type": "bytes32"
        },
        {
          "name": "userPoint",
          "type": "uint256"
        }
      ],
      "name": "addUser",
      "outputs": [
        {
          "name": "userID",
          "type": "uint256"
        },
        {
          "name": "success",
          "type": "bool"
        }
      ],
      "payable": false,
      "stateMutability": "nonpayable",
      "type": "function"
    },
    {
      "constant": true,
      "inputs": [],
      "name": "getUsers",
      "outputs": [
        {
          "name": "",
          "type": "uint256[]"
        },
        {
          "name": "",
          "type": "bytes32[]"
        },
        {
          "name": "",
          "type": "uint256[]"
        }
      ],
      "payable": false,
      "stateMutability": "view",
      "type": "function"
    },
    {
      "constant": false,
      "inputs": [
        {
          "name": "id",
          "type": "uint256"
        }
      ],
      "name": "plusFive",
      "outputs": [
        {
          "name": "suc",
          "type": "bool"
        }
      ],
      "payable": false,
      "stateMutability": "nonpayable",
      "type": "function"
    },
    {
      "constant": true,
      "inputs": [
        {
          "name": "id",
          "type": "uint256"
        }
      ],
      "name": "getName",
      "outputs": [
        {
          "name": "",
          "type": "string"
        }
      ],
      "payable": false,
      "stateMutability": "view",
      "type": "function"
    }
  ],
  "bytecode": "0x608060405234801561001057600080fd5b50610a54806100206000396000f30060806040526004361061006c576000357c0100000000000000000000000000000000000000000000000000000000900463ffffffff168062ce8e3e14610071578063365b98b21461009e5780636b8ff574146100dd578063a8293c281461011a578063b69ea68414610157575b600080fd5b34801561007d57600080fd5b50610086610195565b60405161009593929190610864565b60405180910390f35b3480156100aa57600080fd5b506100c560048036036100c09190810190610722565b610335565b6040516100d493929190610916565b60405180910390f35b3480156100e957600080fd5b5061010460048036036100ff9190810190610722565b61036e565b60405161011191906108cb565b60405180910390f35b34801561012657600080fd5b50610141600480360361013c9190810190610722565b6103a0565b60405161014e91906108b0565b60405180910390f35b34801561016357600080fd5b5061017e600480360361017991908101906106e6565b6103f3565b60405161018c9291906108ed565b60405180910390f35b60608060606000606080606060006101ab610699565b6000805490509550856040519080825280602002602001820160405280156101e25781602001602082028038833980820191505090505b509450856040519080825280602002602001820160405280156102145781602001602082028038833980820191505090505b509350856040519080825280602002602001820160405280156102465781602001602082028038833980820191505090505b509250600091505b858210156103215760008281548110151561026557fe5b906000526020600020906003020160606040519081016040529081600082015481526020016001820154600019166000191681526020016002820154815250509050806000015185838151811015156102ba57fe5b9060200190602002018181525050806020015184838151811015156102db57fe5b9060200190602002019060001916908160001916815250508060400151838381518110151561030657fe5b9060200190602002018181525050818060010192505061024e565b848484985098509850505050505050909192565b60008181548110151561034457fe5b90600052602060002090600302016000915090508060000154908060010154908060020154905083565b606061039960008381548110151561038257fe5b90600052602060002090600302016001015461049d565b9050919050565b600060056000838154811015156103b357fe5b906000526020600020906003020160020154016000838154811015156103d557fe5b90600052602060002090600302016002018190555060019050919050565b6000806103fe610699565b60016000815480929190600101919050559250828160000181815250508481602001906000191690816000191681525050838160400181815250506000819080600181540180825580915050906001820390600052602060002090600302016000909192909190915060008201518160000155602082015181600101906000191690556040820151816002015550505082600192509250509250929050565b6060806000806000606060206040519080825280601f01601f1916602001820160405280156104db5781602001602082028038833980820191505090505b50945060009350600092505b60208310156105a5578260080260020a876001900402600102915060007f010000000000000000000000000000000000000000000000000000000000000002827effffffffffffffffffffffffffffffffffffffffffffffffffffffffffffff19161415156105985781858581518110151561055f57fe5b9060200101907effffffffffffffffffffffffffffffffffffffffffffffffffffffffffffff1916908160001a90535083806001019450505b82806001019350506104e7565b836040519080825280601f01601f1916602001820160405280156105d85781602001602082028038833980820191505090505b509050600092505b8383101561068c5784838151811015156105f657fe5b9060200101517f010000000000000000000000000000000000000000000000000000000000000090047f010000000000000000000000000000000000000000000000000000000000000002818481518110151561064f57fe5b9060200101907effffffffffffffffffffffffffffffffffffffffffffffffffffffffffffff1916908160001a90535082806001019350506105e0565b8095505050505050919050565b6060604051908101604052806000815260200160008019168152602001600081525090565b60006106ca82356109c2565b905092915050565b60006106de82356109cc565b905092915050565b600080604083850312156106f957600080fd5b6000610707858286016106be565b9250506020610718858286016106d2565b9150509250929050565b60006020828403121561073457600080fd5b6000610742848285016106d2565b91505092915050565b600061075682610967565b8084526020840193506107688361094d565b60005b8281101561079a5761077e868351610810565b61078782610988565b915060208601955060018101905061076b565b50849250505092915050565b60006107b182610972565b8084526020840193506107c38361095a565b60005b828110156107f5576107d9868351610855565b6107e282610995565b91506020860195506001810190506107c6565b50849250505092915050565b61080a816109a2565b82525050565b610819816109ae565b82525050565b600061082a8261097d565b80845261083e8160208601602086016109d6565b61084781610a09565b602085010191505092915050565b61085e816109b8565b82525050565b6000606082019050818103600083015261087e81866107a6565b90508181036020830152610892818561074b565b905081810360408301526108a681846107a6565b9050949350505050565b60006020820190506108c56000830184610801565b92915050565b600060208201905081810360008301526108e5818461081f565b905092915050565b60006040820190506109026000830185610855565b61090f6020830184610801565b9392505050565b600060608201905061092b6000830186610855565b6109386020830185610810565b6109456040830184610855565b949350505050565b6000602082019050919050565b6000602082019050919050565b600081519050919050565b600081519050919050565b600081519050919050565b6000602082019050919050565b6000602082019050919050565b60008115159050919050565b6000819050919050565b6000819050919050565b6000819050919050565b6000819050919050565b60005b838110156109f45780820151818401526020810190506109d9565b83811115610a03576000848401525b50505050565b6000601f19601f83011690509190505600a265627a7a723058206abe6337fec2cb1e06100f127ef08f76d2d23928863031196e8714f18ea3c4236c6578706572696d656e74616cf50037",
  "source": "pragma solidity ^0.4.23;\r\npragma experimental ABIEncoderV2;\r\n\r\nimport \"../libs/Utils.sol\";\r\n\r\ncontract Users {\r\n    struct Participant {\r\n        uint id;\r\n        bytes32 name;\r\n        uint point;\r\n    }\r\n\r\n    Participant[] public users;\r\n    uint userCount;\r\n    function addUser(bytes32 userName, uint userPoint) public returns (uint userID, bool success) {\r\n        userID = userCount++;\r\n        Participant memory newUser;\r\n        newUser.id = userID;\r\n        newUser.name = userName;\r\n        newUser.point = userPoint;\r\n        users.push(newUser);\r\n        return (userID, true);\r\n    }\r\n\r\n    function getUsers() public view returns (uint[], bytes32[], uint[]) {\r\n        uint length = users.length;\r\n        uint[] memory usersID = new uint[](length);\r\n        bytes32[] memory userNames = new bytes32[](length);\r\n        uint[] memory userPoints = new uint[](length);\r\n        for (uint i = 0; i < length; i++) {\r\n            Participant memory showUser;\r\n            showUser = users[i];\r\n            usersID[i] = showUser.id;\r\n            userNames[i] = showUser.name;\r\n            userPoints[i] = showUser.point;\r\n        }\r\n        return (usersID, userNames, userPoints);\r\n    }\r\n\r\n    function plusFive(uint id) public returns (bool suc) {\r\n        users[id].point = users[id].point + 5;\r\n        return true;\r\n    }\r\n\r\n    function getName(uint id) public view returns (string) {\r\n        return Utils.bytesToString(users[id].name);\r\n    }\r\n}",
  "sourcePath": "D:\\tron\\demo\\truffle-demo\\contracts\\user\\User.sol",
  "compiler": {
    "name": "solc",
    "version": "0.4.24+commit.e67f0147.Emscripten.clang"
  },
  "schemaVersion": "2.0.1",
  "updatedAt": "2018-08-17T02:44:57.520Z"
}