{
  "contractName": "Utils",
  "abi": [
    {
      "constant": true,
      "inputs": [],
      "name": "utilAlgorithm",
      "outputs": [
        {
          "name": "",
          "type": "uint256"
        }
      ],
      "payable": false,
      "stateMutability": "pure",
      "type": "function"
    }
  ],
  "bytecode": "0x60ac61002f600b82828239805160001a6073146000811461001f57610021565bfe5b5030600052607381538281f30073000000000000000000000000000000000000000030146080604052600436106056576000357c0100000000000000000000000000000000000000000000000000000000900463ffffffff1680638f28239114605b575b600080fd5b60616077565b6040518082815260200191505060405180910390f35b600060029050905600a165627a7a72305820a92327c13f7198eafb3ab2e36fefe49d60deef4d454f38b4fa91fe39f5cc7fdf0029",
  "source": "pragma solidity ^0.4.23;\r\n\r\nlibrary Utils {\r\n    function bytesToUint(bytes _data) internal pure returns (uint) {\r\n        uint t = 0;\r\n        uint d;\r\n        for(uint i = 4; i < _data.length; i++) {\r\n            d = uint(_data[i]);\r\n            if((d >= 48) && (d < 58)) {\r\n                t = (t << 4) + d - 48;\r\n            } else if((d >= 97) && (d < 103)) {\r\n                t = (t << 4) + d - 97 + 10;\r\n            } else {\r\n                revert(\"bytesToUint error\");\r\n            }\r\n        }\r\n        return t;\r\n    }\r\n\r\n    function bytesToString(bytes32 x) internal pure returns (string) {\r\n        bytes memory bytesString = new bytes(32);\r\n        uint charCount = 0;\r\n        for (uint j = 0; j < 32; j++) {\r\n            byte char = byte(bytes32(uint(x) * 2 ** (8 * j)));\r\n            if (char != 0) {\r\n                bytesString[charCount] = char;\r\n                charCount++;\r\n            }\r\n        }\r\n        bytes memory bytesStringTrimmed = new bytes(charCount);\r\n        for (j = 0; j < charCount; j++) {\r\n            bytesStringTrimmed[j] = bytesString[j];\r\n        }\r\n        return string(bytesStringTrimmed);\r\n    }\r\n\r\n    function utilAlgorithm() public pure returns (uint) {\r\n        return 2;\r\n    }\r\n}",
  "sourcePath": "D:\\codebase\\blockchain\\ganacheDemo\\accountTron\\demo\\truffle-demo\\contracts\\libs\\Utils.sol",
  "compiler": {
    "name": "solc",
    "version": "0.4.24+commit.e67f0147.Emscripten.clang"
  },
  "schemaVersion": "2.0.1",
  "updatedAt": "2018-10-22T03:23:39.283Z"
}