{
  "contractName": "Utils",
  "abi": [
    {
      "constant": true,
      "inputs": [],
      "name": "jurassicAddr",
      "outputs": [
        {
          "name": "",
          "type": "address"
        }
      ],
      "payable": false,
      "stateMutability": "view",
      "type": "function"
    },
    {
      "inputs": [
        {
          "name": "_jurassic",
          "type": "address"
        }
      ],
      "payable": false,
      "stateMutability": "nonpayable",
      "type": "constructor"
    },
    {
      "constant": true,
      "inputs": [
        {
          "name": "_data",
          "type": "bytes"
        }
      ],
      "name": "bytesToUint",
      "outputs": [
        {
          "name": "",
          "type": "uint256"
        }
      ],
      "payable": false,
      "stateMutability": "pure",
      "type": "function"
    },
    {
      "constant": true,
      "inputs": [
        {
          "name": "x",
          "type": "bytes32"
        }
      ],
      "name": "bytesToString",
      "outputs": [
        {
          "name": "",
          "type": "string"
        }
      ],
      "payable": false,
      "stateMutability": "pure",
      "type": "function"
    },
    {
      "constant": true,
      "inputs": [],
      "name": "utilAlgorithm",
      "outputs": [
        {
          "name": "",
          "type": "uint256"
        }
      ],
      "payable": false,
      "stateMutability": "pure",
      "type": "function"
    }
  ],
  "bytecode": "0x608060405234801561001057600080fd5b5060405160208061065f83398101806040528101908080519060200190929190505050806000806101000a81548173ffffffffffffffffffffffffffffffffffffffff021916908373ffffffffffffffffffffffffffffffffffffffff160217905550506105dc806100836000396000f300608060405260043610610062576000357c0100000000000000000000000000000000000000000000000000000000900463ffffffff16806302d06d05146100675780636eef7a05146100e45780638f2823911461018e578063a688e4c3146101b9575b600080fd5b34801561007357600080fd5b506100ce600480360381019080803590602001908201803590602001908080601f0160208091040260200160405190810160405280939291908181526020018383808284378201915050505050509192919290505050610210565b6040518082815260200191505060405180910390f35b3480156100f057600080fd5b506101136004803603810190808035600019169060200190929190505050610384565b6040518080602001828103825283818151815260200191508051906020019080838360005b83811015610153578082015181840152602081019050610138565b50505050905090810190601f1680156101805780820380516001836020036101000a031916815260200191505b509250505060405180910390f35b34801561019a57600080fd5b506101a3610580565b6040518082815260200191505060405180910390f35b3480156101c557600080fd5b506101ce61058b565b604051808273ffffffffffffffffffffffffffffffffffffffff1673ffffffffffffffffffffffffffffffffffffffff16815260200191505060405180910390f35b60008060008060009250600490505b845181101561037957848181518110151561023657fe5b9060200101517f010000000000000000000000000000000000000000000000000000000000000090047f0100000000000000000000000000000000000000000000000000000000000000027f010000000000000000000000000000000000000000000000000000000000000090049150603082101580156102b75750603a82105b156102d0576030826004859060020a020103925061036c565b606182101580156102e15750606782105b156102fd57600a6061836004869060020a02010301925061036b565b6040517f08c379a00000000000000000000000000000000000000000000000000000000081526004018080602001828103825260118152602001807f6279746573546f55696e74206572726f7200000000000000000000000000000081525060200191505060405180910390fd5b5b808060010191505061021f565b829350505050919050565b6060806000806000606060206040519080825280601f01601f1916602001820160405280156103c25781602001602082028038833980820191505090505b50945060009350600092505b602083101561048c578260080260020a876001900402600102915060007f010000000000000000000000000000000000000000000000000000000000000002827effffffffffffffffffffffffffffffffffffffffffffffffffffffffffffff191614151561047f5781858581518110151561044657fe5b9060200101907effffffffffffffffffffffffffffffffffffffffffffffffffffffffffffff1916908160001a90535083806001019450505b82806001019350506103ce565b836040519080825280601f01601f1916602001820160405280156104bf5781602001602082028038833980820191505090505b509050600092505b838310156105735784838151811015156104dd57fe5b9060200101517f010000000000000000000000000000000000000000000000000000000000000090047f010000000000000000000000000000000000000000000000000000000000000002818481518110151561053657fe5b9060200101907effffffffffffffffffffffffffffffffffffffffffffffffffffffffffffff1916908160001a90535082806001019350506104c7565b8095505050505050919050565b60006265b9aa905090565b6000809054906101000a900473ffffffffffffffffffffffffffffffffffffffff16815600a165627a7a72305820a10394ba9d99e9357910239d5914b146c35202b209f2d0034c24474208e6bd2b0029",
  "source": "pragma solidity ^0.4.23;\r\n\r\ncontract Utils {\r\n    address public jurassicAddr;\r\n    constructor(address _jurassic) public {\r\n        jurassicAddr = _jurassic;\r\n    }\r\n    function bytesToUint(bytes _data) public pure returns (uint) {\r\n        uint t = 0;\r\n        uint d;\r\n        for(uint i = 4; i < _data.length; i++) {\r\n            d = uint(_data[i]);\r\n            if((d >= 48) && (d < 58)) {\r\n                t = (t << 4) + d - 48;\r\n            } else if((d >= 97) && (d < 103)) {\r\n                t = (t << 4) + d - 97 + 10;\r\n            } else {\r\n                revert(\"bytesToUint error\");\r\n            }\r\n        }\r\n        return t;\r\n    }\r\n\r\n    function bytesToString(bytes32 x) public pure returns (string) {\r\n        bytes memory bytesString = new bytes(32);\r\n        uint charCount = 0;\r\n        for (uint j = 0; j < 32; j++) {\r\n            byte char = byte(bytes32(uint(x) * 2 ** (8 * j)));\r\n            if (char != 0) {\r\n                bytesString[charCount] = char;\r\n                charCount++;\r\n            }\r\n        }\r\n        bytes memory bytesStringTrimmed = new bytes(charCount);\r\n        for (j = 0; j < charCount; j++) {\r\n            bytesStringTrimmed[j] = bytesString[j];\r\n        }\r\n        return string(bytesStringTrimmed);\r\n    }\r\n\r\n    function utilAlgorithm() public pure returns (uint) {\r\n        return 6666666;\r\n    }\r\n}",
  "sourcePath": "D:\\codebase\\blockchain\\ganacheDemo\\accountTron\\demo\\truffle-demo\\contracts\\libs\\Utils.sol",
  "compiler": {
    "name": "solc",
    "version": "0.4.24+commit.e67f0147.Emscripten.clang"
  },
  "schemaVersion": "2.0.1",
  "updatedAt": "2018-10-22T04:37:50.895Z"
}