{
  "contractName": "BasicComp1",
  "abi": [
    {
      "constant": true,
      "inputs": [],
      "name": "CARD_CATE",
      "outputs": [
        {
          "name": "",
          "type": "uint32"
        }
      ],
      "payable": false,
      "stateMutability": "view",
      "type": "function"
    },
    {
      "constant": true,
      "inputs": [],
      "name": "packageType",
      "outputs": [
        {
          "name": "",
          "type": "uint256"
        }
      ],
      "payable": false,
      "stateMutability": "view",
      "type": "function"
    },
    {
      "constant": false,
      "inputs": [],
      "name": "unpause",
      "outputs": [
        {
          "name": "",
          "type": "bool"
        }
      ],
      "payable": false,
      "stateMutability": "nonpayable",
      "type": "function"
    },
    {
      "constant": true,
      "inputs": [],
      "name": "_ctrl",
      "outputs": [
        {
          "name": "",
          "type": "address"
        }
      ],
      "payable": false,
      "stateMutability": "view",
      "type": "function"
    },
    {
      "constant": true,
      "inputs": [],
      "name": "packageCamp",
      "outputs": [
        {
          "name": "",
          "type": "uint256"
        }
      ],
      "payable": false,
      "stateMutability": "view",
      "type": "function"
    },
    {
      "constant": true,
      "inputs": [],
      "name": "paused",
      "outputs": [
        {
          "name": "",
          "type": "bool"
        }
      ],
      "payable": false,
      "stateMutability": "view",
      "type": "function"
    },
    {
      "constant": false,
      "inputs": [],
      "name": "pause",
      "outputs": [
        {
          "name": "",
          "type": "bool"
        }
      ],
      "payable": false,
      "stateMutability": "nonpayable",
      "type": "function"
    },
    {
      "constant": true,
      "inputs": [],
      "name": "owner",
      "outputs": [
        {
          "name": "",
          "type": "address"
        }
      ],
      "payable": false,
      "stateMutability": "view",
      "type": "function"
    },
    {
      "constant": false,
      "inputs": [
        {
          "name": "newCtrl",
          "type": "address"
        }
      ],
      "name": "transferCtrlShip",
      "outputs": [],
      "payable": false,
      "stateMutability": "nonpayable",
      "type": "function"
    },
    {
      "constant": false,
      "inputs": [
        {
          "name": "newOwner",
          "type": "address"
        }
      ],
      "name": "transferOwnership",
      "outputs": [],
      "payable": false,
      "stateMutability": "nonpayable",
      "type": "function"
    },
    {
      "inputs": [],
      "payable": false,
      "stateMutability": "nonpayable",
      "type": "constructor"
    },
    {
      "anonymous": false,
      "inputs": [
        {
          "indexed": true,
          "name": "previousCtrl",
          "type": "address"
        },
        {
          "indexed": true,
          "name": "newCtrl",
          "type": "address"
        }
      ],
      "name": "CtrlshipTransferred",
      "type": "event"
    },
    {
      "anonymous": false,
      "inputs": [],
      "name": "Pause",
      "type": "event"
    },
    {
      "anonymous": false,
      "inputs": [],
      "name": "Unpause",
      "type": "event"
    },
    {
      "anonymous": false,
      "inputs": [
        {
          "indexed": true,
          "name": "previousOwner",
          "type": "address"
        },
        {
          "indexed": true,
          "name": "newOwner",
          "type": "address"
        }
      ],
      "name": "OwnershipTransferred",
      "type": "event"
    },
    {
      "constant": false,
      "inputs": [
        {
          "name": "index",
          "type": "uint256"
        }
      ],
      "name": "drawCardWithIndex",
      "outputs": [
        {
          "name": "",
          "type": "uint32"
        },
        {
          "name": "",
          "type": "uint32"
        }
      ],
      "payable": false,
      "stateMutability": "nonpayable",
      "type": "function"
    },
    {
      "constant": false,
      "inputs": [
        {
          "name": "cate",
          "type": "uint32"
        }
      ],
      "name": "drawCardWithCate",
      "outputs": [
        {
          "name": "",
          "type": "uint32"
        }
      ],
      "payable": false,
      "stateMutability": "nonpayable",
      "type": "function"
    },
    {
      "constant": true,
      "inputs": [],
      "name": "cardCateNum",
      "outputs": [
        {
          "name": "",
          "type": "uint256"
        }
      ],
      "payable": false,
      "stateMutability": "view",
      "type": "function"
    },
    {
      "constant": true,
      "inputs": [
        {
          "name": "pos",
          "type": "uint256"
        }
      ],
      "name": "indexAtPos",
      "outputs": [
        {
          "name": "",
          "type": "uint256"
        }
      ],
      "payable": false,
      "stateMutability": "view",
      "type": "function"
    },
    {
      "constant": true,
      "inputs": [
        {
          "name": "cate",
          "type": "uint32"
        }
      ],
      "name": "cardIndex",
      "outputs": [
        {
          "name": "",
          "type": "uint256"
        }
      ],
      "payable": false,
      "stateMutability": "view",
      "type": "function"
    },
    {
      "constant": true,
      "inputs": [
        {
          "name": "index",
          "type": "uint256"
        }
      ],
      "name": "cardCate",
      "outputs": [
        {
          "name": "",
          "type": "uint32"
        }
      ],
      "payable": false,
      "stateMutability": "view",
      "type": "function"
    },
    {
      "constant": true,
      "inputs": [
        {
          "name": "index",
          "type": "uint256"
        }
      ],
      "name": "cardRemainNum",
      "outputs": [
        {
          "name": "",
          "type": "uint256"
        }
      ],
      "payable": false,
      "stateMutability": "view",
      "type": "function"
    },
    {
      "constant": true,
      "inputs": [
        {
          "name": "index",
          "type": "uint256"
        }
      ],
      "name": "cardDrawedNum",
      "outputs": [
        {
          "name": "",
          "type": "uint256"
        }
      ],
      "payable": false,
      "stateMutability": "view",
      "type": "function"
    },
    {
      "constant": true,
      "inputs": [
        {
          "name": "cate",
          "type": "uint32"
        }
      ],
      "name": "exists",
      "outputs": [
        {
          "name": "",
          "type": "bool"
        }
      ],
      "payable": false,
      "stateMutability": "view",
      "type": "function"
    }
  ],
  "bytecode": "0x606060405260008060146101000a81548160ff0219169083151502179055506002805560016003556108006040519081016040528061c3bf62ffffff16815260200161c3c062ffffff16815260200161c3c162ffffff16815260200161c3c262ffffff16815260200161c3c362ffffff16815260200161c3c462ffffff16815260200161c3c562ffffff16815260200161c3c662ffffff16815260200161eac562ffffff16815260200161eac662ffffff16815260200161eac762ffffff16815260200161eac862ffffff16815260200161eac962ffffff16815260200161eaca62ffffff16815260200161eacb62ffffff16815260200161eacc62ffffff16815260200161eacf62ffffff16815260200161ead162ffffff16815260200161ead362ffffff16815260200161ead562ffffff168152602001620111d562ffffff168152602001620111d662ffffff168152602001620111d762ffffff168152602001620111d862ffffff168152602001620111d962ffffff168152602001620111da62ffffff168152602001620111db62ffffff168152602001620111dc62ffffff168152602001620111df62ffffff168152602001620111e162ffffff168152602001620111e362ffffff168152602001620111e562ffffff168152602001620138e562ffffff168152602001620138e662ffffff168152602001620138e762ffffff168152602001620138e862ffffff168152602001620138e962ffffff168152602001620138ea62ffffff168152602001620138eb62ffffff168152602001620138ec62ffffff168152602001620138ef62ffffff168152602001620138f162ffffff168152602001620138f362ffffff168152602001620138f562ffffff16815260200162015ff562ffffff16815260200162015ff662ffffff16815260200162015ff762ffffff16815260200162015ff862ffffff16815260200162015ff962ffffff16815260200162015ffa62ffffff16815260200162015ffb62ffffff16815260200162015ffc62ffffff16815260200162015fff62ffffff1681526020016201600162ffffff1681526020016201600362ffffff1681526020016201600562ffffff1681526020016201870562ffffff1681526020016201870662ffffff1681526020016201870762ffffff1681526020016201870862ffffff1681526020016201870962ffffff1681526020016201870a62ffffff1681526020016201870b62ffffff1681526020016201870c62ffffff168152506004906040620003b09291906200077d565b5061080060405190810160405280603e60ff168152602001603e60ff168152602001603e60ff168152602001603e60ff168152602001603e60ff168152602001603e60ff168152602001603e60ff168152602001603e60ff168152602001600860ff168152602001600860ff168152602001600860ff168152602001600860ff168152602001600860ff168152602001600860ff168152602001600860ff168152602001600860ff168152602001600860ff168152602001600860ff168152602001600860ff168152602001600860ff168152602001600560ff168152602001600560ff168152602001600560ff168152602001600560ff168152602001600560ff168152602001600560ff168152602001600560ff168152602001600560ff168152602001600560ff168152602001600560ff168152602001600560ff168152602001600560ff168152602001600260ff168152602001600260ff168152602001600260ff168152602001600260ff168152602001600260ff168152602001600260ff168152602001600260ff168152602001600260ff168152602001600260ff168152602001600260ff168152602001600260ff168152602001600260ff168152602001600160ff168152602001600160ff168152602001600160ff168152602001600160ff168152602001600160ff168152602001600160ff168152602001600160ff168152602001600160ff168152602001600160ff168152602001600160ff168152602001600160ff168152602001600160ff168152602001600160ff168152602001600160ff168152602001600160ff168152602001600160ff168152602001600160ff168152602001600160ff168152602001600160ff168152602001600160ff16815250600c9060406200064e92919062000826565b5034156200065b57600080fd5b6000336000806101000a81548173ffffffffffffffffffffffffffffffffffffffff021916908373ffffffffffffffffffffffffffffffffffffffff16021790555033600160006101000a81548173ffffffffffffffffffffffffffffffffffffffff021916908373ffffffffffffffffffffffffffffffffffffffff160217905550600090505b604063ffffffff168163ffffffff161015620007765780601c600060048463ffffffff166040811015156200071457fe5b600891828204019190066004029054906101000a900463ffffffff1663ffffffff1663ffffffff16815260200190815260200160002060006101000a81548163ffffffff021916908363ffffffff1602179055508080600101915050620006e3565b5062000903565b826040600701600890048101928215620008135791602002820160005b83821115620007df57835183826101000a81548163ffffffff021916908362ffffff16021790555092602001926004016020816003010492830192600103026200079a565b8015620008115782816101000a81549063ffffffff0219169055600401602081600301049283019260010302620007df565b505b509050620008229190620008cd565b5090565b826040600701600890048101928215620008ba5791602002820160005b838211156200088657835183826101000a81548163ffffffff021916908360ff160217905550926020019260040160208160030104928301926001030262000843565b8015620008b85782816101000a81549063ffffffff021916905560040160208160030104928301926001030262000886565b505b509050620008c99190620008cd565b5090565b6200090091905b80821115620008fc57600081816101000a81549063ffffffff021916905550600101620008d4565b5090565b90565b610fa080620009136000396000f300606060405260043610610107576000357c0100000000000000000000000000000000000000000000000000000000900463ffffffff16806313c369ed1461010c5780631a1451ae1461014d5780631dfeb884146101825780633f0c5155146101cb5780633f4ba83a146101f457806343eb136814610221578063477d5a111461027657806351903db61461029f5780635c975abb146102d65780635d248369146103035780635d3753d1146103595780637eab59fd1461039657806382d5ccb1146103d95780638456cb59146104105780638da5cb5b1461043d57806397122d4e14610492578063d6bb68a7146104c9578063e6f8008a146104f2578063f2fde38b1461052b575b600080fd5b341561011757600080fd5b610133600480803563ffffffff16906020019091905050610564565b604051808215151515815260200191505060405180910390f35b341561015857600080fd5b6101606105f9565b604051808263ffffffff1663ffffffff16815260200191505060405180910390f35b341561018d57600080fd5b6101a9600480803563ffffffff169060200190919050506105fe565b604051808263ffffffff1663ffffffff16815260200191505060405180910390f35b34156101d657600080fd5b6101de610724565b6040518082815260200191505060405180910390f35b34156101ff57600080fd5b61020761072e565b604051808215151515815260200191505060405180910390f35b341561022c57600080fd5b6102346107f3565b604051808273ffffffffffffffffffffffffffffffffffffffff1673ffffffffffffffffffffffffffffffffffffffff16815260200191505060405180910390f35b341561028157600080fd5b610289610819565b6040518082815260200191505060405180910390f35b34156102aa57600080fd5b6102c06004808035906020019091905050610823565b6040518082815260200191505060405180910390f35b34156102e157600080fd5b6102e961086c565b604051808215151515815260200191505060405180910390f35b341561030e57600080fd5b610324600480803590602001909190505061087f565b604051808363ffffffff1663ffffffff1681526020018263ffffffff1663ffffffff1681526020019250505060405180910390f35b341561036457600080fd5b610380600480803563ffffffff16906020019091905050610994565b6040518082815260200191505060405180910390f35b34156103a157600080fd5b6103b760048080359060200190919050506109e7565b604051808263ffffffff1663ffffffff16815260200191505060405180910390f35b34156103e457600080fd5b6103fa6004808035906020019091905050610a2a565b6040518082815260200191505060405180910390f35b341561041b57600080fd5b610423610ada565b604051808215151515815260200191505060405180910390f35b341561044857600080fd5b610450610ba1565b604051808273ffffffffffffffffffffffffffffffffffffffff1673ffffffffffffffffffffffffffffffffffffffff16815260200191505060405180910390f35b341561049d57600080fd5b6104b36004808035906020019091905050610bc6565b6040518082815260200191505060405180910390f35b34156104d457600080fd5b6104dc610c0f565b6040518082815260200191505060405180910390f35b34156104fd57600080fd5b610529600480803573ffffffffffffffffffffffffffffffffffffffff16906020019091905050610c1e565b005b341561053657600080fd5b610562600480803573ffffffffffffffffffffffffffffffffffffffff16906020019091905050610d75565b005b60008060008363ffffffff1611156105ee57601c60008463ffffffff1663ffffffff16815260200190815260200160002060009054906101000a900463ffffffff1663ffffffff1690508263ffffffff166004826040811015156105c457fe5b600891828204019190066004029054906101000a900463ffffffff1663ffffffff161491506105f3565b600091505b50919050565b604081565b6000803373ffffffffffffffffffffffffffffffffffffffff16600160009054906101000a900473ffffffffffffffffffffffffffffffffffffffff1673ffffffffffffffffffffffffffffffffffffffff1614151561065d57600080fd5b61066683610564565b151561067157600080fd5b601c60008463ffffffff1663ffffffff16815260200190815260200160002060009054906101000a900463ffffffff1663ffffffff1690506000600c826040811015156106ba57fe5b600891828204019190066004029054906101000a900463ffffffff1663ffffffff161115156106e857600080fd5b6106f181610eca565b60148160408110151561070057fe5b600891828204019190066004029054906101000a900463ffffffff16915050919050565b6000600254905090565b60008060009054906101000a900473ffffffffffffffffffffffffffffffffffffffff1673ffffffffffffffffffffffffffffffffffffffff163373ffffffffffffffffffffffffffffffffffffffff1614151561078b57600080fd5b600060149054906101000a900460ff1615156107a657600080fd5b60008060146101000a81548160ff0219169083151502179055507f7805862f689e2f13df9f062ff482ad3ad112aca9e0847911ed832e158c525b3360405160405180910390a16001905090565b600160009054906101000a900473ffffffffffffffffffffffffffffffffffffffff1681565b6000600354905090565b600060408210151561083457600080fd5b600c8260408110151561084357fe5b600891828204019190066004029054906101000a900463ffffffff1663ffffffff169050919050565b600060149054906101000a900460ff1681565b6000803373ffffffffffffffffffffffffffffffffffffffff16600160009054906101000a900473ffffffffffffffffffffffffffffffffffffffff1673ffffffffffffffffffffffffffffffffffffffff161415156108de57600080fd5b6040831015156108ed57600080fd5b6000600c846040811015156108fe57fe5b600891828204019190066004029054906101000a900463ffffffff1663ffffffff1611151561092c57600080fd5b61093583610eca565b60048360408110151561094457fe5b600891828204019190066004029054906101000a900463ffffffff1660148460408110151561096f57fe5b600891828204019190066004029054906101000a900463ffffffff1691509150915091565b600061099f82610564565b15156109aa57600080fd5b601c60008363ffffffff1663ffffffff16815260200190815260200160002060009054906101000a900463ffffffff1663ffffffff169050919050565b60006040821015156109f857600080fd5b600482604081101515610a0757fe5b600891828204019190066004029054906101000a900463ffffffff169050919050565b6000806000839150600090505b604063ffffffff16811015610ac857600c81604081101515610a5557fe5b600891828204019190066004029054906101000a900463ffffffff1663ffffffff16821015610a8657809250610ad3565b600c81604081101515610a9557fe5b600891828204019190066004029054906101000a900463ffffffff1663ffffffff16820391508080600101915050610a37565b604063ffffffff1692505b5050919050565b60008060009054906101000a900473ffffffffffffffffffffffffffffffffffffffff1673ffffffffffffffffffffffffffffffffffffffff163373ffffffffffffffffffffffffffffffffffffffff16141515610b3757600080fd5b600060149054906101000a900460ff16151515610b5357600080fd5b6001600060146101000a81548160ff0219169083151502179055507f6985a02210a168e66602d3235cb6db0e70f92b3ba4d376a33c0f3d9434bff62560405160405180910390a16001905090565b6000809054906101000a900473ffffffffffffffffffffffffffffffffffffffff1681565b6000604082101515610bd757600080fd5b601482604081101515610be657fe5b600891828204019190066004029054906101000a900463ffffffff1663ffffffff169050919050565b6000604063ffffffff16905090565b6000809054906101000a900473ffffffffffffffffffffffffffffffffffffffff1673ffffffffffffffffffffffffffffffffffffffff163373ffffffffffffffffffffffffffffffffffffffff16141515610c7957600080fd5b600073ffffffffffffffffffffffffffffffffffffffff168173ffffffffffffffffffffffffffffffffffffffff1614151515610cb557600080fd5b8073ffffffffffffffffffffffffffffffffffffffff16600160009054906101000a900473ffffffffffffffffffffffffffffffffffffffff1673ffffffffffffffffffffffffffffffffffffffff167f7ee895d642e6d734d10e3455ac71d46eaf396097678df50aae1ed447e171cee460405160405180910390a380600160006101000a81548173ffffffffffffffffffffffffffffffffffffffff021916908373ffffffffffffffffffffffffffffffffffffffff16021790555050565b6000809054906101000a900473ffffffffffffffffffffffffffffffffffffffff1673ffffffffffffffffffffffffffffffffffffffff163373ffffffffffffffffffffffffffffffffffffffff16141515610dd057600080fd5b600073ffffffffffffffffffffffffffffffffffffffff168173ffffffffffffffffffffffffffffffffffffffff1614151515610e0c57600080fd5b8073ffffffffffffffffffffffffffffffffffffffff166000809054906101000a900473ffffffffffffffffffffffffffffffffffffffff1673ffffffffffffffffffffffffffffffffffffffff167f8be0079c531659141344cd1fd0a4f28419497f9722a3daafe3b4186f6b6457e060405160405180910390a3806000806101000a81548173ffffffffffffffffffffffffffffffffffffffff021916908373ffffffffffffffffffffffffffffffffffffffff16021790555050565b600c81604081101515610ed957fe5b6008918282040191900660040281819054906101000a900463ffffffff16809291906001900391906101000a81548163ffffffff021916908363ffffffff16021790555050601481604081101515610f2d57fe5b6008918282040191900660040281819054906101000a900463ffffffff168092919060010191906101000a81548163ffffffff021916908363ffffffff16021790555050505600a165627a7a723058202e9fd79a55a23aae4dc4a0cdbec93266e7a3c1bee9d6a3d275229e75de1759720029",
  "source": "pragma solidity ^0.4.21;\n\nimport \"./CompPackage.sol\";\nimport \"./WeiPackage.sol\";\n\ncontract BasicComp1 is CompPackage, WeiPackage {\n    uint32 public constant CARD_CATE = 64;     //合成卡的数量\n\n    uint32[CARD_CATE] internal _cardCates = [50111, 50112, 50113, 50114, 50115, 50116, 50117, 50118, 60101, 60102, 60103, 60104, 60105, 60106, 60107, 60108, 60111, 60113, 60115, 60117, 70101, 70102, 70103, 70104, 70105, 70106, 70107, 70108, 70111, 70113, 70115, 70117, 80101, 80102, 80103, 80104, 80105, 80106, 80107, 80108, 80111, 80113, 80115, 80117, 90101, 90102, 90103, 90104, 90105, 90106, 90107, 90108, 90111, 90113, 90115, 90117, 100101, 100102, 100103, 100104, 100105, 100106, 100107, 100108];\n    uint32[CARD_CATE] internal _cardsCnt = [62, 62, 62, 62, 62, 62, 62, 62, 8, 8, 8, 8, 8, 8, 8, 8, 8, 8, 8, 8, 5, 5, 5, 5, 5, 5, 5, 5, 5, 5, 5, 5, 2, 2, 2, 2, 2, 2, 2, 2, 2, 2, 2, 2, 1, 1, 1, 1, 1, 1, 1, 1, 1, 1, 1, 1, 1, 1, 1, 1, 1, 1, 1, 1];\n    //包里每张卡已卖出的数量\n    uint32[CARD_CATE] internal _cardsNum;\n\n    mapping (uint32 => uint32) internal _cardCateToIndex;\n\n    function BasicComp1 () public\n    {\n        \n        for(uint32 i = 0; i < CARD_CATE; i++) {\n\n            _cardCateToIndex[_cardCates[i]] = i;\n        }\n    }\n\n    //抽卡\n    function drawCardWithIndex(uint index) external onlyCtrl returns(uint32, uint32) {\n        require(index < _cardsCnt.length);\n        require(_cardsCnt[index] > 0);\n\n        _drawCard(index);\n\n        return (_cardCates[index], _cardsNum[index]);\n    }\n\n    function drawCardWithCate(uint32 cate) external onlyCtrl returns(uint32) {\n        require(exists(cate));\n\n        uint index = _cardCateToIndex[cate];\n\n        require(_cardsCnt[index] > 0);\n        _drawCard(index);\n\n        return _cardsNum[index];\n    } \n\n    //包里卡的种类数量\n    function cardCateNum() external view returns(uint) {\n        return CARD_CATE;\n    }\n\n    //包里第pos张卡的索引\n    function indexAtPos(uint pos) external view returns(uint) {\n        uint cnt = pos;\n        for(uint i = 0; i < CARD_CATE; i++) {\n            if(cnt < _cardsCnt[i]) {\n                return i;\n            } else {\n                cnt -= _cardsCnt[i];\n            }\n        }\n\n        return CARD_CATE;\n    }\n\n    //根据卡的id获取卡的索引\n    function cardIndex(uint32 cate) public view returns(uint) {\n        require(exists(cate));\n        return _cardCateToIndex[cate];\n    }\n\n    //索引为index的卡的id\n    function cardCate(uint index) public view returns(uint32) {\n        require(index < _cardCates.length);\n        return _cardCates[index];\n    }\n\n    //索引为i的卡剩余的数量\n    function cardRemainNum(uint index) public view returns(uint) {\n        require(index < _cardsCnt.length);\n        return _cardsCnt[index];\n    }\n\n    //索引为i的卡已抽出来的数量\n    function cardDrawedNum(uint index) public view returns(uint) {\n        require(index < _cardsNum.length);\n        return _cardsNum[index];\n    }\n\n    function _drawCard(uint index) internal {\n        _cardsCnt[index]--;\n        _cardsNum[index]++;\n    }\n\n    function exists(uint32 cate) public view returns(bool) {\n        if (cate > 0) {\n            uint index = _cardCateToIndex[cate];\n            return _cardCates[index] == cate;\n        } else {\n            return false;\n        }\n    }\n}",
  "sourcePath": "/Users/fq/work/blockchain/mjz_contract/contracts/Package/BasicComp1.sol",
  "compiler": {
    "name": "solc",
    "version": "0.4.21+commit.dfe3193c.Emscripten.clang"
  },
  "schemaVersion": "2.0.0",
  "updatedAt": "2018-06-20T05:27:30.688Z"
}