{
  "contractName": "BTKSourceCtrl",
  "abi": [
    {
      "constant": false,
      "inputs": [
        {
          "name": "count",
          "type": "uint256"
        }
      ],
      "name": "reclaim",
      "outputs": [],
      "payable": false,
      "stateMutability": "nonpayable",
      "type": "function"
    },
    {
      "constant": false,
      "inputs": [],
      "name": "unpause",
      "outputs": [
        {
          "name": "",
          "type": "bool"
        }
      ],
      "payable": false,
      "stateMutability": "nonpayable",
      "type": "function"
    },
    {
      "constant": true,
      "inputs": [
        {
          "name": "",
          "type": "uint256"
        },
        {
          "name": "",
          "type": "uint256"
        }
      ],
      "name": "sourcePackages",
      "outputs": [
        {
          "name": "",
          "type": "address"
        }
      ],
      "payable": false,
      "stateMutability": "view",
      "type": "function"
    },
    {
      "constant": true,
      "inputs": [],
      "name": "paused",
      "outputs": [
        {
          "name": "",
          "type": "bool"
        }
      ],
      "payable": false,
      "stateMutability": "view",
      "type": "function"
    },
    {
      "constant": true,
      "inputs": [],
      "name": "totalCardsCnt",
      "outputs": [
        {
          "name": "",
          "type": "uint256"
        }
      ],
      "payable": false,
      "stateMutability": "view",
      "type": "function"
    },
    {
      "constant": true,
      "inputs": [],
      "name": "mediator",
      "outputs": [
        {
          "name": "",
          "type": "address"
        }
      ],
      "payable": false,
      "stateMutability": "view",
      "type": "function"
    },
    {
      "constant": false,
      "inputs": [],
      "name": "destroy",
      "outputs": [],
      "payable": false,
      "stateMutability": "nonpayable",
      "type": "function"
    },
    {
      "constant": false,
      "inputs": [],
      "name": "pause",
      "outputs": [
        {
          "name": "",
          "type": "bool"
        }
      ],
      "payable": false,
      "stateMutability": "nonpayable",
      "type": "function"
    },
    {
      "constant": true,
      "inputs": [],
      "name": "owner",
      "outputs": [
        {
          "name": "",
          "type": "address"
        }
      ],
      "payable": false,
      "stateMutability": "view",
      "type": "function"
    },
    {
      "constant": true,
      "inputs": [],
      "name": "price",
      "outputs": [
        {
          "name": "",
          "type": "uint256"
        }
      ],
      "payable": false,
      "stateMutability": "view",
      "type": "function"
    },
    {
      "constant": true,
      "inputs": [
        {
          "name": "",
          "type": "uint256"
        }
      ],
      "name": "cardsCnt",
      "outputs": [
        {
          "name": "",
          "type": "uint256"
        }
      ],
      "payable": false,
      "stateMutability": "view",
      "type": "function"
    },
    {
      "constant": true,
      "inputs": [
        {
          "name": "",
          "type": "uint256"
        },
        {
          "name": "",
          "type": "uint256"
        }
      ],
      "name": "campCardsCnt",
      "outputs": [
        {
          "name": "",
          "type": "uint256"
        }
      ],
      "payable": false,
      "stateMutability": "view",
      "type": "function"
    },
    {
      "constant": false,
      "inputs": [
        {
          "name": "newOwner",
          "type": "address"
        }
      ],
      "name": "transferOwnership",
      "outputs": [],
      "payable": false,
      "stateMutability": "nonpayable",
      "type": "function"
    },
    {
      "constant": false,
      "inputs": [
        {
          "name": "_recipient",
          "type": "address"
        }
      ],
      "name": "destroyAndSend",
      "outputs": [],
      "payable": false,
      "stateMutability": "nonpayable",
      "type": "function"
    },
    {
      "anonymous": false,
      "inputs": [
        {
          "indexed": true,
          "name": "from",
          "type": "address"
        },
        {
          "indexed": false,
          "name": "cate",
          "type": "uint256"
        },
        {
          "indexed": false,
          "name": "num",
          "type": "uint256"
        },
        {
          "indexed": false,
          "name": "card",
          "type": "uint64"
        },
        {
          "indexed": false,
          "name": "randnum",
          "type": "uint256"
        }
      ],
      "name": "BuyPackage",
      "type": "event"
    },
    {
      "anonymous": false,
      "inputs": [
        {
          "indexed": false,
          "name": "package",
          "type": "address"
        },
        {
          "indexed": false,
          "name": "packageType",
          "type": "uint256"
        }
      ],
      "name": "AddPackage",
      "type": "event"
    },
    {
      "anonymous": false,
      "inputs": [],
      "name": "Pause",
      "type": "event"
    },
    {
      "anonymous": false,
      "inputs": [],
      "name": "Unpause",
      "type": "event"
    },
    {
      "anonymous": false,
      "inputs": [
        {
          "indexed": true,
          "name": "previousOwner",
          "type": "address"
        },
        {
          "indexed": true,
          "name": "newOwner",
          "type": "address"
        }
      ],
      "name": "OwnershipTransferred",
      "type": "event"
    },
    {
      "constant": true,
      "inputs": [
        {
          "name": "cate",
          "type": "uint32"
        }
      ],
      "name": "existsOfCardCate",
      "outputs": [
        {
          "name": "",
          "type": "bool"
        }
      ],
      "payable": false,
      "stateMutability": "view",
      "type": "function"
    },
    {
      "constant": false,
      "inputs": [
        {
          "name": "package",
          "type": "address"
        },
        {
          "name": "n",
          "type": "uint256"
        }
      ],
      "name": "addPackage",
      "outputs": [],
      "payable": false,
      "stateMutability": "nonpayable",
      "type": "function"
    },
    {
      "constant": false,
      "inputs": [
        {
          "name": "cont",
          "type": "address"
        }
      ],
      "name": "setMediator",
      "outputs": [],
      "payable": false,
      "stateMutability": "nonpayable",
      "type": "function"
    },
    {
      "constant": false,
      "inputs": [
        {
          "name": "_rand",
          "type": "address"
        }
      ],
      "name": "setRandomAddress",
      "outputs": [],
      "payable": false,
      "stateMutability": "nonpayable",
      "type": "function"
    },
    {
      "constant": false,
      "inputs": [
        {
          "name": "_price",
          "type": "uint256"
        }
      ],
      "name": "changePackagePrice",
      "outputs": [],
      "payable": false,
      "stateMutability": "nonpayable",
      "type": "function"
    },
    {
      "constant": false,
      "inputs": [],
      "name": "buyPackage",
      "outputs": [],
      "payable": true,
      "stateMutability": "payable",
      "type": "function"
    }
  ],
  "bytecode": "0x606060405260008060146101000a81548160ff021916908315150217905550600a600155336000806101000a81548173ffffffffffffffffffffffffffffffffffffffff021916908373ffffffffffffffffffffffffffffffffffffffff160217905550611b4b806100726000396000f300606060405260043610610112576000357c0100000000000000000000000000000000000000000000000000000000900463ffffffff1680632dabbeed146101175780633f4ba83a1461013a57806349e3ec5e1461016757806350cc8428146101a0578063520c7a4a1461020c578063572744e91461024d5780635c975abb146102705780635e4d2b641461029d57806362158099146102c65780636d0501f6146102d057806383197ef0146103255780638456cb591461033a5780638da5cb5b14610367578063a035b1fe146103bc578063c1b4b9eb146103e5578063c6a5318e14610427578063d42359841461045e578063f2490d8a14610497578063f2fde38b146104d7578063f5074f4114610510575b600080fd5b341561012257600080fd5b6101386004808035906020019091905050610549565b005b341561014557600080fd5b61014d61062e565b604051808215151515815260200191505060405180910390f35b341561017257600080fd5b61019e600480803573ffffffffffffffffffffffffffffffffffffffff169060200190919050506106f3565b005b34156101ab57600080fd5b6101ca6004808035906020019091908035906020019091905050610792565b604051808273ffffffffffffffffffffffffffffffffffffffff1673ffffffffffffffffffffffffffffffffffffffff16815260200191505060405180910390f35b341561021757600080fd5b610233600480803563ffffffff169060200190919050506107e5565b604051808215151515815260200191505060405180910390f35b341561025857600080fd5b61026e6004808035906020019091905050610990565b005b341561027b57600080fd5b6102836109f5565b604051808215151515815260200191505060405180910390f35b34156102a857600080fd5b6102b0610a08565b6040518082815260200191505060405180910390f35b6102ce610a0e565b005b34156102db57600080fd5b6102e3610db4565b604051808273ffffffffffffffffffffffffffffffffffffffff1673ffffffffffffffffffffffffffffffffffffffff16815260200191505060405180910390f35b341561033057600080fd5b610338610dda565b005b341561034557600080fd5b61034d610e6f565b604051808215151515815260200191505060405180910390f35b341561037257600080fd5b61037a610f36565b604051808273ffffffffffffffffffffffffffffffffffffffff1673ffffffffffffffffffffffffffffffffffffffff16815260200191505060405180910390f35b34156103c757600080fd5b6103cf610f5b565b6040518082815260200191505060405180910390f35b34156103f057600080fd5b610425600480803573ffffffffffffffffffffffffffffffffffffffff16906020019091908035906020019091905050610f61565b005b341561043257600080fd5b6104486004808035906020019091905050611412565b6040518082815260200191505060405180910390f35b341561046957600080fd5b610495600480803573ffffffffffffffffffffffffffffffffffffffff16906020019091905050611436565b005b34156104a257600080fd5b6104c160048080359060200190919080359060200190919050506114d5565b6040518082815260200191505060405180910390f35b34156104e257600080fd5b61050e600480803573ffffffffffffffffffffffffffffffffffffffff1690602001909190505061150b565b005b341561051b57600080fd5b610547600480803573ffffffffffffffffffffffffffffffffffffffff16906020019091905050611660565b005b6000809054906101000a900473ffffffffffffffffffffffffffffffffffffffff1673ffffffffffffffffffffffffffffffffffffffff163373ffffffffffffffffffffffffffffffffffffffff161415156105a457600080fd5b3073ffffffffffffffffffffffffffffffffffffffff163181111515156105ca57600080fd5b6000809054906101000a900473ffffffffffffffffffffffffffffffffffffffff1673ffffffffffffffffffffffffffffffffffffffff166108fc829081150290604051600060405180830381858888f19350505050151561062b57600080fd5b50565b60008060009054906101000a900473ffffffffffffffffffffffffffffffffffffffff1673ffffffffffffffffffffffffffffffffffffffff163373ffffffffffffffffffffffffffffffffffffffff1614151561068b57600080fd5b600060149054906101000a900460ff1615156106a657600080fd5b60008060146101000a81548160ff0219169083151502179055507f7805862f689e2f13df9f062ff482ad3ad112aca9e0847911ed832e158c525b3360405160405180910390a16001905090565b6000809054906101000a900473ffffffffffffffffffffffffffffffffffffffff1673ffffffffffffffffffffffffffffffffffffffff163373ffffffffffffffffffffffffffffffffffffffff1614151561074e57600080fd5b80600360006101000a81548173ffffffffffffffffffffffffffffffffffffffff021916908373ffffffffffffffffffffffffffffffffffffffff16021790555050565b6002828154811015156107a157fe5b9060005260206000209060040201816004811015156107bc57fe5b016000915091509054906101000a900473ffffffffffffffffffffffffffffffffffffffff1681565b60008060006107f3846116d4565b91506001610800856116f8565b039050600463ffffffff168110151561081c5760009250610989565b600280549050821080156108925750600060028381548110151561083c57fe5b90600052602060002090600402018260048110151561085757fe5b0160009054906101000a900473ffffffffffffffffffffffffffffffffffffffff1673ffffffffffffffffffffffffffffffffffffffff1614155b801561097657506002828154811015156108a857fe5b9060005260206000209060040201816004811015156108c357fe5b0160009054906101000a900473ffffffffffffffffffffffffffffffffffffffff1673ffffffffffffffffffffffffffffffffffffffff166313c369ed856040518263ffffffff167c0100000000000000000000000000000000000000000000000000000000028152600401808263ffffffff1663ffffffff168152602001915050602060405180830381600087803b151561095e57600080fd5b5af1151561096b57600080fd5b505050604051805190505b156109845760019250610989565b600092505b5050919050565b6000809054906101000a900473ffffffffffffffffffffffffffffffffffffffff1673ffffffffffffffffffffffffffffffffffffffff163373ffffffffffffffffffffffffffffffffffffffff161415156109eb57600080fd5b8060018190555050565b600060149054906101000a900460ff1681565b60055481565b600080600080600080600080600060149054906101000a900460ff16151515610a3657600080fd5b6000600554111515610a4757600080fd5b6001543410151515610a5857600080fd5b610a6061172b565b9750610a6b886117e0565b809750819850829a508399505050505060008673ffffffffffffffffffffffffffffffffffffffff1614151515610aa157600080fd5b8573ffffffffffffffffffffffffffffffffffffffff1663d6bb68a76040518163ffffffff167c0100000000000000000000000000000000000000000000000000000000028152600401602060405180830381600087803b1515610b0457600080fd5b5af11515610b1157600080fd5b5050506040518051905087101515610b2857600080fd5b8573ffffffffffffffffffffffffffffffffffffffff16635d248369886040518263ffffffff167c0100000000000000000000000000000000000000000000000000000000028152600401808281526020019150506040805180830381600087803b1515610b9557600080fd5b5af11515610ba257600080fd5b505050604051805190602001805190508093508194505050610bc483836119b0565b9050600360009054906101000a900473ffffffffffffffffffffffffffffffffffffffff1673ffffffffffffffffffffffffffffffffffffffff166340c10f1933836040518363ffffffff167c0100000000000000000000000000000000000000000000000000000000028152600401808373ffffffffffffffffffffffffffffffffffffffff1673ffffffffffffffffffffffffffffffffffffffff1681526020018267ffffffffffffffff16815260200192505050600060405180830381600087803b1515610c9457600080fd5b5af11515610ca157600080fd5b50505060056000815480929190600190039190505550600685815481101515610cc657fe5b90600052602060002090016000815480929190600190039190505550600785815481101515610cf157fe5b90600052602060002090600402018463ffffffff16600481101515610d1257fe5b0160008154809291906001900391905055503373ffffffffffffffffffffffffffffffffffffffff167f6b33d5602159475f1dc26a546c2d402a7f7999ca183d8020266fbd46378619998484848c604051808563ffffffff1681526020018463ffffffff1681526020018367ffffffffffffffff1667ffffffffffffffff16815260200182815260200194505050505060405180910390a25050505050505050565b600360009054906101000a900473ffffffffffffffffffffffffffffffffffffffff1681565b6000809054906101000a900473ffffffffffffffffffffffffffffffffffffffff1673ffffffffffffffffffffffffffffffffffffffff163373ffffffffffffffffffffffffffffffffffffffff16141515610e3557600080fd5b6000809054906101000a900473ffffffffffffffffffffffffffffffffffffffff1673ffffffffffffffffffffffffffffffffffffffff16ff5b60008060009054906101000a900473ffffffffffffffffffffffffffffffffffffffff1673ffffffffffffffffffffffffffffffffffffffff163373ffffffffffffffffffffffffffffffffffffffff16141515610ecc57600080fd5b600060149054906101000a900460ff16151515610ee857600080fd5b6001600060146101000a81548160ff0219169083151502179055507f6985a02210a168e66602d3235cb6db0e70f92b3ba4d376a33c0f3d9434bff62560405160405180910390a16001905090565b6000809054906101000a900473ffffffffffffffffffffffffffffffffffffffff1681565b60015481565b6000806000806000806000809054906101000a900473ffffffffffffffffffffffffffffffffffffffff1673ffffffffffffffffffffffffffffffffffffffff163373ffffffffffffffffffffffffffffffffffffffff16141515610fc557600080fd5b8773ffffffffffffffffffffffffffffffffffffffff16633f0c51556040518163ffffffff167c0100000000000000000000000000000000000000000000000000000000028152600401602060405180830381600087803b151561102857600080fd5b5af1151561103557600080fd5b505050604051805190509550600163ffffffff168614151561105657600080fd5b6002945086858054905014156110a95784805480919060010161107991906119da565b506007805480919060010161108e9190611a0c565b50600680548091906001016110a39190611a3e565b506110bb565b86858054905010156110ba57600080fd5b5b60018873ffffffffffffffffffffffffffffffffffffffff1663477d5a116040518163ffffffff167c0100000000000000000000000000000000000000000000000000000000028152600401602060405180830381600087803b151561112057600080fd5b5af1151561112d57600080fd5b505050604051805190500393506000858881548110151561114a57fe5b90600052602060002090600402018560048110151561116557fe5b0160009054906101000a900473ffffffffffffffffffffffffffffffffffffffff1673ffffffffffffffffffffffffffffffffffffffff161415156111a957600080fd5b8785888154811015156111b857fe5b9060005260206000209060040201856004811015156111d357fe5b0160006101000a81548173ffffffffffffffffffffffffffffffffffffffff021916908373ffffffffffffffffffffffffffffffffffffffff160217905550600092508773ffffffffffffffffffffffffffffffffffffffff1663d6bb68a76040518163ffffffff167c0100000000000000000000000000000000000000000000000000000000028152600401602060405180830381600087803b151561127957600080fd5b5af1151561128657600080fd5b505050604051805190509150600090505b81811015611335578773ffffffffffffffffffffffffffffffffffffffff166351903db6826040518263ffffffff167c010000000000000000000000000000000000000000000000000000000002815260040180828152602001915050602060405180830381600087803b151561130d57600080fd5b5af1151561131a57600080fd5b50505060405180519050830192508080600101915050611297565b8260078881548110151561134557fe5b90600052602060002090600402018560048110151561136057fe5b0181905550826005600082825401925050819055508260068881548110151561138557fe5b9060005260206000209001600082825401925050819055507f5cff4eb80dfb55fc07f1f5b80766d31a7920156fd377b9b2436872442b3cf4128887604051808373ffffffffffffffffffffffffffffffffffffffff1673ffffffffffffffffffffffffffffffffffffffff1681526020018281526020019250505060405180910390a15050505050505050565b60068181548110151561142157fe5b90600052602060002090016000915090505481565b6000809054906101000a900473ffffffffffffffffffffffffffffffffffffffff1673ffffffffffffffffffffffffffffffffffffffff163373ffffffffffffffffffffffffffffffffffffffff1614151561149157600080fd5b80600460006101000a81548173ffffffffffffffffffffffffffffffffffffffff021916908373ffffffffffffffffffffffffffffffffffffffff16021790555050565b6007828154811015156114e457fe5b9060005260206000209060040201816004811015156114ff57fe5b01600091509150505481565b6000809054906101000a900473ffffffffffffffffffffffffffffffffffffffff1673ffffffffffffffffffffffffffffffffffffffff163373ffffffffffffffffffffffffffffffffffffffff1614151561156657600080fd5b600073ffffffffffffffffffffffffffffffffffffffff168173ffffffffffffffffffffffffffffffffffffffff16141515156115a257600080fd5b8073ffffffffffffffffffffffffffffffffffffffff166000809054906101000a900473ffffffffffffffffffffffffffffffffffffffff1673ffffffffffffffffffffffffffffffffffffffff167f8be0079c531659141344cd1fd0a4f28419497f9722a3daafe3b4186f6b6457e060405160405180910390a3806000806101000a81548173ffffffffffffffffffffffffffffffffffffffff021916908373ffffffffffffffffffffffffffffffffffffffff16021790555050565b6000809054906101000a900473ffffffffffffffffffffffffffffffffffffffff1673ffffffffffffffffffffffffffffffffffffffff163373ffffffffffffffffffffffffffffffffffffffff161415156116bb57600080fd5b8073ffffffffffffffffffffffffffffffffffffffff16ff5b6000620f42408263ffffffff168115156116ea57fe5b0463ffffffff169050919050565b60006064808363ffffffff1681151561170d57fe5b0463ffffffff1681151561171d57fe5b0663ffffffff169050919050565b600080600460009054906101000a900473ffffffffffffffffffffffffffffffffffffffff1673ffffffffffffffffffffffffffffffffffffffff16634c8fe5266040518163ffffffff167c0100000000000000000000000000000000000000000000000000000000028152600401602060405180830381600087803b15156117b357600080fd5b5af115156117c057600080fd5b505050604051805190509050600554818115156117d957fe5b0691505090565b6000806000806000806000806000806005548b1015156117ff57600080fd5b8a9550600092505b6002805490508310156119a25760068381548110151561182357fe5b90600052602060002090015494508486101561198f57600091505b600463ffffffff168263ffffffff16101561198a5760078381548110151561186257fe5b90600052602060002090600402018263ffffffff1660048110151561188357fe5b01549350838610156119785760028381548110151561189e57fe5b90600052602060002090600402018263ffffffff166004811015156118bf57fe5b0160009054906101000a900473ffffffffffffffffffffffffffffffffffffffff169050808173ffffffffffffffffffffffffffffffffffffffff166382d5ccb1886040518263ffffffff167c010000000000000000000000000000000000000000000000000000000002815260040180828152602001915050602060405180830381600087803b151561195257600080fd5b5af1151561195f57600080fd5b50505060405180519050848499509950995099506119a3565b8386039550818060010192505061183e565b611995565b84860395505b8280600101935050611807565b5b5050505050509193509193565b60008163ffffffff1660208463ffffffff1667ffffffffffffffff169060020a0201905092915050565b815481835581811511611a0757600402816004028360005260206000209182019101611a069190611a6a565b5b505050565b815481835581811511611a3957600402816004028360005260206000209182019101611a389190611a96565b5b505050565b815481835581811511611a6557818360005260206000209182019101611a649190611ac2565b5b505050565b611a9391905b80821115611a8f5760008181611a869190611ae7565b50600401611a70565b5090565b90565b611abf91905b80821115611abb5760008181611ab29190611b03565b50600401611a9c565b5090565b90565b611ae491905b80821115611ae0576000816000905550600101611ac8565b5090565b90565b5060008155600101600081556001016000815560010160009055565b50600081556001016000815560010160008155600101600090555600a165627a7a72305820b9be23be3d706eb523625c7695d5bb23c886eaf50d76d5343742917d8da8fae40029",
  "source": "pragma solidity ^0.4.0;\n\nimport \"./Package/Package.sol\";\nimport \"./Ctrlship/Pausable.sol\";\nimport \"./BTKMediator.sol\";\nimport \"./CardChecker.sol\";\nimport \"./libs/CardUtils.sol\";\nimport \"./Random.sol\";\nimport \"./Ctrlship/Destructible.sol\";\nimport \"./Ctrlship/Reclaim.sol\";\n\ncontract BTKSourceCtrl is Pausable, CardChecker, Destructible, Reclaim {\n    event BuyPackage(address indexed from, uint cate, uint num, uint64 card, uint randnum);\n    event AddPackage(address package, uint packageType);\n\n    uint32 constant CAMP_CNT = 4;\n    uint32 constant SOURCE_PACKAGE = 1;\n    uint public price = 10 wei;       //包的价格\n    \n    Package[CAMP_CNT][] public sourcePackages;\n\n    BTKMediator public mediator;\n    Random random;\n\n    uint public totalCardsCnt;               //可抽卡的当前总量\n    uint[] public cardsCnt;\n    uint[CAMP_CNT][] public campCardsCnt;\n\n    function existsOfCardCate(uint32 cate) public view returns (bool) {\n        uint pi = CardUtils.packageNum(cate);           //包的序号\n        uint ci = CardUtils.camp(cate) - 1;   //阵营\n        \n        if(ci >= CAMP_CNT) {\n            return false;\n        }\n\n        if(pi < sourcePackages.length &&\n            (address(sourcePackages[pi][ci]) != 0) && \n            sourcePackages[pi][ci].exists(cate)) {\n                return true;\n        }\n\n        return false;\n    }\n\n    function addPackage(Package package, uint n) external onlyOwner {\n        uint pType = package.packageType();\n        require(pType == SOURCE_PACKAGE);\n\n        Package[CAMP_CNT][] storage packages = sourcePackages;\n\n        if(packages.length == n) {\n            packages.length++;\n            campCardsCnt.length++;\n            cardsCnt.length++;\n        } else if(packages.length < n) {\n            revert();\n        }\n\n        uint camp = package.packageCamp() - 1;\n        require(address(packages[n][camp]) == 0);\n\n        packages[n][camp] = package;\n\n        uint cnt = 0;\n        uint cardCate = package.cardCateNum();\n        for(uint i = 0; i < cardCate; i++ ) {\n            cnt += package.cardRemainNum(i);\n        }\n\n        campCardsCnt[n][camp] = cnt;\n        totalCardsCnt += cnt;\n        cardsCnt[n] += cnt;\n\n        emit AddPackage(package, pType);\n    }\n\n    function setMediator(BTKMediator cont) external onlyOwner {\n        mediator = cont;\n    }\n\n    function setRandomAddress(Random _rand) external onlyOwner {\n        random = _rand;\n    }\n\n    function changePackagePrice(uint _price) external onlyOwner {\n        price = _price;\n    }\n    \n    function buyPackage() external payable whenNotPaused {\n        require(totalCardsCnt > 0);\n        require(msg.value >= price);\n        uint randnum = _rand();\n        uint i;\n        Package p;\n        uint pi;\n        uint32 camp;\n        (p, i, pi, camp) = _getCardAtPos(randnum);\n\n        require(address(p) != 0);\n        require(i < p.cardCateNum());\n\n        uint32 cate;\n        uint32 num;\n        (cate, num) = p.drawCardWithIndex(i);\n\n        uint64 token = CardUtils.toToken(cate, num);\n\n        mediator.mint(msg.sender, token);\n\n        totalCardsCnt--;\n        cardsCnt[pi]--;\n        campCardsCnt[pi][camp]--;\n        \n        emit BuyPackage(msg.sender, cate, num, token, randnum);\n    }\n    \n    function _getCardAtPos(uint pos) internal view returns (Package, uint, uint, uint32) {\n        require(pos < totalCardsCnt);\n\n        uint cnt = pos;\n        uint packageCnt; \n        uint campPackageCnt;\n        for (uint i = 0; i < sourcePackages.length; i++) {\n            packageCnt = cardsCnt[i];\n            if(cnt < packageCnt) {\n                for(uint32 j = 0; j < CAMP_CNT; j++) {\n                    campPackageCnt = campCardsCnt[i][j];\n                    if(cnt < campPackageCnt) {\n                        Package p = sourcePackages[i][j];\n                        return (p, p.indexAtPos(cnt), i, j);\n                    } else {\n                        cnt -= campPackageCnt;\n                    }\n                }\n            } else {\n                cnt -= packageCnt;\n            }\n        }\n    }\n    \n    function _rand() internal returns (uint) {\n        uint _seed = random.next();\n        return _seed % totalCardsCnt;\n    }\n\n}\n",
  "sourcePath": "/Users/fq/work/blockchain/mjz_contract/contracts/BTKSourceCtrl.sol",
  "compiler": {
    "name": "solc",
    "version": "0.4.21+commit.dfe3193c.Emscripten.clang"
  },
  "schemaVersion": "2.0.0",
  "updatedAt": "2018-06-20T05:27:38.862Z"
}