{
  "contractName": "BasicComp3",
  "abi": [
    {
      "constant": true,
      "inputs": [],
      "name": "CARD_CATE",
      "outputs": [
        {
          "name": "",
          "type": "uint32"
        }
      ],
      "payable": false,
      "stateMutability": "view",
      "type": "function"
    },
    {
      "constant": true,
      "inputs": [],
      "name": "packageType",
      "outputs": [
        {
          "name": "",
          "type": "uint256"
        }
      ],
      "payable": false,
      "stateMutability": "view",
      "type": "function"
    },
    {
      "constant": false,
      "inputs": [],
      "name": "unpause",
      "outputs": [
        {
          "name": "",
          "type": "bool"
        }
      ],
      "payable": false,
      "stateMutability": "nonpayable",
      "type": "function"
    },
    {
      "constant": true,
      "inputs": [],
      "name": "_ctrl",
      "outputs": [
        {
          "name": "",
          "type": "address"
        }
      ],
      "payable": false,
      "stateMutability": "view",
      "type": "function"
    },
    {
      "constant": true,
      "inputs": [],
      "name": "packageCamp",
      "outputs": [
        {
          "name": "",
          "type": "uint256"
        }
      ],
      "payable": false,
      "stateMutability": "view",
      "type": "function"
    },
    {
      "constant": true,
      "inputs": [],
      "name": "paused",
      "outputs": [
        {
          "name": "",
          "type": "bool"
        }
      ],
      "payable": false,
      "stateMutability": "view",
      "type": "function"
    },
    {
      "constant": false,
      "inputs": [],
      "name": "pause",
      "outputs": [
        {
          "name": "",
          "type": "bool"
        }
      ],
      "payable": false,
      "stateMutability": "nonpayable",
      "type": "function"
    },
    {
      "constant": true,
      "inputs": [],
      "name": "owner",
      "outputs": [
        {
          "name": "",
          "type": "address"
        }
      ],
      "payable": false,
      "stateMutability": "view",
      "type": "function"
    },
    {
      "constant": false,
      "inputs": [
        {
          "name": "newCtrl",
          "type": "address"
        }
      ],
      "name": "transferCtrlShip",
      "outputs": [],
      "payable": false,
      "stateMutability": "nonpayable",
      "type": "function"
    },
    {
      "constant": false,
      "inputs": [
        {
          "name": "newOwner",
          "type": "address"
        }
      ],
      "name": "transferOwnership",
      "outputs": [],
      "payable": false,
      "stateMutability": "nonpayable",
      "type": "function"
    },
    {
      "inputs": [],
      "payable": false,
      "stateMutability": "nonpayable",
      "type": "constructor"
    },
    {
      "anonymous": false,
      "inputs": [
        {
          "indexed": true,
          "name": "previousCtrl",
          "type": "address"
        },
        {
          "indexed": true,
          "name": "newCtrl",
          "type": "address"
        }
      ],
      "name": "CtrlshipTransferred",
      "type": "event"
    },
    {
      "anonymous": false,
      "inputs": [],
      "name": "Pause",
      "type": "event"
    },
    {
      "anonymous": false,
      "inputs": [],
      "name": "Unpause",
      "type": "event"
    },
    {
      "anonymous": false,
      "inputs": [
        {
          "indexed": true,
          "name": "previousOwner",
          "type": "address"
        },
        {
          "indexed": true,
          "name": "newOwner",
          "type": "address"
        }
      ],
      "name": "OwnershipTransferred",
      "type": "event"
    },
    {
      "constant": false,
      "inputs": [
        {
          "name": "index",
          "type": "uint256"
        }
      ],
      "name": "drawCardWithIndex",
      "outputs": [
        {
          "name": "",
          "type": "uint32"
        },
        {
          "name": "",
          "type": "uint32"
        }
      ],
      "payable": false,
      "stateMutability": "nonpayable",
      "type": "function"
    },
    {
      "constant": false,
      "inputs": [
        {
          "name": "cate",
          "type": "uint32"
        }
      ],
      "name": "drawCardWithCate",
      "outputs": [
        {
          "name": "",
          "type": "uint32"
        }
      ],
      "payable": false,
      "stateMutability": "nonpayable",
      "type": "function"
    },
    {
      "constant": true,
      "inputs": [],
      "name": "cardCateNum",
      "outputs": [
        {
          "name": "",
          "type": "uint256"
        }
      ],
      "payable": false,
      "stateMutability": "view",
      "type": "function"
    },
    {
      "constant": true,
      "inputs": [
        {
          "name": "pos",
          "type": "uint256"
        }
      ],
      "name": "indexAtPos",
      "outputs": [
        {
          "name": "",
          "type": "uint256"
        }
      ],
      "payable": false,
      "stateMutability": "view",
      "type": "function"
    },
    {
      "constant": true,
      "inputs": [
        {
          "name": "cate",
          "type": "uint32"
        }
      ],
      "name": "cardIndex",
      "outputs": [
        {
          "name": "",
          "type": "uint256"
        }
      ],
      "payable": false,
      "stateMutability": "view",
      "type": "function"
    },
    {
      "constant": true,
      "inputs": [
        {
          "name": "index",
          "type": "uint256"
        }
      ],
      "name": "cardCate",
      "outputs": [
        {
          "name": "",
          "type": "uint32"
        }
      ],
      "payable": false,
      "stateMutability": "view",
      "type": "function"
    },
    {
      "constant": true,
      "inputs": [
        {
          "name": "index",
          "type": "uint256"
        }
      ],
      "name": "cardRemainNum",
      "outputs": [
        {
          "name": "",
          "type": "uint256"
        }
      ],
      "payable": false,
      "stateMutability": "view",
      "type": "function"
    },
    {
      "constant": true,
      "inputs": [
        {
          "name": "index",
          "type": "uint256"
        }
      ],
      "name": "cardDrawedNum",
      "outputs": [
        {
          "name": "",
          "type": "uint256"
        }
      ],
      "payable": false,
      "stateMutability": "view",
      "type": "function"
    },
    {
      "constant": true,
      "inputs": [
        {
          "name": "cate",
          "type": "uint32"
        }
      ],
      "name": "exists",
      "outputs": [
        {
          "name": "",
          "type": "bool"
        }
      ],
      "payable": false,
      "stateMutability": "view",
      "type": "function"
    }
  ],
  "bytecode": "0x606060405260008060146101000a81548160ff02191690831515021790555060028055600380556108006040519081016040528061c48762ffffff16815260200161c48862ffffff16815260200161c48962ffffff16815260200161c48a62ffffff16815260200161c48b62ffffff16815260200161c48c62ffffff16815260200161c48d62ffffff16815260200161c48e62ffffff16815260200161eb8d62ffffff16815260200161eb8e62ffffff16815260200161eb8f62ffffff16815260200161eb9062ffffff16815260200161eb9162ffffff16815260200161eb9262ffffff16815260200161eb9362ffffff16815260200161eb9462ffffff16815260200161eb9762ffffff16815260200161eb9962ffffff16815260200161eb9b62ffffff16815260200161eb9d62ffffff1681526020016201129d62ffffff1681526020016201129e62ffffff1681526020016201129f62ffffff168152602001620112a062ffffff168152602001620112a162ffffff168152602001620112a262ffffff168152602001620112a362ffffff168152602001620112a462ffffff168152602001620112a762ffffff168152602001620112a962ffffff168152602001620112ab62ffffff168152602001620112ad62ffffff168152602001620139ad62ffffff168152602001620139ae62ffffff168152602001620139af62ffffff168152602001620139b062ffffff168152602001620139b162ffffff168152602001620139b262ffffff168152602001620139b362ffffff168152602001620139b462ffffff168152602001620139b762ffffff168152602001620139b962ffffff168152602001620139bb62ffffff168152602001620139bd62ffffff168152602001620160bd62ffffff168152602001620160be62ffffff168152602001620160bf62ffffff168152602001620160c062ffffff168152602001620160c162ffffff168152602001620160c262ffffff168152602001620160c362ffffff168152602001620160c462ffffff168152602001620160c762ffffff168152602001620160c962ffffff168152602001620160cb62ffffff168152602001620160cd62ffffff168152602001620187cd62ffffff168152602001620187ce62ffffff168152602001620187cf62ffffff168152602001620187d062ffffff168152602001620187d162ffffff168152602001620187d262ffffff168152602001620187d362ffffff168152602001620187d462ffffff168152506004906040620003af9291906200077c565b5061080060405190810160405280603e60ff168152602001603e60ff168152602001603e60ff168152602001603e60ff168152602001603e60ff168152602001603e60ff168152602001603e60ff168152602001603e60ff168152602001600860ff168152602001600860ff168152602001600860ff168152602001600860ff168152602001600860ff168152602001600860ff168152602001600860ff168152602001600860ff168152602001600860ff168152602001600860ff168152602001600860ff168152602001600860ff168152602001600560ff168152602001600560ff168152602001600560ff168152602001600560ff168152602001600560ff168152602001600560ff168152602001600560ff168152602001600560ff168152602001600560ff168152602001600560ff168152602001600560ff168152602001600560ff168152602001600260ff168152602001600260ff168152602001600260ff168152602001600260ff168152602001600260ff168152602001600260ff168152602001600260ff168152602001600260ff168152602001600260ff168152602001600260ff168152602001600260ff168152602001600260ff168152602001600160ff168152602001600160ff168152602001600160ff168152602001600160ff168152602001600160ff168152602001600160ff168152602001600160ff168152602001600160ff168152602001600160ff168152602001600160ff168152602001600160ff168152602001600160ff168152602001600160ff168152602001600160ff168152602001600160ff168152602001600160ff168152602001600160ff168152602001600160ff168152602001600160ff168152602001600160ff16815250600c9060406200064d92919062000825565b5034156200065a57600080fd5b6000336000806101000a81548173ffffffffffffffffffffffffffffffffffffffff021916908373ffffffffffffffffffffffffffffffffffffffff16021790555033600160006101000a81548173ffffffffffffffffffffffffffffffffffffffff021916908373ffffffffffffffffffffffffffffffffffffffff160217905550600090505b604063ffffffff168163ffffffff161015620007755780601c600060048463ffffffff166040811015156200071357fe5b600891828204019190066004029054906101000a900463ffffffff1663ffffffff1663ffffffff16815260200190815260200160002060006101000a81548163ffffffff021916908363ffffffff1602179055508080600101915050620006e2565b5062000902565b826040600701600890048101928215620008125791602002820160005b83821115620007de57835183826101000a81548163ffffffff021916908362ffffff160217905550926020019260040160208160030104928301926001030262000799565b8015620008105782816101000a81549063ffffffff0219169055600401602081600301049283019260010302620007de565b505b509050620008219190620008cc565b5090565b826040600701600890048101928215620008b95791602002820160005b838211156200088557835183826101000a81548163ffffffff021916908360ff160217905550926020019260040160208160030104928301926001030262000842565b8015620008b75782816101000a81549063ffffffff021916905560040160208160030104928301926001030262000885565b505b509050620008c89190620008cc565b5090565b620008ff91905b80821115620008fb57600081816101000a81549063ffffffff021916905550600101620008d3565b5090565b90565b610fa080620009126000396000f300606060405260043610610107576000357c0100000000000000000000000000000000000000000000000000000000900463ffffffff16806313c369ed1461010c5780631a1451ae1461014d5780631dfeb884146101825780633f0c5155146101cb5780633f4ba83a146101f457806343eb136814610221578063477d5a111461027657806351903db61461029f5780635c975abb146102d65780635d248369146103035780635d3753d1146103595780637eab59fd1461039657806382d5ccb1146103d95780638456cb59146104105780638da5cb5b1461043d57806397122d4e14610492578063d6bb68a7146104c9578063e6f8008a146104f2578063f2fde38b1461052b575b600080fd5b341561011757600080fd5b610133600480803563ffffffff16906020019091905050610564565b604051808215151515815260200191505060405180910390f35b341561015857600080fd5b6101606105f9565b604051808263ffffffff1663ffffffff16815260200191505060405180910390f35b341561018d57600080fd5b6101a9600480803563ffffffff169060200190919050506105fe565b604051808263ffffffff1663ffffffff16815260200191505060405180910390f35b34156101d657600080fd5b6101de610724565b6040518082815260200191505060405180910390f35b34156101ff57600080fd5b61020761072e565b604051808215151515815260200191505060405180910390f35b341561022c57600080fd5b6102346107f3565b604051808273ffffffffffffffffffffffffffffffffffffffff1673ffffffffffffffffffffffffffffffffffffffff16815260200191505060405180910390f35b341561028157600080fd5b610289610819565b6040518082815260200191505060405180910390f35b34156102aa57600080fd5b6102c06004808035906020019091905050610823565b6040518082815260200191505060405180910390f35b34156102e157600080fd5b6102e961086c565b604051808215151515815260200191505060405180910390f35b341561030e57600080fd5b610324600480803590602001909190505061087f565b604051808363ffffffff1663ffffffff1681526020018263ffffffff1663ffffffff1681526020019250505060405180910390f35b341561036457600080fd5b610380600480803563ffffffff16906020019091905050610994565b6040518082815260200191505060405180910390f35b34156103a157600080fd5b6103b760048080359060200190919050506109e7565b604051808263ffffffff1663ffffffff16815260200191505060405180910390f35b34156103e457600080fd5b6103fa6004808035906020019091905050610a2a565b6040518082815260200191505060405180910390f35b341561041b57600080fd5b610423610ada565b604051808215151515815260200191505060405180910390f35b341561044857600080fd5b610450610ba1565b604051808273ffffffffffffffffffffffffffffffffffffffff1673ffffffffffffffffffffffffffffffffffffffff16815260200191505060405180910390f35b341561049d57600080fd5b6104b36004808035906020019091905050610bc6565b6040518082815260200191505060405180910390f35b34156104d457600080fd5b6104dc610c0f565b6040518082815260200191505060405180910390f35b34156104fd57600080fd5b610529600480803573ffffffffffffffffffffffffffffffffffffffff16906020019091905050610c1e565b005b341561053657600080fd5b610562600480803573ffffffffffffffffffffffffffffffffffffffff16906020019091905050610d75565b005b60008060008363ffffffff1611156105ee57601c60008463ffffffff1663ffffffff16815260200190815260200160002060009054906101000a900463ffffffff1663ffffffff1690508263ffffffff166004826040811015156105c457fe5b600891828204019190066004029054906101000a900463ffffffff1663ffffffff161491506105f3565b600091505b50919050565b604081565b6000803373ffffffffffffffffffffffffffffffffffffffff16600160009054906101000a900473ffffffffffffffffffffffffffffffffffffffff1673ffffffffffffffffffffffffffffffffffffffff1614151561065d57600080fd5b61066683610564565b151561067157600080fd5b601c60008463ffffffff1663ffffffff16815260200190815260200160002060009054906101000a900463ffffffff1663ffffffff1690506000600c826040811015156106ba57fe5b600891828204019190066004029054906101000a900463ffffffff1663ffffffff161115156106e857600080fd5b6106f181610eca565b60148160408110151561070057fe5b600891828204019190066004029054906101000a900463ffffffff16915050919050565b6000600254905090565b60008060009054906101000a900473ffffffffffffffffffffffffffffffffffffffff1673ffffffffffffffffffffffffffffffffffffffff163373ffffffffffffffffffffffffffffffffffffffff1614151561078b57600080fd5b600060149054906101000a900460ff1615156107a657600080fd5b60008060146101000a81548160ff0219169083151502179055507f7805862f689e2f13df9f062ff482ad3ad112aca9e0847911ed832e158c525b3360405160405180910390a16001905090565b600160009054906101000a900473ffffffffffffffffffffffffffffffffffffffff1681565b6000600354905090565b600060408210151561083457600080fd5b600c8260408110151561084357fe5b600891828204019190066004029054906101000a900463ffffffff1663ffffffff169050919050565b600060149054906101000a900460ff1681565b6000803373ffffffffffffffffffffffffffffffffffffffff16600160009054906101000a900473ffffffffffffffffffffffffffffffffffffffff1673ffffffffffffffffffffffffffffffffffffffff161415156108de57600080fd5b6040831015156108ed57600080fd5b6000600c846040811015156108fe57fe5b600891828204019190066004029054906101000a900463ffffffff1663ffffffff1611151561092c57600080fd5b61093583610eca565b60048360408110151561094457fe5b600891828204019190066004029054906101000a900463ffffffff1660148460408110151561096f57fe5b600891828204019190066004029054906101000a900463ffffffff1691509150915091565b600061099f82610564565b15156109aa57600080fd5b601c60008363ffffffff1663ffffffff16815260200190815260200160002060009054906101000a900463ffffffff1663ffffffff169050919050565b60006040821015156109f857600080fd5b600482604081101515610a0757fe5b600891828204019190066004029054906101000a900463ffffffff169050919050565b6000806000839150600090505b604063ffffffff16811015610ac857600c81604081101515610a5557fe5b600891828204019190066004029054906101000a900463ffffffff1663ffffffff16821015610a8657809250610ad3565b600c81604081101515610a9557fe5b600891828204019190066004029054906101000a900463ffffffff1663ffffffff16820391508080600101915050610a37565b604063ffffffff1692505b5050919050565b60008060009054906101000a900473ffffffffffffffffffffffffffffffffffffffff1673ffffffffffffffffffffffffffffffffffffffff163373ffffffffffffffffffffffffffffffffffffffff16141515610b3757600080fd5b600060149054906101000a900460ff16151515610b5357600080fd5b6001600060146101000a81548160ff0219169083151502179055507f6985a02210a168e66602d3235cb6db0e70f92b3ba4d376a33c0f3d9434bff62560405160405180910390a16001905090565b6000809054906101000a900473ffffffffffffffffffffffffffffffffffffffff1681565b6000604082101515610bd757600080fd5b601482604081101515610be657fe5b600891828204019190066004029054906101000a900463ffffffff1663ffffffff169050919050565b6000604063ffffffff16905090565b6000809054906101000a900473ffffffffffffffffffffffffffffffffffffffff1673ffffffffffffffffffffffffffffffffffffffff163373ffffffffffffffffffffffffffffffffffffffff16141515610c7957600080fd5b600073ffffffffffffffffffffffffffffffffffffffff168173ffffffffffffffffffffffffffffffffffffffff1614151515610cb557600080fd5b8073ffffffffffffffffffffffffffffffffffffffff16600160009054906101000a900473ffffffffffffffffffffffffffffffffffffffff1673ffffffffffffffffffffffffffffffffffffffff167f7ee895d642e6d734d10e3455ac71d46eaf396097678df50aae1ed447e171cee460405160405180910390a380600160006101000a81548173ffffffffffffffffffffffffffffffffffffffff021916908373ffffffffffffffffffffffffffffffffffffffff16021790555050565b6000809054906101000a900473ffffffffffffffffffffffffffffffffffffffff1673ffffffffffffffffffffffffffffffffffffffff163373ffffffffffffffffffffffffffffffffffffffff16141515610dd057600080fd5b600073ffffffffffffffffffffffffffffffffffffffff168173ffffffffffffffffffffffffffffffffffffffff1614151515610e0c57600080fd5b8073ffffffffffffffffffffffffffffffffffffffff166000809054906101000a900473ffffffffffffffffffffffffffffffffffffffff1673ffffffffffffffffffffffffffffffffffffffff167f8be0079c531659141344cd1fd0a4f28419497f9722a3daafe3b4186f6b6457e060405160405180910390a3806000806101000a81548173ffffffffffffffffffffffffffffffffffffffff021916908373ffffffffffffffffffffffffffffffffffffffff16021790555050565b600c81604081101515610ed957fe5b6008918282040191900660040281819054906101000a900463ffffffff16809291906001900391906101000a81548163ffffffff021916908363ffffffff16021790555050601481604081101515610f2d57fe5b6008918282040191900660040281819054906101000a900463ffffffff168092919060010191906101000a81548163ffffffff021916908363ffffffff16021790555050505600a165627a7a723058203853634fff5ebf17eef3304fce077286fe48bc50fc5ed0c91b59e6917531af2f0029",
  "source": "pragma solidity ^0.4.21;\n\nimport \"./CompPackage.sol\";\nimport \"./WuPackage.sol\";\n\ncontract BasicComp3 is CompPackage, WuPackage {\n    uint32 public constant CARD_CATE = 64;     //合成卡的数量\n\n    uint32[CARD_CATE] internal _cardCates = [50311, 50312, 50313, 50314, 50315, 50316, 50317, 50318, 60301, 60302, 60303, 60304, 60305, 60306, 60307, 60308, 60311, 60313, 60315, 60317, 70301, 70302, 70303, 70304, 70305, 70306, 70307, 70308, 70311, 70313, 70315, 70317, 80301, 80302, 80303, 80304, 80305, 80306, 80307, 80308, 80311, 80313, 80315, 80317, 90301, 90302, 90303, 90304, 90305, 90306, 90307, 90308, 90311, 90313, 90315, 90317, 100301, 100302, 100303, 100304, 100305, 100306, 100307, 100308];\n    uint32[CARD_CATE] internal _cardsCnt = [62, 62, 62, 62, 62, 62, 62, 62, 8, 8, 8, 8, 8, 8, 8, 8, 8, 8, 8, 8, 5, 5, 5, 5, 5, 5, 5, 5, 5, 5, 5, 5, 2, 2, 2, 2, 2, 2, 2, 2, 2, 2, 2, 2, 1, 1, 1, 1, 1, 1, 1, 1, 1, 1, 1, 1, 1, 1, 1, 1, 1, 1, 1, 1];\n    //包里每张卡已卖出的数量\n    uint32[CARD_CATE] internal _cardsNum;\n\n    mapping (uint32 => uint32) internal _cardCateToIndex;\n\n    function BasicComp3 () public\n    {\n        \n        for(uint32 i = 0; i < CARD_CATE; i++) {\n\n            _cardCateToIndex[_cardCates[i]] = i;\n        }\n    }\n\n    // function initCateIndex() external onlyCtrl {\n    //     for(uint32 i = 0; i < CARD_CATE; i++) {\n\n    //         _cardCateToIndex[_cardCates[i]] = i;\n    //     }\n    // }\n\n    //抽卡\n    function drawCardWithIndex(uint index) external onlyCtrl returns(uint32, uint32) {\n        require(index < _cardsCnt.length);\n        require(_cardsCnt[index] > 0);\n\n        _drawCard(index);\n\n        return (_cardCates[index], _cardsNum[index]);\n    }\n\n    function drawCardWithCate(uint32 cate) external onlyCtrl returns(uint32) {\n        require(exists(cate));\n\n        uint index = _cardCateToIndex[cate];\n\n        require(_cardsCnt[index] > 0);\n        _drawCard(index);\n\n        return _cardsNum[index];\n    } \n\n    //包里卡的种类数量\n    function cardCateNum() external view returns(uint) {\n        return CARD_CATE;\n    }\n\n    //包里第pos张卡的索引\n    function indexAtPos(uint pos) external view returns(uint) {\n        uint cnt = pos;\n        for(uint i = 0; i < CARD_CATE; i++) {\n            if(cnt < _cardsCnt[i]) {\n                return i;\n            } else {\n                cnt -= _cardsCnt[i];\n            }\n        }\n\n        return CARD_CATE;\n    }\n\n    //根据卡的id获取卡的索引\n    function cardIndex(uint32 cate) public view returns(uint) {\n        require(exists(cate));\n        return _cardCateToIndex[cate];\n    }\n\n    //索引为index的卡的id\n    function cardCate(uint index) public view returns(uint32) {\n        require(index < _cardCates.length);\n        return _cardCates[index];\n    }\n\n    //索引为i的卡剩余的数量\n    function cardRemainNum(uint index) public view returns(uint) {\n        require(index < _cardsCnt.length);\n        return _cardsCnt[index];\n    }\n\n    //索引为i的卡已抽出来的数量\n    function cardDrawedNum(uint index) public view returns(uint) {\n        require(index < _cardsNum.length);\n        return _cardsNum[index];\n    }\n\n    function _drawCard(uint index) internal {\n        _cardsCnt[index]--;\n        _cardsNum[index]++;\n    }\n\n    function exists(uint32 cate) public view returns(bool) {\n        if (cate > 0) {\n            uint index = _cardCateToIndex[cate];\n            return _cardCates[index] == cate;\n        } else {\n            return false;\n        }\n    }\n}",
  "sourcePath": "/Users/fq/work/blockchain/mjz_contract/contracts/Package/BasicComp3.sol",
  "compiler": {
    "name": "solc",
    "version": "0.4.21+commit.dfe3193c.Emscripten.clang"
  },
  "schemaVersion": "2.0.0",
  "updatedAt": "2018-06-20T05:27:30.711Z"
}