{
  "contractName": "BasicSource4",
  "abi": [
    {
      "constant": true,
      "inputs": [],
      "name": "CARD_CATE",
      "outputs": [
        {
          "name": "",
          "type": "uint256"
        }
      ],
      "payable": false,
      "stateMutability": "view",
      "type": "function"
    },
    {
      "constant": true,
      "inputs": [],
      "name": "packageType",
      "outputs": [
        {
          "name": "",
          "type": "uint256"
        }
      ],
      "payable": false,
      "stateMutability": "view",
      "type": "function"
    },
    {
      "constant": false,
      "inputs": [],
      "name": "unpause",
      "outputs": [
        {
          "name": "",
          "type": "bool"
        }
      ],
      "payable": false,
      "stateMutability": "nonpayable",
      "type": "function"
    },
    {
      "constant": true,
      "inputs": [],
      "name": "_ctrl",
      "outputs": [
        {
          "name": "",
          "type": "address"
        }
      ],
      "payable": false,
      "stateMutability": "view",
      "type": "function"
    },
    {
      "constant": true,
      "inputs": [],
      "name": "packageCamp",
      "outputs": [
        {
          "name": "",
          "type": "uint256"
        }
      ],
      "payable": false,
      "stateMutability": "view",
      "type": "function"
    },
    {
      "constant": true,
      "inputs": [],
      "name": "paused",
      "outputs": [
        {
          "name": "",
          "type": "bool"
        }
      ],
      "payable": false,
      "stateMutability": "view",
      "type": "function"
    },
    {
      "constant": false,
      "inputs": [],
      "name": "pause",
      "outputs": [
        {
          "name": "",
          "type": "bool"
        }
      ],
      "payable": false,
      "stateMutability": "nonpayable",
      "type": "function"
    },
    {
      "constant": true,
      "inputs": [],
      "name": "owner",
      "outputs": [
        {
          "name": "",
          "type": "address"
        }
      ],
      "payable": false,
      "stateMutability": "view",
      "type": "function"
    },
    {
      "constant": false,
      "inputs": [
        {
          "name": "newCtrl",
          "type": "address"
        }
      ],
      "name": "transferCtrlShip",
      "outputs": [],
      "payable": false,
      "stateMutability": "nonpayable",
      "type": "function"
    },
    {
      "constant": false,
      "inputs": [
        {
          "name": "newOwner",
          "type": "address"
        }
      ],
      "name": "transferOwnership",
      "outputs": [],
      "payable": false,
      "stateMutability": "nonpayable",
      "type": "function"
    },
    {
      "inputs": [],
      "payable": false,
      "stateMutability": "nonpayable",
      "type": "constructor"
    },
    {
      "anonymous": false,
      "inputs": [
        {
          "indexed": true,
          "name": "previousCtrl",
          "type": "address"
        },
        {
          "indexed": true,
          "name": "newCtrl",
          "type": "address"
        }
      ],
      "name": "CtrlshipTransferred",
      "type": "event"
    },
    {
      "anonymous": false,
      "inputs": [],
      "name": "Pause",
      "type": "event"
    },
    {
      "anonymous": false,
      "inputs": [],
      "name": "Unpause",
      "type": "event"
    },
    {
      "anonymous": false,
      "inputs": [
        {
          "indexed": true,
          "name": "previousOwner",
          "type": "address"
        },
        {
          "indexed": true,
          "name": "newOwner",
          "type": "address"
        }
      ],
      "name": "OwnershipTransferred",
      "type": "event"
    },
    {
      "constant": false,
      "inputs": [
        {
          "name": "index",
          "type": "uint256"
        }
      ],
      "name": "drawCardWithIndex",
      "outputs": [
        {
          "name": "",
          "type": "uint32"
        },
        {
          "name": "",
          "type": "uint32"
        }
      ],
      "payable": false,
      "stateMutability": "nonpayable",
      "type": "function"
    },
    {
      "constant": false,
      "inputs": [
        {
          "name": "cate",
          "type": "uint32"
        }
      ],
      "name": "drawCardWithCate",
      "outputs": [
        {
          "name": "",
          "type": "uint32"
        }
      ],
      "payable": false,
      "stateMutability": "nonpayable",
      "type": "function"
    },
    {
      "constant": true,
      "inputs": [],
      "name": "cardCateNum",
      "outputs": [
        {
          "name": "",
          "type": "uint256"
        }
      ],
      "payable": false,
      "stateMutability": "view",
      "type": "function"
    },
    {
      "constant": true,
      "inputs": [
        {
          "name": "pos",
          "type": "uint256"
        }
      ],
      "name": "indexAtPos",
      "outputs": [
        {
          "name": "",
          "type": "uint256"
        }
      ],
      "payable": false,
      "stateMutability": "view",
      "type": "function"
    },
    {
      "constant": true,
      "inputs": [
        {
          "name": "cate",
          "type": "uint32"
        }
      ],
      "name": "cardIndex",
      "outputs": [
        {
          "name": "",
          "type": "uint256"
        }
      ],
      "payable": false,
      "stateMutability": "view",
      "type": "function"
    },
    {
      "constant": true,
      "inputs": [
        {
          "name": "index",
          "type": "uint256"
        }
      ],
      "name": "cardCate",
      "outputs": [
        {
          "name": "",
          "type": "uint32"
        }
      ],
      "payable": false,
      "stateMutability": "view",
      "type": "function"
    },
    {
      "constant": true,
      "inputs": [
        {
          "name": "index",
          "type": "uint256"
        }
      ],
      "name": "cardRemainNum",
      "outputs": [
        {
          "name": "",
          "type": "uint256"
        }
      ],
      "payable": false,
      "stateMutability": "view",
      "type": "function"
    },
    {
      "constant": true,
      "inputs": [
        {
          "name": "index",
          "type": "uint256"
        }
      ],
      "name": "cardDrawedNum",
      "outputs": [
        {
          "name": "",
          "type": "uint256"
        }
      ],
      "payable": false,
      "stateMutability": "view",
      "type": "function"
    },
    {
      "constant": true,
      "inputs": [
        {
          "name": "cate",
          "type": "uint32"
        }
      ],
      "name": "exists",
      "outputs": [
        {
          "name": "",
          "type": "bool"
        }
      ],
      "payable": false,
      "stateMutability": "view",
      "type": "function"
    }
  ],
  "bytecode": "0x606060405260008060146101000a81548160ff02191690831515021790555060016002556004600355610280604051908101604052806176c161ffff1681526020016176c261ffff1681526020016176c361ffff1681526020016176c461ffff168152602001619ddb61ffff168152602001619ddc61ffff168152602001619ddd61ffff168152602001619dde61ffff168152602001619ddf61ffff168152602001619de061ffff168152602001619de161ffff168152602001619de261ffff16815260200161c4e161ffff16815260200161c4e261ffff16815260200161c4e361ffff16815260200161c4e461ffff16815260200161c4e561ffff16815260200161c4e661ffff16815260200161c4e761ffff16815260200161c4e861ffff1681525060049060146200013592919062000364565b5061028060405190810160405280610b6861ffff168152602001610b6861ffff168152602001610b6861ffff168152602001610b6861ffff1681526020016101f461ffff1681526020016101f461ffff1681526020016101f461ffff1681526020016101f461ffff1681526020016101f461ffff1681526020016101f461ffff1681526020016101f461ffff1681526020016101f461ffff168152602001602861ffff168152602001602861ffff168152602001602861ffff168152602001602861ffff168152602001602861ffff168152602001602861ffff168152602001602861ffff168152602001602861ffff1681525060079060146200023b92919062000364565b5034156200024857600080fd5b6000336000806101000a81548173ffffffffffffffffffffffffffffffffffffffff021916908373ffffffffffffffffffffffffffffffffffffffff16021790555033600160006101000a81548173ffffffffffffffffffffffffffffffffffffffff021916908373ffffffffffffffffffffffffffffffffffffffff160217905550600090505b60148163ffffffff1610156200035d5780600d600060048463ffffffff16601481101515620002fb57fe5b600891828204019190066004029054906101000a900463ffffffff1663ffffffff1663ffffffff16815260200190815260200160002060006101000a81548163ffffffff021916908363ffffffff1602179055508080600101915050620002d0565b5062000442565b826014600701600890048101928215620003f95791602002820160005b83821115620003c557835183826101000a81548163ffffffff021916908361ffff160217905550926020019260040160208160030104928301926001030262000381565b8015620003f75782816101000a81549063ffffffff0219169055600401602081600301049283019260010302620003c5565b505b5090506200040891906200040c565b5090565b6200043f91905b808211156200043b57600081816101000a81549063ffffffff02191690555060010162000413565b5090565b90565b610f8280620004526000396000f300606060405260043610610107576000357c0100000000000000000000000000000000000000000000000000000000900463ffffffff16806313c369ed1461010c5780631a1451ae1461014d5780631dfeb884146101765780633f0c5155146101bf5780633f4ba83a146101e857806343eb136814610215578063477d5a111461026a57806351903db6146102935780635c975abb146102ca5780635d248369146102f75780635d3753d11461034d5780637eab59fd1461038a57806382d5ccb1146103cd5780638456cb59146104045780638da5cb5b1461043157806397122d4e14610486578063d6bb68a7146104bd578063e6f8008a146104e6578063f2fde38b1461051f575b600080fd5b341561011757600080fd5b610133600480803563ffffffff16906020019091905050610558565b604051808215151515815260200191505060405180910390f35b341561015857600080fd5b6101606105ed565b6040518082815260200191505060405180910390f35b341561018157600080fd5b61019d600480803563ffffffff169060200190919050506105f2565b604051808263ffffffff1663ffffffff16815260200191505060405180910390f35b34156101ca57600080fd5b6101d2610718565b6040518082815260200191505060405180910390f35b34156101f357600080fd5b6101fb610722565b604051808215151515815260200191505060405180910390f35b341561022057600080fd5b6102286107e7565b604051808273ffffffffffffffffffffffffffffffffffffffff1673ffffffffffffffffffffffffffffffffffffffff16815260200191505060405180910390f35b341561027557600080fd5b61027d61080d565b6040518082815260200191505060405180910390f35b341561029e57600080fd5b6102b46004808035906020019091905050610817565b6040518082815260200191505060405180910390f35b34156102d557600080fd5b6102dd610860565b604051808215151515815260200191505060405180910390f35b341561030257600080fd5b6103186004808035906020019091905050610873565b604051808363ffffffff1663ffffffff1681526020018263ffffffff1663ffffffff1681526020019250505060405180910390f35b341561035857600080fd5b610374600480803563ffffffff16906020019091905050610988565b6040518082815260200191505060405180910390f35b341561039557600080fd5b6103ab60048080359060200190919050506109db565b604051808263ffffffff1663ffffffff16815260200191505060405180910390f35b34156103d857600080fd5b6103ee6004808035906020019091905050610a1e565b6040518082815260200191505060405180910390f35b341561040f57600080fd5b610417610ac2565b604051808215151515815260200191505060405180910390f35b341561043c57600080fd5b610444610b89565b604051808273ffffffffffffffffffffffffffffffffffffffff1673ffffffffffffffffffffffffffffffffffffffff16815260200191505060405180910390f35b341561049157600080fd5b6104a76004808035906020019091905050610bae565b6040518082815260200191505060405180910390f35b34156104c857600080fd5b6104d0610bf7565b6040518082815260200191505060405180910390f35b34156104f157600080fd5b61051d600480803573ffffffffffffffffffffffffffffffffffffffff16906020019091905050610c00565b005b341561052a57600080fd5b610556600480803573ffffffffffffffffffffffffffffffffffffffff16906020019091905050610d57565b005b60008060008363ffffffff1611156105e257600d60008463ffffffff1663ffffffff16815260200190815260200160002060009054906101000a900463ffffffff1663ffffffff1690508263ffffffff166004826014811015156105b857fe5b600891828204019190066004029054906101000a900463ffffffff1663ffffffff161491506105e7565b600091505b50919050565b601481565b6000803373ffffffffffffffffffffffffffffffffffffffff16600160009054906101000a900473ffffffffffffffffffffffffffffffffffffffff1673ffffffffffffffffffffffffffffffffffffffff1614151561065157600080fd5b61065a83610558565b151561066557600080fd5b600d60008463ffffffff1663ffffffff16815260200190815260200160002060009054906101000a900463ffffffff1663ffffffff16905060006007826014811015156106ae57fe5b600891828204019190066004029054906101000a900463ffffffff1663ffffffff161115156106dc57600080fd5b6106e581610eac565b600a816014811015156106f457fe5b600891828204019190066004029054906101000a900463ffffffff16915050919050565b6000600254905090565b60008060009054906101000a900473ffffffffffffffffffffffffffffffffffffffff1673ffffffffffffffffffffffffffffffffffffffff163373ffffffffffffffffffffffffffffffffffffffff1614151561077f57600080fd5b600060149054906101000a900460ff16151561079a57600080fd5b60008060146101000a81548160ff0219169083151502179055507f7805862f689e2f13df9f062ff482ad3ad112aca9e0847911ed832e158c525b3360405160405180910390a16001905090565b600160009054906101000a900473ffffffffffffffffffffffffffffffffffffffff1681565b6000600354905090565b600060148210151561082857600080fd5b60078260148110151561083757fe5b600891828204019190066004029054906101000a900463ffffffff1663ffffffff169050919050565b600060149054906101000a900460ff1681565b6000803373ffffffffffffffffffffffffffffffffffffffff16600160009054906101000a900473ffffffffffffffffffffffffffffffffffffffff1673ffffffffffffffffffffffffffffffffffffffff161415156108d257600080fd5b6014831015156108e157600080fd5b60006007846014811015156108f257fe5b600891828204019190066004029054906101000a900463ffffffff1663ffffffff1611151561092057600080fd5b61092983610eac565b60048360148110151561093857fe5b600891828204019190066004029054906101000a900463ffffffff16600a8460148110151561096357fe5b600891828204019190066004029054906101000a900463ffffffff1691509150915091565b600061099382610558565b151561099e57600080fd5b600d60008363ffffffff1663ffffffff16815260200190815260200160002060009054906101000a900463ffffffff1663ffffffff169050919050565b60006014821015156109ec57600080fd5b6004826014811015156109fb57fe5b600891828204019190066004029054906101000a900463ffffffff169050919050565b6000806000839150600090505b6014811015610ab657600781601481101515610a4357fe5b600891828204019190066004029054906101000a900463ffffffff1663ffffffff16821015610a7457809250610abb565b600781601481101515610a8357fe5b600891828204019190066004029054906101000a900463ffffffff1663ffffffff16820391508080600101915050610a2b565b601492505b5050919050565b60008060009054906101000a900473ffffffffffffffffffffffffffffffffffffffff1673ffffffffffffffffffffffffffffffffffffffff163373ffffffffffffffffffffffffffffffffffffffff16141515610b1f57600080fd5b600060149054906101000a900460ff16151515610b3b57600080fd5b6001600060146101000a81548160ff0219169083151502179055507f6985a02210a168e66602d3235cb6db0e70f92b3ba4d376a33c0f3d9434bff62560405160405180910390a16001905090565b6000809054906101000a900473ffffffffffffffffffffffffffffffffffffffff1681565b6000601482101515610bbf57600080fd5b600a82601481101515610bce57fe5b600891828204019190066004029054906101000a900463ffffffff1663ffffffff169050919050565b60006014905090565b6000809054906101000a900473ffffffffffffffffffffffffffffffffffffffff1673ffffffffffffffffffffffffffffffffffffffff163373ffffffffffffffffffffffffffffffffffffffff16141515610c5b57600080fd5b600073ffffffffffffffffffffffffffffffffffffffff168173ffffffffffffffffffffffffffffffffffffffff1614151515610c9757600080fd5b8073ffffffffffffffffffffffffffffffffffffffff16600160009054906101000a900473ffffffffffffffffffffffffffffffffffffffff1673ffffffffffffffffffffffffffffffffffffffff167f7ee895d642e6d734d10e3455ac71d46eaf396097678df50aae1ed447e171cee460405160405180910390a380600160006101000a81548173ffffffffffffffffffffffffffffffffffffffff021916908373ffffffffffffffffffffffffffffffffffffffff16021790555050565b6000809054906101000a900473ffffffffffffffffffffffffffffffffffffffff1673ffffffffffffffffffffffffffffffffffffffff163373ffffffffffffffffffffffffffffffffffffffff16141515610db257600080fd5b600073ffffffffffffffffffffffffffffffffffffffff168173ffffffffffffffffffffffffffffffffffffffff1614151515610dee57600080fd5b8073ffffffffffffffffffffffffffffffffffffffff166000809054906101000a900473ffffffffffffffffffffffffffffffffffffffff1673ffffffffffffffffffffffffffffffffffffffff167f8be0079c531659141344cd1fd0a4f28419497f9722a3daafe3b4186f6b6457e060405160405180910390a3806000806101000a81548173ffffffffffffffffffffffffffffffffffffffff021916908373ffffffffffffffffffffffffffffffffffffffff16021790555050565b600781601481101515610ebb57fe5b6008918282040191900660040281819054906101000a900463ffffffff16809291906001900391906101000a81548163ffffffff021916908363ffffffff16021790555050600a81601481101515610f0f57fe5b6008918282040191900660040281819054906101000a900463ffffffff168092919060010191906101000a81548163ffffffff021916908363ffffffff16021790555050505600a165627a7a7230582054a3d76d0d4a512600c20621deb93ec5fd6710ee50f8a69fd92ad0e76a33c0ed0029",
  "source": "pragma solidity ^0.4.21;\n\nimport \"./SourcePackage.sol\";\nimport \"./QunPackage.sol\";\n\ncontract BasicSource4 is SourcePackage, QunPackage {\n\n    uint public constant CARD_CATE = 20;       //可抽卡的种类\n\n    uint32[CARD_CATE] internal _cardCates = [30401, 30402, 30403, 30404, 40411, 40412, 40413, 40414, 40415, 40416, 40417, 40418, 50401, 50402, 50403, 50404, 50405, 50406, 50407, 50408];\n    uint32[CARD_CATE] internal _cardsCnt = [2920, 2920, 2920, 2920, 500, 500, 500, 500, 500, 500, 500, 500, 40, 40, 40, 40, 40, 40, 40, 40];\n    //包里每张卡已卖出的数量\n    uint32[CARD_CATE] internal _cardsNum;\n\n    mapping (uint32 => uint32) internal _cardCateToIndex;\n\n\n    function BasicSource4 () public\n    {\n        \n        for(uint32 i = 0; i < CARD_CATE; i++) {\n\n            _cardCateToIndex[_cardCates[i]] = i;\n        }\n    }\n\n    // function initCateIndex() external onlyCtrl {\n    //     for(uint32 i = 0; i < CARD_CATE; i++) {\n\n    //         _cardCateToIndex[_cardCates[i]] = i;\n    //     }\n    // }\n\n    //抽卡\n    function drawCardWithIndex(uint index) external onlyCtrl returns(uint32, uint32) {\n        require(index < _cardsCnt.length);\n        require(_cardsCnt[index] > 0);\n\n        _drawCard(index);\n\n        return (_cardCates[index], _cardsNum[index]);\n    }\n\n    function drawCardWithCate(uint32 cate) external onlyCtrl returns(uint32) {\n        require(exists(cate));\n\n        uint index = _cardCateToIndex[cate];\n\n        require(_cardsCnt[index] > 0);\n        _drawCard(index);\n\n        return _cardsNum[index];\n    } \n\n    //包里卡的种类数量\n    function cardCateNum() external view returns(uint) {\n        return CARD_CATE;\n    }\n\n    //包里第pos张卡的索引\n    function indexAtPos(uint pos) external view returns(uint) {\n        uint cnt = pos;\n        for(uint i = 0; i < CARD_CATE; i++) {\n            if(cnt < _cardsCnt[i]) {\n                return i;\n            } else {\n                cnt -= _cardsCnt[i];\n            }\n        }\n\n        return CARD_CATE;\n    }\n\n    //根据卡的id获取卡的索引\n    function cardIndex(uint32 cate) public view returns(uint) {\n        require(exists(cate));\n        return _cardCateToIndex[cate];\n    }\n\n    //索引为index的卡的id\n    function cardCate(uint index) public view returns(uint32) {\n        require(index < _cardCates.length);\n        return _cardCates[index];\n    }\n\n    //索引为i的卡剩余的数量\n    function cardRemainNum(uint index) public view returns(uint) {\n        require(index < _cardsCnt.length);\n        return _cardsCnt[index];\n    }\n\n    //索引为i的卡已抽出来的数量\n    function cardDrawedNum(uint index) public view returns(uint) {\n        require(index < _cardsNum.length);\n        return _cardsNum[index];\n    }\n\n    function _drawCard(uint index) internal {\n        _cardsCnt[index]--;\n        _cardsNum[index]++;\n    }\n\n    function exists(uint32 cate) public view returns(bool) {\n        if (cate > 0) {\n            uint index = _cardCateToIndex[cate];\n            return _cardCates[index] == cate;\n        } else {\n            return false;\n        }\n    }\n}",
  "sourcePath": "/Users/fq/work/blockchain/mjz_contract/contracts/Package/BasicSource4.sol",
  "compiler": {
    "name": "solc",
    "version": "0.4.21+commit.dfe3193c.Emscripten.clang"
  },
  "schemaVersion": "2.0.0",
  "updatedAt": "2018-06-20T05:27:38.905Z"
}