{
  "contractName": "BTKMergeCtrl",
  "abi": [
    {
      "constant": true,
      "inputs": [
        {
          "name": "",
          "type": "uint256"
        },
        {
          "name": "",
          "type": "uint256"
        }
      ],
      "name": "compPackages",
      "outputs": [
        {
          "name": "",
          "type": "address"
        }
      ],
      "payable": false,
      "stateMutability": "view",
      "type": "function"
    },
    {
      "constant": false,
      "inputs": [],
      "name": "unpause",
      "outputs": [
        {
          "name": "",
          "type": "bool"
        }
      ],
      "payable": false,
      "stateMutability": "nonpayable",
      "type": "function"
    },
    {
      "constant": true,
      "inputs": [],
      "name": "paused",
      "outputs": [
        {
          "name": "",
          "type": "bool"
        }
      ],
      "payable": false,
      "stateMutability": "view",
      "type": "function"
    },
    {
      "constant": true,
      "inputs": [],
      "name": "mediator",
      "outputs": [
        {
          "name": "",
          "type": "address"
        }
      ],
      "payable": false,
      "stateMutability": "view",
      "type": "function"
    },
    {
      "constant": false,
      "inputs": [],
      "name": "destroy",
      "outputs": [],
      "payable": false,
      "stateMutability": "nonpayable",
      "type": "function"
    },
    {
      "constant": false,
      "inputs": [],
      "name": "pause",
      "outputs": [
        {
          "name": "",
          "type": "bool"
        }
      ],
      "payable": false,
      "stateMutability": "nonpayable",
      "type": "function"
    },
    {
      "constant": true,
      "inputs": [],
      "name": "owner",
      "outputs": [
        {
          "name": "",
          "type": "address"
        }
      ],
      "payable": false,
      "stateMutability": "view",
      "type": "function"
    },
    {
      "constant": false,
      "inputs": [
        {
          "name": "newOwner",
          "type": "address"
        }
      ],
      "name": "transferOwnership",
      "outputs": [],
      "payable": false,
      "stateMutability": "nonpayable",
      "type": "function"
    },
    {
      "constant": false,
      "inputs": [
        {
          "name": "_recipient",
          "type": "address"
        }
      ],
      "name": "destroyAndSend",
      "outputs": [],
      "payable": false,
      "stateMutability": "nonpayable",
      "type": "function"
    },
    {
      "anonymous": false,
      "inputs": [
        {
          "indexed": true,
          "name": "from",
          "type": "address"
        },
        {
          "indexed": true,
          "name": "merged",
          "type": "uint64"
        },
        {
          "indexed": false,
          "name": "cards",
          "type": "uint64[]"
        }
      ],
      "name": "MergeCard",
      "type": "event"
    },
    {
      "anonymous": false,
      "inputs": [
        {
          "indexed": false,
          "name": "package",
          "type": "address"
        },
        {
          "indexed": false,
          "name": "packageType",
          "type": "uint256"
        }
      ],
      "name": "AddPackage",
      "type": "event"
    },
    {
      "anonymous": false,
      "inputs": [],
      "name": "Pause",
      "type": "event"
    },
    {
      "anonymous": false,
      "inputs": [],
      "name": "Unpause",
      "type": "event"
    },
    {
      "anonymous": false,
      "inputs": [
        {
          "indexed": true,
          "name": "previousOwner",
          "type": "address"
        },
        {
          "indexed": true,
          "name": "newOwner",
          "type": "address"
        }
      ],
      "name": "OwnershipTransferred",
      "type": "event"
    },
    {
      "constant": true,
      "inputs": [
        {
          "name": "cate",
          "type": "uint32"
        }
      ],
      "name": "existsOfCardCate",
      "outputs": [
        {
          "name": "",
          "type": "bool"
        }
      ],
      "payable": false,
      "stateMutability": "view",
      "type": "function"
    },
    {
      "constant": false,
      "inputs": [
        {
          "name": "package",
          "type": "address"
        },
        {
          "name": "n",
          "type": "uint256"
        }
      ],
      "name": "addPackage",
      "outputs": [],
      "payable": false,
      "stateMutability": "nonpayable",
      "type": "function"
    },
    {
      "constant": false,
      "inputs": [
        {
          "name": "cont",
          "type": "address"
        }
      ],
      "name": "setMediator",
      "outputs": [],
      "payable": false,
      "stateMutability": "nonpayable",
      "type": "function"
    },
    {
      "constant": false,
      "inputs": [
        {
          "name": "toCate",
          "type": "uint32"
        },
        {
          "name": "cards",
          "type": "uint64[]"
        }
      ],
      "name": "mergeCard",
      "outputs": [],
      "payable": false,
      "stateMutability": "nonpayable",
      "type": "function"
    }
  ],
  "bytecode": "0x606060405260008060146101000a81548160ff021916908315150217905550336000806101000a81548173ffffffffffffffffffffffffffffffffffffffff021916908373ffffffffffffffffffffffffffffffffffffffff16021790555061218d8061006d6000396000f3006060604052600436106100c5576000357c0100000000000000000000000000000000000000000000000000000000900463ffffffff168063065dc259146100ca5780633f4ba83a1461013657806349e3ec5e14610163578063520c7a4a1461019c5780635c975abb146101dd5780636d0501f61461020a57806383197ef01461025f5780638456cb59146102745780638da5cb5b146102a1578063c1b4b9eb146102f6578063ee91cb6f14610338578063f2fde38b14610375578063f5074f41146103ae575b600080fd5b34156100d557600080fd5b6100f460048080359060200190919080359060200190919050506103e7565b604051808273ffffffffffffffffffffffffffffffffffffffff1673ffffffffffffffffffffffffffffffffffffffff16815260200191505060405180910390f35b341561014157600080fd5b61014961043a565b604051808215151515815260200191505060405180910390f35b341561016e57600080fd5b61019a600480803573ffffffffffffffffffffffffffffffffffffffff169060200190919050506104ff565b005b34156101a757600080fd5b6101c3600480803563ffffffff1690602001909190505061059e565b604051808215151515815260200191505060405180910390f35b34156101e857600080fd5b6101f0610749565b604051808215151515815260200191505060405180910390f35b341561021557600080fd5b61021d61075c565b604051808273ffffffffffffffffffffffffffffffffffffffff1673ffffffffffffffffffffffffffffffffffffffff16815260200191505060405180910390f35b341561026a57600080fd5b610272610782565b005b341561027f57600080fd5b610287610817565b604051808215151515815260200191505060405180910390f35b34156102ac57600080fd5b6102b46108de565b604051808273ffffffffffffffffffffffffffffffffffffffff1673ffffffffffffffffffffffffffffffffffffffff16815260200191505060405180910390f35b341561030157600080fd5b610336600480803573ffffffffffffffffffffffffffffffffffffffff16906020019091908035906020019091905050610903565b005b341561034357600080fd5b610373600480803563ffffffff169060200190919080359060200190820180359060200191909192905050610bf6565b005b341561038057600080fd5b6103ac600480803573ffffffffffffffffffffffffffffffffffffffff16906020019091905050611095565b005b34156103b957600080fd5b6103e5600480803573ffffffffffffffffffffffffffffffffffffffff169060200190919050506111ea565b005b6001828154811015156103f657fe5b90600052602060002090600402018160048110151561041157fe5b016000915091509054906101000a900473ffffffffffffffffffffffffffffffffffffffff1681565b60008060009054906101000a900473ffffffffffffffffffffffffffffffffffffffff1673ffffffffffffffffffffffffffffffffffffffff163373ffffffffffffffffffffffffffffffffffffffff1614151561049757600080fd5b600060149054906101000a900460ff1615156104b257600080fd5b60008060146101000a81548160ff0219169083151502179055507f7805862f689e2f13df9f062ff482ad3ad112aca9e0847911ed832e158c525b3360405160405180910390a16001905090565b6000809054906101000a900473ffffffffffffffffffffffffffffffffffffffff1673ffffffffffffffffffffffffffffffffffffffff163373ffffffffffffffffffffffffffffffffffffffff1614151561055a57600080fd5b80600260006101000a81548173ffffffffffffffffffffffffffffffffffffffff021916908373ffffffffffffffffffffffffffffffffffffffff16021790555050565b60008060006105ac8461125e565b915060016105b985611282565b039050600463ffffffff16811015156105d55760009250610742565b6001805490508210801561064b575060006001838154811015156105f557fe5b90600052602060002090600402018260048110151561061057fe5b0160009054906101000a900473ffffffffffffffffffffffffffffffffffffffff1673ffffffffffffffffffffffffffffffffffffffff1614155b801561072f575060018281548110151561066157fe5b90600052602060002090600402018160048110151561067c57fe5b0160009054906101000a900473ffffffffffffffffffffffffffffffffffffffff1673ffffffffffffffffffffffffffffffffffffffff166313c369ed856040518263ffffffff167c0100000000000000000000000000000000000000000000000000000000028152600401808263ffffffff1663ffffffff168152602001915050602060405180830381600087803b151561071757600080fd5b5af1151561072457600080fd5b505050604051805190505b1561073d5760019250610742565b600092505b5050919050565b600060149054906101000a900460ff1681565b600260009054906101000a900473ffffffffffffffffffffffffffffffffffffffff1681565b6000809054906101000a900473ffffffffffffffffffffffffffffffffffffffff1673ffffffffffffffffffffffffffffffffffffffff163373ffffffffffffffffffffffffffffffffffffffff161415156107dd57600080fd5b6000809054906101000a900473ffffffffffffffffffffffffffffffffffffffff1673ffffffffffffffffffffffffffffffffffffffff16ff5b60008060009054906101000a900473ffffffffffffffffffffffffffffffffffffffff1673ffffffffffffffffffffffffffffffffffffffff163373ffffffffffffffffffffffffffffffffffffffff1614151561087457600080fd5b600060149054906101000a900460ff1615151561089057600080fd5b6001600060146101000a81548160ff0219169083151502179055507f6985a02210a168e66602d3235cb6db0e70f92b3ba4d376a33c0f3d9434bff62560405160405180910390a16001905090565b6000809054906101000a900473ffffffffffffffffffffffffffffffffffffffff1681565b6000806000809054906101000a900473ffffffffffffffffffffffffffffffffffffffff1673ffffffffffffffffffffffffffffffffffffffff163373ffffffffffffffffffffffffffffffffffffffff1614151561096157600080fd5b8373ffffffffffffffffffffffffffffffffffffffff16633f0c51556040518163ffffffff167c0100000000000000000000000000000000000000000000000000000000028152600401602060405180830381600087803b15156109c457600080fd5b5af115156109d157600080fd5b505050604051805190509150600263ffffffff16821415156109f257600080fd5b826001805490501415610a195760018054809190600101610a1391906120d3565b50610a2c565b826001805490501015610a2b57600080fd5b5b60018473ffffffffffffffffffffffffffffffffffffffff1663477d5a116040518163ffffffff167c0100000000000000000000000000000000000000000000000000000000028152600401602060405180830381600087803b1515610a9157600080fd5b5af11515610a9e57600080fd5b505050604051805190500390506000600184815481101515610abc57fe5b906000526020600020906004020182600481101515610ad757fe5b0160009054906101000a900473ffffffffffffffffffffffffffffffffffffffff1673ffffffffffffffffffffffffffffffffffffffff16141515610b1b57600080fd5b83600184815481101515610b2b57fe5b906000526020600020906004020182600481101515610b4657fe5b0160006101000a81548173ffffffffffffffffffffffffffffffffffffffff021916908373ffffffffffffffffffffffffffffffffffffffff1602179055507f5cff4eb80dfb55fc07f1f5b80766d31a7920156fd377b9b2436872442b3cf4128483604051808373ffffffffffffffffffffffffffffffffffffffff1673ffffffffffffffffffffffffffffffffffffffff1681526020018281526020019250505060405180910390a150505050565b60008060008060008060149054906101000a900460ff16151515610c1957600080fd5b610c22886112b5565b9450600485111515610c3357600080fd5b6005851415610c7b57610c748787808060200260200160405190810160405280939291908181526020018383602002808284378201915050505050506112ea565b9350610ded565b6006851415610cc357610cbc878780806020026020016040519081016040528093929190818152602001838360200280828437820191505050505050611552565b9350610dec565b6007851415610d0b57610d048787808060200260200160405190810160405280939291908181526020018383602002808284378201915050505050506116f8565b9350610deb565b6008851415610d5357610d4c8787808060200260200160405190810160405280939291908181526020018383602002808284378201915050505050506117cd565b9350610dea565b6009851415610d9b57610d948787808060200260200160405190810160405280939291908181526020018383602002808284378201915050505050506118fd565b9350610de9565b600a851415610de357610ddc878780806020026020016040519081016040528093929190818152602001838360200280828437820191505050505050611bf2565b9350610de8565b600080fd5b5b5b5b5b5b8363ffffffff168863ffffffff16141515610e0757600080fd5b610e1084611e66565b9250600091505b86869050821015610f2b57600260009054906101000a900473ffffffffffffffffffffffffffffffffffffffff1673ffffffffffffffffffffffffffffffffffffffff16639dc29fac338989868181101515610e6f57fe5b9050602002013567ffffffffffffffff166040518363ffffffff167c0100000000000000000000000000000000000000000000000000000000028152600401808373ffffffffffffffffffffffffffffffffffffffff1673ffffffffffffffffffffffffffffffffffffffff1681526020018267ffffffffffffffff16815260200192505050600060405180830381600087803b1515610f0e57600080fd5b5af11515610f1b57600080fd5b5050508180600101925050610e17565b610f358484611f89565b9050600260009054906101000a900473ffffffffffffffffffffffffffffffffffffffff1673ffffffffffffffffffffffffffffffffffffffff166340c10f1933836040518363ffffffff167c0100000000000000000000000000000000000000000000000000000000028152600401808373ffffffffffffffffffffffffffffffffffffffff1673ffffffffffffffffffffffffffffffffffffffff1681526020018267ffffffffffffffff16815260200192505050600060405180830381600087803b151561100557600080fd5b5af1151561101257600080fd5b5050508067ffffffffffffffff163373ffffffffffffffffffffffffffffffffffffffff167f30d7a10e2faf291fc38ab9b00472b56588f0266783cbe93f11714c4570cb40548989604051808060200182810382528484828181526020019250602002808284378201915050935050505060405180910390a35050505050505050565b6000809054906101000a900473ffffffffffffffffffffffffffffffffffffffff1673ffffffffffffffffffffffffffffffffffffffff163373ffffffffffffffffffffffffffffffffffffffff161415156110f057600080fd5b600073ffffffffffffffffffffffffffffffffffffffff168173ffffffffffffffffffffffffffffffffffffffff161415151561112c57600080fd5b8073ffffffffffffffffffffffffffffffffffffffff166000809054906101000a900473ffffffffffffffffffffffffffffffffffffffff1673ffffffffffffffffffffffffffffffffffffffff167f8be0079c531659141344cd1fd0a4f28419497f9722a3daafe3b4186f6b6457e060405160405180910390a3806000806101000a81548173ffffffffffffffffffffffffffffffffffffffff021916908373ffffffffffffffffffffffffffffffffffffffff16021790555050565b6000809054906101000a900473ffffffffffffffffffffffffffffffffffffffff1673ffffffffffffffffffffffffffffffffffffffff163373ffffffffffffffffffffffffffffffffffffffff1614151561124557600080fd5b8073ffffffffffffffffffffffffffffffffffffffff16ff5b6000620f42408263ffffffff1681151561127457fe5b0463ffffffff169050919050565b60006064808363ffffffff1681151561129757fe5b0463ffffffff168115156112a757fe5b0663ffffffff169050919050565b600060646127108363ffffffff168115156112cc57fe5b0463ffffffff168115156112dc57fe5b0663ffffffff169050919050565b60006112f4612105565b6000806000600c865114151561130957600080fd5b600c6040518059106113185750595b90808252806020026020018201604052509350600090505b600c81101561139057611359868281518110151561134a57fe5b90602001906020020151611fb3565b848281518110151561136757fe5b9060200190602002019063ffffffff16908163ffffffff16815250508080600101915050611330565b600090505b600281101561143e5783600482028151811015156113af57fe5b906020019060200201519250600191505b600482101561143157806004036113f2858460048502018151811015156113e357fe5b906020019060200201516112b5565b1415156113fe57600080fd5b8263ffffffff168483600484020181518110151561141857fe5b90602001906020020151505081806001019250506113c0565b8080600101915050611395565b61145f84600081518110151561145057fe5b90602001906020020151611fcf565b63ffffffff1684600481518110151561147457fe5b9060200190602002015163ffffffff1614151561149057600080fd5b600890505b600c8110156115265760046114c085838151811015156114b157fe5b906020019060200201516112b5565b1415156114cc57600080fd5b6114ec84828151811015156114dd57fe5b90602001906020020151611282565b61150d8560008151811015156114fe57fe5b90602001906020020151611282565b14151561151957600080fd5b8080600101915050611495565b61154784600081518110151561153857fe5b90602001906020020151612020565b945050505050919050565b60008061155d612105565b60006006855114151561156f57600080fd5b600660405180591061157e5750595b90808252806020026020018201604052509150600090505b6006811015611610576115bf85828151811015156115b057fe5b90602001906020020151611fb3565b92508282828151811015156115d057fe5b9060200190602002019063ffffffff16908163ffffffff168152505060056115f7846112b5565b14151561160357600080fd5b8080600101915050611596565b81600081518110151561161f57fe5b9060200190602002015192508263ffffffff1682600181518110151561164157fe5b9060200190602002015163ffffffff1614151561165d57600080fd5b61167e82600081518110151561166f57fe5b9060200190602002015161202e565b63ffffffff1682600281518110151561169357fe5b9060200190602002015163ffffffff161415156116af57600080fd5b6116d08260038151811015156116c157fe5b90602001906020020151611282565b6116d984611282565b1415156116e557600080fd5b6116ee83612020565b9350505050919050565b6000806000806005855114151561170e57600080fd5b61172f85600081518110151561172057fe5b90602001906020020151611fb3565b9250600661173c846112b5565b14151561174857600080fd5b600190505b60058110156117ba57611776858281518110151561176757fe5b90602001906020020151611fb3565b91506005611783836112b5565b14151561178f57600080fd5b61179882611282565b6117a184611282565b1415156117ad57600080fd5b808060010191505061174d565b6117c383612020565b9350505050919050565b6000806000806000600586511415156117e557600080fd5b6118068660008151811015156117f757fe5b90602001906020020151611fb3565b93506007611813856112b5565b14151561181f57600080fd5b61184086600181518110151561183157fe5b90602001906020020151611fb3565b9250600661184d846112b5565b14151561185957600080fd5b61186283611282565b61186b85611282565b14151561187757600080fd5b600290505b60058110156118e9576118a5868281518110151561189657fe5b90602001906020020151611fb3565b915060056118b2836112b5565b1415156118be57600080fd5b6118c782611282565b6118d085611282565b1415156118dc57600080fd5b808060010191505061187c565b6118f284612020565b945050505050919050565b6000611907612105565b60006005845114151561191957600080fd5b60056040518059106119285750595b90808252806020026020018201604052509150600090505b60058110156119a057611969848281518110151561195a57fe5b90602001906020020151611fb3565b828281518110151561197757fe5b9060200190602002019063ffffffff16908163ffffffff16815250508080600101915050611940565b60086119c38360008151811015156119b457fe5b906020019060200201516112b5565b1415156119cf57600080fd5b60056119f28360018151811015156119e357fe5b906020019060200201516112b5565b1415156119fe57600080fd5b61c350826001815181101515611a1057fe5b906020019060200201510363ffffffff1662013880836000815181101515611a3457fe5b906020019060200201510363ffffffff16141515611a5157600080fd5b6006611a74836002815181101515611a6557fe5b906020019060200201516112b5565b141515611a8057600080fd5b611aa1826002815181101515611a9257fe5b90602001906020020151611282565b611ac2836000815181101515611ab357fe5b90602001906020020151611282565b141515611ace57600080fd5b6005611af1836003815181101515611ae257fe5b906020019060200201516112b5565b141515611afd57600080fd5b6005611b20836004815181101515611b1157fe5b906020019060200201516112b5565b141515611b2c57600080fd5b611b4d826003815181101515611b3e57fe5b90602001906020020151611282565b611b6e836000815181101515611b5f57fe5b90602001906020020151611282565b141515611b7a57600080fd5b611b9b826004815181101515611b8c57fe5b90602001906020020151611282565b611bbc836000815181101515611bad57fe5b90602001906020020151611282565b141515611bc857600080fd5b611be9826000815181101515611bda57fe5b90602001906020020151612020565b92505050919050565b6000611bfc612105565b600060058451141515611c0e57600080fd5b6005604051805910611c1d5750595b90808252806020026020018201604052509150600090505b6005811015611c9557611c5e8482815181101515611c4f57fe5b90602001906020020151611fb3565b8282815181101515611c6c57fe5b9060200190602002019063ffffffff16908163ffffffff16815250508080600101915050611c35565b6009611cb8836000815181101515611ca957fe5b906020019060200201516112b5565b141515611cc457600080fd5b6009611ce7836001815181101515611cd857fe5b906020019060200201516112b5565b141515611cf357600080fd5b816003815181101515611d0257fe5b9060200190602002015163ffffffff16826002815181101515611d2157fe5b9060200190602002015163ffffffff16141515611d3d57600080fd5b6005611d60836002815181101515611d5157fe5b906020019060200201516112b5565b141515611d6c57600080fd5b61c350826002815181101515611d7e57fe5b906020019060200201510363ffffffff1662015f90836000815181101515611da257fe5b906020019060200201510363ffffffff16141515611dbf57600080fd5b6006611de2836004815181101515611dd357fe5b906020019060200201516112b5565b141515611dee57600080fd5b611e0f826004815181101515611e0057fe5b90602001906020020151611282565b611e30836000815181101515611e2157fe5b90602001906020020151611282565b141515611e3c57600080fd5b611e5d826000815181101515611e4e57fe5b90602001906020020151612020565b92505050919050565b6000806001611e748461125e565b815481101515611e8057fe5b90600052602060002090600402016001611e9985611282565b03600481101515611ea657fe5b0160009054906101000a900473ffffffffffffffffffffffffffffffffffffffff16905060008173ffffffffffffffffffffffffffffffffffffffff1614151515611ef057600080fd5b8073ffffffffffffffffffffffffffffffffffffffff16631dfeb884846040518263ffffffff167c0100000000000000000000000000000000000000000000000000000000028152600401808263ffffffff1663ffffffff168152602001915050602060405180830381600087803b1515611f6a57600080fd5b5af11515611f7757600080fd5b50505060405180519050915050919050565b60008163ffffffff1660208463ffffffff1667ffffffffffffffff169060020a0201905092915050565b600060208267ffffffffffffffff169060020a90049050919050565b6000806000600a8061271a860363ffffffff16811515611feb57fe5b04029150600180600a8663ffffffff1681151561200457fe5b060163ffffffff169060020a9004905080820192505050919050565b600061271082019050919050565b60008060648363ffffffff1681151561204357fe5b069050600a8163ffffffff16101561206057600a830191506120cd565b600b8163ffffffff16141561207a576002830191506120cd565b600d8163ffffffff161415612094576002830391506120cd565b600f8163ffffffff1614156120ae576002830191506120cd565b60118163ffffffff1614156120c8576002830391506120cd565b600080fd5b50919050565b815481835581811511612100576004028160040283600052602060002091820191016120ff9190612119565b5b505050565b602060405190810160405280600081525090565b61214291905b8082111561213e57600081816121359190612145565b5060040161211f565b5090565b90565b50600081556001016000815560010160008155600101600090555600a165627a7a72305820a3bc9620cec192632f4b3abea469575edb00eb81f2f3d08b69ba1a886e2c1af60029",
  "source": "pragma solidity ^0.4.0;\n\nimport \"./Package/Package.sol\";\nimport \"./Ctrlship/Pausable.sol\";\nimport \"./BTKMediator.sol\";\nimport \"./CardChecker.sol\";\nimport \"./libs/CardUtils.sol\";\nimport \"./Ctrlship/Destructible.sol\";\n\ncontract BTKMergeCtrl is Pausable, CardChecker, Destructible {\n    event MergeCard(address indexed from, uint64 indexed merged, uint64[] cards);\n    event AddPackage(address package, uint packageType);\n\n    uint32 constant CAMP_CNT = 4;\n    uint32 constant COMP_PACKAGE = 2;\n    \n    Package[CAMP_CNT][] public compPackages;\n\n    BTKMediator public mediator;\n\n    function existsOfCardCate(uint32 cate) public view returns (bool) {\n        uint pi = CardUtils.packageNum(cate);           //\n        uint ci = CardUtils.camp(cate) - 1;   //\n        \n        if(ci >= CAMP_CNT) {\n            return false;\n        }\n\n        if(pi < compPackages.length &&\n            (address(compPackages[pi][ci]) != 0) && \n            compPackages[pi][ci].exists(cate)) {\n                return true;\n        }\n\n        return false;\n    }\n\n    function addPackage(Package package, uint n) external onlyOwner {\n        uint pType = package.packageType();\n        require(pType == COMP_PACKAGE);\n\n        if(compPackages.length == n) {\n            compPackages.length++;\n        } else if(compPackages.length < n) {\n            revert();\n        }\n\n        uint camp = package.packageCamp() - 1;\n        require(address(compPackages[n][camp]) == 0);\n\n        compPackages[n][camp] = package;\n\n        emit AddPackage(package, pType);\n    }\n\n    function setMediator(BTKMediator cont) external onlyOwner {\n        mediator = cont;\n    }\n\n    function mergeCard(uint32 toCate, uint64[] cards) external whenNotPaused {\n        uint star = CardUtils.star(toCate);\n        require(star > 4);\n        uint32 cate;\n        if (star == 5) {\n            cate = _mergeCard5(cards);\n        } else if(star == 6) {\n            cate = _mergeCard6(cards);\n        } else if (star == 7) {\n            cate = _mergeCard7(cards);\n        } else if (star == 8) {\n            cate = _mergeCard8(cards);\n        } else if (star == 9) {\n            cate = _mergeCard9(cards);\n        } else if (star == 10) {\n            cate = _mergeCard10(cards);\n        } else {\n            revert();\n        }\n\n        require(toCate == cate);\n\n        uint32 num = _drawCard(cate);\n\n        for(uint i = 0; i < cards.length; i++) {\n            mediator.burn(msg.sender, cards[i]);\n        }\n\n        uint64 token = CardUtils.toToken(cate, num);\n        mediator.mint(msg.sender, token);\n\n        emit MergeCard(msg.sender, token, cards);\n    }\n\n    function _mergeCard5(uint64[] _cards) internal pure returns(uint32) {\n        require(_cards.length == 12);        \n        uint32[] memory cates = new uint32[](12);\n\n        uint32 cate;\n        uint j;\n        for(uint i = 0; i < 12; i++) {\n            cates[i] = CardUtils.toCate(_cards[i]);\n        }\n\n        for(i = 0; i < 2; i++) {\n            cate = cates[i*4];\n            for(j = 1; j < 4; j++) {\n                require(CardUtils.star(cates[i*4+j]) == 4-i);       // \n                cates[i*4+j] == cate;                               // \n            }\n        }\n\n        require(cates[4] == _specialCate5(cates[0]));     //\n        for(i = 8; i < 12; i++) {\n            require(CardUtils.star(cates[i]) == 4);             //\n            require(CardUtils.camp(cates[0]) == CardUtils.camp(cates[i]));  //\n        }\n\n        return _increaseStar(cates[0]);\n    }\n\n    function _mergeCard6(uint64[] _cards) internal pure returns(uint32) {\n        require(_cards.length == 6);        \n\n        uint32 cate;\n        uint32[] memory cates = new uint32[](6);\n        for(uint i = 0; i < 6; i++) {\n            cate = CardUtils.toCate(_cards[i]);\n            cates[i] = cate;\n            require(CardUtils.star(cate) == 5);     //5\n        }\n\n        cate = cates[0];\n        require(cates[1] == cate);       //\n\n        require(cates[2] == _specialCate6(cates[0]));     //\n\n        require(CardUtils.camp(cate) == CardUtils.camp(cates[3]));  //\n\n        return _increaseStar(cate);\n    }\n\n    function _mergeCard7(uint64[] cards) internal pure returns(uint32) {\n        require(cards.length == 5);\n\n        uint32 cate = CardUtils.toCate(cards[0]);\n        require(CardUtils.star(cate) == 6);         //\n\n        uint32 cate1;\n        for(uint i = 1; i < 5; i++) {\n            cate1 = CardUtils.toCate(cards[i]);\n            require(CardUtils.star(cate1) == 5);            //\n\n            require(CardUtils.camp(cate) == CardUtils.camp(cate1));     //\n        }\n\n\n        return _increaseStar(cate);\n    }\n\n    function _mergeCard8(uint64[] cards) internal pure returns(uint32) {\n        require(cards.length == 5);\n\n        uint32 cate = CardUtils.toCate(cards[0]);\n        require(CardUtils.star(cate) == 7);             //\n\n        uint32 cate1 = CardUtils.toCate(cards[1]);\n        require(CardUtils.star(cate1) == 6);            //\n        require(CardUtils.camp(cate) == CardUtils.camp(cate1));     //\n\n        uint32 cate2;\n        for(uint i = 2; i < 5; i++) {\n            cate2 = CardUtils.toCate(cards[i]);\n            require(CardUtils.star(cate2) == 5);            //\n            require(CardUtils.camp(cate) == CardUtils.camp(cate2));     //\n        }\n\n        return _increaseStar(cate);\n    }\n\n    function _mergeCard9(uint64[] cards) internal pure returns(uint32) {\n        require(cards.length == 5);\n\n        uint32[] memory cates = new uint32[](5);\n        for(uint i = 0; i < 5; i++) {\n            cates[i] = CardUtils.toCate(cards[i]);\n        }\n\n        require(CardUtils.star(cates[0]) == 8);         //\n\n        require(CardUtils.star(cates[1]) == 5);         //\n        require((cates[0] - 80000) == (cates[1] - 50000));      //\n\n        require(CardUtils.star(cates[2]) == 6);         //\n        require(CardUtils.camp(cates[0]) == CardUtils.camp(cates[2]));  //\n\n        require(CardUtils.star(cates[3]) == 5);         \n        require(CardUtils.star(cates[4]) == 5);\n        require(CardUtils.camp(cates[0]) == CardUtils.camp(cates[3]));\n        require(CardUtils.camp(cates[0]) == CardUtils.camp(cates[4]));\n\n        return _increaseStar(cates[0]);\n    }\n\n    function _mergeCard10(uint64[] cards) internal pure returns(uint32) {\n        require(cards.length == 5);\n        \n        uint32[] memory cates = new uint32[](5);\n        for(uint i = 0; i < 5; i++) {\n            cates[i] = CardUtils.toCate(cards[i]);\n        }\n\n        require(CardUtils.star(cates[0]) == 9);\n        require(CardUtils.star(cates[1]) == 9);\n\n        require(cates[2] == cates[3]);\n        require(CardUtils.star(cates[2]) == 5);\n        require((cates[0] - 90000) == (cates[2] - 50000));\n\n        require(CardUtils.star(cates[4]) == 6);        \n        require(CardUtils.camp(cates[0]) == CardUtils.camp(cates[4]));\n\n        return _increaseStar(cates[0]);\n    }\n\n    function _drawCard(uint32 card) internal returns(uint32) {\n        Package p = compPackages[CardUtils.packageNum(card)][CardUtils.camp(card) - 1];\n        require(address(p) != 0);\n\n        return p.drawCardWithCate(card);\n    }\n\n    function _increaseStar(uint32 card) internal pure returns(uint32) {\n        return card + 10000;\n    }\n\n    function _specialCate5(uint32 cate) internal pure returns(uint32) {\n        uint32 cate1 = (cate - 10010) / 10 * 10;\n        uint32 cate2 = (cate % 10 + 1) >> 1;\n\n        return cate1 + cate2;\n    }\n\n    function _specialCate6(uint32 cate) internal pure returns(uint32) {\n        uint32 cate1 = cate % 100;\n        if(cate1 < 10) {\n            return cate + 10;\n        } else if(cate1 == 11) {\n            return cate + 2;\n        } else if(cate1 == 13) {\n            return cate - 2;\n        } else if(cate1 == 15) {\n            return cate + 2;\n        } else if(cate1 == 17) {\n            return cate - 2;\n        } else {\n            revert();\n        }\n    }\n}\n",
  "sourcePath": "/Users/fq/work/blockchain/mjz_contract/contracts/BTKMergeCtrl.sol",
  "compiler": {
    "name": "solc",
    "version": "0.4.21+commit.dfe3193c.Emscripten.clang"
  },
  "schemaVersion": "2.0.0",
  "updatedAt": "2018-06-20T05:27:30.775Z"
}