{
  "contractName": "BuyAgent",
  "abi": [
    {
      "constant": false,
      "inputs": [
        {
          "name": "count",
          "type": "uint256"
        }
      ],
      "name": "reclaim",
      "outputs": [],
      "payable": false,
      "stateMutability": "nonpayable",
      "type": "function"
    },
    {
      "constant": false,
      "inputs": [],
      "name": "unpause",
      "outputs": [
        {
          "name": "",
          "type": "bool"
        }
      ],
      "payable": false,
      "stateMutability": "nonpayable",
      "type": "function"
    },
    {
      "constant": true,
      "inputs": [],
      "name": "paused",
      "outputs": [
        {
          "name": "",
          "type": "bool"
        }
      ],
      "payable": false,
      "stateMutability": "view",
      "type": "function"
    },
    {
      "constant": false,
      "inputs": [],
      "name": "destroy",
      "outputs": [],
      "payable": false,
      "stateMutability": "nonpayable",
      "type": "function"
    },
    {
      "constant": false,
      "inputs": [],
      "name": "pause",
      "outputs": [
        {
          "name": "",
          "type": "bool"
        }
      ],
      "payable": false,
      "stateMutability": "nonpayable",
      "type": "function"
    },
    {
      "constant": true,
      "inputs": [],
      "name": "owner",
      "outputs": [
        {
          "name": "",
          "type": "address"
        }
      ],
      "payable": false,
      "stateMutability": "view",
      "type": "function"
    },
    {
      "constant": true,
      "inputs": [
        {
          "name": "",
          "type": "uint256"
        }
      ],
      "name": "withdrawTokenOwner",
      "outputs": [
        {
          "name": "",
          "type": "address"
        }
      ],
      "payable": false,
      "stateMutability": "view",
      "type": "function"
    },
    {
      "constant": true,
      "inputs": [
        {
          "name": "",
          "type": "uint256"
        }
      ],
      "name": "orderIdToIndex",
      "outputs": [
        {
          "name": "",
          "type": "uint256"
        }
      ],
      "payable": false,
      "stateMutability": "view",
      "type": "function"
    },
    {
      "constant": false,
      "inputs": [
        {
          "name": "newOwner",
          "type": "address"
        }
      ],
      "name": "transferOwnership",
      "outputs": [],
      "payable": false,
      "stateMutability": "nonpayable",
      "type": "function"
    },
    {
      "constant": false,
      "inputs": [
        {
          "name": "_recipient",
          "type": "address"
        }
      ],
      "name": "destroyAndSend",
      "outputs": [],
      "payable": false,
      "stateMutability": "nonpayable",
      "type": "function"
    },
    {
      "anonymous": false,
      "inputs": [
        {
          "indexed": false,
          "name": "_from",
          "type": "address"
        },
        {
          "indexed": false,
          "name": "_order",
          "type": "uint256"
        },
        {
          "indexed": false,
          "name": "_price",
          "type": "uint256"
        },
        {
          "indexed": false,
          "name": "_tokenCate",
          "type": "uint256"
        }
      ],
      "name": "MakeOrder",
      "type": "event"
    },
    {
      "anonymous": false,
      "inputs": [
        {
          "indexed": false,
          "name": "_to",
          "type": "address"
        },
        {
          "indexed": false,
          "name": "_order",
          "type": "uint256"
        },
        {
          "indexed": false,
          "name": "_fund",
          "type": "uint256"
        }
      ],
      "name": "TakeOrder",
      "type": "event"
    },
    {
      "anonymous": false,
      "inputs": [
        {
          "indexed": false,
          "name": "_exc",
          "type": "address"
        },
        {
          "indexed": false,
          "name": "_order",
          "type": "uint256"
        }
      ],
      "name": "CancelOrder",
      "type": "event"
    },
    {
      "anonymous": false,
      "inputs": [
        {
          "indexed": false,
          "name": "_to",
          "type": "address"
        },
        {
          "indexed": false,
          "name": "_token",
          "type": "uint256"
        }
      ],
      "name": "WithDrawToken",
      "type": "event"
    },
    {
      "anonymous": false,
      "inputs": [],
      "name": "Pause",
      "type": "event"
    },
    {
      "anonymous": false,
      "inputs": [],
      "name": "Unpause",
      "type": "event"
    },
    {
      "anonymous": false,
      "inputs": [
        {
          "indexed": true,
          "name": "previousOwner",
          "type": "address"
        },
        {
          "indexed": true,
          "name": "newOwner",
          "type": "address"
        }
      ],
      "name": "OwnershipTransferred",
      "type": "event"
    },
    {
      "constant": true,
      "inputs": [],
      "name": "totalSupply",
      "outputs": [
        {
          "name": "",
          "type": "uint256"
        }
      ],
      "payable": false,
      "stateMutability": "view",
      "type": "function"
    },
    {
      "constant": true,
      "inputs": [
        {
          "name": "_index",
          "type": "uint256"
        }
      ],
      "name": "orderByIndex",
      "outputs": [
        {
          "name": "id",
          "type": "uint256"
        },
        {
          "name": "token",
          "type": "uint256"
        },
        {
          "name": "price",
          "type": "uint256"
        },
        {
          "name": "buyer",
          "type": "address"
        }
      ],
      "payable": false,
      "stateMutability": "view",
      "type": "function"
    },
    {
      "constant": false,
      "inputs": [
        {
          "name": "_addr",
          "type": "address"
        }
      ],
      "name": "setNftContractAddress",
      "outputs": [],
      "payable": false,
      "stateMutability": "nonpayable",
      "type": "function"
    },
    {
      "constant": false,
      "inputs": [
        {
          "name": "_addr",
          "type": "address"
        }
      ],
      "name": "setCardCheckerAddress",
      "outputs": [],
      "payable": false,
      "stateMutability": "nonpayable",
      "type": "function"
    },
    {
      "constant": false,
      "inputs": [
        {
          "name": "_from",
          "type": "address"
        },
        {
          "name": "_tokenId",
          "type": "uint256"
        },
        {
          "name": "_data",
          "type": "bytes"
        }
      ],
      "name": "onERC721Received",
      "outputs": [
        {
          "name": "",
          "type": "bytes4"
        }
      ],
      "payable": false,
      "stateMutability": "nonpayable",
      "type": "function"
    },
    {
      "constant": false,
      "inputs": [
        {
          "name": "_tokenCate",
          "type": "uint32"
        }
      ],
      "name": "makeOrder",
      "outputs": [],
      "payable": true,
      "stateMutability": "payable",
      "type": "function"
    },
    {
      "constant": false,
      "inputs": [
        {
          "name": "_orderId",
          "type": "uint256"
        }
      ],
      "name": "cancelOrder",
      "outputs": [],
      "payable": false,
      "stateMutability": "nonpayable",
      "type": "function"
    },
    {
      "constant": false,
      "inputs": [
        {
          "name": "_orderId",
          "type": "uint256"
        }
      ],
      "name": "cancelOrderByOwner",
      "outputs": [],
      "payable": false,
      "stateMutability": "nonpayable",
      "type": "function"
    },
    {
      "constant": false,
      "inputs": [
        {
          "name": "_token",
          "type": "uint256"
        }
      ],
      "name": "withdrawToken",
      "outputs": [],
      "payable": false,
      "stateMutability": "nonpayable",
      "type": "function"
    }
  ],
  "bytecode": "0x606060405260008060146101000a81548160ff02191690831515021790555060006005556064600755336000806101000a81548173ffffffffffffffffffffffffffffffffffffffff021916908373ffffffffffffffffffffffffffffffffffffffff160217905550611b88806100776000396000f300606060405260043610610107576000357c0100000000000000000000000000000000000000000000000000000000900463ffffffff16806318160ddd1461010c5780632dabbeed1461013557806331936a9a146101585780633f4ba83a146101d057806350baa622146101fd578063514fcac7146102205780635c975abb1461024357806383197ef0146102705780638456cb59146102855780638da5cb5b146102b257806391d8135314610307578063ac9ae03514610340578063da31d640146103a3578063e5f61e80146103dc578063e6792eba146103ff578063eea0e2e714610436578063f0b9e5ba14610454578063f2fde38b1461052b578063f5074f4114610564575b600080fd5b341561011757600080fd5b61011f61059d565b6040518082815260200191505060405180910390f35b341561014057600080fd5b61015660048080359060200190919050506105aa565b005b341561016357600080fd5b610179600480803590602001909190505061068f565b604051808581526020018481526020018381526020018273ffffffffffffffffffffffffffffffffffffffff1673ffffffffffffffffffffffffffffffffffffffff16815260200194505050505060405180910390f35b34156101db57600080fd5b6101e361070d565b604051808215151515815260200191505060405180910390f35b341561020857600080fd5b61021e60048080359060200190919050506107d2565b005b341561022b57600080fd5b61024160048080359060200190919050506108ed565b005b341561024e57600080fd5b610256610a26565b604051808215151515815260200191505060405180910390f35b341561027b57600080fd5b610283610a39565b005b341561029057600080fd5b610298610ace565b604051808215151515815260200191505060405180910390f35b34156102bd57600080fd5b6102c5610b95565b604051808273ffffffffffffffffffffffffffffffffffffffff1673ffffffffffffffffffffffffffffffffffffffff16815260200191505060405180910390f35b341561031257600080fd5b61033e600480803573ffffffffffffffffffffffffffffffffffffffff16906020019091905050610bba565b005b341561034b57600080fd5b6103616004808035906020019091905050610c95565b604051808273ffffffffffffffffffffffffffffffffffffffff1673ffffffffffffffffffffffffffffffffffffffff16815260200191505060405180910390f35b34156103ae57600080fd5b6103da600480803573ffffffffffffffffffffffffffffffffffffffff16906020019091905050610cc8565b005b34156103e757600080fd5b6103fd6004808035906020019091905050610da3565b005b341561040a57600080fd5b6104206004808035906020019091905050610ee7565b6040518082815260200191505060405180910390f35b610452600480803563ffffffff16906020019091905050610eff565b005b341561045f57600080fd5b6104d7600480803573ffffffffffffffffffffffffffffffffffffffff1690602001909190803590602001909190803590602001908201803590602001908080601f01602080910402602001604051908101604052809392919081815260200183838082843782019150505050505091905050610ffd565b60405180827bffffffffffffffffffffffffffffffffffffffffffffffffffffffff19167bffffffffffffffffffffffffffffffffffffffffffffffffffffffff1916815260200191505060405180910390f35b341561053657600080fd5b610562600480803573ffffffffffffffffffffffffffffffffffffffff169060200190919050506110f8565b005b341561056f57600080fd5b61059b600480803573ffffffffffffffffffffffffffffffffffffffff1690602001909190505061124d565b005b6000600380549050905090565b6000809054906101000a900473ffffffffffffffffffffffffffffffffffffffff1673ffffffffffffffffffffffffffffffffffffffff163373ffffffffffffffffffffffffffffffffffffffff1614151561060557600080fd5b3073ffffffffffffffffffffffffffffffffffffffff1631811115151561062b57600080fd5b6000809054906101000a900473ffffffffffffffffffffffffffffffffffffffff1673ffffffffffffffffffffffffffffffffffffffff166108fc829081150290604051600060405180830381858888f19350505050151561068c57600080fd5b50565b6000806000806000600380549050861015156106aa57600080fd5b6003868154811015156106b957fe5b906000526020600020906004020190508060000154945080600101549350806002015492508060030160009054906101000a900473ffffffffffffffffffffffffffffffffffffffff169150509193509193565b60008060009054906101000a900473ffffffffffffffffffffffffffffffffffffffff1673ffffffffffffffffffffffffffffffffffffffff163373ffffffffffffffffffffffffffffffffffffffff1614151561076a57600080fd5b600060149054906101000a900460ff16151561078557600080fd5b60008060146101000a81548160ff0219169083151502179055507f7805862f689e2f13df9f062ff482ad3ad112aca9e0847911ed832e158c525b3360405160405180910390a16001905090565b3373ffffffffffffffffffffffffffffffffffffffff166006600083815260200190815260200160002060009054906101000a900473ffffffffffffffffffffffffffffffffffffffff1673ffffffffffffffffffffffffffffffffffffffff1614151561083f57600080fd5b6006600082815260200190815260200160002060006101000a81549073ffffffffffffffffffffffffffffffffffffffff021916905561087f33826112c1565b7f486629a4221a593d748d5dafc62ae03601d717afd583e8bcc91b83ee617bb9b93382604051808373ffffffffffffffffffffffffffffffffffffffff1673ffffffffffffffffffffffffffffffffffffffff1681526020018281526020019250505060405180910390a150565b600080600060149054906101000a900460ff1615151561090c57600080fd5b6003600460008581526020019081526020016000205481548110151561092e57fe5b90600052602060002090600402019150816002015490503373ffffffffffffffffffffffffffffffffffffffff168260030160009054906101000a900473ffffffffffffffffffffffffffffffffffffffff1673ffffffffffffffffffffffffffffffffffffffff161415156109a357600080fd5b6109ac836113e1565b6109b633826115a1565b7fc0e68d6b69f741c21e955cad2ae4d505b6f6735c7e7b278251b3f6283a5f07eb3384604051808373ffffffffffffffffffffffffffffffffffffffff1673ffffffffffffffffffffffffffffffffffffffff1681526020018281526020019250505060405180910390a1505050565b600060149054906101000a900460ff1681565b6000809054906101000a900473ffffffffffffffffffffffffffffffffffffffff1673ffffffffffffffffffffffffffffffffffffffff163373ffffffffffffffffffffffffffffffffffffffff16141515610a9457600080fd5b6000809054906101000a900473ffffffffffffffffffffffffffffffffffffffff1673ffffffffffffffffffffffffffffffffffffffff16ff5b60008060009054906101000a900473ffffffffffffffffffffffffffffffffffffffff1673ffffffffffffffffffffffffffffffffffffffff163373ffffffffffffffffffffffffffffffffffffffff16141515610b2b57600080fd5b600060149054906101000a900460ff16151515610b4757600080fd5b6001600060146101000a81548160ff0219169083151502179055507f6985a02210a168e66602d3235cb6db0e70f92b3ba4d376a33c0f3d9434bff62560405160405180910390a16001905090565b6000809054906101000a900473ffffffffffffffffffffffffffffffffffffffff1681565b6000809054906101000a900473ffffffffffffffffffffffffffffffffffffffff1673ffffffffffffffffffffffffffffffffffffffff163373ffffffffffffffffffffffffffffffffffffffff16141515610c1557600080fd5b600073ffffffffffffffffffffffffffffffffffffffff168173ffffffffffffffffffffffffffffffffffffffff1614151515610c5157600080fd5b80600260006101000a81548173ffffffffffffffffffffffffffffffffffffffff021916908373ffffffffffffffffffffffffffffffffffffffff16021790555050565b60066020528060005260406000206000915054906101000a900473ffffffffffffffffffffffffffffffffffffffff1681565b6000809054906101000a900473ffffffffffffffffffffffffffffffffffffffff1673ffffffffffffffffffffffffffffffffffffffff163373ffffffffffffffffffffffffffffffffffffffff16141515610d2357600080fd5b600073ffffffffffffffffffffffffffffffffffffffff168173ffffffffffffffffffffffffffffffffffffffff1614151515610d5f57600080fd5b80600160006101000a81548173ffffffffffffffffffffffffffffffffffffffff021916908373ffffffffffffffffffffffffffffffffffffffff16021790555050565b60008060008060009054906101000a900473ffffffffffffffffffffffffffffffffffffffff1673ffffffffffffffffffffffffffffffffffffffff163373ffffffffffffffffffffffffffffffffffffffff16141515610e0357600080fd5b60036004600086815260200190815260200160002054815481101515610e2557fe5b906000526020600020906004020192508260030160009054906101000a900473ffffffffffffffffffffffffffffffffffffffff16915082600201549050610e6c846113e1565b610e7682826115a1565b7fc0e68d6b69f741c21e955cad2ae4d505b6f6735c7e7b278251b3f6283a5f07eb3385604051808373ffffffffffffffffffffffffffffffffffffffff1673ffffffffffffffffffffffffffffffffffffffff1681526020018281526020019250505060405180910390a150505050565b60046020528060005260406000206000915090505481565b600060149054906101000a900460ff16151515610f1b57600080fd5b6103e834111515610f2b57600080fd5b600260009054906101000a900473ffffffffffffffffffffffffffffffffffffffff1673ffffffffffffffffffffffffffffffffffffffff1663520c7a4a826040518263ffffffff167c0100000000000000000000000000000000000000000000000000000000028152600401808263ffffffff1663ffffffff168152602001915050602060405180830381600087803b1515610fc757600080fd5b5af11515610fd457600080fd5b505050604051805190501515610fe957600080fd5b610ffa338263ffffffff16346115e5565b50565b600080600060149054906101000a900460ff1615151561101c57600080fd5b600160009054906101000a900473ffffffffffffffffffffffffffffffffffffffff1673ffffffffffffffffffffffffffffffffffffffff163373ffffffffffffffffffffffffffffffffffffffff1614151561107857600080fd5b600073ffffffffffffffffffffffffffffffffffffffff168573ffffffffffffffffffffffffffffffffffffffff16141515156110b457600080fd5b6110bd83611772565b90506110ca85828661187d565b63f0b9e5ba7c0100000000000000000000000000000000000000000000000000000000029150509392505050565b6000809054906101000a900473ffffffffffffffffffffffffffffffffffffffff1673ffffffffffffffffffffffffffffffffffffffff163373ffffffffffffffffffffffffffffffffffffffff1614151561115357600080fd5b600073ffffffffffffffffffffffffffffffffffffffff168173ffffffffffffffffffffffffffffffffffffffff161415151561118f57600080fd5b8073ffffffffffffffffffffffffffffffffffffffff166000809054906101000a900473ffffffffffffffffffffffffffffffffffffffff1673ffffffffffffffffffffffffffffffffffffffff167f8be0079c531659141344cd1fd0a4f28419497f9722a3daafe3b4186f6b6457e060405160405180910390a3806000806101000a81548173ffffffffffffffffffffffffffffffffffffffff021916908373ffffffffffffffffffffffffffffffffffffffff16021790555050565b6000809054906101000a900473ffffffffffffffffffffffffffffffffffffffff1673ffffffffffffffffffffffffffffffffffffffff163373ffffffffffffffffffffffffffffffffffffffff161415156112a857600080fd5b8073ffffffffffffffffffffffffffffffffffffffff16ff5b600160009054906101000a900473ffffffffffffffffffffffffffffffffffffffff1673ffffffffffffffffffffffffffffffffffffffff1663b88d4fde3084846040518463ffffffff167c0100000000000000000000000000000000000000000000000000000000028152600401808473ffffffffffffffffffffffffffffffffffffffff1673ffffffffffffffffffffffffffffffffffffffff1681526020018373ffffffffffffffffffffffffffffffffffffffff1673ffffffffffffffffffffffffffffffffffffffff16815260200182815260200180602001828103825260008152602001602001945050505050600060405180830381600087803b15156113cd57600080fd5b5af115156113da57600080fd5b5050505050565b60008060006113ef84611a17565b15156113fa57600080fd5b600460008581526020019081526020016000205492508260038054905011151561142357600080fd5b600160038054905003915060038281548110151561143d57fe5b9060005260206000209060040201905060038381548110151561145c57fe5b9060005260206000209060040201600080820160009055600182016000905560028201600090556003820160006101000a81549073ffffffffffffffffffffffffffffffffffffffff021916905550506004600085815260200190815260200160002060009055806003848154811015156114d357fe5b90600052602060002090600402016000820154816000015560018201548160010155600282015481600201556003820160009054906101000a900473ffffffffffffffffffffffffffffffffffffffff168160030160006101000a81548173ffffffffffffffffffffffffffffffffffffffff021916908373ffffffffffffffffffffffffffffffffffffffff16021790555090505082600460008360000154815260200190815260200160002081905550600380548091906001900361159a9190611a5b565b5050505050565b8173ffffffffffffffffffffffffffffffffffffffff166108fc829081150290604051600060405180830381858888f1935050505015156115e157600080fd5b5050565b6115ed611a8d565b60056000815480929190600101919050555060806040519081016040528060055481526020018481526020018381526020018573ffffffffffffffffffffffffffffffffffffffff1681525090506003805480600101828161164f9190611acc565b9160005260206000209060040201600083909190915060008201518160000155602082015181600101556040820151816002015560608201518160030160006101000a81548173ffffffffffffffffffffffffffffffffffffffff021916908373ffffffffffffffffffffffffffffffffffffffff160217905550505050600160038054905003600460006005548152602001908152602001600020819055507f5298fd7d373ad8659e6b5aad7285c26ea1765033d6f53fdbc36cd362c1f125da846005548486604051808573ffffffffffffffffffffffffffffffffffffffff1673ffffffffffffffffffffffffffffffffffffffff16815260200184815260200183815260200182815260200194505050505060405180910390a150505050565b60008060008060009250600490505b845181101561187257848181518110151561179857fe5b9060200101517f010000000000000000000000000000000000000000000000000000000000000090047f0100000000000000000000000000000000000000000000000000000000000000027f010000000000000000000000000000000000000000000000000000000000000090049150603082101580156118195750603a82105b15611832576030826004859060020a0201039250611865565b606182101580156118435750606782105b1561185f57600a6061836004869060020a020103019250611864565b600080fd5b5b8080600101915050611781565b829350505050919050565b60008060008060006020869060020a9004945060008563ffffffff161115156118a557600080fd5b600360046000898152602001908152602001600020548154811015156118c757fe5b906000526020600020906004020193508360030160009054906101000a900473ffffffffffffffffffffffffffffffffffffffff1692508360020154915083600101548563ffffffff1614151561191d57600080fd5b611926876113e1565b826006600088815260200190815260200160002060006101000a81548173ffffffffffffffffffffffffffffffffffffffff021916908373ffffffffffffffffffffffffffffffffffffffff1602179055506007546103e8036103e88381151561198c57fe5b0402905061199a88826115a1565b7f9d9106a7a2a06cc84b71306c9e7ef22eb15ad42bd6012de3e0d62272b1673d32888883604051808473ffffffffffffffffffffffffffffffffffffffff1673ffffffffffffffffffffffffffffffffffffffff168152602001838152602001828152602001935050505060405180910390a15050505050505050565b60008060046000848152602001908152602001600020549050600381815481101515611a3f57fe5b9060005260206000209060040201600001548314915050919050565b815481835581811511611a8857600402816004028360005260206000209182019101611a879190611afe565b5b505050565b608060405190810160405280600081526020016000815260200160008152602001600073ffffffffffffffffffffffffffffffffffffffff1681525090565b815481835581811511611af957600402816004028360005260206000209182019101611af89190611afe565b5b505050565b611b5991905b80821115611b5557600080820160009055600182016000905560028201600090556003820160006101000a81549073ffffffffffffffffffffffffffffffffffffffff021916905550600401611b04565b5090565b905600a165627a7a7230582060cdc5cd320c277c71afbd78bbcd04bfcf422dd2640e1a6d0cbcf57669b6e91a0029",
  "source": "pragma solidity ^0.4.21;\n\nimport '../ERC/ERC721Receiver.sol';\nimport '../Ctrlship/Pausable.sol';\nimport '../ERC/ERC721.sol';\nimport '../CardChecker.sol';\nimport '../libs/Utils.sol';\nimport '../Ctrlship/Destructible.sol';\nimport '../Ctrlship/Reclaim.sol';\n\ncontract BuyAgent is ERC721Receiver, Pausable, Destructible, Reclaim {\n\n    event MakeOrder(address _from, uint _order, uint _price, uint _tokenCate);\n    event TakeOrder(address _to, uint _order, uint _fund);\n    event CancelOrder(address _exc, uint _order);\n    event WithDrawToken(address _to, uint _token);\n\n    struct Order {\n        uint id;\n        uint token;\n        uint price;\n        address buyer;\n    }\n\n    ERC721 nftContract;\n\n    CardChecker checker;\n\n    Order[] orders;\n\n    mapping (uint => uint) public orderIdToIndex;\n    uint idCounter = 0;\n\n    mapping (uint => address) public withdrawTokenOwner;\n\n    //交易费率精度\n    uint constant ACC = 1000;\n    //交易费率 千分之\n    uint sellRate = 100;\n\n    function totalSupply() public view returns (uint) {\n        return orders.length;\n    }\n\n    function orderByIndex(uint _index) public view returns (uint id, uint token, uint price, address buyer) {\n        require(_index < orders.length);\n\n        Order storage o = orders[_index];\n        id = o.id;\n        token = o.token;\n        price = o.price;\n        buyer = o.buyer;\n    }\n\n    function setNftContractAddress(address _addr) external onlyOwner {\n        require(_addr != address(0));\n        nftContract = ERC721(_addr);\n    }\n\n    function setCardCheckerAddress(address _addr) external onlyOwner {\n        require(_addr != address(0));\n        checker = CardChecker(_addr);\n    }\n\n    function onERC721Received(address _from, uint256 _tokenId, bytes _data) public whenNotPaused returns(bytes4) {\n        require(msg.sender == address(nftContract));\n        require(_from != address(0));\n        uint orderId = Utils.bytesToUint(_data);\n\n        _takeOrder(_from, orderId, _tokenId);\n        \n        return ERC721_RECEIVED;\n    }\n\n    function makeOrder(uint32 _tokenCate) external payable whenNotPaused {\n        require(msg.value > ACC);\n        require(checker.existsOfCardCate(_tokenCate));\n\n        _makeOrder(msg.sender, _tokenCate, msg.value);\n    }\n\n    function _makeOrder(address _from, uint _tokenCate, uint _price) internal {\n        idCounter++;\n        Order memory o = Order(idCounter, _tokenCate, _price, _from);\n\n        orders.push(o);\n        orderIdToIndex[idCounter] = orders.length - 1;\n\n        emit MakeOrder(_from, idCounter, _price, _tokenCate);\n    }\n\n    function _takeOrder(address _to, uint _orderId, uint _tokenId) internal {\n        uint32 tokenCate = uint32(_tokenId >> 32);\n        require(tokenCate > 0);\n        \n        Order storage o = orders[orderIdToIndex[_orderId]];\n        address buyer = o.buyer;\n        uint price = o.price;\n\n        require(tokenCate == o.token);\n\n        _removeOrder(_orderId);\n        withdrawTokenOwner[_tokenId] = buyer;\n\n        uint fund = price / ACC * (ACC - sellRate);\n        _transferEth(_to, fund);\n\n        emit TakeOrder(_to, _orderId, fund);\n    }\n\n    function cancelOrder(uint _orderId) external whenNotPaused {\n\n        Order storage o = orders[orderIdToIndex[_orderId]];\n        uint price = o.price;\n\n        require(o.buyer == msg.sender);\n\n        _removeOrder(_orderId);\n        _transferEth(msg.sender, price);\n\n        emit CancelOrder(msg.sender, _orderId);\n    }\n\n    function cancelOrderByOwner(uint _orderId) external onlyOwner {\n        Order storage o = orders[orderIdToIndex[_orderId]];\n        address buyer = o.buyer;\n        uint price = o.price;\n\n        _removeOrder(_orderId);\n        _transferEth(buyer, price);\n\n        emit CancelOrder(msg.sender, _orderId);\n    }\n\n    function _transferEth(address _to, uint value) internal {\n        _to.transfer(value);\n    }\n\n    function withdrawToken(uint _token) external {\n        require(withdrawTokenOwner[_token] == msg.sender);\n\n        delete withdrawTokenOwner[_token];\n        _transferToken(msg.sender, _token);\n        emit WithDrawToken(msg.sender, _token);\n    }\n\n    function _removeOrder(uint _orderId) internal {\n        require(_exists(_orderId));\n\n        uint index = orderIdToIndex[_orderId];\n        require(orders.length > index);\n\n        uint lastIndex = orders.length - 1;\n        Order storage lastOrder = orders[lastIndex];\n\n        delete orders[index];\n        delete orderIdToIndex[_orderId];\n\n        orders[index] = lastOrder;\n        orderIdToIndex[lastOrder.id] = index;\n\n        orders.length--;\n    }\n\n    function _transferToken(address _to, uint _tokenId) internal {\n        nftContract.safeTransferFrom(address(this), _to, _tokenId, \"\");\n    }\n\n    function _exists(uint _orderId) internal view returns(bool) {\n        uint i = orderIdToIndex[_orderId];\n        return _orderId == orders[i].id;\n    }\n    \n}",
  "sourcePath": "/Users/fq/work/blockchain/mjz_contract/contracts/Agent/BuyAgent.sol",
  "compiler": {
    "name": "solc",
    "version": "0.4.21+commit.dfe3193c.Emscripten.clang"
  },
  "schemaVersion": "2.0.0",
  "updatedAt": "2018-06-20T05:27:30.838Z"
}