{
  "contractName": "ERC721BasicToken",
  "abi": [
    {
      "anonymous": false,
      "inputs": [
        {
          "indexed": true,
          "name": "_from",
          "type": "address"
        },
        {
          "indexed": true,
          "name": "_to",
          "type": "address"
        },
        {
          "indexed": false,
          "name": "_tokenId",
          "type": "uint256"
        }
      ],
      "name": "Transfer",
      "type": "event"
    },
    {
      "anonymous": false,
      "inputs": [
        {
          "indexed": true,
          "name": "_owner",
          "type": "address"
        },
        {
          "indexed": true,
          "name": "_approved",
          "type": "address"
        },
        {
          "indexed": false,
          "name": "_tokenId",
          "type": "uint256"
        }
      ],
      "name": "Approval",
      "type": "event"
    },
    {
      "anonymous": false,
      "inputs": [
        {
          "indexed": true,
          "name": "_owner",
          "type": "address"
        },
        {
          "indexed": true,
          "name": "_operator",
          "type": "address"
        },
        {
          "indexed": false,
          "name": "_approved",
          "type": "bool"
        }
      ],
      "name": "ApprovalForAll",
      "type": "event"
    },
    {
      "constant": true,
      "inputs": [
        {
          "name": "_owner",
          "type": "address"
        }
      ],
      "name": "balanceOf",
      "outputs": [
        {
          "name": "",
          "type": "uint256"
        }
      ],
      "payable": false,
      "stateMutability": "view",
      "type": "function"
    },
    {
      "constant": true,
      "inputs": [
        {
          "name": "_tokenId",
          "type": "uint256"
        }
      ],
      "name": "ownerOf",
      "outputs": [
        {
          "name": "",
          "type": "address"
        }
      ],
      "payable": false,
      "stateMutability": "view",
      "type": "function"
    },
    {
      "constant": true,
      "inputs": [
        {
          "name": "_tokenId",
          "type": "uint256"
        }
      ],
      "name": "exists",
      "outputs": [
        {
          "name": "",
          "type": "bool"
        }
      ],
      "payable": false,
      "stateMutability": "view",
      "type": "function"
    },
    {
      "constant": false,
      "inputs": [
        {
          "name": "_to",
          "type": "address"
        },
        {
          "name": "_tokenId",
          "type": "uint256"
        }
      ],
      "name": "approve",
      "outputs": [],
      "payable": false,
      "stateMutability": "nonpayable",
      "type": "function"
    },
    {
      "constant": true,
      "inputs": [
        {
          "name": "_tokenId",
          "type": "uint256"
        }
      ],
      "name": "getApproved",
      "outputs": [
        {
          "name": "",
          "type": "address"
        }
      ],
      "payable": false,
      "stateMutability": "view",
      "type": "function"
    },
    {
      "constant": false,
      "inputs": [
        {
          "name": "_to",
          "type": "address"
        },
        {
          "name": "_approved",
          "type": "bool"
        }
      ],
      "name": "setApprovalForAll",
      "outputs": [],
      "payable": false,
      "stateMutability": "nonpayable",
      "type": "function"
    },
    {
      "constant": true,
      "inputs": [
        {
          "name": "_owner",
          "type": "address"
        },
        {
          "name": "_operator",
          "type": "address"
        }
      ],
      "name": "isApprovedForAll",
      "outputs": [
        {
          "name": "",
          "type": "bool"
        }
      ],
      "payable": false,
      "stateMutability": "view",
      "type": "function"
    },
    {
      "constant": false,
      "inputs": [
        {
          "name": "_from",
          "type": "address"
        },
        {
          "name": "_to",
          "type": "address"
        },
        {
          "name": "_tokenId",
          "type": "uint256"
        }
      ],
      "name": "transferFrom",
      "outputs": [],
      "payable": false,
      "stateMutability": "nonpayable",
      "type": "function"
    },
    {
      "constant": false,
      "inputs": [
        {
          "name": "_from",
          "type": "address"
        },
        {
          "name": "_to",
          "type": "address"
        },
        {
          "name": "_tokenId",
          "type": "uint256"
        },
        {
          "name": "_data",
          "type": "bytes"
        }
      ],
      "name": "safeTransferFrom",
      "outputs": [],
      "payable": false,
      "stateMutability": "nonpayable",
      "type": "function"
    }
  ],
  "bytecode": "0x6060604052341561000f57600080fd5b6111438061001e6000396000f300606060405260043610610099576000357c0100000000000000000000000000000000000000000000000000000000900463ffffffff168063081812fc1461009e578063095ea7b31461010157806323b872dd146101435780634f558e79146101a45780636352211e146101df57806370a0823114610242578063a22cb4651461028f578063b88d4fde146102d3578063e985e9c514610377575b600080fd5b34156100a957600080fd5b6100bf60048080359060200190919050506103e7565b604051808273ffffffffffffffffffffffffffffffffffffffff1673ffffffffffffffffffffffffffffffffffffffff16815260200191505060405180910390f35b341561010c57600080fd5b610141600480803573ffffffffffffffffffffffffffffffffffffffff16906020019091908035906020019091905050610424565b005b341561014e57600080fd5b6101a2600480803573ffffffffffffffffffffffffffffffffffffffff1690602001909190803573ffffffffffffffffffffffffffffffffffffffff169060200190919080359060200190919050506105ea565b005b34156101af57600080fd5b6101c56004808035906020019091905050610701565b604051808215151515815260200191505060405180910390f35b34156101ea57600080fd5b6102006004808035906020019091905050610772565b604051808273ffffffffffffffffffffffffffffffffffffffff1673ffffffffffffffffffffffffffffffffffffffff16815260200191505060405180910390f35b341561024d57600080fd5b610279600480803573ffffffffffffffffffffffffffffffffffffffff169060200190919050506107ef565b6040518082815260200191505060405180910390f35b341561029a57600080fd5b6102d1600480803573ffffffffffffffffffffffffffffffffffffffff169060200190919080351515906020019091905050610873565b005b34156102de57600080fd5b610375600480803573ffffffffffffffffffffffffffffffffffffffff1690602001909190803573ffffffffffffffffffffffffffffffffffffffff1690602001909190803590602001909190803590602001908201803590602001908080601f016020809104026020016040519081016040528093929190818152602001838380828437820191505050505050919050506109af565b005b341561038257600080fd5b6103cd600480803573ffffffffffffffffffffffffffffffffffffffff1690602001909190803573ffffffffffffffffffffffffffffffffffffffff169060200190919050506109ee565b604051808215151515815260200191505060405180910390f35b60006001600083815260200190815260200160002060009054906101000a900473ffffffffffffffffffffffffffffffffffffffff169050919050565b600061042f82610772565b90508073ffffffffffffffffffffffffffffffffffffffff168373ffffffffffffffffffffffffffffffffffffffff161415151561046c57600080fd5b8073ffffffffffffffffffffffffffffffffffffffff163373ffffffffffffffffffffffffffffffffffffffff1614806104ac57506104ab81336109ee565b5b15156104b757600080fd5b600073ffffffffffffffffffffffffffffffffffffffff166104d8836103e7565b73ffffffffffffffffffffffffffffffffffffffff161415806105285750600073ffffffffffffffffffffffffffffffffffffffff168373ffffffffffffffffffffffffffffffffffffffff1614155b156105e557826001600084815260200190815260200160002060006101000a81548173ffffffffffffffffffffffffffffffffffffffff021916908373ffffffffffffffffffffffffffffffffffffffff1602179055508273ffffffffffffffffffffffffffffffffffffffff168173ffffffffffffffffffffffffffffffffffffffff167f8c5be1e5ebec7d5bd14f71427d1e84f3dd0314c0f7b2291e5b200ac8c7c3b925846040518082815260200191505060405180910390a35b505050565b806105f53382610a82565b151561060057600080fd5b600073ffffffffffffffffffffffffffffffffffffffff168473ffffffffffffffffffffffffffffffffffffffff161415151561063c57600080fd5b600073ffffffffffffffffffffffffffffffffffffffff168373ffffffffffffffffffffffffffffffffffffffff161415151561067857600080fd5b6106828483610b17565b61068c8483610c80565b6106968383610dae565b8273ffffffffffffffffffffffffffffffffffffffff168473ffffffffffffffffffffffffffffffffffffffff167fddf252ad1be2c89b69c2b068fc378daa952ba7f163c4a11628f55a4df523b3ef846040518082815260200191505060405180910390a350505050565b60008060008084815260200190815260200160002060009054906101000a900473ffffffffffffffffffffffffffffffffffffffff169050600073ffffffffffffffffffffffffffffffffffffffff168173ffffffffffffffffffffffffffffffffffffffff161415915050919050565b60008060008084815260200190815260200160002060009054906101000a900473ffffffffffffffffffffffffffffffffffffffff169050600073ffffffffffffffffffffffffffffffffffffffff168173ffffffffffffffffffffffffffffffffffffffff16141515156107e657600080fd5b80915050919050565b60008073ffffffffffffffffffffffffffffffffffffffff168273ffffffffffffffffffffffffffffffffffffffff161415151561082c57600080fd5b600260008373ffffffffffffffffffffffffffffffffffffffff1673ffffffffffffffffffffffffffffffffffffffff168152602001908152602001600020549050919050565b3373ffffffffffffffffffffffffffffffffffffffff168273ffffffffffffffffffffffffffffffffffffffff16141515156108ae57600080fd5b80600360003373ffffffffffffffffffffffffffffffffffffffff1673ffffffffffffffffffffffffffffffffffffffff16815260200190815260200160002060008473ffffffffffffffffffffffffffffffffffffffff1673ffffffffffffffffffffffffffffffffffffffff16815260200190815260200160002060006101000a81548160ff0219169083151502179055508173ffffffffffffffffffffffffffffffffffffffff163373ffffffffffffffffffffffffffffffffffffffff167f17307eab39ab6107e8899845ad3d59bd9653f200f220920489ca2b5937696c3183604051808215151515815260200191505060405180910390a35050565b816109ba3382610a82565b15156109c557600080fd5b6109d08585856105ea565b6109dc85858585610f06565b15156109e757600080fd5b5050505050565b6000600360008473ffffffffffffffffffffffffffffffffffffffff1673ffffffffffffffffffffffffffffffffffffffff16815260200190815260200160002060008373ffffffffffffffffffffffffffffffffffffffff1673ffffffffffffffffffffffffffffffffffffffff16815260200190815260200160002060009054906101000a900460ff16905092915050565b600080610a8e83610772565b90508073ffffffffffffffffffffffffffffffffffffffff168473ffffffffffffffffffffffffffffffffffffffff161480610afd57508373ffffffffffffffffffffffffffffffffffffffff16610ae5846103e7565b73ffffffffffffffffffffffffffffffffffffffff16145b80610b0e5750610b0d81856109ee565b5b91505092915050565b8173ffffffffffffffffffffffffffffffffffffffff16610b3782610772565b73ffffffffffffffffffffffffffffffffffffffff16141515610b5957600080fd5b600073ffffffffffffffffffffffffffffffffffffffff166001600083815260200190815260200160002060009054906101000a900473ffffffffffffffffffffffffffffffffffffffff1673ffffffffffffffffffffffffffffffffffffffff16141515610c7c5760006001600083815260200190815260200160002060006101000a81548173ffffffffffffffffffffffffffffffffffffffff021916908373ffffffffffffffffffffffffffffffffffffffff160217905550600073ffffffffffffffffffffffffffffffffffffffff168273ffffffffffffffffffffffffffffffffffffffff167f8c5be1e5ebec7d5bd14f71427d1e84f3dd0314c0f7b2291e5b200ac8c7c3b925836040518082815260200191505060405180910390a35b5050565b8173ffffffffffffffffffffffffffffffffffffffff16610ca082610772565b73ffffffffffffffffffffffffffffffffffffffff16141515610cc257600080fd5b610d156001600260008573ffffffffffffffffffffffffffffffffffffffff1673ffffffffffffffffffffffffffffffffffffffff168152602001908152602001600020546110cf90919063ffffffff16565b600260008473ffffffffffffffffffffffffffffffffffffffff1673ffffffffffffffffffffffffffffffffffffffff16815260200190815260200160002081905550600080600083815260200190815260200160002060006101000a81548173ffffffffffffffffffffffffffffffffffffffff021916908373ffffffffffffffffffffffffffffffffffffffff1602179055505050565b600073ffffffffffffffffffffffffffffffffffffffff1660008083815260200190815260200160002060009054906101000a900473ffffffffffffffffffffffffffffffffffffffff1673ffffffffffffffffffffffffffffffffffffffff16141515610e1b57600080fd5b8160008083815260200190815260200160002060006101000a81548173ffffffffffffffffffffffffffffffffffffffff021916908373ffffffffffffffffffffffffffffffffffffffff160217905550610ebf6001600260008573ffffffffffffffffffffffffffffffffffffffff1673ffffffffffffffffffffffffffffffffffffffff168152602001908152602001600020546110e890919063ffffffff16565b600260008473ffffffffffffffffffffffffffffffffffffffff1673ffffffffffffffffffffffffffffffffffffffff168152602001908152602001600020819055505050565b600080610f288573ffffffffffffffffffffffffffffffffffffffff16611104565b1515610f3757600191506110c6565b8473ffffffffffffffffffffffffffffffffffffffff1663f0b9e5ba8786866040518463ffffffff167c0100000000000000000000000000000000000000000000000000000000028152600401808473ffffffffffffffffffffffffffffffffffffffff1673ffffffffffffffffffffffffffffffffffffffff16815260200183815260200180602001828103825283818151815260200191508051906020019080838360005b83811015610ff9578082015181840152602081019050610fde565b50505050905090810190601f1680156110265780820380516001836020036101000a031916815260200191505b50945050505050602060405180830381600087803b151561104657600080fd5b5af1151561105357600080fd5b50505060405180519050905063f0b9e5ba7c0100000000000000000000000000000000000000000000000000000000027bffffffffffffffffffffffffffffffffffffffffffffffffffffffff1916817bffffffffffffffffffffffffffffffffffffffffffffffffffffffff19161491505b50949350505050565b60008282111515156110dd57fe5b818303905092915050565b600081830190508281101515156110fb57fe5b80905092915050565b600080823b9050600081119150509190505600a165627a7a72305820204de3aa5eabcaad67625c313ea096f76babd9762f8c39d7f92d53ef01e0711a0029",
  "source": "pragma solidity ^0.4.21;\n\nimport \"./ERC721Basic.sol\";\nimport \"./ERC721Receiver.sol\";\nimport \"../libs/SafeMath.sol\";\nimport \"../libs/AddressUtils.sol\";\n\n\n/**\n * @title ERC721 Non-Fungible Token Standard basic implementation\n * @dev see https://github.com/ethereum/EIPs/blob/master/EIPS/eip-721.md\n */\ncontract ERC721BasicToken is ERC721Basic {\n    using SafeMath for uint256;\n    using AddressUtils for address;\n\n    // Equals to `bytes4(keccak256(\"onERC721Received(address,uint256,bytes)\"))`\n    // which can be also obtained as `ERC721Receiver(0).onERC721Received.selector`\n    bytes4 constant ERC721_RECEIVED = 0xf0b9e5ba;\n\n    // Mapping from token ID to owner\n    mapping (uint256 => address) internal tokenOwner;\n\n    // Mapping from token ID to approved address\n    mapping (uint256 => address) internal tokenApprovals;\n\n    // Mapping from owner to number of owned token\n    mapping (address => uint256) internal ownedTokensCount;\n\n    // Mapping from owner to operator approvals\n    mapping (address => mapping (address => bool)) internal operatorApprovals;\n\n    /**\n    * @dev Guarantees msg.sender is owner of the given token\n    * @param _tokenId uint256 ID of the token to validate its ownership belongs to msg.sender\n    */\n    modifier onlyOwnerOf(uint256 _tokenId) {\n        require(ownerOf(_tokenId) == msg.sender);\n        _;\n    }\n\n    /**\n    * @dev Checks msg.sender can transfer a token, by being owner, approved, or operator\n    * @param _tokenId uint256 ID of the token to validate\n    */\n    modifier canTransfer(uint256 _tokenId) {\n        require(isApprovedOrOwner(msg.sender, _tokenId));\n        _;\n    }\n\n    /**\n    * @dev Gets the balance of the specified address\n    * @param _owner address to query the balance of\n    * @return uint256 representing the amount owned by the passed address\n    */\n    function balanceOf(address _owner) public view returns (uint256) {\n        require(_owner != address(0));\n        return ownedTokensCount[_owner];\n    }\n\n    /**\n    * @dev Gets the owner of the specified token ID\n    * @param _tokenId uint256 ID of the token to query the owner of\n    * @return owner address currently marked as the owner of the given token ID\n    */\n    function ownerOf(uint256 _tokenId) public view returns (address) {\n        address owner = tokenOwner[_tokenId];\n        require(owner != address(0));\n        return owner;\n    }\n\n    /**\n    * @dev Returns whether the specified token exists\n    * @param _tokenId uint256 ID of the token to query the existance of\n    * @return whether the token exists\n    */\n    function exists(uint256 _tokenId) public view returns (bool) {\n        address owner = tokenOwner[_tokenId];\n        return owner != address(0);\n    }\n\n    /**\n    * @dev Approves another address to transfer the given token ID\n    * @dev The zero address indicates there is no approved address.\n    * @dev There can only be one approved address per token at a given time.\n    * @dev Can only be called by the token owner or an approved operator.\n    * @param _to address to be approved for the given token ID\n    * @param _tokenId uint256 ID of the token to be approved\n    */\n    function approve(address _to, uint256 _tokenId) public {\n        address owner = ownerOf(_tokenId);\n        require(_to != owner);\n        require(msg.sender == owner || isApprovedForAll(owner, msg.sender));\n\n        if (getApproved(_tokenId) != address(0) || _to != address(0)) {\n            tokenApprovals[_tokenId] = _to;\n            emit Approval(owner, _to, _tokenId);\n        }\n    }\n\n    /**\n    * @dev Gets the approved address for a token ID, or zero if no address set\n    * @param _tokenId uint256 ID of the token to query the approval of\n    * @return address currently approved for a the given token ID\n    */\n    function getApproved(uint256 _tokenId) public view returns (address) {\n        return tokenApprovals[_tokenId];\n    }\n\n    /**\n    * @dev Sets or unsets the approval of a given operator\n    * @dev An operator is allowed to transfer all tokens of the sender on their behalf\n    * @param _to operator address to set the approval\n    * @param _approved representing the status of the approval to be set\n    */\n    function setApprovalForAll(address _to, bool _approved) public {\n        require(_to != msg.sender);\n        operatorApprovals[msg.sender][_to] = _approved;\n        emit ApprovalForAll(msg.sender, _to, _approved);\n    }\n\n    /**\n    * @dev Tells whether an operator is approved by a given owner\n    * @param _owner owner address which you want to query the approval of\n    * @param _operator operator address which you want to query the approval of\n    * @return bool whether the given operator is approved by the given owner\n    */\n    function isApprovedForAll(address _owner, address _operator) public view returns (bool) {\n        return operatorApprovals[_owner][_operator];\n    }\n\n    /**\n    * @dev Transfers the ownership of a given token ID to another address\n    * @dev Usage of this method is discouraged, use `safeTransferFrom` whenever possible\n    * @dev Requires the msg sender to be the owner, approved, or operator\n    * @param _from current owner of the token\n    * @param _to address to receive the ownership of the given token ID\n    * @param _tokenId uint256 ID of the token to be transferred\n    */\n    function transferFrom(address _from, address _to, uint256 _tokenId) public canTransfer(_tokenId) {\n        require(_from != address(0));\n        require(_to != address(0));\n\n        clearApproval(_from, _tokenId);\n        removeTokenFrom(_from, _tokenId);\n        addTokenTo(_to, _tokenId);\n\n        emit Transfer(_from, _to, _tokenId);\n    }\n\n    /**\n    * @dev Safely transfers the ownership of a given token ID to another address\n    * @dev If the target address is a contract, it must implement `onERC721Received`,\n    *  which is called upon a safe transfer, and return the magic value\n    *  `bytes4(keccak256(\"onERC721Received(address,uint256,bytes)\"))`; otherwise,\n    *  the transfer is reverted.\n    * @dev Requires the msg sender to be the owner, approved, or operator\n    * @param _from current owner of the token\n    * @param _to address to receive the ownership of the given token ID\n    * @param _tokenId uint256 ID of the token to be transferred\n    */\n    // function safeTransferFrom(\n    //     address _from,\n    //     address _to,\n    //     uint256 _tokenId\n    // )\n    //     public\n    //     canTransfer(_tokenId)\n    // {\n    //   // solium-disable-next-line arg-overflow\n    //     safeTransferFrom(_from, _to, _tokenId, \"\");\n    // }\n\n    /**\n    * @dev Safely transfers the ownership of a given token ID to another address\n    * @dev If the target address is a contract, it must implement `onERC721Received`,\n    *  which is called upon a safe transfer, and return the magic value\n    *  `bytes4(keccak256(\"onERC721Received(address,uint256,bytes)\"))`; otherwise,\n    *  the transfer is reverted.\n    * @dev Requires the msg sender to be the owner, approved, or operator\n    * @param _from current owner of the token\n    * @param _to address to receive the ownership of the given token ID\n    * @param _tokenId uint256 ID of the token to be transferred\n    * @param _data bytes data to send along with a safe transfer check\n    */\n    function safeTransferFrom(\n        address _from,\n        address _to,\n        uint256 _tokenId,\n        bytes _data\n    )\n        public\n        canTransfer(_tokenId)\n    {\n        transferFrom(_from, _to, _tokenId);\n        // solium-disable-next-line arg-overflow\n        require(checkAndCallSafeTransfer(_from, _to, _tokenId, _data));\n    }\n\n    /**\n    * @dev Returns whether the given spender can transfer a given token ID\n    * @param _spender address of the spender to query\n    * @param _tokenId uint256 ID of the token to be transferred\n    * @return bool whether the msg.sender is approved for the given token ID,\n    *  is an operator of the owner, or is the owner of the token\n    */\n    function isApprovedOrOwner(address _spender, uint256 _tokenId) internal view returns (bool) {\n        address owner = ownerOf(_tokenId);\n        return _spender == owner || getApproved(_tokenId) == _spender || isApprovedForAll(owner, _spender);\n    }\n\n    /**\n    * @dev Internal function to mint a new token\n    * @dev Reverts if the given token ID already exists\n    * @param _to The address that will own the minted token\n    * @param _tokenId uint256 ID of the token to be minted by the msg.sender\n    */\n    function _mint(address _to, uint256 _tokenId) internal {\n        require(_to != address(0));\n        addTokenTo(_to, _tokenId);\n        emit Transfer(address(0), _to, _tokenId);\n    }\n\n    /**\n    * @dev Internal function to burn a specific token\n    * @dev Reverts if the token does not exist\n    * @param _tokenId uint256 ID of the token being burned by the msg.sender\n    */\n    function _burn(address _owner, uint256 _tokenId) internal {\n        clearApproval(_owner, _tokenId);\n        removeTokenFrom(_owner, _tokenId);\n        emit Transfer(_owner, address(0), _tokenId);\n    }\n\n    /**\n    * @dev Internal function to clear current approval of a given token ID\n    * @dev Reverts if the given address is not indeed the owner of the token\n    * @param _owner owner of the token\n    * @param _tokenId uint256 ID of the token to be transferred\n    */\n    function clearApproval(address _owner, uint256 _tokenId) internal {\n        require(ownerOf(_tokenId) == _owner);\n        if (tokenApprovals[_tokenId] != address(0)) {\n            tokenApprovals[_tokenId] = address(0);\n            emit Approval(_owner, address(0), _tokenId);\n        }\n    }\n\n    /**\n    * @dev Internal function to add a token ID to the list of a given address\n    * @param _to address representing the new owner of the given token ID\n    * @param _tokenId uint256 ID of the token to be added to the tokens list of the given address\n    */\n    function addTokenTo(address _to, uint256 _tokenId) internal {\n        require(tokenOwner[_tokenId] == address(0));\n        tokenOwner[_tokenId] = _to;\n        ownedTokensCount[_to] = ownedTokensCount[_to].add(1);\n    }\n\n    /**\n    * @dev Internal function to remove a token ID from the list of a given address\n    * @param _from address representing the previous owner of the given token ID\n    * @param _tokenId uint256 ID of the token to be removed from the tokens list of the given address\n    */\n    function removeTokenFrom(address _from, uint256 _tokenId) internal {\n        require(ownerOf(_tokenId) == _from);\n        ownedTokensCount[_from] = ownedTokensCount[_from].sub(1);\n        tokenOwner[_tokenId] = address(0);\n    }\n\n    /**\n    * @dev Internal function to invoke `onERC721Received` on a target address\n    * @dev The call is not executed if the target address is not a contract\n    * @param _from address representing the previous owner of the given token ID\n    * @param _to target address that will receive the tokens\n    * @param _tokenId uint256 ID of the token to be transferred\n    * @param _data bytes optional data to send along with the call\n    * @return whether the call correctly returned the expected magic value\n    */\n    function checkAndCallSafeTransfer(\n        address _from,\n        address _to,\n        uint256 _tokenId,\n        bytes _data\n    )\n        internal\n        returns (bool)\n    {\n        if (!_to.isContract()) {\n            return true;\n        }\n        bytes4 retval = ERC721Receiver(_to).onERC721Received(_from, _tokenId, _data);\n        return (retval == ERC721_RECEIVED);\n    }\n}\n",
  "sourcePath": "/Users/fq/work/blockchain/mjz_contract/contracts/ERC/ERC721BasicToken.sol",
  "compiler": {
    "name": "solc",
    "version": "0.4.21+commit.dfe3193c.Emscripten.clang"
  },
  "schemaVersion": "2.0.0",
  "updatedAt": "2018-06-12T11:34:00.975Z"
}