{
  "contractName": "Random",
  "abi": [
    {
      "constant": false,
      "inputs": [],
      "name": "next",
      "outputs": [
        {
          "name": "",
          "type": "uint256"
        }
      ],
      "payable": false,
      "stateMutability": "nonpayable",
      "type": "function"
    }
  ],
  "bytecode": "0x60606040523415600e57600080fd5b60fb8061001c6000396000f300606060405260043610603f576000357c0100000000000000000000000000000000000000000000000000000000900463ffffffff1680634c8fe526146044575b600080fd5b3415604e57600080fd5b6054606a565b6040518082815260200191505060405180910390f35b6000600143034060005460405180836000191660001916815260200182815260200192505050604051809103902042604051808360001916600019168152602001828152602001925050506040518091039020600190046000819055506000549050905600a165627a7a7230582064f89744dd3726c697dd544cfc24ff19b17c038c2814e320815600501496867e0029",
  "source": "pragma solidity ^0.4.21;\n\ncontract Random {\n    uint _seed;\n    function next() external returns(uint) {\n        _seed = uint(keccak256(keccak256(block.blockhash(block.number - 1), _seed), now));\n\n        return _seed;\n    }\n}",
  "sourcePath": "/Users/fq/work/blockchain/mjz_contract/contracts/Random.sol",
  "compiler": {
    "name": "solc",
    "version": "0.4.21+commit.dfe3193c.Emscripten.clang"
  },
  "schemaVersion": "2.0.0",
  "updatedAt": "2018-06-20T05:27:38.850Z"
}