{
  "contractName": "SellAgent",
  "abi": [
    {
      "constant": false,
      "inputs": [
        {
          "name": "count",
          "type": "uint256"
        }
      ],
      "name": "reclaim",
      "outputs": [],
      "payable": false,
      "stateMutability": "nonpayable",
      "type": "function"
    },
    {
      "constant": false,
      "inputs": [],
      "name": "unpause",
      "outputs": [
        {
          "name": "",
          "type": "bool"
        }
      ],
      "payable": false,
      "stateMutability": "nonpayable",
      "type": "function"
    },
    {
      "constant": true,
      "inputs": [
        {
          "name": "",
          "type": "address"
        }
      ],
      "name": "withdrawFund",
      "outputs": [
        {
          "name": "",
          "type": "uint256"
        }
      ],
      "payable": false,
      "stateMutability": "view",
      "type": "function"
    },
    {
      "constant": true,
      "inputs": [],
      "name": "paused",
      "outputs": [
        {
          "name": "",
          "type": "bool"
        }
      ],
      "payable": false,
      "stateMutability": "view",
      "type": "function"
    },
    {
      "constant": false,
      "inputs": [],
      "name": "destroy",
      "outputs": [],
      "payable": false,
      "stateMutability": "nonpayable",
      "type": "function"
    },
    {
      "constant": false,
      "inputs": [],
      "name": "pause",
      "outputs": [
        {
          "name": "",
          "type": "bool"
        }
      ],
      "payable": false,
      "stateMutability": "nonpayable",
      "type": "function"
    },
    {
      "constant": true,
      "inputs": [],
      "name": "owner",
      "outputs": [
        {
          "name": "",
          "type": "address"
        }
      ],
      "payable": false,
      "stateMutability": "view",
      "type": "function"
    },
    {
      "constant": false,
      "inputs": [
        {
          "name": "newOwner",
          "type": "address"
        }
      ],
      "name": "transferOwnership",
      "outputs": [],
      "payable": false,
      "stateMutability": "nonpayable",
      "type": "function"
    },
    {
      "constant": false,
      "inputs": [
        {
          "name": "_recipient",
          "type": "address"
        }
      ],
      "name": "destroyAndSend",
      "outputs": [],
      "payable": false,
      "stateMutability": "nonpayable",
      "type": "function"
    },
    {
      "anonymous": false,
      "inputs": [
        {
          "indexed": false,
          "name": "_from",
          "type": "address"
        },
        {
          "indexed": false,
          "name": "_token",
          "type": "uint256"
        },
        {
          "indexed": false,
          "name": "_price",
          "type": "uint256"
        }
      ],
      "name": "MakeOrder",
      "type": "event"
    },
    {
      "anonymous": false,
      "inputs": [
        {
          "indexed": false,
          "name": "_to",
          "type": "address"
        },
        {
          "indexed": false,
          "name": "_token",
          "type": "uint256"
        }
      ],
      "name": "TakeOrder",
      "type": "event"
    },
    {
      "anonymous": false,
      "inputs": [
        {
          "indexed": false,
          "name": "_token",
          "type": "uint256"
        },
        {
          "indexed": false,
          "name": "exc",
          "type": "address"
        }
      ],
      "name": "CancelOrder",
      "type": "event"
    },
    {
      "anonymous": false,
      "inputs": [
        {
          "indexed": false,
          "name": "_to",
          "type": "address"
        },
        {
          "indexed": false,
          "name": "_fund",
          "type": "uint256"
        }
      ],
      "name": "WithDraw",
      "type": "event"
    },
    {
      "anonymous": false,
      "inputs": [],
      "name": "Pause",
      "type": "event"
    },
    {
      "anonymous": false,
      "inputs": [],
      "name": "Unpause",
      "type": "event"
    },
    {
      "anonymous": false,
      "inputs": [
        {
          "indexed": true,
          "name": "previousOwner",
          "type": "address"
        },
        {
          "indexed": true,
          "name": "newOwner",
          "type": "address"
        }
      ],
      "name": "OwnershipTransferred",
      "type": "event"
    },
    {
      "constant": true,
      "inputs": [
        {
          "name": "_tokenId",
          "type": "uint256"
        }
      ],
      "name": "orderByToken",
      "outputs": [
        {
          "name": "saler",
          "type": "address"
        },
        {
          "name": "token",
          "type": "uint256"
        },
        {
          "name": "price",
          "type": "uint256"
        }
      ],
      "payable": false,
      "stateMutability": "view",
      "type": "function"
    },
    {
      "constant": false,
      "inputs": [
        {
          "name": "_from",
          "type": "address"
        },
        {
          "name": "_tokenId",
          "type": "uint256"
        },
        {
          "name": "_data",
          "type": "bytes"
        }
      ],
      "name": "onERC721Received",
      "outputs": [
        {
          "name": "",
          "type": "bytes4"
        }
      ],
      "payable": false,
      "stateMutability": "nonpayable",
      "type": "function"
    },
    {
      "constant": false,
      "inputs": [
        {
          "name": "_addr",
          "type": "address"
        }
      ],
      "name": "setNftContractAddress",
      "outputs": [],
      "payable": false,
      "stateMutability": "nonpayable",
      "type": "function"
    },
    {
      "constant": false,
      "inputs": [
        {
          "name": "_tokenId",
          "type": "uint256"
        }
      ],
      "name": "takeOrder",
      "outputs": [],
      "payable": true,
      "stateMutability": "payable",
      "type": "function"
    },
    {
      "constant": false,
      "inputs": [],
      "name": "withdraw",
      "outputs": [],
      "payable": false,
      "stateMutability": "nonpayable",
      "type": "function"
    },
    {
      "constant": false,
      "inputs": [
        {
          "name": "_tokenId",
          "type": "uint256"
        }
      ],
      "name": "cancelOrder",
      "outputs": [],
      "payable": false,
      "stateMutability": "nonpayable",
      "type": "function"
    },
    {
      "constant": false,
      "inputs": [
        {
          "name": "_tokenId",
          "type": "uint256"
        }
      ],
      "name": "cancelOrderByOwner",
      "outputs": [],
      "payable": false,
      "stateMutability": "nonpayable",
      "type": "function"
    }
  ],
  "bytecode": "0x606060405260008060146101000a81548160ff0219169083151502179055506064600455336000806101000a81548173ffffffffffffffffffffffffffffffffffffffff021916908373ffffffffffffffffffffffffffffffffffffffff1602179055506114da806100726000396000f3006060604052600436106100e6576000357c0100000000000000000000000000000000000000000000000000000000900463ffffffff1680632dabbeed146100eb5780633b5d1a241461010e5780633ccfd60b146101265780633f4ba83a1461013b578063514fcac7146101685780635376f1a31461018b5780635c975abb146101d857806383197ef0146102055780638456cb591461021a5780638da5cb5b14610247578063c5136dbd1461029c578063da31d6401461030d578063e5f61e8014610346578063f0b9e5ba14610369578063f2fde38b14610440578063f5074f4114610479575b600080fd5b34156100f657600080fd5b61010c60048080359060200190919050506104b2565b005b6101246004808035906020019091905050610597565b005b341561013157600080fd5b6101396106ef565b005b341561014657600080fd5b61014e610850565b604051808215151515815260200191505060405180910390f35b341561017357600080fd5b6101896004808035906020019091905050610915565b005b341561019657600080fd5b6101c2600480803573ffffffffffffffffffffffffffffffffffffffff16906020019091905050610a27565b6040518082815260200191505060405180910390f35b34156101e357600080fd5b6101eb610a3f565b604051808215151515815260200191505060405180910390f35b341561021057600080fd5b610218610a52565b005b341561022557600080fd5b61022d610ae7565b604051808215151515815260200191505060405180910390f35b341561025257600080fd5b61025a610bae565b604051808273ffffffffffffffffffffffffffffffffffffffff1673ffffffffffffffffffffffffffffffffffffffff16815260200191505060405180910390f35b34156102a757600080fd5b6102bd6004808035906020019091905050610bd3565b604051808473ffffffffffffffffffffffffffffffffffffffff1673ffffffffffffffffffffffffffffffffffffffff168152602001838152602001828152602001935050505060405180910390f35b341561031857600080fd5b610344600480803573ffffffffffffffffffffffffffffffffffffffff16906020019091905050610c3f565b005b341561035157600080fd5b6103676004808035906020019091905050610cde565b005b341561037457600080fd5b6103ec600480803573ffffffffffffffffffffffffffffffffffffffff1690602001909190803590602001909190803590602001908201803590602001908080601f01602080910402602001604051908101604052809392919081815260200183838082843782019150505050505091905050610dfb565b60405180827bffffffffffffffffffffffffffffffffffffffffffffffffffffffff19167bffffffffffffffffffffffffffffffffffffffffffffffffffffffff1916815260200191505060405180910390f35b341561044b57600080fd5b610477600480803573ffffffffffffffffffffffffffffffffffffffff16906020019091905050610eca565b005b341561048457600080fd5b6104b0600480803573ffffffffffffffffffffffffffffffffffffffff1690602001909190505061101f565b005b6000809054906101000a900473ffffffffffffffffffffffffffffffffffffffff1673ffffffffffffffffffffffffffffffffffffffff163373ffffffffffffffffffffffffffffffffffffffff1614151561050d57600080fd5b3073ffffffffffffffffffffffffffffffffffffffff1631811115151561053357600080fd5b6000809054906101000a900473ffffffffffffffffffffffffffffffffffffffff1673ffffffffffffffffffffffffffffffffffffffff166108fc829081150290604051600060405180830381858888f19350505050151561059457600080fd5b50565b60008060008060149054906101000a900460ff161515156105b757600080fd5b600260008581526020019081526020016000209250826002015491508260000160009054906101000a900473ffffffffffffffffffffffffffffffffffffffff16905081341015151561060957600080fd5b61061284611093565b61061c33856110f7565b6004546103e8036103e88381151561063057fe5b0402600360008373ffffffffffffffffffffffffffffffffffffffff1673ffffffffffffffffffffffffffffffffffffffff168152602001908152602001600020600082825401925050819055507f201291feeeea00aada53f2d702928dcfd902433aaa8f61b60ba31ff0fc7e9bf43385604051808373ffffffffffffffffffffffffffffffffffffffff1673ffffffffffffffffffffffffffffffffffffffff1681526020018281526020019250505060405180910390a150505050565b60008060149054906101000a900460ff1615151561070c57600080fd5b600360003373ffffffffffffffffffffffffffffffffffffffff1673ffffffffffffffffffffffffffffffffffffffff16815260200190815260200160002054905060008111151561075d57600080fd5b6000600360003373ffffffffffffffffffffffffffffffffffffffff1673ffffffffffffffffffffffffffffffffffffffff168152602001908152602001600020819055503373ffffffffffffffffffffffffffffffffffffffff166108fc829081150290604051600060405180830381858888f1935050505015156107e257600080fd5b7f14b43ca4c63c5423006ad978eab8a14386476b52f1d4728070ea20a36f13e83b3382604051808373ffffffffffffffffffffffffffffffffffffffff1673ffffffffffffffffffffffffffffffffffffffff1681526020018281526020019250505060405180910390a150565b60008060009054906101000a900473ffffffffffffffffffffffffffffffffffffffff1673ffffffffffffffffffffffffffffffffffffffff163373ffffffffffffffffffffffffffffffffffffffff161415156108ad57600080fd5b600060149054906101000a900460ff1615156108c857600080fd5b60008060146101000a81548160ff0219169083151502179055507f7805862f689e2f13df9f062ff482ad3ad112aca9e0847911ed832e158c525b3360405160405180910390a16001905090565b60008060149054906101000a900460ff1615151561093257600080fd5b6002600083815260200190815260200160002090503373ffffffffffffffffffffffffffffffffffffffff168160000160009054906101000a900473ffffffffffffffffffffffffffffffffffffffff1673ffffffffffffffffffffffffffffffffffffffff161415156109a557600080fd5b6109ae82611093565b6109b833836110f7565b7f22369ba22944aadf9e9d6f4c51462417a50ea7876b9c62c7c46b5522e9c672cc8233604051808381526020018273ffffffffffffffffffffffffffffffffffffffff1673ffffffffffffffffffffffffffffffffffffffff1681526020019250505060405180910390a15050565b60036020528060005260406000206000915090505481565b600060149054906101000a900460ff1681565b6000809054906101000a900473ffffffffffffffffffffffffffffffffffffffff1673ffffffffffffffffffffffffffffffffffffffff163373ffffffffffffffffffffffffffffffffffffffff16141515610aad57600080fd5b6000809054906101000a900473ffffffffffffffffffffffffffffffffffffffff1673ffffffffffffffffffffffffffffffffffffffff16ff5b60008060009054906101000a900473ffffffffffffffffffffffffffffffffffffffff1673ffffffffffffffffffffffffffffffffffffffff163373ffffffffffffffffffffffffffffffffffffffff16141515610b4457600080fd5b600060149054906101000a900460ff16151515610b6057600080fd5b6001600060146101000a81548160ff0219169083151502179055507f6985a02210a168e66602d3235cb6db0e70f92b3ba4d376a33c0f3d9434bff62560405160405180910390a16001905090565b6000809054906101000a900473ffffffffffffffffffffffffffffffffffffffff1681565b600080600080610be285611217565b1515610bed57600080fd5b6002600086815260200190815260200160002090508060000160009054906101000a900473ffffffffffffffffffffffffffffffffffffffff1693508060010154925080600201549150509193909250565b6000809054906101000a900473ffffffffffffffffffffffffffffffffffffffff1673ffffffffffffffffffffffffffffffffffffffff163373ffffffffffffffffffffffffffffffffffffffff16141515610c9a57600080fd5b80600160006101000a81548173ffffffffffffffffffffffffffffffffffffffff021916908373ffffffffffffffffffffffffffffffffffffffff16021790555050565b6000806000809054906101000a900473ffffffffffffffffffffffffffffffffffffffff1673ffffffffffffffffffffffffffffffffffffffff163373ffffffffffffffffffffffffffffffffffffffff16141515610d3c57600080fd5b6002600084815260200190815260200160002091508160000160009054906101000a900473ffffffffffffffffffffffffffffffffffffffff169050610d8183611093565b610d8b81846110f7565b7f22369ba22944aadf9e9d6f4c51462417a50ea7876b9c62c7c46b5522e9c672cc8333604051808381526020018273ffffffffffffffffffffffffffffffffffffffff1673ffffffffffffffffffffffffffffffffffffffff1681526020019250505060405180910390a1505050565b600080600060149054906101000a900460ff16151515610e1a57600080fd5b600160009054906101000a900473ffffffffffffffffffffffffffffffffffffffff1673ffffffffffffffffffffffffffffffffffffffff163373ffffffffffffffffffffffffffffffffffffffff16141515610e7657600080fd5b610e7f83611244565b90506103e881111515610e9157600080fd5b610e9c85858361134f565b63f0b9e5ba7c0100000000000000000000000000000000000000000000000000000000029150509392505050565b6000809054906101000a900473ffffffffffffffffffffffffffffffffffffffff1673ffffffffffffffffffffffffffffffffffffffff163373ffffffffffffffffffffffffffffffffffffffff16141515610f2557600080fd5b600073ffffffffffffffffffffffffffffffffffffffff168173ffffffffffffffffffffffffffffffffffffffff1614151515610f6157600080fd5b8073ffffffffffffffffffffffffffffffffffffffff166000809054906101000a900473ffffffffffffffffffffffffffffffffffffffff1673ffffffffffffffffffffffffffffffffffffffff167f8be0079c531659141344cd1fd0a4f28419497f9722a3daafe3b4186f6b6457e060405160405180910390a3806000806101000a81548173ffffffffffffffffffffffffffffffffffffffff021916908373ffffffffffffffffffffffffffffffffffffffff16021790555050565b6000809054906101000a900473ffffffffffffffffffffffffffffffffffffffff1673ffffffffffffffffffffffffffffffffffffffff163373ffffffffffffffffffffffffffffffffffffffff1614151561107a57600080fd5b8073ffffffffffffffffffffffffffffffffffffffff16ff5b61109c81611217565b15156110a757600080fd5b60026000828152602001908152602001600020600080820160006101000a81549073ffffffffffffffffffffffffffffffffffffffff021916905560018201600090556002820160009055505050565b600160009054906101000a900473ffffffffffffffffffffffffffffffffffffffff1673ffffffffffffffffffffffffffffffffffffffff1663b88d4fde3084846040518463ffffffff167c0100000000000000000000000000000000000000000000000000000000028152600401808473ffffffffffffffffffffffffffffffffffffffff1673ffffffffffffffffffffffffffffffffffffffff1681526020018373ffffffffffffffffffffffffffffffffffffffff1673ffffffffffffffffffffffffffffffffffffffff16815260200182815260200180602001828103825260008152602001602001945050505050600060405180830381600087803b151561120357600080fd5b5af1151561121057600080fd5b5050505050565b6000808211801561123d5750600260008381526020019081526020016000206001015482145b9050919050565b60008060008060009250600490505b845181101561134457848181518110151561126a57fe5b9060200101517f010000000000000000000000000000000000000000000000000000000000000090047f0100000000000000000000000000000000000000000000000000000000000000027f010000000000000000000000000000000000000000000000000000000000000090049150603082101580156112eb5750603a82105b15611304576030826004859060020a0201039250611337565b606182101580156113155750606782105b1561133157600a6061836004869060020a020103019250611336565b600080fd5b5b8080600101915050611253565b829350505050919050565b611357611476565b6060604051908101604052808573ffffffffffffffffffffffffffffffffffffffff168152602001848152602001838152509050806002600085815260200190815260200160002060008201518160000160006101000a81548173ffffffffffffffffffffffffffffffffffffffff021916908373ffffffffffffffffffffffffffffffffffffffff16021790555060208201518160010155604082015181600201559050507fec9dbe244642100a4567f57bf4e3ed5eda6a4c9b119e03507ccae6e8cac613cc848484604051808473ffffffffffffffffffffffffffffffffffffffff1673ffffffffffffffffffffffffffffffffffffffff168152602001838152602001828152602001935050505060405180910390a150505050565b606060405190810160405280600073ffffffffffffffffffffffffffffffffffffffff168152602001600081526020016000815250905600a165627a7a723058203e41459246e53a79f09723228cc2332cc05611a4a2dd36b53872fc2f0011c68d0029",
  "source": "pragma solidity ^0.4.21;\n\nimport '../ERC/ERC721Receiver.sol';\nimport '../Ctrlship/Pausable.sol';\nimport '../ERC/ERC721.sol';\nimport '../libs/Utils.sol';\nimport '../Ctrlship/Destructible.sol';\nimport '../Ctrlship/Reclaim.sol';\n\ncontract SellAgent is ERC721Receiver, Pausable, Destructible, Reclaim {\n    event MakeOrder(address _from, uint _token, uint _price);\n    event TakeOrder(address _to, uint _token);\n    event CancelOrder(uint _token, address exc);\n    event WithDraw(address _to, uint _fund);\n\n    struct Order {\n        address saler;\n        uint token;\n        uint price;\n    }\n\n    ERC721 nftContract;\n\n    mapping (uint => Order) orderOfToken;\n\n    mapping (address => uint) public withdrawFund;\n\n    //交易费率精度\n    uint constant ACC = 1000;\n    //交易费率 千分之\n    uint sellRate = 100;\n\n    function orderByToken(uint _tokenId) external view returns(address saler, uint token, uint price) {\n        require(_exists(_tokenId));\n        Order storage o = orderOfToken[_tokenId];\n\n        saler = o.saler;\n        token = o.token;\n        price = o.price;\n    }\n\n    function onERC721Received(address _from, uint256 _tokenId, bytes _data) public whenNotPaused returns(bytes4) {\n        require(msg.sender == address(nftContract));\n        uint price = Utils.bytesToUint(_data);\n        require(price > 1000);\n        _makeOrder(_from, _tokenId, price);\n\n        return ERC721_RECEIVED;\n    }\n\n    function setNftContractAddress(address _addr) external onlyOwner {\n        nftContract = ERC721(_addr);\n    }\n\n\n    function _makeOrder(address _from, uint _tokenId, uint _price) internal {\n        Order memory o = Order(_from, _tokenId, _price);\n\n        orderOfToken[_tokenId] = o;\n        emit MakeOrder(_from, _tokenId, _price);\n    }\n\n    function takeOrder(uint _tokenId) external payable whenNotPaused {\n        Order storage o = orderOfToken[_tokenId];\n        uint price = o.price;\n        address saler = o.saler;\n\n        require(msg.value >= price);\n\n        _removeOrder(_tokenId);\n        _transferToken(msg.sender, _tokenId);\n\n        withdrawFund[saler] += (price / ACC * (ACC - sellRate));\n        emit TakeOrder(msg.sender, _tokenId);\n    }\n\n    function withdraw() external whenNotPaused {\n        uint fund = withdrawFund[msg.sender];\n        require(fund > 0);\n        withdrawFund[msg.sender] = 0;\n        \n        msg.sender.transfer(fund);\n        emit WithDraw(msg.sender, fund);\n    }\n\n    function cancelOrder(uint _tokenId) external whenNotPaused {\n        Order storage o = orderOfToken[_tokenId];\n        require(o.saler == msg.sender);\n\n        _removeOrder(_tokenId);\n        _transferToken(msg.sender, _tokenId);\n        emit CancelOrder(_tokenId, msg.sender);\n    }\n\n    function cancelOrderByOwner(uint _tokenId) external onlyOwner {\n        Order storage o = orderOfToken[_tokenId];\n        address saler = o.saler;\n\n        _removeOrder(_tokenId);\n        _transferToken(saler, _tokenId);\n        emit CancelOrder(_tokenId, msg.sender);\n    }\n\n    function _removeOrder(uint _tokenId) internal {\n        require(_exists(_tokenId));\n\n        delete orderOfToken[_tokenId];\n    }\n\n    function _transferToken(address _to, uint _tokenId) internal {\n        nftContract.safeTransferFrom(address(this), _to, _tokenId, \"\");\n    }\n\n    function _exists(uint _tokenId) internal view returns(bool) {\n        return (_tokenId > 0) && (_tokenId == orderOfToken[_tokenId].token);\n    }\n\n}",
  "sourcePath": "/Users/fq/work/blockchain/mjz_contract/contracts/Agent/SellAgent.sol",
  "compiler": {
    "name": "solc",
    "version": "0.4.21+commit.dfe3193c.Emscripten.clang"
  },
  "schemaVersion": "2.0.0",
  "updatedAt": "2018-06-20T05:27:30.822Z"
}