{
  "contractName": "AuctionBase",
  "abi": [
    {
      "constant": true,
      "inputs": [],
      "name": "cfoAddress",
      "outputs": [
        {
          "name": "",
          "type": "address"
        }
      ],
      "payable": false,
      "stateMutability": "view",
      "type": "function"
    },
    {
      "constant": true,
      "inputs": [],
      "name": "ceoAddress",
      "outputs": [
        {
          "name": "",
          "type": "address"
        }
      ],
      "payable": false,
      "stateMutability": "view",
      "type": "function"
    },
    {
      "constant": true,
      "inputs": [],
      "name": "ctoAddress",
      "outputs": [
        {
          "name": "",
          "type": "address"
        }
      ],
      "payable": false,
      "stateMutability": "view",
      "type": "function"
    },
    {
      "constant": false,
      "inputs": [
        {
          "name": "_newCEO",
          "type": "address"
        }
      ],
      "name": "setCEO",
      "outputs": [],
      "payable": false,
      "stateMutability": "nonpayable",
      "type": "function"
    },
    {
      "constant": false,
      "inputs": [
        {
          "name": "_newCOO",
          "type": "address"
        }
      ],
      "name": "setCOO",
      "outputs": [],
      "payable": false,
      "stateMutability": "nonpayable",
      "type": "function"
    },
    {
      "constant": false,
      "inputs": [
        {
          "name": "_newSYS",
          "type": "address"
        }
      ],
      "name": "setSYS",
      "outputs": [],
      "payable": false,
      "stateMutability": "nonpayable",
      "type": "function"
    },
    {
      "constant": false,
      "inputs": [],
      "name": "unpause",
      "outputs": [],
      "payable": false,
      "stateMutability": "nonpayable",
      "type": "function"
    },
    {
      "constant": false,
      "inputs": [
        {
          "name": "_newCFO",
          "type": "address"
        }
      ],
      "name": "setCFO",
      "outputs": [],
      "payable": false,
      "stateMutability": "nonpayable",
      "type": "function"
    },
    {
      "constant": true,
      "inputs": [],
      "name": "paused",
      "outputs": [
        {
          "name": "",
          "type": "bool"
        }
      ],
      "payable": false,
      "stateMutability": "view",
      "type": "function"
    },
    {
      "constant": true,
      "inputs": [
        {
          "name": "a",
          "type": "uint256"
        },
        {
          "name": "b",
          "type": "uint256"
        }
      ],
      "name": "max",
      "outputs": [
        {
          "name": "",
          "type": "uint256"
        }
      ],
      "payable": false,
      "stateMutability": "pure",
      "type": "function"
    },
    {
      "constant": true,
      "inputs": [
        {
          "name": "a",
          "type": "uint256"
        },
        {
          "name": "b",
          "type": "uint256"
        }
      ],
      "name": "min",
      "outputs": [
        {
          "name": "",
          "type": "uint256"
        }
      ],
      "payable": false,
      "stateMutability": "pure",
      "type": "function"
    },
    {
      "constant": true,
      "inputs": [],
      "name": "ownerCut",
      "outputs": [
        {
          "name": "",
          "type": "uint256"
        }
      ],
      "payable": false,
      "stateMutability": "view",
      "type": "function"
    },
    {
      "constant": false,
      "inputs": [],
      "name": "pause",
      "outputs": [],
      "payable": false,
      "stateMutability": "nonpayable",
      "type": "function"
    },
    {
      "constant": true,
      "inputs": [],
      "name": "sysAddress",
      "outputs": [
        {
          "name": "",
          "type": "address"
        }
      ],
      "payable": false,
      "stateMutability": "view",
      "type": "function"
    },
    {
      "constant": true,
      "inputs": [],
      "name": "cooAddress",
      "outputs": [
        {
          "name": "",
          "type": "address"
        }
      ],
      "payable": false,
      "stateMutability": "view",
      "type": "function"
    },
    {
      "constant": true,
      "inputs": [],
      "name": "nftEggContract",
      "outputs": [
        {
          "name": "",
          "type": "address"
        }
      ],
      "payable": false,
      "stateMutability": "view",
      "type": "function"
    },
    {
      "constant": true,
      "inputs": [],
      "name": "unit_test",
      "outputs": [
        {
          "name": "",
          "type": "bool"
        }
      ],
      "payable": false,
      "stateMutability": "view",
      "type": "function"
    },
    {
      "constant": true,
      "inputs": [],
      "name": "nowtime",
      "outputs": [
        {
          "name": "",
          "type": "uint256"
        }
      ],
      "payable": false,
      "stateMutability": "view",
      "type": "function"
    },
    {
      "constant": false,
      "inputs": [
        {
          "name": "_newCTO",
          "type": "address"
        }
      ],
      "name": "setCTO",
      "outputs": [],
      "payable": false,
      "stateMutability": "nonpayable",
      "type": "function"
    },
    {
      "anonymous": false,
      "inputs": [
        {
          "indexed": false,
          "name": "tokenId",
          "type": "uint256"
        },
        {
          "indexed": false,
          "name": "startingPrice",
          "type": "uint256"
        },
        {
          "indexed": false,
          "name": "endingPrice",
          "type": "uint256"
        },
        {
          "indexed": false,
          "name": "duration",
          "type": "uint256"
        }
      ],
      "name": "AuctionCreated",
      "type": "event"
    },
    {
      "anonymous": false,
      "inputs": [
        {
          "indexed": false,
          "name": "tokenId",
          "type": "uint256"
        },
        {
          "indexed": false,
          "name": "totalPrice",
          "type": "uint256"
        },
        {
          "indexed": false,
          "name": "winner",
          "type": "address"
        }
      ],
      "name": "AuctionSuccessful",
      "type": "event"
    },
    {
      "anonymous": false,
      "inputs": [
        {
          "indexed": false,
          "name": "tokenId",
          "type": "uint256"
        }
      ],
      "name": "AuctionCancelled",
      "type": "event"
    },
    {
      "anonymous": false,
      "inputs": [
        {
          "indexed": false,
          "name": "label",
          "type": "string"
        },
        {
          "indexed": false,
          "name": "value",
          "type": "uint256"
        }
      ],
      "name": "LogUint",
      "type": "event"
    },
    {
      "anonymous": false,
      "inputs": [
        {
          "indexed": false,
          "name": "label",
          "type": "string"
        },
        {
          "indexed": false,
          "name": "value",
          "type": "int256"
        }
      ],
      "name": "LogInt",
      "type": "event"
    }
  ],
  "bytecode": "0x608060405260008060006101000a81548160ff0219169083151502179055506000600460146101000a81548160ff02191690831515021790555060146005556001600460146101000a81548160ff02191690831515021790555033600060016101000a81548173ffffffffffffffffffffffffffffffffffffffff021916908373ffffffffffffffffffffffffffffffffffffffff16021790555033600160006101000a81548173ffffffffffffffffffffffffffffffffffffffff021916908373ffffffffffffffffffffffffffffffffffffffff16021790555033600260006101000a81548173ffffffffffffffffffffffffffffffffffffffff021916908373ffffffffffffffffffffffffffffffffffffffff16021790555033600360006101000a81548173ffffffffffffffffffffffffffffffffffffffff021916908373ffffffffffffffffffffffffffffffffffffffff16021790555033600460006101000a81548173ffffffffffffffffffffffffffffffffffffffff021916908373ffffffffffffffffffffffffffffffffffffffff160217905550610e27806101ad6000396000f300608060405260043610610107576000357c0100000000000000000000000000000000000000000000000000000000900463ffffffff1680630519ce791461010c5780630a0f8168146101635780631f513660146101ba57806327d7874c146102115780632ba73c1514610254578063315ae4d4146102975780633f4ba83a146102da5780634e0a3379146102f15780635c975abb146103345780636d5433e6146103635780637ae2b5c7146103ae57806383b5ff8b146103f95780638456cb59146104245780639ebe8fe51461043b578063b047fb5014610492578063c18eab2c146104e9578063d33209cf14610540578063f2c8a3271461056f578063fe1439b41461059a575b600080fd5b34801561011857600080fd5b506101216105dd565b604051808273ffffffffffffffffffffffffffffffffffffffff1673ffffffffffffffffffffffffffffffffffffffff16815260200191505060405180910390f35b34801561016f57600080fd5b50610178610603565b604051808273ffffffffffffffffffffffffffffffffffffffff1673ffffffffffffffffffffffffffffffffffffffff16815260200191505060405180910390f35b3480156101c657600080fd5b506101cf610629565b604051808273ffffffffffffffffffffffffffffffffffffffff1673ffffffffffffffffffffffffffffffffffffffff16815260200191505060405180910390f35b34801561021d57600080fd5b50610252600480360381019080803573ffffffffffffffffffffffffffffffffffffffff16906020019092919050505061064f565b005b34801561026057600080fd5b50610295600480360381019080803573ffffffffffffffffffffffffffffffffffffffff16906020019092919050505061072b565b005b3480156102a357600080fd5b506102d8600480360381019080803573ffffffffffffffffffffffffffffffffffffffff169060200190929190505050610807565b005b3480156102e657600080fd5b506102ef6108e3565b005b3480156102fd57600080fd5b50610332600480360381019080803573ffffffffffffffffffffffffffffffffffffffff1690602001909291905050506109cf565b005b34801561034057600080fd5b50610349610aab565b604051808215151515815260200191505060405180910390f35b34801561036f57600080fd5b506103986004803603810190808035906020019092919080359060200190929190505050610abe565b6040518082815260200191505060405180910390f35b3480156103ba57600080fd5b506103e36004803603810190808035906020019092919080359060200190929190505050610ad7565b6040518082815260200191505060405180910390f35b34801561040557600080fd5b5061040e610af0565b6040518082815260200191505060405180910390f35b34801561043057600080fd5b50610439610af6565b005b34801561044757600080fd5b50610450610c93565b604051808273ffffffffffffffffffffffffffffffffffffffff1673ffffffffffffffffffffffffffffffffffffffff16815260200191505060405180910390f35b34801561049e57600080fd5b506104a7610cb9565b604051808273ffffffffffffffffffffffffffffffffffffffff1673ffffffffffffffffffffffffffffffffffffffff16815260200191505060405180910390f35b3480156104f557600080fd5b506104fe610cdf565b604051808273ffffffffffffffffffffffffffffffffffffffff1673ffffffffffffffffffffffffffffffffffffffff16815260200191505060405180910390f35b34801561054c57600080fd5b50610555610d05565b604051808215151515815260200191505060405180910390f35b34801561057b57600080fd5b50610584610d17565b6040518082815260200191505060405180910390f35b3480156105a657600080fd5b506105db600480360381019080803573ffffffffffffffffffffffffffffffffffffffff169060200190929190505050610d1f565b005b600260009054906101000a900473ffffffffffffffffffffffffffffffffffffffff1681565b600060019054906101000a900473ffffffffffffffffffffffffffffffffffffffff1681565b600160009054906101000a900473ffffffffffffffffffffffffffffffffffffffff1681565b600060019054906101000a900473ffffffffffffffffffffffffffffffffffffffff1673ffffffffffffffffffffffffffffffffffffffff163373ffffffffffffffffffffffffffffffffffffffff161415156106ab57600080fd5b600073ffffffffffffffffffffffffffffffffffffffff168173ffffffffffffffffffffffffffffffffffffffff16141515156106e757600080fd5b80600060016101000a81548173ffffffffffffffffffffffffffffffffffffffff021916908373ffffffffffffffffffffffffffffffffffffffff16021790555050565b600060019054906101000a900473ffffffffffffffffffffffffffffffffffffffff1673ffffffffffffffffffffffffffffffffffffffff163373ffffffffffffffffffffffffffffffffffffffff1614151561078757600080fd5b600073ffffffffffffffffffffffffffffffffffffffff168173ffffffffffffffffffffffffffffffffffffffff16141515156107c357600080fd5b80600360006101000a81548173ffffffffffffffffffffffffffffffffffffffff021916908373ffffffffffffffffffffffffffffffffffffffff16021790555050565b600060019054906101000a900473ffffffffffffffffffffffffffffffffffffffff1673ffffffffffffffffffffffffffffffffffffffff163373ffffffffffffffffffffffffffffffffffffffff1614151561086357600080fd5b600073ffffffffffffffffffffffffffffffffffffffff168173ffffffffffffffffffffffffffffffffffffffff161415151561089f57600080fd5b80600460006101000a81548173ffffffffffffffffffffffffffffffffffffffff021916908373ffffffffffffffffffffffffffffffffffffffff16021790555050565b600160009054906101000a900473ffffffffffffffffffffffffffffffffffffffff1673ffffffffffffffffffffffffffffffffffffffff163373ffffffffffffffffffffffffffffffffffffffff16148061098c5750600060019054906101000a900473ffffffffffffffffffffffffffffffffffffffff1673ffffffffffffffffffffffffffffffffffffffff163373ffffffffffffffffffffffffffffffffffffffff16145b151561099757600080fd5b600460149054906101000a900460ff1615156109b257600080fd5b6000600460146101000a81548160ff021916908315150217905550565b600060019054906101000a900473ffffffffffffffffffffffffffffffffffffffff1673ffffffffffffffffffffffffffffffffffffffff163373ffffffffffffffffffffffffffffffffffffffff16141515610a2b57600080fd5b600073ffffffffffffffffffffffffffffffffffffffff168173ffffffffffffffffffffffffffffffffffffffff1614151515610a6757600080fd5b80600260006101000a81548173ffffffffffffffffffffffffffffffffffffffff021916908373ffffffffffffffffffffffffffffffffffffffff16021790555050565b600460149054906101000a900460ff1681565b6000818311610acd5781610acf565b825b905092915050565b6000818311610ae65782610ae8565b815b905092915050565b60055481565b600060019054906101000a900473ffffffffffffffffffffffffffffffffffffffff1673ffffffffffffffffffffffffffffffffffffffff163373ffffffffffffffffffffffffffffffffffffffff161480610b9f5750600160009054906101000a900473ffffffffffffffffffffffffffffffffffffffff1673ffffffffffffffffffffffffffffffffffffffff163373ffffffffffffffffffffffffffffffffffffffff16145b80610bf75750600260009054906101000a900473ffffffffffffffffffffffffffffffffffffffff1673ffffffffffffffffffffffffffffffffffffffff163373ffffffffffffffffffffffffffffffffffffffff16145b80610c4f5750600360009054906101000a900473ffffffffffffffffffffffffffffffffffffffff1673ffffffffffffffffffffffffffffffffffffffff163373ffffffffffffffffffffffffffffffffffffffff16145b1515610c5a57600080fd5b600460149054906101000a900460ff16151515610c7657600080fd5b6001600460146101000a81548160ff021916908315150217905550565b600460009054906101000a900473ffffffffffffffffffffffffffffffffffffffff1681565b600360009054906101000a900473ffffffffffffffffffffffffffffffffffffffff1681565b600760009054906101000a900473ffffffffffffffffffffffffffffffffffffffff1681565b6000809054906101000a900460ff1681565b600042905090565b600060019054906101000a900473ffffffffffffffffffffffffffffffffffffffff1673ffffffffffffffffffffffffffffffffffffffff163373ffffffffffffffffffffffffffffffffffffffff16141515610d7b57600080fd5b600073ffffffffffffffffffffffffffffffffffffffff168173ffffffffffffffffffffffffffffffffffffffff1614151515610db757600080fd5b80600160006101000a81548173ffffffffffffffffffffffffffffffffffffffff021916908373ffffffffffffffffffffffffffffffffffffffff160217905550505600a165627a7a723058205003a93a1f7d5a37ff35b175f2b13a52d7ae2104aade78292a92856438f65d2c0029",
  "source": "pragma solidity ^0.4.18;\n\nimport \"../Jurassic/ERC721Draft.sol\";\nimport \"../ControlCenter.sol\";\n\ncontract AuctionBase is ControlCenter {\n    event AuctionCreated(uint256 tokenId, uint256 startingPrice, uint256 endingPrice, uint256 duration);\n    event AuctionSuccessful(uint256 tokenId, uint256 totalPrice, address winner);\n    event AuctionCancelled(uint256 tokenId);\n\n    struct Auction {\n        address seller;\n        // in wei\n        uint128 startingPrice;\n        // in wei\n        uint128 endingPrice;\n        // in seconds\n        uint64 duration;\n        // 这笔拍卖开始的时间，如果是0意味着已经结束\n        uint64 startedAt;\n    }\n\n    // 拍卖手续费，万分之x\n    uint256 public ownerCut = 20;\n\n    // 记录正在拍卖的token和对应的拍卖对象\n    mapping (uint256 => Auction) tokenIdToAuction;\n\n    ERC721 public nftEggContract;\n\n\n    modifier canBeStoredWith64Bits(uint256 _value) {\n        require(_value <= 18446744073709551615);\n        _;\n    }\n\n    modifier canBeStoredWith128Bits(uint256 _value) {\n        require(_value < 340282366920938463463374607431768211455);\n        _;\n    }    \n\n    function _addAuction(uint256 _tokenId, Auction _auction) internal {\n        require(_auction.duration >= 1 minutes);\n\n        tokenIdToAuction[_tokenId] = _auction;\n\n        logstring(\"AuctionCreated event\");\n\n        emit AuctionCreated(uint256(_tokenId),\n                       uint256(_auction.startingPrice),\n                       uint256(_auction.endingPrice),\n                       uint256(_auction.duration));\n\n    }\n\n    function _cancelAuction(uint256 _tokenId, address _seller) internal {\n        require(msg.sender == _seller);\n\n        delete tokenIdToAuction[_tokenId];\n\n        emit AuctionCancelled(_tokenId);\n    }\n\n\n    function _bid(uint256 _tokenId, uint256 _bidAmount) internal returns (uint256) {\n        Auction storage auction = tokenIdToAuction[_tokenId];\n\n        require(_isOnAuction(auction));\n\n        uint256 price = _currentPrice(auction);\n        require(_bidAmount >= price);\n\n        address seller = auction.seller;\n\n        delete tokenIdToAuction[_tokenId];\n\n        // 扣除手续费如果还有剩，则还给玩家\n        if (price > 0) {\n            uint256 auctioneerCut = _cut(price);\n            uint256 sellerReturn = price - auctioneerCut;\n\n            seller.transfer(sellerReturn);\n        }\n\n        emit AuctionSuccessful(_tokenId, price, msg.sender);\n\n        return price;\n    }\n\n    function _isOnAuction(Auction storage _auction) internal view returns (bool) {\n        return (_auction.startedAt > 0);\n    }\n\n    function _currentPrice(Auction storage _auction) internal view returns (uint256) {\n        uint256 secondsPassed = 0;\n\n        if (now > _auction.startedAt) {\n            secondsPassed = now - _auction.startedAt;\n        }\n\n        if (secondsPassed >= _auction.duration) {\n            return _auction.endingPrice;\n        } else {\n            int256 totalPriceChange = int256(_auction.endingPrice) - int256(_auction.startingPrice);\n            int256 currentPriceChange = totalPriceChange * int256(secondsPassed) / int256(_auction.duration);\n\n            return uint256(int256(_auction.startingPrice + currentPriceChange));\n        }\n    }\n\n    function _cut(uint256 _price) internal view returns (uint256) {\n        return _price * ownerCut / 10000;\n    }\n\n}\n",
  "sourcePath": "D:\\codebase\\blockchain\\ganacheDemo\\dinosaur\\contracts\\Auction\\AuctionBase.sol",
  "compiler": {
    "name": "solc",
    "version": "0.4.24+commit.e67f0147.Emscripten.clang"
  },
  "schemaVersion": "2.0.1",
  "updatedAt": "2018-09-06T02:54:23.590Z"
}