{
  "contractName": "Auction",
  "abi": [
    {
      "constant": true,
      "inputs": [],
      "name": "cfoAddress",
      "outputs": [
        {
          "name": "",
          "type": "address"
        }
      ],
      "payable": false,
      "stateMutability": "view",
      "type": "function"
    },
    {
      "constant": true,
      "inputs": [],
      "name": "promoCreatedCount",
      "outputs": [
        {
          "name": "",
          "type": "uint256"
        }
      ],
      "payable": false,
      "stateMutability": "view",
      "type": "function"
    },
    {
      "constant": true,
      "inputs": [],
      "name": "name",
      "outputs": [
        {
          "name": "",
          "type": "string"
        }
      ],
      "payable": false,
      "stateMutability": "view",
      "type": "function"
    },
    {
      "constant": false,
      "inputs": [
        {
          "name": "_to",
          "type": "address"
        },
        {
          "name": "_tokenId",
          "type": "uint256"
        }
      ],
      "name": "approve",
      "outputs": [],
      "payable": false,
      "stateMutability": "nonpayable",
      "type": "function"
    },
    {
      "constant": true,
      "inputs": [],
      "name": "ceoAddress",
      "outputs": [
        {
          "name": "",
          "type": "address"
        }
      ],
      "payable": false,
      "stateMutability": "view",
      "type": "function"
    },
    {
      "constant": true,
      "inputs": [],
      "name": "geneticAlgorithm",
      "outputs": [
        {
          "name": "",
          "type": "address"
        }
      ],
      "payable": false,
      "stateMutability": "view",
      "type": "function"
    },
    {
      "constant": true,
      "inputs": [],
      "name": "implementsERC721",
      "outputs": [
        {
          "name": "",
          "type": "bool"
        }
      ],
      "payable": false,
      "stateMutability": "pure",
      "type": "function"
    },
    {
      "constant": false,
      "inputs": [
        {
          "name": "_addr",
          "type": "address"
        }
      ],
      "name": "setGeneticAlgorithmAddress",
      "outputs": [],
      "payable": false,
      "stateMutability": "nonpayable",
      "type": "function"
    },
    {
      "constant": true,
      "inputs": [],
      "name": "totalSupply",
      "outputs": [
        {
          "name": "",
          "type": "uint256"
        }
      ],
      "payable": false,
      "stateMutability": "view",
      "type": "function"
    },
    {
      "constant": true,
      "inputs": [],
      "name": "ctoAddress",
      "outputs": [
        {
          "name": "",
          "type": "address"
        }
      ],
      "payable": false,
      "stateMutability": "view",
      "type": "function"
    },
    {
      "constant": false,
      "inputs": [
        {
          "name": "_from",
          "type": "address"
        },
        {
          "name": "_to",
          "type": "address"
        },
        {
          "name": "_tokenId",
          "type": "uint256"
        }
      ],
      "name": "transferFrom",
      "outputs": [],
      "payable": false,
      "stateMutability": "nonpayable",
      "type": "function"
    },
    {
      "constant": false,
      "inputs": [
        {
          "name": "_newCEO",
          "type": "address"
        }
      ],
      "name": "setCEO",
      "outputs": [],
      "payable": false,
      "stateMutability": "nonpayable",
      "type": "function"
    },
    {
      "constant": false,
      "inputs": [
        {
          "name": "_newCOO",
          "type": "address"
        }
      ],
      "name": "setCOO",
      "outputs": [],
      "payable": false,
      "stateMutability": "nonpayable",
      "type": "function"
    },
    {
      "constant": true,
      "inputs": [
        {
          "name": "_owner",
          "type": "address"
        },
        {
          "name": "_index",
          "type": "uint256"
        }
      ],
      "name": "tokenOfOwnerByIndex",
      "outputs": [
        {
          "name": "tokenId",
          "type": "uint256"
        }
      ],
      "payable": false,
      "stateMutability": "view",
      "type": "function"
    },
    {
      "constant": false,
      "inputs": [
        {
          "name": "_newSYS",
          "type": "address"
        }
      ],
      "name": "setSYS",
      "outputs": [],
      "payable": false,
      "stateMutability": "nonpayable",
      "type": "function"
    },
    {
      "constant": false,
      "inputs": [],
      "name": "unpause",
      "outputs": [],
      "payable": false,
      "stateMutability": "nonpayable",
      "type": "function"
    },
    {
      "constant": true,
      "inputs": [],
      "name": "gen0CreationLimit",
      "outputs": [
        {
          "name": "",
          "type": "uint256"
        }
      ],
      "payable": false,
      "stateMutability": "view",
      "type": "function"
    },
    {
      "constant": true,
      "inputs": [
        {
          "name": "",
          "type": "uint256"
        }
      ],
      "name": "sireAllowedToAddress",
      "outputs": [
        {
          "name": "",
          "type": "address"
        }
      ],
      "payable": false,
      "stateMutability": "view",
      "type": "function"
    },
    {
      "constant": false,
      "inputs": [
        {
          "name": "_kind",
          "type": "uint256"
        },
        {
          "name": "_genesF",
          "type": "uint256"
        },
        {
          "name": "_genesM",
          "type": "uint256"
        },
        {
          "name": "_hatchCDIndex",
          "type": "uint256"
        },
        {
          "name": "_owner",
          "type": "address"
        }
      ],
      "name": "createPromoEgg",
      "outputs": [],
      "payable": false,
      "stateMutability": "nonpayable",
      "type": "function"
    },
    {
      "constant": false,
      "inputs": [
        {
          "name": "_newCFO",
          "type": "address"
        }
      ],
      "name": "setCFO",
      "outputs": [],
      "payable": false,
      "stateMutability": "nonpayable",
      "type": "function"
    },
    {
      "constant": true,
      "inputs": [
        {
          "name": "",
          "type": "uint256"
        }
      ],
      "name": "dinosaurs",
      "outputs": [
        {
          "name": "birthTime",
          "type": "uint64"
        },
        {
          "name": "seekingCDEndTime",
          "type": "uint64"
        },
        {
          "name": "breedingCDEndTime",
          "type": "uint64"
        },
        {
          "name": "seekingCDIndex",
          "type": "uint16"
        },
        {
          "name": "breedingCDIndex",
          "type": "uint16"
        },
        {
          "name": "siringWithId",
          "type": "uint32"
        },
        {
          "name": "attributes",
          "type": "uint256"
        }
      ],
      "payable": false,
      "stateMutability": "view",
      "type": "function"
    },
    {
      "constant": true,
      "inputs": [],
      "name": "paused",
      "outputs": [
        {
          "name": "",
          "type": "bool"
        }
      ],
      "payable": false,
      "stateMutability": "view",
      "type": "function"
    },
    {
      "constant": true,
      "inputs": [
        {
          "name": "_tokenId",
          "type": "uint256"
        }
      ],
      "name": "ownerOf",
      "outputs": [
        {
          "name": "owner",
          "type": "address"
        }
      ],
      "payable": false,
      "stateMutability": "view",
      "type": "function"
    },
    {
      "constant": true,
      "inputs": [
        {
          "name": "a",
          "type": "uint256"
        },
        {
          "name": "b",
          "type": "uint256"
        }
      ],
      "name": "max",
      "outputs": [
        {
          "name": "",
          "type": "uint256"
        }
      ],
      "payable": false,
      "stateMutability": "pure",
      "type": "function"
    },
    {
      "constant": true,
      "inputs": [
        {
          "name": "_owner",
          "type": "address"
        }
      ],
      "name": "balanceOf",
      "outputs": [
        {
          "name": "balance",
          "type": "uint256"
        }
      ],
      "payable": false,
      "stateMutability": "view",
      "type": "function"
    },
    {
      "constant": true,
      "inputs": [
        {
          "name": "a",
          "type": "uint256"
        },
        {
          "name": "b",
          "type": "uint256"
        }
      ],
      "name": "min",
      "outputs": [
        {
          "name": "",
          "type": "uint256"
        }
      ],
      "payable": false,
      "stateMutability": "pure",
      "type": "function"
    },
    {
      "constant": false,
      "inputs": [],
      "name": "pause",
      "outputs": [],
      "payable": false,
      "stateMutability": "nonpayable",
      "type": "function"
    },
    {
      "constant": true,
      "inputs": [],
      "name": "symbol",
      "outputs": [
        {
          "name": "",
          "type": "string"
        }
      ],
      "payable": false,
      "stateMutability": "view",
      "type": "function"
    },
    {
      "constant": true,
      "inputs": [
        {
          "name": "",
          "type": "uint256"
        }
      ],
      "name": "cooldowns",
      "outputs": [
        {
          "name": "",
          "type": "uint32"
        }
      ],
      "payable": false,
      "stateMutability": "view",
      "type": "function"
    },
    {
      "constant": true,
      "inputs": [],
      "name": "sysAddress",
      "outputs": [
        {
          "name": "",
          "type": "address"
        }
      ],
      "payable": false,
      "stateMutability": "view",
      "type": "function"
    },
    {
      "constant": false,
      "inputs": [
        {
          "name": "_to",
          "type": "address"
        },
        {
          "name": "_tokenId",
          "type": "uint256"
        }
      ],
      "name": "transfer",
      "outputs": [],
      "payable": false,
      "stateMutability": "nonpayable",
      "type": "function"
    },
    {
      "constant": true,
      "inputs": [],
      "name": "cooAddress",
      "outputs": [
        {
          "name": "",
          "type": "address"
        }
      ],
      "payable": false,
      "stateMutability": "view",
      "type": "function"
    },
    {
      "constant": true,
      "inputs": [],
      "name": "siringDutchAuction",
      "outputs": [
        {
          "name": "",
          "type": "address"
        }
      ],
      "payable": false,
      "stateMutability": "view",
      "type": "function"
    },
    {
      "constant": true,
      "inputs": [],
      "name": "promoCreationLimit",
      "outputs": [
        {
          "name": "",
          "type": "uint256"
        }
      ],
      "payable": false,
      "stateMutability": "view",
      "type": "function"
    },
    {
      "constant": true,
      "inputs": [
        {
          "name": "",
          "type": "uint256"
        }
      ],
      "name": "eggs",
      "outputs": [
        {
          "name": "birthTime",
          "type": "uint64"
        },
        {
          "name": "hatchEndTime",
          "type": "uint64"
        },
        {
          "name": "hatchCDIndex",
          "type": "uint16"
        },
        {
          "name": "genesF",
          "type": "uint256"
        },
        {
          "name": "genesM",
          "type": "uint256"
        }
      ],
      "payable": false,
      "stateMutability": "view",
      "type": "function"
    },
    {
      "constant": true,
      "inputs": [
        {
          "name": "",
          "type": "uint256"
        }
      ],
      "name": "seekingIndexToOwner",
      "outputs": [
        {
          "name": "",
          "type": "address"
        }
      ],
      "payable": false,
      "stateMutability": "view",
      "type": "function"
    },
    {
      "constant": true,
      "inputs": [
        {
          "name": "",
          "type": "uint256"
        }
      ],
      "name": "dinosaurIndexToApproved",
      "outputs": [
        {
          "name": "",
          "type": "address"
        }
      ],
      "payable": false,
      "stateMutability": "view",
      "type": "function"
    },
    {
      "constant": true,
      "inputs": [
        {
          "name": "",
          "type": "uint256"
        }
      ],
      "name": "dinosaurIndexToOwner",
      "outputs": [
        {
          "name": "",
          "type": "address"
        }
      ],
      "payable": false,
      "stateMutability": "view",
      "type": "function"
    },
    {
      "constant": true,
      "inputs": [],
      "name": "unit_test",
      "outputs": [
        {
          "name": "",
          "type": "bool"
        }
      ],
      "payable": false,
      "stateMutability": "view",
      "type": "function"
    },
    {
      "constant": false,
      "inputs": [
        {
          "name": "_index",
          "type": "uint256"
        },
        {
          "name": "_value",
          "type": "uint256"
        }
      ],
      "name": "changeCooldownIndexForTesting",
      "outputs": [],
      "payable": false,
      "stateMutability": "nonpayable",
      "type": "function"
    },
    {
      "constant": true,
      "inputs": [],
      "name": "gen0CreatedCount",
      "outputs": [
        {
          "name": "",
          "type": "uint256"
        }
      ],
      "payable": false,
      "stateMutability": "view",
      "type": "function"
    },
    {
      "constant": true,
      "inputs": [],
      "name": "nowtime",
      "outputs": [
        {
          "name": "",
          "type": "uint256"
        }
      ],
      "payable": false,
      "stateMutability": "view",
      "type": "function"
    },
    {
      "constant": true,
      "inputs": [],
      "name": "saleDutchAuction",
      "outputs": [
        {
          "name": "",
          "type": "address"
        }
      ],
      "payable": false,
      "stateMutability": "view",
      "type": "function"
    },
    {
      "constant": false,
      "inputs": [
        {
          "name": "_newCTO",
          "type": "address"
        }
      ],
      "name": "setCTO",
      "outputs": [],
      "payable": false,
      "stateMutability": "nonpayable",
      "type": "function"
    },
    {
      "anonymous": false,
      "inputs": [
        {
          "indexed": false,
          "name": "owner",
          "type": "address"
        },
        {
          "indexed": true,
          "name": "id",
          "type": "uint256"
        },
        {
          "indexed": false,
          "name": "endTime",
          "type": "uint256"
        }
      ],
      "name": "HatchingEgg",
      "type": "event"
    },
    {
      "anonymous": false,
      "inputs": [
        {
          "indexed": false,
          "name": "owner",
          "type": "address"
        },
        {
          "indexed": false,
          "name": "motherId",
          "type": "uint256"
        },
        {
          "indexed": false,
          "name": "fatherId",
          "type": "uint256"
        }
      ],
      "name": "Pregnant",
      "type": "event"
    },
    {
      "anonymous": false,
      "inputs": [
        {
          "indexed": true,
          "name": "from",
          "type": "address"
        },
        {
          "indexed": true,
          "name": "to",
          "type": "address"
        },
        {
          "indexed": true,
          "name": "tokenId",
          "type": "uint256"
        }
      ],
      "name": "Transfer",
      "type": "event"
    },
    {
      "anonymous": false,
      "inputs": [
        {
          "indexed": true,
          "name": "owner",
          "type": "address"
        },
        {
          "indexed": true,
          "name": "approved",
          "type": "address"
        },
        {
          "indexed": true,
          "name": "tokenId",
          "type": "uint256"
        }
      ],
      "name": "Approval",
      "type": "event"
    },
    {
      "anonymous": false,
      "inputs": [
        {
          "indexed": true,
          "name": "owner",
          "type": "address"
        },
        {
          "indexed": false,
          "name": "eggId",
          "type": "uint256"
        },
        {
          "indexed": false,
          "name": "motherId",
          "type": "uint256"
        },
        {
          "indexed": false,
          "name": "fatherId",
          "type": "uint256"
        },
        {
          "indexed": false,
          "name": "genesF",
          "type": "uint256"
        },
        {
          "indexed": false,
          "name": "genesM",
          "type": "uint256"
        }
      ],
      "name": "EggBirth",
      "type": "event"
    },
    {
      "anonymous": false,
      "inputs": [
        {
          "indexed": true,
          "name": "owner",
          "type": "address"
        },
        {
          "indexed": false,
          "name": "dinosaursId",
          "type": "uint256"
        }
      ],
      "name": "DinosaurHatched",
      "type": "event"
    },
    {
      "anonymous": false,
      "inputs": [
        {
          "indexed": false,
          "name": "label",
          "type": "string"
        },
        {
          "indexed": false,
          "name": "value",
          "type": "uint256"
        }
      ],
      "name": "LogUint",
      "type": "event"
    },
    {
      "anonymous": false,
      "inputs": [
        {
          "indexed": false,
          "name": "label",
          "type": "string"
        },
        {
          "indexed": false,
          "name": "value",
          "type": "int256"
        }
      ],
      "name": "LogInt",
      "type": "event"
    },
    {
      "constant": false,
      "inputs": [
        {
          "name": "_addr",
          "type": "address"
        }
      ],
      "name": "setSaleAuctionAddress",
      "outputs": [],
      "payable": false,
      "stateMutability": "nonpayable",
      "type": "function"
    },
    {
      "constant": false,
      "inputs": [
        {
          "name": "_addr",
          "type": "address"
        }
      ],
      "name": "setSiringAuctionAddress",
      "outputs": [],
      "payable": false,
      "stateMutability": "nonpayable",
      "type": "function"
    },
    {
      "constant": false,
      "inputs": [
        {
          "name": "_tokenId",
          "type": "uint256"
        },
        {
          "name": "_startingPrice",
          "type": "uint256"
        },
        {
          "name": "_endingPrice",
          "type": "uint256"
        },
        {
          "name": "_duration",
          "type": "uint256"
        }
      ],
      "name": "createSaleAuction",
      "outputs": [],
      "payable": false,
      "stateMutability": "nonpayable",
      "type": "function"
    },
    {
      "constant": false,
      "inputs": [
        {
          "name": "_startingPrice",
          "type": "uint256"
        },
        {
          "name": "_endingPrice",
          "type": "uint256"
        },
        {
          "name": "_duration",
          "type": "uint256"
        }
      ],
      "name": "createGen0SaleAuction",
      "outputs": [],
      "payable": false,
      "stateMutability": "nonpayable",
      "type": "function"
    },
    {
      "constant": false,
      "inputs": [
        {
          "name": "_tokenId",
          "type": "uint256"
        },
        {
          "name": "_startingPrice",
          "type": "uint256"
        },
        {
          "name": "_endingPrice",
          "type": "uint256"
        },
        {
          "name": "_duration",
          "type": "uint256"
        }
      ],
      "name": "createSiringAuction",
      "outputs": [],
      "payable": false,
      "stateMutability": "nonpayable",
      "type": "function"
    },
    {
      "constant": false,
      "inputs": [
        {
          "name": "_motherId",
          "type": "uint256"
        },
        {
          "name": "_fatherId",
          "type": "uint256"
        }
      ],
      "name": "bidOnSiringAuction",
      "outputs": [],
      "payable": true,
      "stateMutability": "payable",
      "type": "function"
    }
  ],
  "bytecode": "0x608060405260008060006101000a81548160ff0219169083151502179055506000600460146101000a81548160ff0219169083151502179055506101c060405190810160405280603c63ffffffff1663ffffffff168152602001607863ffffffff1663ffffffff16815260200161012c63ffffffff1663ffffffff16815260200161025863ffffffff1663ffffffff16815260200161070863ffffffff1663ffffffff168152602001610e1063ffffffff1663ffffffff168152602001611c2063ffffffff1663ffffffff16815260200161384063ffffffff1663ffffffff16815260200161708063ffffffff1663ffffffff16815260200161e10063ffffffff1663ffffffff1681526020016201518063ffffffff1663ffffffff1681526020016202a30063ffffffff1663ffffffff1681526020016205460063ffffffff1663ffffffff16815260200162093a8063ffffffff1663ffffffff16815250600590600e62000170929190620002e3565b50612710600f55614e206010556001600460146101000a81548160ff02191690831515021790555033600060016101000a81548173ffffffffffffffffffffffffffffffffffffffff021916908373ffffffffffffffffffffffffffffffffffffffff16021790555033600160006101000a81548173ffffffffffffffffffffffffffffffffffffffff021916908373ffffffffffffffffffffffffffffffffffffffff16021790555033600260006101000a81548173ffffffffffffffffffffffffffffffffffffffff021916908373ffffffffffffffffffffffffffffffffffffffff16021790555033600360006101000a81548173ffffffffffffffffffffffffffffffffffffffff021916908373ffffffffffffffffffffffffffffffffffffffff16021790555033600460006101000a81548173ffffffffffffffffffffffffffffffffffffffff021916908373ffffffffffffffffffffffffffffffffffffffff160217905550620003c3565b82600e6007016008900481019282156200037a5791602002820160005b838211156200034657835183826101000a81548163ffffffff021916908363ffffffff160217905550926020019260040160208160030104928301926001030262000300565b8015620003785782816101000a81549063ffffffff021916905560040160208160030104928301926001030262000346565b505b5090506200038991906200038d565b5090565b620003c091905b80821115620003bc57600081816101000a81549063ffffffff02191690555060010162000394565b5090565b90565b613fa480620003d36000396000f30060806040526004361061025c576000357c0100000000000000000000000000000000000000000000000000000000900463ffffffff1680630519ce791461026157806305e45546146102b857806306fdde03146102e3578063095ea7b3146103735780630a0f8168146103c05780630f293e45146104175780631051db341461046e57806314001f4c1461049d578063169365dd146104e057806318160ddd146105235780631f5136601461054e57806323b872dd146105a557806327d7874c146106125780632ba73c15146106555780632f745c5914610698578063315ae4d4146106f95780633d7d3f5a1461073c5780633f4ba83a14610787578063404d0e3e1461079e57806346116e6f146107c9578063463c1019146108365780634ad8c938146108a15780634e0a3379146108ec5780634ec9fe7c1461092f5780635c975abb146109f25780636352211e14610a215780636d5433e614610a8e5780636fbde40d14610ad957806370a0823114610b1c5780637ae2b5c714610b735780638456cb5914610bbe57806395d89b4114610bd55780639724417614610c655780639d6fac6f14610ca65780639ebe8fe514610cf3578063a9059cbb14610d4a578063b047fb5014610d97578063b26c6fb214610dee578063b531933514610e45578063bb654efa14610e70578063bc9ed28514610efd578063c37361ad14610f6a578063c3d52b6114610fd7578063d33209cf14611044578063ed56494114611073578063ed60ade6146110aa578063f1ca9410146110d4578063f2c8a327146110ff578063f64af64d1461112a578063fe1439b414611181575b600080fd5b34801561026d57600080fd5b506102766111c4565b604051808273ffffffffffffffffffffffffffffffffffffffff1673ffffffffffffffffffffffffffffffffffffffff16815260200191505060405180910390f35b3480156102c457600080fd5b506102cd6111ea565b6040518082815260200191505060405180910390f35b3480156102ef57600080fd5b506102f86111f0565b6040518080602001828103825283818151815260200191508051906020019080838360005b8381101561033857808201518184015260208101905061031d565b50505050905090810190601f1680156103655780820380516001836020036101000a031916815260200191505b509250505060405180910390f35b34801561037f57600080fd5b506103be600480360381019080803573ffffffffffffffffffffffffffffffffffffffff1690602001909291908035906020019092919050505061122d565b005b3480156103cc57600080fd5b506103d561130f565b604051808273ffffffffffffffffffffffffffffffffffffffff1673ffffffffffffffffffffffffffffffffffffffff16815260200191505060405180910390f35b34801561042357600080fd5b5061042c611335565b604051808273ffffffffffffffffffffffffffffffffffffffff1673ffffffffffffffffffffffffffffffffffffffff16815260200191505060405180910390f35b34801561047a57600080fd5b5061048361135b565b604051808215151515815260200191505060405180910390f35b3480156104a957600080fd5b506104de600480360381019080803573ffffffffffffffffffffffffffffffffffffffff169060200190929190505050611364565b005b3480156104ec57600080fd5b50610521600480360381019080803573ffffffffffffffffffffffffffffffffffffffff16906020019092919050505061150c565b005b34801561052f57600080fd5b506105386116b4565b6040518082815260200191505060405180910390f35b34801561055a57600080fd5b506105636116c4565b604051808273ffffffffffffffffffffffffffffffffffffffff1673ffffffffffffffffffffffffffffffffffffffff16815260200191505060405180910390f35b3480156105b157600080fd5b50610610600480360381019080803573ffffffffffffffffffffffffffffffffffffffff169060200190929190803573ffffffffffffffffffffffffffffffffffffffff169060200190929190803590602001909291905050506116ea565b005b34801561061e57600080fd5b50610653600480360381019080803573ffffffffffffffffffffffffffffffffffffffff169060200190929190505050611798565b005b34801561066157600080fd5b50610696600480360381019080803573ffffffffffffffffffffffffffffffffffffffff169060200190929190505050611874565b005b3480156106a457600080fd5b506106e3600480360381019080803573ffffffffffffffffffffffffffffffffffffffff16906020019092919080359060200190929190505050611950565b6040518082815260200191505060405180910390f35b34801561070557600080fd5b5061073a600480360381019080803573ffffffffffffffffffffffffffffffffffffffff169060200190929190505050611a10565b005b34801561074857600080fd5b5061078560048036038101908080359060200190929190803590602001909291908035906020019092919080359060200190929190505050611aec565b005b34801561079357600080fd5b5061079c611cd9565b005b3480156107aa57600080fd5b506107b3611dc5565b6040518082815260200191505060405180910390f35b3480156107d557600080fd5b506107f460048036038101908080359060200190929190505050611dcb565b604051808273ffffffffffffffffffffffffffffffffffffffff1673ffffffffffffffffffffffffffffffffffffffff16815260200191505060405180910390f35b34801561084257600080fd5b5061089f60048036038101908080359060200190929190803590602001909291908035906020019092919080359060200190929190803573ffffffffffffffffffffffffffffffffffffffff169060200190929190505050611dfe565b005b3480156108ad57600080fd5b506108ea60048036038101908080359060200190929190803590602001909291908035906020019092919080359060200190929190505050611f61565b005b3480156108f857600080fd5b5061092d600480360381019080803573ffffffffffffffffffffffffffffffffffffffff169060200190929190505050612173565b005b34801561093b57600080fd5b5061095a6004803603810190808035906020019092919050505061224f565b604051808867ffffffffffffffff1667ffffffffffffffff1681526020018767ffffffffffffffff1667ffffffffffffffff1681526020018667ffffffffffffffff1667ffffffffffffffff1681526020018561ffff1661ffff1681526020018461ffff1661ffff1681526020018363ffffffff1663ffffffff16815260200182815260200197505050505050505060405180910390f35b3480156109fe57600080fd5b50610a076122f9565b604051808215151515815260200191505060405180910390f35b348015610a2d57600080fd5b50610a4c6004803603810190808035906020019092919050505061230c565b604051808273ffffffffffffffffffffffffffffffffffffffff1673ffffffffffffffffffffffffffffffffffffffff16815260200191505060405180910390f35b348015610a9a57600080fd5b50610ac3600480360381019080803590602001909291908035906020019092919050505061238a565b6040518082815260200191505060405180910390f35b348015610ae557600080fd5b50610b1a600480360381019080803573ffffffffffffffffffffffffffffffffffffffff1690602001909291905050506123a3565b005b348015610b2857600080fd5b50610b5d600480360381019080803573ffffffffffffffffffffffffffffffffffffffff16906020019092919050505061254b565b6040518082815260200191505060405180910390f35b348015610b7f57600080fd5b50610ba86004803603810190808035906020019092919080359060200190929190505050612594565b6040518082815260200191505060405180910390f35b348015610bca57600080fd5b50610bd36125ad565b005b348015610be157600080fd5b50610bea61274a565b6040518080602001828103825283818151815260200191508051906020019080838360005b83811015610c2a578082015181840152602081019050610c0f565b50505050905090810190601f168015610c575780820380516001836020036101000a031916815260200191505b509250505060405180910390f35b348015610c7157600080fd5b50610ca4600480360381019080803590602001909291908035906020019092919080359060200190929190505050612787565b005b348015610cb257600080fd5b50610cd1600480360381019080803590602001909291905050506129d3565b604051808263ffffffff1663ffffffff16815260200191505060405180910390f35b348015610cff57600080fd5b50610d08612a02565b604051808273ffffffffffffffffffffffffffffffffffffffff1673ffffffffffffffffffffffffffffffffffffffff16815260200191505060405180910390f35b348015610d5657600080fd5b50610d95600480360381019080803573ffffffffffffffffffffffffffffffffffffffff16906020019092919080359060200190929190505050612a28565b005b348015610da357600080fd5b50610dac612aa4565b604051808273ffffffffffffffffffffffffffffffffffffffff1673ffffffffffffffffffffffffffffffffffffffff16815260200191505060405180910390f35b348015610dfa57600080fd5b50610e03612aca565b604051808273ffffffffffffffffffffffffffffffffffffffff1673ffffffffffffffffffffffffffffffffffffffff16815260200191505060405180910390f35b348015610e5157600080fd5b50610e5a612af0565b6040518082815260200191505060405180910390f35b348015610e7c57600080fd5b50610e9b60048036038101908080359060200190929190505050612af6565b604051808667ffffffffffffffff1667ffffffffffffffff1681526020018567ffffffffffffffff1667ffffffffffffffff1681526020018461ffff1661ffff1681526020018381526020018281526020019550505050505060405180910390f35b348015610f0957600080fd5b50610f2860048036038101908080359060200190929190505050612b62565b604051808273ffffffffffffffffffffffffffffffffffffffff1673ffffffffffffffffffffffffffffffffffffffff16815260200191505060405180910390f35b348015610f7657600080fd5b50610f9560048036038101908080359060200190929190505050612b95565b604051808273ffffffffffffffffffffffffffffffffffffffff1673ffffffffffffffffffffffffffffffffffffffff16815260200191505060405180910390f35b348015610fe357600080fd5b5061100260048036038101908080359060200190929190505050612bc8565b604051808273ffffffffffffffffffffffffffffffffffffffff1673ffffffffffffffffffffffffffffffffffffffff16815260200191505060405180910390f35b34801561105057600080fd5b50611059612bfb565b604051808215151515815260200191505060405180910390f35b34801561107f57600080fd5b506110a86004803603810190808035906020019092919080359060200190929190505050612c0d565b005b6110d26004803603810190808035906020019092919080359060200190929190505050612d08565b005b3480156110e057600080fd5b506110e9612ef0565b6040518082815260200191505060405180910390f35b34801561110b57600080fd5b50611114612ef6565b6040518082815260200191505060405180910390f35b34801561113657600080fd5b5061113f612efe565b604051808273ffffffffffffffffffffffffffffffffffffffff1673ffffffffffffffffffffffffffffffffffffffff16815260200191505060405180910390f35b34801561118d57600080fd5b506111c2600480360381019080803573ffffffffffffffffffffffffffffffffffffffff169060200190929190505050612f24565b005b600260009054906101000a900473ffffffffffffffffffffffffffffffffffffffff1681565b60115481565b60606040805190810160405280600e81526020017f43727970746f44696e6f73617572000000000000000000000000000000000000815250905090565b600460149054906101000a900460ff1615151561124957600080fd5b6112533382613000565b151561125e57600080fd5b81600b600083815260200190815260200160002060006101000a81548173ffffffffffffffffffffffffffffffffffffffff021916908373ffffffffffffffffffffffffffffffffffffffff160217905550808273ffffffffffffffffffffffffffffffffffffffff163373ffffffffffffffffffffffffffffffffffffffff167f8c5be1e5ebec7d5bd14f71427d1e84f3dd0314c0f7b2291e5b200ac8c7c3b92560405160405180910390a45050565b600060019054906101000a900473ffffffffffffffffffffffffffffffffffffffff1681565b601360009054906101000a900473ffffffffffffffffffffffffffffffffffffffff1681565b60006001905090565b6000600160009054906101000a900473ffffffffffffffffffffffffffffffffffffffff1673ffffffffffffffffffffffffffffffffffffffff163373ffffffffffffffffffffffffffffffffffffffff16148061140f5750600060019054906101000a900473ffffffffffffffffffffffffffffffffffffffff1673ffffffffffffffffffffffffffffffffffffffff163373ffffffffffffffffffffffffffffffffffffffff16145b151561141a57600080fd5b8190508073ffffffffffffffffffffffffffffffffffffffff1663eed370d16040518163ffffffff167c0100000000000000000000000000000000000000000000000000000000028152600401602060405180830381600087803b15801561148157600080fd5b505af1158015611495573d6000803e3d6000fd5b505050506040513d60208110156114ab57600080fd5b810190808051906020019092919050505015156114c757600080fd5b80601560006101000a81548173ffffffffffffffffffffffffffffffffffffffff021916908373ffffffffffffffffffffffffffffffffffffffff1602179055505050565b6000600160009054906101000a900473ffffffffffffffffffffffffffffffffffffffff1673ffffffffffffffffffffffffffffffffffffffff163373ffffffffffffffffffffffffffffffffffffffff1614806115b75750600060019054906101000a900473ffffffffffffffffffffffffffffffffffffffff1673ffffffffffffffffffffffffffffffffffffffff163373ffffffffffffffffffffffffffffffffffffffff16145b15156115c257600080fd5b8190508073ffffffffffffffffffffffffffffffffffffffff16633121db646040518163ffffffff167c0100000000000000000000000000000000000000000000000000000000028152600401602060405180830381600087803b15801561162957600080fd5b505af115801561163d573d6000803e3d6000fd5b505050506040513d602081101561165357600080fd5b8101908080519060200190929190505050151561166f57600080fd5b80601360006101000a81548173ffffffffffffffffffffffffffffffffffffffff021916908373ffffffffffffffffffffffffffffffffffffffff1602179055505050565b6000600160098054905003905090565b600160009054906101000a900473ffffffffffffffffffffffffffffffffffffffff1681565b600460149054906101000a900460ff1615151561170657600080fd5b3373ffffffffffffffffffffffffffffffffffffffff16600b600083815260200190815260200160002060009054906101000a900473ffffffffffffffffffffffffffffffffffffffff1673ffffffffffffffffffffffffffffffffffffffff1614151561177357600080fd5b61177d8382613000565b151561178857600080fd5b61179383838361306c565b505050565b600060019054906101000a900473ffffffffffffffffffffffffffffffffffffffff1673ffffffffffffffffffffffffffffffffffffffff163373ffffffffffffffffffffffffffffffffffffffff161415156117f457600080fd5b600073ffffffffffffffffffffffffffffffffffffffff168173ffffffffffffffffffffffffffffffffffffffff161415151561183057600080fd5b80600060016101000a81548173ffffffffffffffffffffffffffffffffffffffff021916908373ffffffffffffffffffffffffffffffffffffffff16021790555050565b600060019054906101000a900473ffffffffffffffffffffffffffffffffffffffff1673ffffffffffffffffffffffffffffffffffffffff163373ffffffffffffffffffffffffffffffffffffffff161415156118d057600080fd5b600073ffffffffffffffffffffffffffffffffffffffff168173ffffffffffffffffffffffffffffffffffffffff161415151561190c57600080fd5b80600360006101000a81548173ffffffffffffffffffffffffffffffffffffffff021916908373ffffffffffffffffffffffffffffffffffffffff16021790555050565b600080600080600092506119626116b4565b9150600190505b8181111515611a02578573ffffffffffffffffffffffffffffffffffffffff16600a600083815260200190815260200160002060009054906101000a900473ffffffffffffffffffffffffffffffffffffffff1673ffffffffffffffffffffffffffffffffffffffff1614156119f557848314156119ec57809350809350611a07565b82806001019350505b8080600101915050611969565b600080fd5b50505092915050565b600060019054906101000a900473ffffffffffffffffffffffffffffffffffffffff1673ffffffffffffffffffffffffffffffffffffffff163373ffffffffffffffffffffffffffffffffffffffff16141515611a6c57600080fd5b600073ffffffffffffffffffffffffffffffffffffffff168173ffffffffffffffffffffffffffffffffffffffff1614151515611aa857600080fd5b80600460006101000a81548173ffffffffffffffffffffffffffffffffffffffff021916908373ffffffffffffffffffffffffffffffffffffffff16021790555050565b6000600460149054906101000a900460ff16151515611b0a57600080fd5b611b143386613000565b1515611b1f57600080fd5b611b2885613260565b1515611b3357600080fd5b600a600086815260200190815260200160002060009054906101000a900473ffffffffffffffffffffffffffffffffffffffff169050601460009054906101000a900473ffffffffffffffffffffffffffffffffffffffff16600b600087815260200190815260200160002060006101000a81548173ffffffffffffffffffffffffffffffffffffffff021916908373ffffffffffffffffffffffffffffffffffffffff160217905550601460009054906101000a900473ffffffffffffffffffffffffffffffffffffffff1673ffffffffffffffffffffffffffffffffffffffff166327ebe40a86868686866040518663ffffffff167c0100000000000000000000000000000000000000000000000000000000028152600401808681526020018581526020018481526020018381526020018273ffffffffffffffffffffffffffffffffffffffff1673ffffffffffffffffffffffffffffffffffffffff16815260200195505050505050600060405180830381600087803b158015611cba57600080fd5b505af1158015611cce573d6000803e3d6000fd5b505050505050505050565b600160009054906101000a900473ffffffffffffffffffffffffffffffffffffffff1673ffffffffffffffffffffffffffffffffffffffff163373ffffffffffffffffffffffffffffffffffffffff161480611d825750600060019054906101000a900473ffffffffffffffffffffffffffffffffffffffff1673ffffffffffffffffffffffffffffffffffffffff163373ffffffffffffffffffffffffffffffffffffffff16145b1515611d8d57600080fd5b600460149054906101000a900460ff161515611da857600080fd5b6000600460146101000a81548160ff021916908315150217905550565b60105481565b600c6020528060005260406000206000915054906101000a900473ffffffffffffffffffffffffffffffffffffffff1681565b6000600360009054906101000a900473ffffffffffffffffffffffffffffffffffffffff1673ffffffffffffffffffffffffffffffffffffffff163373ffffffffffffffffffffffffffffffffffffffff161480611ea95750600060019054906101000a900473ffffffffffffffffffffffffffffffffffffffff1673ffffffffffffffffffffffffffffffffffffffff163373ffffffffffffffffffffffffffffffffffffffff16145b1515611eb457600080fd5b600073ffffffffffffffffffffffffffffffffffffffff168273ffffffffffffffffffffffffffffffffffffffff161415611f0f57600360009054906101000a900473ffffffffffffffffffffffffffffffffffffffff1691505b600f54601154101515611f2157600080fd5b6011600081548092919060010191905055506001869060020a026006879060020a02179050611f5881600080600089898989613413565b50505050505050565b6000600460149054906101000a900460ff16151515611f7f57600080fd5b600a600086815260200190815260200160002060009054906101000a900473ffffffffffffffffffffffffffffffffffffffff1690508073ffffffffffffffffffffffffffffffffffffffff163373ffffffffffffffffffffffffffffffffffffffff16141515611fef57600080fd5b611ff88561373f565b151561200357600080fd5b601560009054906101000a900473ffffffffffffffffffffffffffffffffffffffff16600b600087815260200190815260200160002060006101000a81548173ffffffffffffffffffffffffffffffffffffffff021916908373ffffffffffffffffffffffffffffffffffffffff160217905550601560009054906101000a900473ffffffffffffffffffffffffffffffffffffffff1673ffffffffffffffffffffffffffffffffffffffff166327ebe40a86868686866040518663ffffffff167c0100000000000000000000000000000000000000000000000000000000028152600401808681526020018581526020018481526020018381526020018273ffffffffffffffffffffffffffffffffffffffff1673ffffffffffffffffffffffffffffffffffffffff16815260200195505050505050600060405180830381600087803b15801561215457600080fd5b505af1158015612168573d6000803e3d6000fd5b505050505050505050565b600060019054906101000a900473ffffffffffffffffffffffffffffffffffffffff1673ffffffffffffffffffffffffffffffffffffffff163373ffffffffffffffffffffffffffffffffffffffff161415156121cf57600080fd5b600073ffffffffffffffffffffffffffffffffffffffff168173ffffffffffffffffffffffffffffffffffffffff161415151561220b57600080fd5b80600260006101000a81548173ffffffffffffffffffffffffffffffffffffffff021916908373ffffffffffffffffffffffffffffffffffffffff16021790555050565b60086020528060005260406000206000915090508060000160009054906101000a900467ffffffffffffffff16908060000160089054906101000a900467ffffffffffffffff16908060000160109054906101000a900467ffffffffffffffff16908060000160189054906101000a900461ffff169080600001601a9054906101000a900461ffff169080600001601c9054906101000a900463ffffffff16908060010154905087565b600460149054906101000a900460ff1681565b600080600a600084815260200190815260200160002060009054906101000a900473ffffffffffffffffffffffffffffffffffffffff169050600073ffffffffffffffffffffffffffffffffffffffff168173ffffffffffffffffffffffffffffffffffffffff161415151561238157600080fd5b80915050919050565b6000818311612399578161239b565b825b905092915050565b6000600160009054906101000a900473ffffffffffffffffffffffffffffffffffffffff1673ffffffffffffffffffffffffffffffffffffffff163373ffffffffffffffffffffffffffffffffffffffff16148061244e5750600060019054906101000a900473ffffffffffffffffffffffffffffffffffffffff1673ffffffffffffffffffffffffffffffffffffffff163373ffffffffffffffffffffffffffffffffffffffff16145b151561245957600080fd5b8190508073ffffffffffffffffffffffffffffffffffffffff1663fa7beda06040518163ffffffff167c0100000000000000000000000000000000000000000000000000000000028152600401602060405180830381600087803b1580156124c057600080fd5b505af11580156124d4573d6000803e3d6000fd5b505050506040513d60208110156124ea57600080fd5b8101908080519060200190929190505050151561250657600080fd5b80601460006101000a81548173ffffffffffffffffffffffffffffffffffffffff021916908373ffffffffffffffffffffffffffffffffffffffff1602179055505050565b6000600e60008373ffffffffffffffffffffffffffffffffffffffff1673ffffffffffffffffffffffffffffffffffffffff168152602001908152602001600020549050919050565b60008183116125a357826125a5565b815b905092915050565b600060019054906101000a900473ffffffffffffffffffffffffffffffffffffffff1673ffffffffffffffffffffffffffffffffffffffff163373ffffffffffffffffffffffffffffffffffffffff1614806126565750600160009054906101000a900473ffffffffffffffffffffffffffffffffffffffff1673ffffffffffffffffffffffffffffffffffffffff163373ffffffffffffffffffffffffffffffffffffffff16145b806126ae5750600260009054906101000a900473ffffffffffffffffffffffffffffffffffffffff1673ffffffffffffffffffffffffffffffffffffffff163373ffffffffffffffffffffffffffffffffffffffff16145b806127065750600360009054906101000a900473ffffffffffffffffffffffffffffffffffffffff1673ffffffffffffffffffffffffffffffffffffffff163373ffffffffffffffffffffffffffffffffffffffff16145b151561271157600080fd5b600460149054906101000a900460ff1615151561272d57600080fd5b6001600460146101000a81548160ff021916908315150217905550565b60606040805190810160405280600481526020017f444e535200000000000000000000000000000000000000000000000000000000815250905090565b6000600360009054906101000a900473ffffffffffffffffffffffffffffffffffffffff1673ffffffffffffffffffffffffffffffffffffffff163373ffffffffffffffffffffffffffffffffffffffff1614806128325750600060019054906101000a900473ffffffffffffffffffffffffffffffffffffffff1673ffffffffffffffffffffffffffffffffffffffff163373ffffffffffffffffffffffffffffffffffffffff16145b151561283d57600080fd5b600460149054906101000a900460ff1615151561285957600080fd5b612862306138df565b9050601460009054906101000a900473ffffffffffffffffffffffffffffffffffffffff16600b600083815260200190815260200160002060006101000a81548173ffffffffffffffffffffffffffffffffffffffff021916908373ffffffffffffffffffffffffffffffffffffffff160217905550601460009054906101000a900473ffffffffffffffffffffffffffffffffffffffff1673ffffffffffffffffffffffffffffffffffffffff166327ebe40a82868686306040518663ffffffff167c0100000000000000000000000000000000000000000000000000000000028152600401808681526020018581526020018481526020018381526020018273ffffffffffffffffffffffffffffffffffffffff1673ffffffffffffffffffffffffffffffffffffffff16815260200195505050505050600060405180830381600087803b1580156129b557600080fd5b505af11580156129c9573d6000803e3d6000fd5b5050505050505050565b600581600e811015156129e257fe5b60089182820401919006600402915054906101000a900463ffffffff1681565b600460009054906101000a900473ffffffffffffffffffffffffffffffffffffffff1681565b600460149054906101000a900460ff16151515612a4457600080fd5b600073ffffffffffffffffffffffffffffffffffffffff168273ffffffffffffffffffffffffffffffffffffffff1614151515612a8057600080fd5b612a8a3382613000565b1515612a9557600080fd5b612aa033838361306c565b5050565b600360009054906101000a900473ffffffffffffffffffffffffffffffffffffffff1681565b601560009054906101000a900473ffffffffffffffffffffffffffffffffffffffff1681565b600f5481565b60076020528060005260406000206000915090508060000160009054906101000a900467ffffffffffffffff16908060000160089054906101000a900467ffffffffffffffff16908060000160109054906101000a900461ffff16908060010154908060020154905085565b600d6020528060005260406000206000915054906101000a900473ffffffffffffffffffffffffffffffffffffffff1681565b600b6020528060005260406000206000915054906101000a900473ffffffffffffffffffffffffffffffffffffffff1681565b600a6020528060005260406000206000915054906101000a900473ffffffffffffffffffffffffffffffffffffffff1681565b6000809054906101000a900460ff1681565b600160009054906101000a900473ffffffffffffffffffffffffffffffffffffffff1673ffffffffffffffffffffffffffffffffffffffff163373ffffffffffffffffffffffffffffffffffffffff161480612cb65750600060019054906101000a900473ffffffffffffffffffffffffffffffffffffffff1673ffffffffffffffffffffffffffffffffffffffff163373ffffffffffffffffffffffffffffffffffffffff16145b1515612cc157600080fd5b80600583600e81101515612cd157fe5b600891828204019190066004026101000a81548163ffffffff021916908363ffffffff160217905550612d046001613a29565b5050565b600080600460149054906101000a900460ff16151515612d2757600080fd5b612d313385613000565b1515612d3c57600080fd5b601560009054906101000a900473ffffffffffffffffffffffffffffffffffffffff1673ffffffffffffffffffffffffffffffffffffffff1663c55d0f56846040518263ffffffff167c010000000000000000000000000000000000000000000000000000000002815260040180828152602001915050602060405180830381600087803b158015612dcd57600080fd5b505af1158015612de1573d6000803e3d6000fd5b505050506040513d6020811015612df757600080fd5b81019080805190602001909291905050509150349050818110151515612e1c57600080fd5b601560009054906101000a900473ffffffffffffffffffffffffffffffffffffffff1673ffffffffffffffffffffffffffffffffffffffff1663454a2ab382856040518363ffffffff167c0100000000000000000000000000000000000000000000000000000000028152600401808281526020019150506000604051808303818588803b158015612ead57600080fd5b505af1158015612ec1573d6000803e3d6000fd5b5050505050612ed03384613a45565b612eda8484613a9b565b15612eea57612ee98484613be5565b5b50505050565b60125481565b600042905090565b601460009054906101000a900473ffffffffffffffffffffffffffffffffffffffff1681565b600060019054906101000a900473ffffffffffffffffffffffffffffffffffffffff1673ffffffffffffffffffffffffffffffffffffffff163373ffffffffffffffffffffffffffffffffffffffff16141515612f8057600080fd5b600073ffffffffffffffffffffffffffffffffffffffff168173ffffffffffffffffffffffffffffffffffffffff1614151515612fbc57600080fd5b80600160006101000a81548173ffffffffffffffffffffffffffffffffffffffff021916908373ffffffffffffffffffffffffffffffffffffffff16021790555050565b60008273ffffffffffffffffffffffffffffffffffffffff16600a600084815260200190815260200160002060009054906101000a900473ffffffffffffffffffffffffffffffffffffffff1673ffffffffffffffffffffffffffffffffffffffff1614905092915050565b600e60008373ffffffffffffffffffffffffffffffffffffffff1673ffffffffffffffffffffffffffffffffffffffff1681526020019081526020016000206000815480929190600101919050555081600a600083815260200190815260200160002060006101000a81548173ffffffffffffffffffffffffffffffffffffffff021916908373ffffffffffffffffffffffffffffffffffffffff160217905550600073ffffffffffffffffffffffffffffffffffffffff168373ffffffffffffffffffffffffffffffffffffffff1614151561320057600e60008473ffffffffffffffffffffffffffffffffffffffff1673ffffffffffffffffffffffffffffffffffffffff1681526020019081526020016000206000815480929190600190039190505550600b600082815260200190815260200160002060006101000a81549073ffffffffffffffffffffffffffffffffffffffff0219169055600c600082815260200190815260200160002060006101000a81549073ffffffffffffffffffffffffffffffffffffffff02191690555b808273ffffffffffffffffffffffffffffffffffffffff168473ffffffffffffffffffffffffffffffffffffffff167fddf252ad1be2c89b69c2b068fc378daa952ba7f163c4a11628f55a4df523b3ef60405160405180910390a4505050565b600061326a613e7f565b6008600084815260200190815260200160002060e060405190810160405290816000820160009054906101000a900467ffffffffffffffff1667ffffffffffffffff1667ffffffffffffffff1681526020016000820160089054906101000a900467ffffffffffffffff1667ffffffffffffffff1667ffffffffffffffff1681526020016000820160109054906101000a900467ffffffffffffffff1667ffffffffffffffff1667ffffffffffffffff1681526020016000820160189054906101000a900461ffff1661ffff1661ffff16815260200160008201601a9054906101000a900461ffff1661ffff1661ffff16815260200160008201601c9054906101000a900463ffffffff1663ffffffff1663ffffffff168152602001600182015481525050905060008160a0015163ffffffff1611156133ad576000915061340d565b6000600d600085815260200190815260200160002060009054906101000a900473ffffffffffffffffffffffffffffffffffffffff1673ffffffffffffffffffffffffffffffffffffffff161115613408576000915061340d565b600191505b50919050565b600061341d613ee9565b6000613427613f30565b63ffffffff80168b1115151561343c57600080fd5b63ffffffff80168a1115151561345157600080fd5b61ffff8016891115151561346457600080fd5b60a0604051908101604052808d61ffff1681526020018c63ffffffff1681526020018b63ffffffff1681526020018a61ffff168152602001600160ff168152509250600160098490806001815401808255809150509060018203906000526020600020016000909192909190915060008201518160000160006101000a81548161ffff021916908361ffff16021790555060208201518160000160026101000a81548163ffffffff021916908363ffffffff16021790555060408201518160000160066101000a81548163ffffffff021916908363ffffffff160217905550606082015181600001600a6101000a81548161ffff021916908361ffff160217905550608082015181600001600c6101000a81548160ff021916908360ff160217905550505003915063ffffffff801682111515156135a157600080fd5b60a0604051908101604052804267ffffffffffffffff168152602001600067ffffffffffffffff1681526020016000809054906101000a900460ff166135e757876135ea565b60005b61ffff168152602001898152602001888152509050806007600084815260200190815260200160002060008201518160000160006101000a81548167ffffffffffffffff021916908367ffffffffffffffff16021790555060208201518160000160086101000a81548167ffffffffffffffff021916908367ffffffffffffffff16021790555060408201518160000160106101000a81548161ffff021916908361ffff16021790555060608201518160010155608082015181600201559050506136b76000868461306c565b8473ffffffffffffffffffffffffffffffffffffffff167fff5fcd526f7b8177c4c59e304686a5ec6c7d8503ad40f5aef03e6c2447d3b1b6838d8d85606001518660800151604051808681526020018581526020018481526020018381526020018281526020019550505050505060405180910390a281935050505098975050505050505050565b6000613749613e7f565b6008600084815260200190815260200160002060e060405190810160405290816000820160009054906101000a900467ffffffffffffffff1667ffffffffffffffff1667ffffffffffffffff1681526020016000820160089054906101000a900467ffffffffffffffff1667ffffffffffffffff1667ffffffffffffffff1681526020016000820160109054906101000a900467ffffffffffffffff1667ffffffffffffffff1667ffffffffffffffff1681526020016000820160189054906101000a900461ffff1661ffff1661ffff16815260200160008201601a9054906101000a900461ffff1661ffff1661ffff16815260200160008201601c9054906101000a900463ffffffff1663ffffffff1663ffffffff168152602001600182015481525050905061387983613260565b151561388457600080fd5b42816020015167ffffffffffffffff161015156138a057600080fd5b42816040015167ffffffffffffffff161015156138bc57600080fd5b60008160a0015163ffffffff161415156138d557600080fd5b6001915050919050565b6000806000806000806010546012541015156138fa57600080fd5b601360009054906101000a900473ffffffffffffffffffffffffffffffffffffffff1673ffffffffffffffffffffffffffffffffffffffff16639573a5b16012546040518263ffffffff167c010000000000000000000000000000000000000000000000000000000002815260040180828152602001915050608060405180830381600087803b15801561398d57600080fd5b505af11580156139a1573d6000803e3d6000fd5b505050506040513d60808110156139b757600080fd5b810190808051906020019092919080519060200190929190805190602001909291908051906020019092919050505080955081965082975083985050505050613a088360008060008989888e613413565b90506012600081548092919060010191905055508095505050505050919050565b806000806101000a81548160ff02191690831515021790555050565b81600c600083815260200190815260200160002060006101000a81548173ffffffffffffffffffffffffffffffffffffffff021916908373ffffffffffffffffffffffffffffffffffffffff1602179055505050565b6000806000838514151515613aaf57600080fd5b613ab88561373f565b1515613ac357600080fd5b613acc8461373f565b1515613ad757600080fd5b600a600086815260200190815260200160002060009054906101000a900473ffffffffffffffffffffffffffffffffffffffff169150600a600085815260200190815260200160002060009054906101000a900473ffffffffffffffffffffffffffffffffffffffff1690508073ffffffffffffffffffffffffffffffffffffffff168273ffffffffffffffffffffffffffffffffffffffff161480613bdb57508173ffffffffffffffffffffffffffffffffffffffff16600c600086815260200190815260200160002060009054906101000a900473ffffffffffffffffffffffffffffffffffffffff1673ffffffffffffffffffffffffffffffffffffffff16145b9250505092915050565b600080600860008581526020019081526020016000209150600860008481526020019081526020016000209050600461ffff83600101541610151515613c2a57600080fd5b8282600001601c6101000a81548163ffffffff021916908363ffffffff160217905550613c5682613daf565b613c5f81613daf565b600c600085815260200190815260200160002060006101000a81549073ffffffffffffffffffffffffffffffffffffffff0219169055600c600084815260200190815260200160002060006101000a81549073ffffffffffffffffffffffffffffffffffffffff0219169055600a61ffff8260010154161015613cf057600181600101600082825401925050819055505b600482600101600082825403925050819055507f6b4808987a5cecdf67d54ca5dc20664fafca80ef7195097800c12549245ab20d600a600086815260200190815260200160002060009054906101000a900473ffffffffffffffffffffffffffffffffffffffff168585604051808473ffffffffffffffffffffffffffffffffffffffff1673ffffffffffffffffffffffffffffffffffffffff168152602001838152602001828152602001935050505060405180910390a150505050565b600581600001601a9054906101000a900461ffff1661ffff16600e81101515613dd457fe5b600891828204019190066004029054906101000a900463ffffffff1663ffffffff1642018160000160106101000a81548167ffffffffffffffff021916908367ffffffffffffffff1602179055506001600e0361ffff1681600001601a9054906101000a900461ffff1661ffff161015613e7c57600181600001601a8282829054906101000a900461ffff160192506101000a81548161ffff021916908361ffff1602179055505b50565b60e060405190810160405280600067ffffffffffffffff168152602001600067ffffffffffffffff168152602001600067ffffffffffffffff168152602001600061ffff168152602001600061ffff168152602001600063ffffffff168152602001600081525090565b60a060405190810160405280600061ffff168152602001600063ffffffff168152602001600063ffffffff168152602001600061ffff168152602001600060ff1681525090565b60a060405190810160405280600067ffffffffffffffff168152602001600067ffffffffffffffff168152602001600061ffff168152602001600081526020016000815250905600a165627a7a72305820a80b52baf4e20034c38443ca1463ccd30dc6a2091e02c544109fd95de7f45d230029",
  "source": "pragma solidity ^0.4.18;\n\nimport \"../Auction/SaleDutchAuction.sol\";\nimport \"../Auction/SiringDutchAuction.sol\";\nimport \"./DinosaurBreeding.sol\";\n\ncontract Auction is DinosaurBreeding {\n    SaleDutchAuction public saleDutchAuction;\n\n    SiringDutchAuction public siringDutchAuction;\n\n    // CTO\n    function setSaleAuctionAddress(address _addr) public onlyCTO {\n        SaleDutchAuction candidateContract = SaleDutchAuction(_addr);\n        require(candidateContract.IS_SALEDUTCHAUCTION());\n        saleDutchAuction = candidateContract;\n    }\n\n    function setSiringAuctionAddress(address _addr) public onlyCTO {\n        SiringDutchAuction candidateContract = SiringDutchAuction(_addr);\n        require(candidateContract.IS_SIRINGDUTCHAUCTION());\n        siringDutchAuction = candidateContract;\n    }\n\n    function createSaleAuction(uint256 _tokenId,\n                               uint256 _startingPrice,\n                               uint256 _endingPrice,\n                               uint256 _duration) public whenNotPaused {\n\n        require(_owns(msg.sender, _tokenId));\n\n        require (_isDinosaurInFree(_tokenId));\n\n        address owner = dinosaurIndexToOwner[_tokenId];\n        // require(msg.sender == owner);\n\n        dinosaurIndexToApproved[_tokenId] = address(saleDutchAuction);\n\n        saleDutchAuction.createAuction(_tokenId, _startingPrice, _endingPrice, _duration, owner);\n    }\n\n\n    // 0\n    function createGen0SaleAuction (uint256 _startingPrice,\n                                    uint256 _endingPrice,\n                                    uint256 _duration) public onlyCOO whenNotPaused {\n        uint256 _newId = _createGen0Egg(address(this));\n\n        dinosaurIndexToApproved[_newId] = address(saleDutchAuction);\n\n        saleDutchAuction.createAuction(_newId, _startingPrice, _endingPrice, _duration, address(this));\n    }\n\n    function createSiringAuction (uint256 _tokenId,\n                                  uint256 _startingPrice,\n                                  uint256 _endingPrice,\n                                  uint256 _duration) public whenNotPaused {\n\n        address owner = dinosaurIndexToOwner[_tokenId];\n        require(msg.sender == owner);\n\n        require(_isReadyToBreed(_tokenId));\n\n        dinosaurIndexToApproved[_tokenId] = address(siringDutchAuction);\n\n        siringDutchAuction.createAuction(_tokenId, _startingPrice, _endingPrice, _duration, owner);\n    }\n\n    //  _motherId;  _fatherId\n    function bidOnSiringAuction (uint256 _motherId, uint256 _fatherId) public payable whenNotPaused {\n        require(_owns(msg.sender, _motherId));\n\n        uint256 price = siringDutchAuction.getCurrentPrice(_fatherId);\n        uint256 bidAmount = msg.value;\n\n        require(bidAmount >= price);\n\n        // modifierbitAmount\n        siringDutchAuction.bid.value(bidAmount)(_fatherId);\n\n        _approveSiring(msg.sender, _fatherId);\n\n        if (_canBreedWith(_motherId, _fatherId)) {\n            _breedWith(_motherId, _fatherId);\n        }\n    }\n\n\n}\n",
  "sourcePath": "D:\\codebase\\blockchain\\ganacheDemo\\dinosaur\\contracts\\Jurassic\\Auction.sol",
  "compiler": {
    "name": "solc",
    "version": "0.4.24+commit.e67f0147.Emscripten.clang"
  },
  "schemaVersion": "2.0.1",
  "updatedAt": "2018-09-05T10:51:01.701Z"
}