{
  "contractName": "Debug",
  "abi": [
    {
      "constant": true,
      "inputs": [],
      "name": "unit_test",
      "outputs": [
        {
          "name": "",
          "type": "bool"
        }
      ],
      "payable": false,
      "stateMutability": "view",
      "type": "function"
    },
    {
      "anonymous": false,
      "inputs": [
        {
          "indexed": false,
          "name": "label",
          "type": "string"
        },
        {
          "indexed": false,
          "name": "value",
          "type": "uint256"
        }
      ],
      "name": "LogUint",
      "type": "event"
    },
    {
      "anonymous": false,
      "inputs": [
        {
          "indexed": false,
          "name": "label",
          "type": "string"
        },
        {
          "indexed": false,
          "name": "value",
          "type": "int256"
        }
      ],
      "name": "LogInt",
      "type": "event"
    },
    {
      "constant": true,
      "inputs": [],
      "name": "nowtime",
      "outputs": [
        {
          "name": "",
          "type": "uint256"
        }
      ],
      "payable": false,
      "stateMutability": "view",
      "type": "function"
    }
  ],
  "bytecode": "0x608060405260008060006101000a81548160ff02191690831515021790555034801561002a57600080fd5b5060e8806100396000396000f3006080604052600436106049576000357c0100000000000000000000000000000000000000000000000000000000900463ffffffff168063d33209cf14604e578063f2c8a32714607a575b600080fd5b348015605957600080fd5b50606060a2565b604051808215151515815260200191505060405180910390f35b348015608557600080fd5b50608c60b4565b6040518082815260200191505060405180910390f35b6000809054906101000a900460ff1681565b6000429050905600a165627a7a7230582016459f2395da92ce902ba8e4e98fe72db349447438bcfb9680002aca000cb9880029",
  "source": "pragma solidity ^0.4.18;\n\ncontract Debug {\n    event LogUint(string label, uint256 value);\n    event LogInt(string label, int256 value);\n\n    bool public unit_test = false;\n\n    function logstring(string s) internal {\n        emit LogUint(s, 0);\n    }\n\n    function loguint(string s, uint256 v) internal {\n        emit LogUint(s, v);\n    }\n\n    function logbool(string s, bool b) internal {\n        if (b) {\n            emit LogUint(s, 1);\n        } else {\n            emit LogUint(s, 0);\n        }\n    }\n\n    function nowtime () public view returns (uint256) {\n        return now;\n    }\n    \n    function enableUnitTest(bool flag) internal {\n        unit_test = flag;\n    }    \n}\n",
  "sourcePath": "D:\\codebase\\blockchain\\ganacheDemo\\dinosaur\\contracts\\Debug.sol",
  "compiler": {
    "name": "solc",
    "version": "0.4.24+commit.e67f0147.Emscripten.clang"
  },
  "schemaVersion": "2.0.1",
  "updatedAt": "2018-09-06T02:54:23.594Z"
}