{
  "contractName": "DinosaurBase",
  "abi": [
    {
      "constant": true,
      "inputs": [],
      "name": "cfoAddress",
      "outputs": [
        {
          "name": "",
          "type": "address"
        }
      ],
      "payable": false,
      "stateMutability": "view",
      "type": "function"
    },
    {
      "constant": true,
      "inputs": [],
      "name": "ceoAddress",
      "outputs": [
        {
          "name": "",
          "type": "address"
        }
      ],
      "payable": false,
      "stateMutability": "view",
      "type": "function"
    },
    {
      "constant": true,
      "inputs": [],
      "name": "ctoAddress",
      "outputs": [
        {
          "name": "",
          "type": "address"
        }
      ],
      "payable": false,
      "stateMutability": "view",
      "type": "function"
    },
    {
      "constant": false,
      "inputs": [
        {
          "name": "_newCEO",
          "type": "address"
        }
      ],
      "name": "setCEO",
      "outputs": [],
      "payable": false,
      "stateMutability": "nonpayable",
      "type": "function"
    },
    {
      "constant": false,
      "inputs": [
        {
          "name": "_newCOO",
          "type": "address"
        }
      ],
      "name": "setCOO",
      "outputs": [],
      "payable": false,
      "stateMutability": "nonpayable",
      "type": "function"
    },
    {
      "constant": false,
      "inputs": [
        {
          "name": "_newSYS",
          "type": "address"
        }
      ],
      "name": "setSYS",
      "outputs": [],
      "payable": false,
      "stateMutability": "nonpayable",
      "type": "function"
    },
    {
      "constant": false,
      "inputs": [],
      "name": "unpause",
      "outputs": [],
      "payable": false,
      "stateMutability": "nonpayable",
      "type": "function"
    },
    {
      "constant": true,
      "inputs": [
        {
          "name": "",
          "type": "uint256"
        }
      ],
      "name": "sireAllowedToAddress",
      "outputs": [
        {
          "name": "",
          "type": "address"
        }
      ],
      "payable": false,
      "stateMutability": "view",
      "type": "function"
    },
    {
      "constant": false,
      "inputs": [
        {
          "name": "_newCFO",
          "type": "address"
        }
      ],
      "name": "setCFO",
      "outputs": [],
      "payable": false,
      "stateMutability": "nonpayable",
      "type": "function"
    },
    {
      "constant": true,
      "inputs": [
        {
          "name": "",
          "type": "uint256"
        }
      ],
      "name": "dinosaurs",
      "outputs": [
        {
          "name": "birthTime",
          "type": "uint64"
        },
        {
          "name": "seekingCDEndTime",
          "type": "uint64"
        },
        {
          "name": "breedingCDEndTime",
          "type": "uint64"
        },
        {
          "name": "seekingCDIndex",
          "type": "uint16"
        },
        {
          "name": "breedingCDIndex",
          "type": "uint16"
        },
        {
          "name": "siringWithId",
          "type": "uint32"
        },
        {
          "name": "attributes",
          "type": "uint256"
        }
      ],
      "payable": false,
      "stateMutability": "view",
      "type": "function"
    },
    {
      "constant": true,
      "inputs": [],
      "name": "paused",
      "outputs": [
        {
          "name": "",
          "type": "bool"
        }
      ],
      "payable": false,
      "stateMutability": "view",
      "type": "function"
    },
    {
      "constant": true,
      "inputs": [
        {
          "name": "a",
          "type": "uint256"
        },
        {
          "name": "b",
          "type": "uint256"
        }
      ],
      "name": "max",
      "outputs": [
        {
          "name": "",
          "type": "uint256"
        }
      ],
      "payable": false,
      "stateMutability": "pure",
      "type": "function"
    },
    {
      "constant": true,
      "inputs": [
        {
          "name": "a",
          "type": "uint256"
        },
        {
          "name": "b",
          "type": "uint256"
        }
      ],
      "name": "min",
      "outputs": [
        {
          "name": "",
          "type": "uint256"
        }
      ],
      "payable": false,
      "stateMutability": "pure",
      "type": "function"
    },
    {
      "constant": false,
      "inputs": [],
      "name": "pause",
      "outputs": [],
      "payable": false,
      "stateMutability": "nonpayable",
      "type": "function"
    },
    {
      "constant": true,
      "inputs": [
        {
          "name": "",
          "type": "uint256"
        }
      ],
      "name": "cooldowns",
      "outputs": [
        {
          "name": "",
          "type": "uint32"
        }
      ],
      "payable": false,
      "stateMutability": "view",
      "type": "function"
    },
    {
      "constant": true,
      "inputs": [],
      "name": "sysAddress",
      "outputs": [
        {
          "name": "",
          "type": "address"
        }
      ],
      "payable": false,
      "stateMutability": "view",
      "type": "function"
    },
    {
      "constant": true,
      "inputs": [],
      "name": "cooAddress",
      "outputs": [
        {
          "name": "",
          "type": "address"
        }
      ],
      "payable": false,
      "stateMutability": "view",
      "type": "function"
    },
    {
      "constant": true,
      "inputs": [
        {
          "name": "",
          "type": "uint256"
        }
      ],
      "name": "eggs",
      "outputs": [
        {
          "name": "birthTime",
          "type": "uint64"
        },
        {
          "name": "hatchEndTime",
          "type": "uint64"
        },
        {
          "name": "hatchCDIndex",
          "type": "uint16"
        },
        {
          "name": "genesF",
          "type": "uint256"
        },
        {
          "name": "genesM",
          "type": "uint256"
        }
      ],
      "payable": false,
      "stateMutability": "view",
      "type": "function"
    },
    {
      "constant": true,
      "inputs": [
        {
          "name": "",
          "type": "uint256"
        }
      ],
      "name": "seekingIndexToOwner",
      "outputs": [
        {
          "name": "",
          "type": "address"
        }
      ],
      "payable": false,
      "stateMutability": "view",
      "type": "function"
    },
    {
      "constant": true,
      "inputs": [
        {
          "name": "",
          "type": "uint256"
        }
      ],
      "name": "dinosaurIndexToApproved",
      "outputs": [
        {
          "name": "",
          "type": "address"
        }
      ],
      "payable": false,
      "stateMutability": "view",
      "type": "function"
    },
    {
      "constant": true,
      "inputs": [
        {
          "name": "",
          "type": "uint256"
        }
      ],
      "name": "dinosaurIndexToOwner",
      "outputs": [
        {
          "name": "",
          "type": "address"
        }
      ],
      "payable": false,
      "stateMutability": "view",
      "type": "function"
    },
    {
      "constant": true,
      "inputs": [],
      "name": "unit_test",
      "outputs": [
        {
          "name": "",
          "type": "bool"
        }
      ],
      "payable": false,
      "stateMutability": "view",
      "type": "function"
    },
    {
      "constant": true,
      "inputs": [],
      "name": "nowtime",
      "outputs": [
        {
          "name": "",
          "type": "uint256"
        }
      ],
      "payable": false,
      "stateMutability": "view",
      "type": "function"
    },
    {
      "constant": false,
      "inputs": [
        {
          "name": "_newCTO",
          "type": "address"
        }
      ],
      "name": "setCTO",
      "outputs": [],
      "payable": false,
      "stateMutability": "nonpayable",
      "type": "function"
    },
    {
      "anonymous": false,
      "inputs": [
        {
          "indexed": true,
          "name": "owner",
          "type": "address"
        },
        {
          "indexed": false,
          "name": "eggId",
          "type": "uint256"
        },
        {
          "indexed": false,
          "name": "motherId",
          "type": "uint256"
        },
        {
          "indexed": false,
          "name": "fatherId",
          "type": "uint256"
        },
        {
          "indexed": false,
          "name": "genesF",
          "type": "uint256"
        },
        {
          "indexed": false,
          "name": "genesM",
          "type": "uint256"
        }
      ],
      "name": "EggBirth",
      "type": "event"
    },
    {
      "anonymous": false,
      "inputs": [
        {
          "indexed": true,
          "name": "owner",
          "type": "address"
        },
        {
          "indexed": false,
          "name": "dinosaursId",
          "type": "uint256"
        }
      ],
      "name": "DinosaurHatched",
      "type": "event"
    },
    {
      "anonymous": false,
      "inputs": [
        {
          "indexed": true,
          "name": "from",
          "type": "address"
        },
        {
          "indexed": true,
          "name": "to",
          "type": "address"
        },
        {
          "indexed": true,
          "name": "tokenId",
          "type": "uint256"
        }
      ],
      "name": "Transfer",
      "type": "event"
    },
    {
      "anonymous": false,
      "inputs": [
        {
          "indexed": false,
          "name": "label",
          "type": "string"
        },
        {
          "indexed": false,
          "name": "value",
          "type": "uint256"
        }
      ],
      "name": "LogUint",
      "type": "event"
    },
    {
      "anonymous": false,
      "inputs": [
        {
          "indexed": false,
          "name": "label",
          "type": "string"
        },
        {
          "indexed": false,
          "name": "value",
          "type": "int256"
        }
      ],
      "name": "LogInt",
      "type": "event"
    },
    {
      "constant": false,
      "inputs": [
        {
          "name": "_index",
          "type": "uint256"
        },
        {
          "name": "_value",
          "type": "uint256"
        }
      ],
      "name": "changeCooldownIndexForTesting",
      "outputs": [],
      "payable": false,
      "stateMutability": "nonpayable",
      "type": "function"
    }
  ],
  "bytecode": "0x608060405260008060006101000a81548160ff0219169083151502179055506000600460146101000a81548160ff0219169083151502179055506101c060405190810160405280603c63ffffffff1663ffffffff168152602001607863ffffffff1663ffffffff16815260200161012c63ffffffff1663ffffffff16815260200161025863ffffffff1663ffffffff16815260200161070863ffffffff1663ffffffff168152602001610e1063ffffffff1663ffffffff168152602001611c2063ffffffff1663ffffffff16815260200161384063ffffffff1663ffffffff16815260200161708063ffffffff1663ffffffff16815260200161e10063ffffffff1663ffffffff1681526020016201518063ffffffff1663ffffffff1681526020016202a30063ffffffff1663ffffffff1681526020016205460063ffffffff1663ffffffff16815260200162093a8063ffffffff1663ffffffff16815250600590600e62000170929190620002d7565b506001600460146101000a81548160ff02191690831515021790555033600060016101000a81548173ffffffffffffffffffffffffffffffffffffffff021916908373ffffffffffffffffffffffffffffffffffffffff16021790555033600160006101000a81548173ffffffffffffffffffffffffffffffffffffffff021916908373ffffffffffffffffffffffffffffffffffffffff16021790555033600260006101000a81548173ffffffffffffffffffffffffffffffffffffffff021916908373ffffffffffffffffffffffffffffffffffffffff16021790555033600360006101000a81548173ffffffffffffffffffffffffffffffffffffffff021916908373ffffffffffffffffffffffffffffffffffffffff16021790555033600460006101000a81548173ffffffffffffffffffffffffffffffffffffffff021916908373ffffffffffffffffffffffffffffffffffffffff160217905550620003b7565b82600e6007016008900481019282156200036e5791602002820160005b838211156200033a57835183826101000a81548163ffffffff021916908363ffffffff1602179055509260200192600401602081600301049283019260010302620002f4565b80156200036c5782816101000a81549063ffffffff02191690556004016020816003010492830192600103026200033a565b505b5090506200037d919062000381565b5090565b620003b491905b80821115620003b057600081816101000a81549063ffffffff02191690555060010162000388565b5090565b90565b61146b80620003c76000396000f300608060405260043610610149576000357c0100000000000000000000000000000000000000000000000000000000900463ffffffff1680630519ce791461014e5780630a0f8168146101a55780631f513660146101fc57806327d7874c146102535780632ba73c1514610296578063315ae4d4146102d95780633f4ba83a1461031c57806346116e6f146103335780634e0a3379146103a05780634ec9fe7c146103e35780635c975abb146104a65780636d5433e6146104d55780637ae2b5c7146105205780638456cb591461056b5780639d6fac6f146105825780639ebe8fe5146105cf578063b047fb5014610626578063bb654efa1461067d578063bc9ed2851461070a578063c37361ad14610777578063c3d52b61146107e4578063d33209cf14610851578063ed56494114610880578063f2c8a327146108b7578063fe1439b4146108e2575b600080fd5b34801561015a57600080fd5b50610163610925565b604051808273ffffffffffffffffffffffffffffffffffffffff1673ffffffffffffffffffffffffffffffffffffffff16815260200191505060405180910390f35b3480156101b157600080fd5b506101ba61094b565b604051808273ffffffffffffffffffffffffffffffffffffffff1673ffffffffffffffffffffffffffffffffffffffff16815260200191505060405180910390f35b34801561020857600080fd5b50610211610971565b604051808273ffffffffffffffffffffffffffffffffffffffff1673ffffffffffffffffffffffffffffffffffffffff16815260200191505060405180910390f35b34801561025f57600080fd5b50610294600480360381019080803573ffffffffffffffffffffffffffffffffffffffff169060200190929190505050610997565b005b3480156102a257600080fd5b506102d7600480360381019080803573ffffffffffffffffffffffffffffffffffffffff169060200190929190505050610a73565b005b3480156102e557600080fd5b5061031a600480360381019080803573ffffffffffffffffffffffffffffffffffffffff169060200190929190505050610b4f565b005b34801561032857600080fd5b50610331610c2b565b005b34801561033f57600080fd5b5061035e60048036038101908080359060200190929190505050610d17565b604051808273ffffffffffffffffffffffffffffffffffffffff1673ffffffffffffffffffffffffffffffffffffffff16815260200191505060405180910390f35b3480156103ac57600080fd5b506103e1600480360381019080803573ffffffffffffffffffffffffffffffffffffffff169060200190929190505050610d4a565b005b3480156103ef57600080fd5b5061040e60048036038101908080359060200190929190505050610e26565b604051808867ffffffffffffffff1667ffffffffffffffff1681526020018767ffffffffffffffff1667ffffffffffffffff1681526020018667ffffffffffffffff1667ffffffffffffffff1681526020018561ffff1661ffff1681526020018461ffff1661ffff1681526020018363ffffffff1663ffffffff16815260200182815260200197505050505050505060405180910390f35b3480156104b257600080fd5b506104bb610ed0565b604051808215151515815260200191505060405180910390f35b3480156104e157600080fd5b5061050a6004803603810190808035906020019092919080359060200190929190505050610ee3565b6040518082815260200191505060405180910390f35b34801561052c57600080fd5b506105556004803603810190808035906020019092919080359060200190929190505050610efc565b6040518082815260200191505060405180910390f35b34801561057757600080fd5b50610580610f15565b005b34801561058e57600080fd5b506105ad600480360381019080803590602001909291905050506110b2565b604051808263ffffffff1663ffffffff16815260200191505060405180910390f35b3480156105db57600080fd5b506105e46110e1565b604051808273ffffffffffffffffffffffffffffffffffffffff1673ffffffffffffffffffffffffffffffffffffffff16815260200191505060405180910390f35b34801561063257600080fd5b5061063b611107565b604051808273ffffffffffffffffffffffffffffffffffffffff1673ffffffffffffffffffffffffffffffffffffffff16815260200191505060405180910390f35b34801561068957600080fd5b506106a86004803603810190808035906020019092919050505061112d565b604051808667ffffffffffffffff1667ffffffffffffffff1681526020018567ffffffffffffffff1667ffffffffffffffff1681526020018461ffff1661ffff1681526020018381526020018281526020019550505050505060405180910390f35b34801561071657600080fd5b5061073560048036038101908080359060200190929190505050611199565b604051808273ffffffffffffffffffffffffffffffffffffffff1673ffffffffffffffffffffffffffffffffffffffff16815260200191505060405180910390f35b34801561078357600080fd5b506107a2600480360381019080803590602001909291905050506111cc565b604051808273ffffffffffffffffffffffffffffffffffffffff1673ffffffffffffffffffffffffffffffffffffffff16815260200191505060405180910390f35b3480156107f057600080fd5b5061080f600480360381019080803590602001909291905050506111ff565b604051808273ffffffffffffffffffffffffffffffffffffffff1673ffffffffffffffffffffffffffffffffffffffff16815260200191505060405180910390f35b34801561085d57600080fd5b50610866611232565b604051808215151515815260200191505060405180910390f35b34801561088c57600080fd5b506108b56004803603810190808035906020019092919080359060200190929190505050611244565b005b3480156108c357600080fd5b506108cc61133f565b6040518082815260200191505060405180910390f35b3480156108ee57600080fd5b50610923600480360381019080803573ffffffffffffffffffffffffffffffffffffffff169060200190929190505050611347565b005b600260009054906101000a900473ffffffffffffffffffffffffffffffffffffffff1681565b600060019054906101000a900473ffffffffffffffffffffffffffffffffffffffff1681565b600160009054906101000a900473ffffffffffffffffffffffffffffffffffffffff1681565b600060019054906101000a900473ffffffffffffffffffffffffffffffffffffffff1673ffffffffffffffffffffffffffffffffffffffff163373ffffffffffffffffffffffffffffffffffffffff161415156109f357600080fd5b600073ffffffffffffffffffffffffffffffffffffffff168173ffffffffffffffffffffffffffffffffffffffff1614151515610a2f57600080fd5b80600060016101000a81548173ffffffffffffffffffffffffffffffffffffffff021916908373ffffffffffffffffffffffffffffffffffffffff16021790555050565b600060019054906101000a900473ffffffffffffffffffffffffffffffffffffffff1673ffffffffffffffffffffffffffffffffffffffff163373ffffffffffffffffffffffffffffffffffffffff16141515610acf57600080fd5b600073ffffffffffffffffffffffffffffffffffffffff168173ffffffffffffffffffffffffffffffffffffffff1614151515610b0b57600080fd5b80600360006101000a81548173ffffffffffffffffffffffffffffffffffffffff021916908373ffffffffffffffffffffffffffffffffffffffff16021790555050565b600060019054906101000a900473ffffffffffffffffffffffffffffffffffffffff1673ffffffffffffffffffffffffffffffffffffffff163373ffffffffffffffffffffffffffffffffffffffff16141515610bab57600080fd5b600073ffffffffffffffffffffffffffffffffffffffff168173ffffffffffffffffffffffffffffffffffffffff1614151515610be757600080fd5b80600460006101000a81548173ffffffffffffffffffffffffffffffffffffffff021916908373ffffffffffffffffffffffffffffffffffffffff16021790555050565b600160009054906101000a900473ffffffffffffffffffffffffffffffffffffffff1673ffffffffffffffffffffffffffffffffffffffff163373ffffffffffffffffffffffffffffffffffffffff161480610cd45750600060019054906101000a900473ffffffffffffffffffffffffffffffffffffffff1673ffffffffffffffffffffffffffffffffffffffff163373ffffffffffffffffffffffffffffffffffffffff16145b1515610cdf57600080fd5b600460149054906101000a900460ff161515610cfa57600080fd5b6000600460146101000a81548160ff021916908315150217905550565b600c6020528060005260406000206000915054906101000a900473ffffffffffffffffffffffffffffffffffffffff1681565b600060019054906101000a900473ffffffffffffffffffffffffffffffffffffffff1673ffffffffffffffffffffffffffffffffffffffff163373ffffffffffffffffffffffffffffffffffffffff16141515610da657600080fd5b600073ffffffffffffffffffffffffffffffffffffffff168173ffffffffffffffffffffffffffffffffffffffff1614151515610de257600080fd5b80600260006101000a81548173ffffffffffffffffffffffffffffffffffffffff021916908373ffffffffffffffffffffffffffffffffffffffff16021790555050565b60086020528060005260406000206000915090508060000160009054906101000a900467ffffffffffffffff16908060000160089054906101000a900467ffffffffffffffff16908060000160109054906101000a900467ffffffffffffffff16908060000160189054906101000a900461ffff169080600001601a9054906101000a900461ffff169080600001601c9054906101000a900463ffffffff16908060010154905087565b600460149054906101000a900460ff1681565b6000818311610ef25781610ef4565b825b905092915050565b6000818311610f0b5782610f0d565b815b905092915050565b600060019054906101000a900473ffffffffffffffffffffffffffffffffffffffff1673ffffffffffffffffffffffffffffffffffffffff163373ffffffffffffffffffffffffffffffffffffffff161480610fbe5750600160009054906101000a900473ffffffffffffffffffffffffffffffffffffffff1673ffffffffffffffffffffffffffffffffffffffff163373ffffffffffffffffffffffffffffffffffffffff16145b806110165750600260009054906101000a900473ffffffffffffffffffffffffffffffffffffffff1673ffffffffffffffffffffffffffffffffffffffff163373ffffffffffffffffffffffffffffffffffffffff16145b8061106e5750600360009054906101000a900473ffffffffffffffffffffffffffffffffffffffff1673ffffffffffffffffffffffffffffffffffffffff163373ffffffffffffffffffffffffffffffffffffffff16145b151561107957600080fd5b600460149054906101000a900460ff1615151561109557600080fd5b6001600460146101000a81548160ff021916908315150217905550565b600581600e811015156110c157fe5b60089182820401919006600402915054906101000a900463ffffffff1681565b600460009054906101000a900473ffffffffffffffffffffffffffffffffffffffff1681565b600360009054906101000a900473ffffffffffffffffffffffffffffffffffffffff1681565b60076020528060005260406000206000915090508060000160009054906101000a900467ffffffffffffffff16908060000160089054906101000a900467ffffffffffffffff16908060000160109054906101000a900461ffff16908060010154908060020154905085565b600d6020528060005260406000206000915054906101000a900473ffffffffffffffffffffffffffffffffffffffff1681565b600b6020528060005260406000206000915054906101000a900473ffffffffffffffffffffffffffffffffffffffff1681565b600a6020528060005260406000206000915054906101000a900473ffffffffffffffffffffffffffffffffffffffff1681565b6000809054906101000a900460ff1681565b600160009054906101000a900473ffffffffffffffffffffffffffffffffffffffff1673ffffffffffffffffffffffffffffffffffffffff163373ffffffffffffffffffffffffffffffffffffffff1614806112ed5750600060019054906101000a900473ffffffffffffffffffffffffffffffffffffffff1673ffffffffffffffffffffffffffffffffffffffff163373ffffffffffffffffffffffffffffffffffffffff16145b15156112f857600080fd5b80600583600e8110151561130857fe5b600891828204019190066004026101000a81548163ffffffff021916908363ffffffff16021790555061133b6001611423565b5050565b600042905090565b600060019054906101000a900473ffffffffffffffffffffffffffffffffffffffff1673ffffffffffffffffffffffffffffffffffffffff163373ffffffffffffffffffffffffffffffffffffffff161415156113a357600080fd5b600073ffffffffffffffffffffffffffffffffffffffff168173ffffffffffffffffffffffffffffffffffffffff16141515156113df57600080fd5b80600160006101000a81548173ffffffffffffffffffffffffffffffffffffffff021916908373ffffffffffffffffffffffffffffffffffffffff16021790555050565b806000806101000a81548160ff021916908315150217905550505600a165627a7a72305820a80dd8b84a787ec7b4cb0d4e30d2547a3739e43c194ae4d7301cae146387df3a0029",
  "source": "pragma solidity ^0.4.18;\n\nimport \"../ControlCenter.sol\";\n\n\n/**\n * 恐龙蛋和恐龙为一种代币(DNS)，蛋为恐龙的第一个阶段.\n */\ncontract DinosaurBase is ControlCenter {\n    /*** EVENT ***/\n\n    event EggBirth(address indexed owner, uint256 eggId, uint256 motherId, uint256 fatherId, uint256 genesF, uint256 genesM);\n    event DinosaurHatched(address indexed owner, uint256 dinosaursId);\n    event Transfer(address indexed from, address indexed to, uint256 indexed tokenId);\n\n    /*** DATA TYPES ***/\n\n    struct DNSRToken {\n        // 哪一种恐龙以及显性还是隐性，格式为 类型1(4位) + 显性隐性(1位) + 类型2(4位) + 显性隐性(1位)\n        uint16 kind;\n\n        // 初代没有父母，设置为0\n        uint32 motherId;\n        uint32 fatherId;\n\n        // 表示是哪一代\n        uint16 generation;\n\n        // 代表哪一个成长阶段，1：蛋，2：恐龙\n        uint8 phase;\n    }\n\n    struct DinosaurEgg {\n        // 恐龙蛋的出生的时间，用区块的时间戳表示\n        uint64 birthTime;\n\n        // 恐龙蛋时有效孵化结束的时间，0表示还没有开始孵化\n        uint64 hatchEndTime;\n        uint16 hatchCDIndex;\n\n        // 恐龙蛋时有效，为基因集合\n        uint256 genesF;\n        uint256 genesM;\n\n    }\n\n    struct Dinosaur {\n\n        // 恐龙蛋或恐龙的出生的时间，用区块的时间戳表示\n        uint64 birthTime;\n\n        // 外出搜索的冷却时间，用区块的时间戳表示\n        uint64 seekingCDEndTime;\n        // 繁殖的冷却时间，用区块的时间戳表示\n        uint64 breedingCDEndTime;\n\n        // 搜索和繁殖的冷却时间索引，搜索和繁殖的时间各自冷却时间的两倍\n        // 受蛋的时候的hatchCDIndex影响，不超过上下两阶\n        uint16 seekingCDIndex;\n        uint16 breedingCDIndex;\n\n        // 怀孕时伴侣的ID，0：没有怀孕\n        uint32 siringWithId;\n\n        // 孵化为恐龙后的属性集合，每个属性占16位，暂时只有愉悦度\n        uint256 attributes;\n    }\n\n    /*** CONSTANTS ***/\n\n    // uint16[4] public DinosaurKinds = [\n    //     uint16(1),          // 霸王龙\n    //     uint16(2),          // 翼龙\n    //     uint16(3),          // 剑龙\n    //     uint16(4)          // 甲龙\n    // ];\n\n    uint16 constant COOLDOWN_TABLE_SIZE = 14;\n    uint32[14] public cooldowns = [\n        uint32(1 minutes),\n        uint32(2 minutes),\n        uint32(5 minutes),\n        uint32(10 minutes),\n        uint32(30 minutes),\n        uint32(1 hours),\n        uint32(2 hours),\n        uint32(4 hours),\n        uint32(8 hours),\n        uint32(16 hours),\n        uint32(1 days),\n        uint32(2 days),\n        uint32(4 days),\n        uint32(7 days)\n    ];\n\n    uint16 constant HATCHING_CD_INDEX = 6;\n    uint16 constant SEEKING_CD_INDEX = 7;\n\n    uint16 constant MAX_PLEASURE = 10;\n    uint256 constant PLEASURE_MASK = 0xFFFF;\n\n    uint32 constant MAX_IDS        = 4294967295;\n    uint16 constant MAX_GENERATION = 65535;\n\n    uint8 constant EGG_PHASE      = 1;\n    uint8 constant DINOSAUR_PHASE = 2;\n\n\n    uint16 constant DINOSAUR_ACTION_FREE = 0;\n    uint16 constant DINOSAUR_ACTION_BREEDING = 1;\n    uint16 constant DINOSAUR_ACTION_AUCTION = 2;\n    uint16 constant DINOSAUR_ACTION_SEEKING = 3;\n\n    /*** STORAGE ***/\n\n    // 以恐龙的ID为索引，存储尚未孵化为恐龙的恐龙蛋（只是用来统计）\n    mapping (uint256 => DinosaurEgg) public eggs;\n    // 以恐龙的ID为索引，存储已经孵化的恐龙（只是用来统计）\n    mapping (uint256 => Dinosaur) public dinosaurs;\n\n    // 以恐龙的ID为索引，存储代表所有的恐龙和恐龙蛋的恐龙代币\n    DNSRToken[] dnsrToken;\n\n    // 恐龙ID与其所有者地址的映射，包括恐龙蛋\n    mapping (uint256 => address) public dinosaurIndexToOwner;\n\n    // 转移的恐龙ID与其授权拥有者地址的映射，比如拍卖合约和购买者\n    mapping (uint256 => address) public dinosaurIndexToApproved;\n\n    // 允许进行繁衍的恐龙ID与请求者地址的映射\n    mapping (uint256 => address) public sireAllowedToAddress;\n\n    // 正在探索的恐龙与所有者的地址映射\n    mapping (uint256 => address) public seekingIndexToOwner;\n\n\n    // 拥有恐龙的数量\n    mapping (address => uint256) ownershipDinosaurCount;\n\n\n    /*** FUNCTION ***/\n\n    function _getDinosaurPhase (uint256 _id) internal view returns (uint256) {\n        DNSRToken storage _dnsrToken = dnsrToken[_id];\n        return _dnsrToken.phase;\n    }\n\n\n    // 为恐龙(蛋)指定新的主人\n    function _transfer(address _from, address _to, uint256 _tokenId) internal {\n        ownershipDinosaurCount[_to]++;\n\n        dinosaurIndexToOwner[_tokenId] = _to;\n\n        if (_from != address(0)) {\n            ownershipDinosaurCount[_from]--;\n\n            delete dinosaurIndexToApproved[_tokenId];\n            delete sireAllowedToAddress[_tokenId];\n        }\n\n        // 激发一个事件\n        emit Transfer(_from, _to, _tokenId);\n    }\n\n    /// 创建一个恐龙蛋，返回恐龙蛋的ID\n    /// @param _kind index (4 bits) + hideOrShow (1 bit)。 index: 1, 霸王龙; 2, 翼龙; 3, 剑龙; 4, 甲龙\n    function _createEgg(uint256 _kind,\n                        uint256 _motherId,\n                        uint256 _fatherId,\n                        uint256 _generation,\n                        uint256 _genesF,\n                        uint256 _genesM,\n                        uint256 _hatchCDIndex,\n                        address _owner) internal returns (uint256)\n    {\n        require(_motherId <= MAX_IDS);\n        require(_fatherId <= MAX_IDS);\n        require(_generation <= MAX_GENERATION);\n\n        DNSRToken memory _dnsrToken = DNSRToken({\n            kind: uint16(_kind),\n            motherId: uint32(_motherId),\n            fatherId: uint32(_fatherId),\n            generation: uint16(_generation),\n            phase: EGG_PHASE\n        });\n\n        uint256 _newTokenId = dnsrToken.push(_dnsrToken) - 1;\n        require(_newTokenId <= MAX_IDS);\n\n\n        DinosaurEgg memory _egg = DinosaurEgg({\n            birthTime: uint64(now),\n            hatchEndTime: 0,\n            hatchCDIndex: unit_test ? 0 : uint16(_hatchCDIndex),\n            genesF: _genesF,\n            genesM: _genesM\n        });\n\n        eggs[_newTokenId] = _egg;\n\n        // 指定主人\n        _transfer(0, _owner, _newTokenId);\n\n        // 激发恐龙蛋出生事件\n        emit EggBirth(_owner, _newTokenId, uint256(_motherId), uint256(_fatherId), _egg.genesF, _egg.genesM);\n\n        return _newTokenId;\n    }\n\n    // 创建一头恐龙，返回恐龙的ID\n    /// @param _attr 恐龙的属性，现在只有愉悦度\n    function _hatched(uint256 _eggId, uint256 _attr, uint256 _seekingCDIndex, uint256 _breedingCDIndex) internal {\n        DNSRToken storage _dnsrToken = dnsrToken[_eggId];\n        require(_dnsrToken.phase == EGG_PHASE);\n\n        // 获得对应的恐龙蛋\n\n        _dnsrToken.phase             = DINOSAUR_PHASE;\n\n        // TODO: generate attributes from genes\n        // DinosaurEgg storage _egg = eggs[_eggId];\n\n        Dinosaur memory _dinosaur = Dinosaur({\n            birthTime         : uint64(now),\n            seekingCDEndTime  : 0,\n            breedingCDEndTime : 0,\n            seekingCDIndex    : unit_test ? 0 : uint16(_seekingCDIndex),\n            breedingCDIndex   : unit_test ? 0 : uint16(_breedingCDIndex),\n            siringWithId      : 0,\n            attributes        : _attr\n        });\n\n        // 把出生的恐龙加入已孵化列表，并移除恐龙蛋\n        dinosaurs[_eggId] = _dinosaur;\n        // delete eggs[_eggId];\n\n        address _owner = dinosaurIndexToOwner[_eggId];\n\n        // 激发恐龙出生事件\n        emit DinosaurHatched(_owner, _eggId);\n    }\n\n    // 如果不是在拍卖、生育、探索，则是空闲的\n    function _isDinosaurInFree (uint256 _id) internal view returns(bool) {\n        Dinosaur memory _dinosaur = dinosaurs[_id];\n\n        if (_dinosaur.siringWithId > 0) {\n            return false;\n        }\n\n        if (seekingIndexToOwner[_id] > 0) {\n            return false;\n        }\n\n        // TODO: 检查是否在拍卖中，暂时不必要实现\n\n        return true;\n    }\n\n    // function _getDinosaurSate (uint256 _id) returns(bool res) internal {\n\n    // }\n\n\n\n    // 用于unit test的时候修改CD\n    function changeCooldownIndexForTesting (uint256 _index, uint256 _value) public onlyCTO {\n        cooldowns[_index] = uint32(_value);\n        enableUnitTest(true);\n    }\n\n}\n",
  "sourcePath": "D:\\codebase\\blockchain\\ganacheDemo\\dinosaur\\contracts\\Jurassic\\DinosaurBase.sol",
  "compiler": {
    "name": "solc",
    "version": "0.4.24+commit.e67f0147.Emscripten.clang"
  },
  "schemaVersion": "2.0.1",
  "updatedAt": "2018-09-06T02:54:23.613Z"
}