{
  "contractName": "DinosaurBreeding",
  "abi": [
    {
      "constant": true,
      "inputs": [],
      "name": "cfoAddress",
      "outputs": [
        {
          "name": "",
          "type": "address"
        }
      ],
      "payable": false,
      "stateMutability": "view",
      "type": "function"
    },
    {
      "constant": true,
      "inputs": [],
      "name": "promoCreatedCount",
      "outputs": [
        {
          "name": "",
          "type": "uint256"
        }
      ],
      "payable": false,
      "stateMutability": "view",
      "type": "function"
    },
    {
      "constant": true,
      "inputs": [],
      "name": "name",
      "outputs": [
        {
          "name": "",
          "type": "string"
        }
      ],
      "payable": false,
      "stateMutability": "view",
      "type": "function"
    },
    {
      "constant": false,
      "inputs": [
        {
          "name": "_to",
          "type": "address"
        },
        {
          "name": "_tokenId",
          "type": "uint256"
        }
      ],
      "name": "approve",
      "outputs": [],
      "payable": false,
      "stateMutability": "nonpayable",
      "type": "function"
    },
    {
      "constant": true,
      "inputs": [],
      "name": "ceoAddress",
      "outputs": [
        {
          "name": "",
          "type": "address"
        }
      ],
      "payable": false,
      "stateMutability": "view",
      "type": "function"
    },
    {
      "constant": true,
      "inputs": [],
      "name": "geneticAlgorithm",
      "outputs": [
        {
          "name": "",
          "type": "address"
        }
      ],
      "payable": false,
      "stateMutability": "view",
      "type": "function"
    },
    {
      "constant": true,
      "inputs": [],
      "name": "implementsERC721",
      "outputs": [
        {
          "name": "",
          "type": "bool"
        }
      ],
      "payable": false,
      "stateMutability": "pure",
      "type": "function"
    },
    {
      "constant": false,
      "inputs": [
        {
          "name": "_addr",
          "type": "address"
        }
      ],
      "name": "setGeneticAlgorithmAddress",
      "outputs": [],
      "payable": false,
      "stateMutability": "nonpayable",
      "type": "function"
    },
    {
      "constant": true,
      "inputs": [],
      "name": "totalSupply",
      "outputs": [
        {
          "name": "",
          "type": "uint256"
        }
      ],
      "payable": false,
      "stateMutability": "view",
      "type": "function"
    },
    {
      "constant": true,
      "inputs": [],
      "name": "ctoAddress",
      "outputs": [
        {
          "name": "",
          "type": "address"
        }
      ],
      "payable": false,
      "stateMutability": "view",
      "type": "function"
    },
    {
      "constant": false,
      "inputs": [
        {
          "name": "_from",
          "type": "address"
        },
        {
          "name": "_to",
          "type": "address"
        },
        {
          "name": "_tokenId",
          "type": "uint256"
        }
      ],
      "name": "transferFrom",
      "outputs": [],
      "payable": false,
      "stateMutability": "nonpayable",
      "type": "function"
    },
    {
      "constant": false,
      "inputs": [
        {
          "name": "_newCEO",
          "type": "address"
        }
      ],
      "name": "setCEO",
      "outputs": [],
      "payable": false,
      "stateMutability": "nonpayable",
      "type": "function"
    },
    {
      "constant": false,
      "inputs": [
        {
          "name": "_newCOO",
          "type": "address"
        }
      ],
      "name": "setCOO",
      "outputs": [],
      "payable": false,
      "stateMutability": "nonpayable",
      "type": "function"
    },
    {
      "constant": true,
      "inputs": [
        {
          "name": "_owner",
          "type": "address"
        },
        {
          "name": "_index",
          "type": "uint256"
        }
      ],
      "name": "tokenOfOwnerByIndex",
      "outputs": [
        {
          "name": "tokenId",
          "type": "uint256"
        }
      ],
      "payable": false,
      "stateMutability": "view",
      "type": "function"
    },
    {
      "constant": false,
      "inputs": [
        {
          "name": "_newSYS",
          "type": "address"
        }
      ],
      "name": "setSYS",
      "outputs": [],
      "payable": false,
      "stateMutability": "nonpayable",
      "type": "function"
    },
    {
      "constant": false,
      "inputs": [],
      "name": "unpause",
      "outputs": [],
      "payable": false,
      "stateMutability": "nonpayable",
      "type": "function"
    },
    {
      "constant": true,
      "inputs": [],
      "name": "gen0CreationLimit",
      "outputs": [
        {
          "name": "",
          "type": "uint256"
        }
      ],
      "payable": false,
      "stateMutability": "view",
      "type": "function"
    },
    {
      "constant": true,
      "inputs": [
        {
          "name": "",
          "type": "uint256"
        }
      ],
      "name": "sireAllowedToAddress",
      "outputs": [
        {
          "name": "",
          "type": "address"
        }
      ],
      "payable": false,
      "stateMutability": "view",
      "type": "function"
    },
    {
      "constant": false,
      "inputs": [
        {
          "name": "_kind",
          "type": "uint256"
        },
        {
          "name": "_genesF",
          "type": "uint256"
        },
        {
          "name": "_genesM",
          "type": "uint256"
        },
        {
          "name": "_hatchCDIndex",
          "type": "uint256"
        },
        {
          "name": "_owner",
          "type": "address"
        }
      ],
      "name": "createPromoEgg",
      "outputs": [],
      "payable": false,
      "stateMutability": "nonpayable",
      "type": "function"
    },
    {
      "constant": false,
      "inputs": [
        {
          "name": "_newCFO",
          "type": "address"
        }
      ],
      "name": "setCFO",
      "outputs": [],
      "payable": false,
      "stateMutability": "nonpayable",
      "type": "function"
    },
    {
      "constant": true,
      "inputs": [
        {
          "name": "",
          "type": "uint256"
        }
      ],
      "name": "dinosaurs",
      "outputs": [
        {
          "name": "birthTime",
          "type": "uint64"
        },
        {
          "name": "seekingCDEndTime",
          "type": "uint64"
        },
        {
          "name": "breedingCDEndTime",
          "type": "uint64"
        },
        {
          "name": "seekingCDIndex",
          "type": "uint16"
        },
        {
          "name": "breedingCDIndex",
          "type": "uint16"
        },
        {
          "name": "siringWithId",
          "type": "uint32"
        },
        {
          "name": "attributes",
          "type": "uint256"
        }
      ],
      "payable": false,
      "stateMutability": "view",
      "type": "function"
    },
    {
      "constant": true,
      "inputs": [],
      "name": "paused",
      "outputs": [
        {
          "name": "",
          "type": "bool"
        }
      ],
      "payable": false,
      "stateMutability": "view",
      "type": "function"
    },
    {
      "constant": true,
      "inputs": [
        {
          "name": "_tokenId",
          "type": "uint256"
        }
      ],
      "name": "ownerOf",
      "outputs": [
        {
          "name": "owner",
          "type": "address"
        }
      ],
      "payable": false,
      "stateMutability": "view",
      "type": "function"
    },
    {
      "constant": true,
      "inputs": [
        {
          "name": "a",
          "type": "uint256"
        },
        {
          "name": "b",
          "type": "uint256"
        }
      ],
      "name": "max",
      "outputs": [
        {
          "name": "",
          "type": "uint256"
        }
      ],
      "payable": false,
      "stateMutability": "pure",
      "type": "function"
    },
    {
      "constant": true,
      "inputs": [
        {
          "name": "_owner",
          "type": "address"
        }
      ],
      "name": "balanceOf",
      "outputs": [
        {
          "name": "balance",
          "type": "uint256"
        }
      ],
      "payable": false,
      "stateMutability": "view",
      "type": "function"
    },
    {
      "constant": true,
      "inputs": [
        {
          "name": "a",
          "type": "uint256"
        },
        {
          "name": "b",
          "type": "uint256"
        }
      ],
      "name": "min",
      "outputs": [
        {
          "name": "",
          "type": "uint256"
        }
      ],
      "payable": false,
      "stateMutability": "pure",
      "type": "function"
    },
    {
      "constant": false,
      "inputs": [],
      "name": "pause",
      "outputs": [],
      "payable": false,
      "stateMutability": "nonpayable",
      "type": "function"
    },
    {
      "constant": true,
      "inputs": [],
      "name": "symbol",
      "outputs": [
        {
          "name": "",
          "type": "string"
        }
      ],
      "payable": false,
      "stateMutability": "view",
      "type": "function"
    },
    {
      "constant": true,
      "inputs": [
        {
          "name": "",
          "type": "uint256"
        }
      ],
      "name": "cooldowns",
      "outputs": [
        {
          "name": "",
          "type": "uint32"
        }
      ],
      "payable": false,
      "stateMutability": "view",
      "type": "function"
    },
    {
      "constant": true,
      "inputs": [],
      "name": "sysAddress",
      "outputs": [
        {
          "name": "",
          "type": "address"
        }
      ],
      "payable": false,
      "stateMutability": "view",
      "type": "function"
    },
    {
      "constant": false,
      "inputs": [
        {
          "name": "_to",
          "type": "address"
        },
        {
          "name": "_tokenId",
          "type": "uint256"
        }
      ],
      "name": "transfer",
      "outputs": [],
      "payable": false,
      "stateMutability": "nonpayable",
      "type": "function"
    },
    {
      "constant": true,
      "inputs": [],
      "name": "cooAddress",
      "outputs": [
        {
          "name": "",
          "type": "address"
        }
      ],
      "payable": false,
      "stateMutability": "view",
      "type": "function"
    },
    {
      "constant": true,
      "inputs": [],
      "name": "promoCreationLimit",
      "outputs": [
        {
          "name": "",
          "type": "uint256"
        }
      ],
      "payable": false,
      "stateMutability": "view",
      "type": "function"
    },
    {
      "constant": true,
      "inputs": [
        {
          "name": "",
          "type": "uint256"
        }
      ],
      "name": "eggs",
      "outputs": [
        {
          "name": "birthTime",
          "type": "uint64"
        },
        {
          "name": "hatchEndTime",
          "type": "uint64"
        },
        {
          "name": "hatchCDIndex",
          "type": "uint16"
        },
        {
          "name": "genesF",
          "type": "uint256"
        },
        {
          "name": "genesM",
          "type": "uint256"
        }
      ],
      "payable": false,
      "stateMutability": "view",
      "type": "function"
    },
    {
      "constant": true,
      "inputs": [
        {
          "name": "",
          "type": "uint256"
        }
      ],
      "name": "seekingIndexToOwner",
      "outputs": [
        {
          "name": "",
          "type": "address"
        }
      ],
      "payable": false,
      "stateMutability": "view",
      "type": "function"
    },
    {
      "constant": true,
      "inputs": [
        {
          "name": "",
          "type": "uint256"
        }
      ],
      "name": "dinosaurIndexToApproved",
      "outputs": [
        {
          "name": "",
          "type": "address"
        }
      ],
      "payable": false,
      "stateMutability": "view",
      "type": "function"
    },
    {
      "constant": true,
      "inputs": [
        {
          "name": "",
          "type": "uint256"
        }
      ],
      "name": "dinosaurIndexToOwner",
      "outputs": [
        {
          "name": "",
          "type": "address"
        }
      ],
      "payable": false,
      "stateMutability": "view",
      "type": "function"
    },
    {
      "constant": true,
      "inputs": [],
      "name": "unit_test",
      "outputs": [
        {
          "name": "",
          "type": "bool"
        }
      ],
      "payable": false,
      "stateMutability": "view",
      "type": "function"
    },
    {
      "constant": false,
      "inputs": [
        {
          "name": "_index",
          "type": "uint256"
        },
        {
          "name": "_value",
          "type": "uint256"
        }
      ],
      "name": "changeCooldownIndexForTesting",
      "outputs": [],
      "payable": false,
      "stateMutability": "nonpayable",
      "type": "function"
    },
    {
      "constant": true,
      "inputs": [],
      "name": "gen0CreatedCount",
      "outputs": [
        {
          "name": "",
          "type": "uint256"
        }
      ],
      "payable": false,
      "stateMutability": "view",
      "type": "function"
    },
    {
      "constant": true,
      "inputs": [],
      "name": "nowtime",
      "outputs": [
        {
          "name": "",
          "type": "uint256"
        }
      ],
      "payable": false,
      "stateMutability": "view",
      "type": "function"
    },
    {
      "constant": false,
      "inputs": [
        {
          "name": "_newCTO",
          "type": "address"
        }
      ],
      "name": "setCTO",
      "outputs": [],
      "payable": false,
      "stateMutability": "nonpayable",
      "type": "function"
    },
    {
      "anonymous": false,
      "inputs": [
        {
          "indexed": false,
          "name": "owner",
          "type": "address"
        },
        {
          "indexed": true,
          "name": "id",
          "type": "uint256"
        },
        {
          "indexed": false,
          "name": "endTime",
          "type": "uint256"
        }
      ],
      "name": "HatchingEgg",
      "type": "event"
    },
    {
      "anonymous": false,
      "inputs": [
        {
          "indexed": false,
          "name": "owner",
          "type": "address"
        },
        {
          "indexed": false,
          "name": "motherId",
          "type": "uint256"
        },
        {
          "indexed": false,
          "name": "fatherId",
          "type": "uint256"
        }
      ],
      "name": "Pregnant",
      "type": "event"
    },
    {
      "anonymous": false,
      "inputs": [
        {
          "indexed": true,
          "name": "from",
          "type": "address"
        },
        {
          "indexed": true,
          "name": "to",
          "type": "address"
        },
        {
          "indexed": true,
          "name": "tokenId",
          "type": "uint256"
        }
      ],
      "name": "Transfer",
      "type": "event"
    },
    {
      "anonymous": false,
      "inputs": [
        {
          "indexed": true,
          "name": "owner",
          "type": "address"
        },
        {
          "indexed": true,
          "name": "approved",
          "type": "address"
        },
        {
          "indexed": true,
          "name": "tokenId",
          "type": "uint256"
        }
      ],
      "name": "Approval",
      "type": "event"
    },
    {
      "anonymous": false,
      "inputs": [
        {
          "indexed": true,
          "name": "owner",
          "type": "address"
        },
        {
          "indexed": false,
          "name": "eggId",
          "type": "uint256"
        },
        {
          "indexed": false,
          "name": "motherId",
          "type": "uint256"
        },
        {
          "indexed": false,
          "name": "fatherId",
          "type": "uint256"
        },
        {
          "indexed": false,
          "name": "genesF",
          "type": "uint256"
        },
        {
          "indexed": false,
          "name": "genesM",
          "type": "uint256"
        }
      ],
      "name": "EggBirth",
      "type": "event"
    },
    {
      "anonymous": false,
      "inputs": [
        {
          "indexed": true,
          "name": "owner",
          "type": "address"
        },
        {
          "indexed": false,
          "name": "dinosaursId",
          "type": "uint256"
        }
      ],
      "name": "DinosaurHatched",
      "type": "event"
    },
    {
      "anonymous": false,
      "inputs": [
        {
          "indexed": false,
          "name": "label",
          "type": "string"
        },
        {
          "indexed": false,
          "name": "value",
          "type": "uint256"
        }
      ],
      "name": "LogUint",
      "type": "event"
    },
    {
      "anonymous": false,
      "inputs": [
        {
          "indexed": false,
          "name": "label",
          "type": "string"
        },
        {
          "indexed": false,
          "name": "value",
          "type": "int256"
        }
      ],
      "name": "LogInt",
      "type": "event"
    }
  ],
  "bytecode": "0x608060405260008060006101000a81548160ff0219169083151502179055506000600460146101000a81548160ff0219169083151502179055506101c060405190810160405280603c63ffffffff1663ffffffff168152602001607863ffffffff1663ffffffff16815260200161012c63ffffffff1663ffffffff16815260200161025863ffffffff1663ffffffff16815260200161070863ffffffff1663ffffffff168152602001610e1063ffffffff1663ffffffff168152602001611c2063ffffffff1663ffffffff16815260200161384063ffffffff1663ffffffff16815260200161708063ffffffff1663ffffffff16815260200161e10063ffffffff1663ffffffff1681526020016201518063ffffffff1663ffffffff1681526020016202a30063ffffffff1663ffffffff1681526020016205460063ffffffff1663ffffffff16815260200162093a8063ffffffff1663ffffffff16815250600590600e62000170929190620002e3565b50612710600f55614e206010556001600460146101000a81548160ff02191690831515021790555033600060016101000a81548173ffffffffffffffffffffffffffffffffffffffff021916908373ffffffffffffffffffffffffffffffffffffffff16021790555033600160006101000a81548173ffffffffffffffffffffffffffffffffffffffff021916908373ffffffffffffffffffffffffffffffffffffffff16021790555033600260006101000a81548173ffffffffffffffffffffffffffffffffffffffff021916908373ffffffffffffffffffffffffffffffffffffffff16021790555033600360006101000a81548173ffffffffffffffffffffffffffffffffffffffff021916908373ffffffffffffffffffffffffffffffffffffffff16021790555033600460006101000a81548173ffffffffffffffffffffffffffffffffffffffff021916908373ffffffffffffffffffffffffffffffffffffffff160217905550620003c3565b82600e6007016008900481019282156200037a5791602002820160005b838211156200034657835183826101000a81548163ffffffff021916908363ffffffff160217905550926020019260040160208160030104928301926001030262000300565b8015620003785782816101000a81549063ffffffff021916905560040160208160030104928301926001030262000346565b505b5090506200038991906200038d565b5090565b620003c091905b80821115620003bc57600081816101000a81549063ffffffff02191690555060010162000394565b5090565b90565b61280780620003d36000396000f300608060405260043610610204576000357c0100000000000000000000000000000000000000000000000000000000900463ffffffff1680630519ce791461020957806305e455461461026057806306fdde031461028b578063095ea7b31461031b5780630a0f8168146103685780630f293e45146103bf5780631051db3414610416578063169365dd1461044557806318160ddd146104885780631f513660146104b357806323b872dd1461050a57806327d7874c146105775780632ba73c15146105ba5780632f745c59146105fd578063315ae4d41461065e5780633f4ba83a146106a1578063404d0e3e146106b857806346116e6f146106e3578063463c1019146107505780634e0a3379146107bb5780634ec9fe7c146107fe5780635c975abb146108c15780636352211e146108f05780636d5433e61461095d57806370a08231146109a85780637ae2b5c7146109ff5780638456cb5914610a4a57806395d89b4114610a615780639d6fac6f14610af15780639ebe8fe514610b3e578063a9059cbb14610b95578063b047fb5014610be2578063b531933514610c39578063bb654efa14610c64578063bc9ed28514610cf1578063c37361ad14610d5e578063c3d52b6114610dcb578063d33209cf14610e38578063ed56494114610e67578063f1ca941014610e9e578063f2c8a32714610ec9578063fe1439b414610ef4575b600080fd5b34801561021557600080fd5b5061021e610f37565b604051808273ffffffffffffffffffffffffffffffffffffffff1673ffffffffffffffffffffffffffffffffffffffff16815260200191505060405180910390f35b34801561026c57600080fd5b50610275610f5d565b6040518082815260200191505060405180910390f35b34801561029757600080fd5b506102a0610f63565b6040518080602001828103825283818151815260200191508051906020019080838360005b838110156102e05780820151818401526020810190506102c5565b50505050905090810190601f16801561030d5780820380516001836020036101000a031916815260200191505b509250505060405180910390f35b34801561032757600080fd5b50610366600480360381019080803573ffffffffffffffffffffffffffffffffffffffff16906020019092919080359060200190929190505050610fa0565b005b34801561037457600080fd5b5061037d611082565b604051808273ffffffffffffffffffffffffffffffffffffffff1673ffffffffffffffffffffffffffffffffffffffff16815260200191505060405180910390f35b3480156103cb57600080fd5b506103d46110a8565b604051808273ffffffffffffffffffffffffffffffffffffffff1673ffffffffffffffffffffffffffffffffffffffff16815260200191505060405180910390f35b34801561042257600080fd5b5061042b6110ce565b604051808215151515815260200191505060405180910390f35b34801561045157600080fd5b50610486600480360381019080803573ffffffffffffffffffffffffffffffffffffffff1690602001909291905050506110d7565b005b34801561049457600080fd5b5061049d61127f565b6040518082815260200191505060405180910390f35b3480156104bf57600080fd5b506104c861128f565b604051808273ffffffffffffffffffffffffffffffffffffffff1673ffffffffffffffffffffffffffffffffffffffff16815260200191505060405180910390f35b34801561051657600080fd5b50610575600480360381019080803573ffffffffffffffffffffffffffffffffffffffff169060200190929190803573ffffffffffffffffffffffffffffffffffffffff169060200190929190803590602001909291905050506112b5565b005b34801561058357600080fd5b506105b8600480360381019080803573ffffffffffffffffffffffffffffffffffffffff169060200190929190505050611363565b005b3480156105c657600080fd5b506105fb600480360381019080803573ffffffffffffffffffffffffffffffffffffffff16906020019092919050505061143f565b005b34801561060957600080fd5b50610648600480360381019080803573ffffffffffffffffffffffffffffffffffffffff1690602001909291908035906020019092919050505061151b565b6040518082815260200191505060405180910390f35b34801561066a57600080fd5b5061069f600480360381019080803573ffffffffffffffffffffffffffffffffffffffff1690602001909291905050506115db565b005b3480156106ad57600080fd5b506106b66116b7565b005b3480156106c457600080fd5b506106cd6117a3565b6040518082815260200191505060405180910390f35b3480156106ef57600080fd5b5061070e600480360381019080803590602001909291905050506117a9565b604051808273ffffffffffffffffffffffffffffffffffffffff1673ffffffffffffffffffffffffffffffffffffffff16815260200191505060405180910390f35b34801561075c57600080fd5b506107b960048036038101908080359060200190929190803590602001909291908035906020019092919080359060200190929190803573ffffffffffffffffffffffffffffffffffffffff1690602001909291905050506117dc565b005b3480156107c757600080fd5b506107fc600480360381019080803573ffffffffffffffffffffffffffffffffffffffff16906020019092919050505061193f565b005b34801561080a57600080fd5b5061082960048036038101908080359060200190929190505050611a1b565b604051808867ffffffffffffffff1667ffffffffffffffff1681526020018767ffffffffffffffff1667ffffffffffffffff1681526020018667ffffffffffffffff1667ffffffffffffffff1681526020018561ffff1661ffff1681526020018461ffff1661ffff1681526020018363ffffffff1663ffffffff16815260200182815260200197505050505050505060405180910390f35b3480156108cd57600080fd5b506108d6611ac5565b604051808215151515815260200191505060405180910390f35b3480156108fc57600080fd5b5061091b60048036038101908080359060200190929190505050611ad8565b604051808273ffffffffffffffffffffffffffffffffffffffff1673ffffffffffffffffffffffffffffffffffffffff16815260200191505060405180910390f35b34801561096957600080fd5b506109926004803603810190808035906020019092919080359060200190929190505050611b56565b6040518082815260200191505060405180910390f35b3480156109b457600080fd5b506109e9600480360381019080803573ffffffffffffffffffffffffffffffffffffffff169060200190929190505050611b6f565b6040518082815260200191505060405180910390f35b348015610a0b57600080fd5b50610a346004803603810190808035906020019092919080359060200190929190505050611bb8565b6040518082815260200191505060405180910390f35b348015610a5657600080fd5b50610a5f611bd1565b005b348015610a6d57600080fd5b50610a76611d6e565b6040518080602001828103825283818151815260200191508051906020019080838360005b83811015610ab6578082015181840152602081019050610a9b565b50505050905090810190601f168015610ae35780820380516001836020036101000a031916815260200191505b509250505060405180910390f35b348015610afd57600080fd5b50610b1c60048036038101908080359060200190929190505050611dab565b604051808263ffffffff1663ffffffff16815260200191505060405180910390f35b348015610b4a57600080fd5b50610b53611dda565b604051808273ffffffffffffffffffffffffffffffffffffffff1673ffffffffffffffffffffffffffffffffffffffff16815260200191505060405180910390f35b348015610ba157600080fd5b50610be0600480360381019080803573ffffffffffffffffffffffffffffffffffffffff16906020019092919080359060200190929190505050611e00565b005b348015610bee57600080fd5b50610bf7611e7c565b604051808273ffffffffffffffffffffffffffffffffffffffff1673ffffffffffffffffffffffffffffffffffffffff16815260200191505060405180910390f35b348015610c4557600080fd5b50610c4e611ea2565b6040518082815260200191505060405180910390f35b348015610c7057600080fd5b50610c8f60048036038101908080359060200190929190505050611ea8565b604051808667ffffffffffffffff1667ffffffffffffffff1681526020018567ffffffffffffffff1667ffffffffffffffff1681526020018461ffff1661ffff1681526020018381526020018281526020019550505050505060405180910390f35b348015610cfd57600080fd5b50610d1c60048036038101908080359060200190929190505050611f14565b604051808273ffffffffffffffffffffffffffffffffffffffff1673ffffffffffffffffffffffffffffffffffffffff16815260200191505060405180910390f35b348015610d6a57600080fd5b50610d8960048036038101908080359060200190929190505050611f47565b604051808273ffffffffffffffffffffffffffffffffffffffff1673ffffffffffffffffffffffffffffffffffffffff16815260200191505060405180910390f35b348015610dd757600080fd5b50610df660048036038101908080359060200190929190505050611f7a565b604051808273ffffffffffffffffffffffffffffffffffffffff1673ffffffffffffffffffffffffffffffffffffffff16815260200191505060405180910390f35b348015610e4457600080fd5b50610e4d611fad565b604051808215151515815260200191505060405180910390f35b348015610e7357600080fd5b50610e9c6004803603810190808035906020019092919080359060200190929190505050611fbf565b005b348015610eaa57600080fd5b50610eb36120ba565b6040518082815260200191505060405180910390f35b348015610ed557600080fd5b50610ede6120c0565b6040518082815260200191505060405180910390f35b348015610f0057600080fd5b50610f35600480360381019080803573ffffffffffffffffffffffffffffffffffffffff1690602001909291905050506120c8565b005b600260009054906101000a900473ffffffffffffffffffffffffffffffffffffffff1681565b60115481565b60606040805190810160405280600e81526020017f43727970746f44696e6f73617572000000000000000000000000000000000000815250905090565b600460149054906101000a900460ff16151515610fbc57600080fd5b610fc633826121a4565b1515610fd157600080fd5b81600b600083815260200190815260200160002060006101000a81548173ffffffffffffffffffffffffffffffffffffffff021916908373ffffffffffffffffffffffffffffffffffffffff160217905550808273ffffffffffffffffffffffffffffffffffffffff163373ffffffffffffffffffffffffffffffffffffffff167f8c5be1e5ebec7d5bd14f71427d1e84f3dd0314c0f7b2291e5b200ac8c7c3b92560405160405180910390a45050565b600060019054906101000a900473ffffffffffffffffffffffffffffffffffffffff1681565b601360009054906101000a900473ffffffffffffffffffffffffffffffffffffffff1681565b60006001905090565b6000600160009054906101000a900473ffffffffffffffffffffffffffffffffffffffff1673ffffffffffffffffffffffffffffffffffffffff163373ffffffffffffffffffffffffffffffffffffffff1614806111825750600060019054906101000a900473ffffffffffffffffffffffffffffffffffffffff1673ffffffffffffffffffffffffffffffffffffffff163373ffffffffffffffffffffffffffffffffffffffff16145b151561118d57600080fd5b8190508073ffffffffffffffffffffffffffffffffffffffff16633121db646040518163ffffffff167c0100000000000000000000000000000000000000000000000000000000028152600401602060405180830381600087803b1580156111f457600080fd5b505af1158015611208573d6000803e3d6000fd5b505050506040513d602081101561121e57600080fd5b8101908080519060200190929190505050151561123a57600080fd5b80601360006101000a81548173ffffffffffffffffffffffffffffffffffffffff021916908373ffffffffffffffffffffffffffffffffffffffff1602179055505050565b6000600160098054905003905090565b600160009054906101000a900473ffffffffffffffffffffffffffffffffffffffff1681565b600460149054906101000a900460ff161515156112d157600080fd5b3373ffffffffffffffffffffffffffffffffffffffff16600b600083815260200190815260200160002060009054906101000a900473ffffffffffffffffffffffffffffffffffffffff1673ffffffffffffffffffffffffffffffffffffffff1614151561133e57600080fd5b61134883826121a4565b151561135357600080fd5b61135e838383612210565b505050565b600060019054906101000a900473ffffffffffffffffffffffffffffffffffffffff1673ffffffffffffffffffffffffffffffffffffffff163373ffffffffffffffffffffffffffffffffffffffff161415156113bf57600080fd5b600073ffffffffffffffffffffffffffffffffffffffff168173ffffffffffffffffffffffffffffffffffffffff16141515156113fb57600080fd5b80600060016101000a81548173ffffffffffffffffffffffffffffffffffffffff021916908373ffffffffffffffffffffffffffffffffffffffff16021790555050565b600060019054906101000a900473ffffffffffffffffffffffffffffffffffffffff1673ffffffffffffffffffffffffffffffffffffffff163373ffffffffffffffffffffffffffffffffffffffff1614151561149b57600080fd5b600073ffffffffffffffffffffffffffffffffffffffff168173ffffffffffffffffffffffffffffffffffffffff16141515156114d757600080fd5b80600360006101000a81548173ffffffffffffffffffffffffffffffffffffffff021916908373ffffffffffffffffffffffffffffffffffffffff16021790555050565b6000806000806000925061152d61127f565b9150600190505b81811115156115cd578573ffffffffffffffffffffffffffffffffffffffff16600a600083815260200190815260200160002060009054906101000a900473ffffffffffffffffffffffffffffffffffffffff1673ffffffffffffffffffffffffffffffffffffffff1614156115c057848314156115b7578093508093506115d2565b82806001019350505b8080600101915050611534565b600080fd5b50505092915050565b600060019054906101000a900473ffffffffffffffffffffffffffffffffffffffff1673ffffffffffffffffffffffffffffffffffffffff163373ffffffffffffffffffffffffffffffffffffffff1614151561163757600080fd5b600073ffffffffffffffffffffffffffffffffffffffff168173ffffffffffffffffffffffffffffffffffffffff161415151561167357600080fd5b80600460006101000a81548173ffffffffffffffffffffffffffffffffffffffff021916908373ffffffffffffffffffffffffffffffffffffffff16021790555050565b600160009054906101000a900473ffffffffffffffffffffffffffffffffffffffff1673ffffffffffffffffffffffffffffffffffffffff163373ffffffffffffffffffffffffffffffffffffffff1614806117605750600060019054906101000a900473ffffffffffffffffffffffffffffffffffffffff1673ffffffffffffffffffffffffffffffffffffffff163373ffffffffffffffffffffffffffffffffffffffff16145b151561176b57600080fd5b600460149054906101000a900460ff16151561178657600080fd5b6000600460146101000a81548160ff021916908315150217905550565b60105481565b600c6020528060005260406000206000915054906101000a900473ffffffffffffffffffffffffffffffffffffffff1681565b6000600360009054906101000a900473ffffffffffffffffffffffffffffffffffffffff1673ffffffffffffffffffffffffffffffffffffffff163373ffffffffffffffffffffffffffffffffffffffff1614806118875750600060019054906101000a900473ffffffffffffffffffffffffffffffffffffffff1673ffffffffffffffffffffffffffffffffffffffff163373ffffffffffffffffffffffffffffffffffffffff16145b151561189257600080fd5b600073ffffffffffffffffffffffffffffffffffffffff168273ffffffffffffffffffffffffffffffffffffffff1614156118ed57600360009054906101000a900473ffffffffffffffffffffffffffffffffffffffff1691505b600f546011541015156118ff57600080fd5b6011600081548092919060010191905055506001869060020a026006879060020a0217905061193681600080600089898989612404565b50505050505050565b600060019054906101000a900473ffffffffffffffffffffffffffffffffffffffff1673ffffffffffffffffffffffffffffffffffffffff163373ffffffffffffffffffffffffffffffffffffffff1614151561199b57600080fd5b600073ffffffffffffffffffffffffffffffffffffffff168173ffffffffffffffffffffffffffffffffffffffff16141515156119d757600080fd5b80600260006101000a81548173ffffffffffffffffffffffffffffffffffffffff021916908373ffffffffffffffffffffffffffffffffffffffff16021790555050565b60086020528060005260406000206000915090508060000160009054906101000a900467ffffffffffffffff16908060000160089054906101000a900467ffffffffffffffff16908060000160109054906101000a900467ffffffffffffffff16908060000160189054906101000a900461ffff169080600001601a9054906101000a900461ffff169080600001601c9054906101000a900463ffffffff16908060010154905087565b600460149054906101000a900460ff1681565b600080600a600084815260200190815260200160002060009054906101000a900473ffffffffffffffffffffffffffffffffffffffff169050600073ffffffffffffffffffffffffffffffffffffffff168173ffffffffffffffffffffffffffffffffffffffff1614151515611b4d57600080fd5b80915050919050565b6000818311611b655781611b67565b825b905092915050565b6000600e60008373ffffffffffffffffffffffffffffffffffffffff1673ffffffffffffffffffffffffffffffffffffffff168152602001908152602001600020549050919050565b6000818311611bc75782611bc9565b815b905092915050565b600060019054906101000a900473ffffffffffffffffffffffffffffffffffffffff1673ffffffffffffffffffffffffffffffffffffffff163373ffffffffffffffffffffffffffffffffffffffff161480611c7a5750600160009054906101000a900473ffffffffffffffffffffffffffffffffffffffff1673ffffffffffffffffffffffffffffffffffffffff163373ffffffffffffffffffffffffffffffffffffffff16145b80611cd25750600260009054906101000a900473ffffffffffffffffffffffffffffffffffffffff1673ffffffffffffffffffffffffffffffffffffffff163373ffffffffffffffffffffffffffffffffffffffff16145b80611d2a5750600360009054906101000a900473ffffffffffffffffffffffffffffffffffffffff1673ffffffffffffffffffffffffffffffffffffffff163373ffffffffffffffffffffffffffffffffffffffff16145b1515611d3557600080fd5b600460149054906101000a900460ff16151515611d5157600080fd5b6001600460146101000a81548160ff021916908315150217905550565b60606040805190810160405280600481526020017f444e535200000000000000000000000000000000000000000000000000000000815250905090565b600581600e81101515611dba57fe5b60089182820401919006600402915054906101000a900463ffffffff1681565b600460009054906101000a900473ffffffffffffffffffffffffffffffffffffffff1681565b600460149054906101000a900460ff16151515611e1c57600080fd5b600073ffffffffffffffffffffffffffffffffffffffff168273ffffffffffffffffffffffffffffffffffffffff1614151515611e5857600080fd5b611e6233826121a4565b1515611e6d57600080fd5b611e78338383612210565b5050565b600360009054906101000a900473ffffffffffffffffffffffffffffffffffffffff1681565b600f5481565b60076020528060005260406000206000915090508060000160009054906101000a900467ffffffffffffffff16908060000160089054906101000a900467ffffffffffffffff16908060000160109054906101000a900461ffff16908060010154908060020154905085565b600d6020528060005260406000206000915054906101000a900473ffffffffffffffffffffffffffffffffffffffff1681565b600b6020528060005260406000206000915054906101000a900473ffffffffffffffffffffffffffffffffffffffff1681565b600a6020528060005260406000206000915054906101000a900473ffffffffffffffffffffffffffffffffffffffff1681565b6000809054906101000a900460ff1681565b600160009054906101000a900473ffffffffffffffffffffffffffffffffffffffff1673ffffffffffffffffffffffffffffffffffffffff163373ffffffffffffffffffffffffffffffffffffffff1614806120685750600060019054906101000a900473ffffffffffffffffffffffffffffffffffffffff1673ffffffffffffffffffffffffffffffffffffffff163373ffffffffffffffffffffffffffffffffffffffff16145b151561207357600080fd5b80600583600e8110151561208357fe5b600891828204019190066004026101000a81548163ffffffff021916908363ffffffff1602179055506120b66001612730565b5050565b60125481565b600042905090565b600060019054906101000a900473ffffffffffffffffffffffffffffffffffffffff1673ffffffffffffffffffffffffffffffffffffffff163373ffffffffffffffffffffffffffffffffffffffff1614151561212457600080fd5b600073ffffffffffffffffffffffffffffffffffffffff168173ffffffffffffffffffffffffffffffffffffffff161415151561216057600080fd5b80600160006101000a81548173ffffffffffffffffffffffffffffffffffffffff021916908373ffffffffffffffffffffffffffffffffffffffff16021790555050565b60008273ffffffffffffffffffffffffffffffffffffffff16600a600084815260200190815260200160002060009054906101000a900473ffffffffffffffffffffffffffffffffffffffff1673ffffffffffffffffffffffffffffffffffffffff1614905092915050565b600e60008373ffffffffffffffffffffffffffffffffffffffff1673ffffffffffffffffffffffffffffffffffffffff1681526020019081526020016000206000815480929190600101919050555081600a600083815260200190815260200160002060006101000a81548173ffffffffffffffffffffffffffffffffffffffff021916908373ffffffffffffffffffffffffffffffffffffffff160217905550600073ffffffffffffffffffffffffffffffffffffffff168373ffffffffffffffffffffffffffffffffffffffff161415156123a457600e60008473ffffffffffffffffffffffffffffffffffffffff1673ffffffffffffffffffffffffffffffffffffffff1681526020019081526020016000206000815480929190600190039190505550600b600082815260200190815260200160002060006101000a81549073ffffffffffffffffffffffffffffffffffffffff0219169055600c600082815260200190815260200160002060006101000a81549073ffffffffffffffffffffffffffffffffffffffff02191690555b808273ffffffffffffffffffffffffffffffffffffffff168473ffffffffffffffffffffffffffffffffffffffff167fddf252ad1be2c89b69c2b068fc378daa952ba7f163c4a11628f55a4df523b3ef60405160405180910390a4505050565b600061240e61274c565b6000612418612793565b63ffffffff80168b1115151561242d57600080fd5b63ffffffff80168a1115151561244257600080fd5b61ffff8016891115151561245557600080fd5b60a0604051908101604052808d61ffff1681526020018c63ffffffff1681526020018b63ffffffff1681526020018a61ffff168152602001600160ff168152509250600160098490806001815401808255809150509060018203906000526020600020016000909192909190915060008201518160000160006101000a81548161ffff021916908361ffff16021790555060208201518160000160026101000a81548163ffffffff021916908363ffffffff16021790555060408201518160000160066101000a81548163ffffffff021916908363ffffffff160217905550606082015181600001600a6101000a81548161ffff021916908361ffff160217905550608082015181600001600c6101000a81548160ff021916908360ff160217905550505003915063ffffffff8016821115151561259257600080fd5b60a0604051908101604052804267ffffffffffffffff168152602001600067ffffffffffffffff1681526020016000809054906101000a900460ff166125d857876125db565b60005b61ffff168152602001898152602001888152509050806007600084815260200190815260200160002060008201518160000160006101000a81548167ffffffffffffffff021916908367ffffffffffffffff16021790555060208201518160000160086101000a81548167ffffffffffffffff021916908367ffffffffffffffff16021790555060408201518160000160106101000a81548161ffff021916908361ffff16021790555060608201518160010155608082015181600201559050506126a860008684612210565b8473ffffffffffffffffffffffffffffffffffffffff167fff5fcd526f7b8177c4c59e304686a5ec6c7d8503ad40f5aef03e6c2447d3b1b6838d8d85606001518660800151604051808681526020018581526020018481526020018381526020018281526020019550505050505060405180910390a281935050505098975050505050505050565b806000806101000a81548160ff02191690831515021790555050565b60a060405190810160405280600061ffff168152602001600063ffffffff168152602001600063ffffffff168152602001600061ffff168152602001600060ff1681525090565b60a060405190810160405280600067ffffffffffffffff168152602001600067ffffffffffffffff168152602001600061ffff168152602001600081526020016000815250905600a165627a7a723058205d0b53b73e3089462312af760f140f281f6872cb3458c059a0bbd8be6b364f650029",
  "source": "pragma solidity ^0.4.18;\n\nimport \"./DinosaurBase.sol\";\nimport \"../Activities/Minting.sol\";\n\n// \n\ncontract DinosaurBreeding is Minting {\n    event HatchingEgg(address owner, uint256 indexed id, uint256 endTime);\n    event Pregnant(address owner, uint256 motherId, uint256 fatherId);\n\n    // \n    function _startHatchingEgg(uint256 _id) internal returns (uint64) {\n        DinosaurEgg storage _egg = eggs[_id];\n\n        _egg.hatchEndTime = uint64(now + cooldowns[_egg.hatchCDIndex]);\n\n        return _egg.hatchEndTime;\n    }\n\n    function _triggerBreedingCooldown (Dinosaur storage _dinosaur) private {\n        _dinosaur.breedingCDEndTime = uint64(now + cooldowns[_dinosaur.breedingCDIndex]);\n\n        if (_dinosaur.breedingCDIndex < (COOLDOWN_TABLE_SIZE - 1)) {\n            _dinosaur.breedingCDIndex += 1;\n        }\n    }\n\n    function _isReadyToBreed (uint256 _id) internal view returns(bool) {\n        Dinosaur memory _dinosaur = dinosaurs[_id];\n\n        require (_isDinosaurInFree(_id));\n\n        require(_dinosaur.seekingCDEndTime < now);\n        require(_dinosaur.breedingCDEndTime < now);\n        require(_dinosaur.siringWithId == 0);\n\n        return true;\n    }\n\n    function _canBreedWith (uint256 _motherId, uint256 _fatherId) internal view returns(bool) {\n        require(_motherId != _fatherId);\n\n        require(_isReadyToBreed(_motherId));\n        require(_isReadyToBreed(_fatherId));\n\n        address motherOwner = dinosaurIndexToOwner[_motherId];\n        address fatherOwner = dinosaurIndexToOwner[_fatherId];\n\n        return (motherOwner == fatherOwner || sireAllowedToAddress[_fatherId] == motherOwner);\n    }\n\n    // \n    // \n    function _breedWith(uint256 _motherId, uint256 _fatherId) internal {\n        Dinosaur storage _dinosaurM = dinosaurs[_motherId];\n        Dinosaur storage _dinosaurF = dinosaurs[_fatherId];\n\n        require((_dinosaurM.attributes & PLEASURE_MASK) >= 4);\n\n        _dinosaurM.siringWithId = uint32(_fatherId);\n\n        // \n        _triggerBreedingCooldown(_dinosaurM);\n        _triggerBreedingCooldown(_dinosaurF);\n\n        // TODO: genes\n\n        delete sireAllowedToAddress[_motherId];\n        delete sireAllowedToAddress[_fatherId];\n\n        if ((_dinosaurF.attributes & PLEASURE_MASK) < 10) {\n            _dinosaurF.attributes += 1;\n        }\n\n        _dinosaurM.attributes -= 4;\n\n        emit Pregnant(dinosaurIndexToOwner[_motherId], _motherId, _fatherId);\n    }\n\n    //  _addr  (_motherId)  _fatherId \n    function _approveSiring (address _addr, uint256 _fatherId) internal {\n\n        sireAllowedToAddress[_fatherId] = _addr;\n    }\n\n\n}\n",
  "sourcePath": "D:\\codebase\\blockchain\\ganacheDemo\\dinosaur\\contracts\\Jurassic\\DinosaurBreeding.sol",
  "compiler": {
    "name": "solc",
    "version": "0.4.24+commit.e67f0147.Emscripten.clang"
  },
  "schemaVersion": "2.0.1",
  "updatedAt": "2018-09-06T02:54:23.623Z"
}