{
  "contractName": "GeneticAlgorithm",
  "abi": [
    {
      "constant": true,
      "inputs": [],
      "name": "cfoAddress",
      "outputs": [
        {
          "name": "",
          "type": "address"
        }
      ],
      "payable": false,
      "stateMutability": "view",
      "type": "function"
    },
    {
      "constant": true,
      "inputs": [],
      "name": "ceoAddress",
      "outputs": [
        {
          "name": "",
          "type": "address"
        }
      ],
      "payable": false,
      "stateMutability": "view",
      "type": "function"
    },
    {
      "constant": true,
      "inputs": [],
      "name": "ctoAddress",
      "outputs": [
        {
          "name": "",
          "type": "address"
        }
      ],
      "payable": false,
      "stateMutability": "view",
      "type": "function"
    },
    {
      "constant": false,
      "inputs": [
        {
          "name": "_newCEO",
          "type": "address"
        }
      ],
      "name": "setCEO",
      "outputs": [],
      "payable": false,
      "stateMutability": "nonpayable",
      "type": "function"
    },
    {
      "constant": false,
      "inputs": [
        {
          "name": "_newCOO",
          "type": "address"
        }
      ],
      "name": "setCOO",
      "outputs": [],
      "payable": false,
      "stateMutability": "nonpayable",
      "type": "function"
    },
    {
      "constant": false,
      "inputs": [
        {
          "name": "_newSYS",
          "type": "address"
        }
      ],
      "name": "setSYS",
      "outputs": [],
      "payable": false,
      "stateMutability": "nonpayable",
      "type": "function"
    },
    {
      "constant": false,
      "inputs": [],
      "name": "unpause",
      "outputs": [],
      "payable": false,
      "stateMutability": "nonpayable",
      "type": "function"
    },
    {
      "constant": false,
      "inputs": [
        {
          "name": "_newCFO",
          "type": "address"
        }
      ],
      "name": "setCFO",
      "outputs": [],
      "payable": false,
      "stateMutability": "nonpayable",
      "type": "function"
    },
    {
      "constant": true,
      "inputs": [],
      "name": "paused",
      "outputs": [
        {
          "name": "",
          "type": "bool"
        }
      ],
      "payable": false,
      "stateMutability": "view",
      "type": "function"
    },
    {
      "constant": true,
      "inputs": [
        {
          "name": "a",
          "type": "uint256"
        },
        {
          "name": "b",
          "type": "uint256"
        }
      ],
      "name": "max",
      "outputs": [
        {
          "name": "",
          "type": "uint256"
        }
      ],
      "payable": false,
      "stateMutability": "pure",
      "type": "function"
    },
    {
      "constant": true,
      "inputs": [
        {
          "name": "a",
          "type": "uint256"
        },
        {
          "name": "b",
          "type": "uint256"
        }
      ],
      "name": "min",
      "outputs": [
        {
          "name": "",
          "type": "uint256"
        }
      ],
      "payable": false,
      "stateMutability": "pure",
      "type": "function"
    },
    {
      "constant": false,
      "inputs": [],
      "name": "pause",
      "outputs": [],
      "payable": false,
      "stateMutability": "nonpayable",
      "type": "function"
    },
    {
      "constant": true,
      "inputs": [],
      "name": "sysAddress",
      "outputs": [
        {
          "name": "",
          "type": "address"
        }
      ],
      "payable": false,
      "stateMutability": "view",
      "type": "function"
    },
    {
      "constant": true,
      "inputs": [],
      "name": "jurassicAddr",
      "outputs": [
        {
          "name": "",
          "type": "address"
        }
      ],
      "payable": false,
      "stateMutability": "view",
      "type": "function"
    },
    {
      "constant": true,
      "inputs": [],
      "name": "cooAddress",
      "outputs": [
        {
          "name": "",
          "type": "address"
        }
      ],
      "payable": false,
      "stateMutability": "view",
      "type": "function"
    },
    {
      "constant": true,
      "inputs": [],
      "name": "unit_test",
      "outputs": [
        {
          "name": "",
          "type": "bool"
        }
      ],
      "payable": false,
      "stateMutability": "view",
      "type": "function"
    },
    {
      "constant": true,
      "inputs": [],
      "name": "nowtime",
      "outputs": [
        {
          "name": "",
          "type": "uint256"
        }
      ],
      "payable": false,
      "stateMutability": "view",
      "type": "function"
    },
    {
      "constant": false,
      "inputs": [
        {
          "name": "_newCTO",
          "type": "address"
        }
      ],
      "name": "setCTO",
      "outputs": [],
      "payable": false,
      "stateMutability": "nonpayable",
      "type": "function"
    },
    {
      "inputs": [
        {
          "name": "_jurassic",
          "type": "address"
        }
      ],
      "payable": false,
      "stateMutability": "nonpayable",
      "type": "constructor"
    },
    {
      "anonymous": false,
      "inputs": [
        {
          "indexed": false,
          "name": "label",
          "type": "string"
        },
        {
          "indexed": false,
          "name": "value",
          "type": "uint256"
        }
      ],
      "name": "LogUint",
      "type": "event"
    },
    {
      "anonymous": false,
      "inputs": [
        {
          "indexed": false,
          "name": "label",
          "type": "string"
        },
        {
          "indexed": false,
          "name": "value",
          "type": "int256"
        }
      ],
      "name": "LogInt",
      "type": "event"
    },
    {
      "constant": true,
      "inputs": [],
      "name": "implementsGenetic",
      "outputs": [
        {
          "name": "",
          "type": "bool"
        }
      ],
      "payable": false,
      "stateMutability": "pure",
      "type": "function"
    },
    {
      "constant": true,
      "inputs": [
        {
          "name": "_motherKind",
          "type": "uint256"
        },
        {
          "name": "_fatherKind",
          "type": "uint256"
        }
      ],
      "name": "buildKind",
      "outputs": [
        {
          "name": "",
          "type": "uint256"
        }
      ],
      "payable": false,
      "stateMutability": "view",
      "type": "function"
    },
    {
      "constant": true,
      "inputs": [
        {
          "name": "_motherGenesF",
          "type": "uint256"
        },
        {
          "name": "_motherGenesM",
          "type": "uint256"
        },
        {
          "name": "_fatherGenesF",
          "type": "uint256"
        },
        {
          "name": "_fatherGenesM",
          "type": "uint256"
        }
      ],
      "name": "inheritedGenes",
      "outputs": [
        {
          "name": "_genesF",
          "type": "uint256"
        },
        {
          "name": "_genesM",
          "type": "uint256"
        },
        {
          "name": "_hatchCDIndex",
          "type": "uint256"
        }
      ],
      "payable": false,
      "stateMutability": "view",
      "type": "function"
    },
    {
      "constant": true,
      "inputs": [
        {
          "name": "_genes",
          "type": "uint256"
        }
      ],
      "name": "parseStrength",
      "outputs": [
        {
          "name": "",
          "type": "uint256"
        }
      ],
      "payable": false,
      "stateMutability": "view",
      "type": "function"
    },
    {
      "constant": true,
      "inputs": [
        {
          "name": "_genes",
          "type": "uint256"
        }
      ],
      "name": "parseIntelligence",
      "outputs": [
        {
          "name": "",
          "type": "uint256"
        }
      ],
      "payable": false,
      "stateMutability": "view",
      "type": "function"
    },
    {
      "constant": true,
      "inputs": [
        {
          "name": "_genes",
          "type": "uint256"
        }
      ],
      "name": "parseAgile",
      "outputs": [
        {
          "name": "",
          "type": "uint256"
        }
      ],
      "payable": false,
      "stateMutability": "view",
      "type": "function"
    },
    {
      "constant": true,
      "inputs": [
        {
          "name": "_genes",
          "type": "uint256"
        }
      ],
      "name": "parseLucky",
      "outputs": [
        {
          "name": "",
          "type": "uint256"
        }
      ],
      "payable": false,
      "stateMutability": "view",
      "type": "function"
    },
    {
      "constant": true,
      "inputs": [
        {
          "name": "generationF",
          "type": "uint256"
        },
        {
          "name": "generationM",
          "type": "uint256"
        },
        {
          "name": "maxIndex",
          "type": "uint256"
        }
      ],
      "name": "calcBreedingIndex",
      "outputs": [
        {
          "name": "",
          "type": "uint256"
        }
      ],
      "payable": false,
      "stateMutability": "pure",
      "type": "function"
    },
    {
      "constant": true,
      "inputs": [
        {
          "name": "_randSeed",
          "type": "uint256"
        }
      ],
      "name": "buildGen0Genes",
      "outputs": [
        {
          "name": "_genesF",
          "type": "uint256"
        },
        {
          "name": "_genesM",
          "type": "uint256"
        },
        {
          "name": "_kind",
          "type": "uint256"
        },
        {
          "name": "_hatchCDIndex",
          "type": "uint256"
        }
      ],
      "payable": false,
      "stateMutability": "view",
      "type": "function"
    }
  ],
  "bytecode": "0x608060405260008060146101000a81548160ff0219169083151502179055506000600560146101000a81548160ff0219169083151502179055506801ffffffffffffffff6006557003fffffffffffffffe00000000000000006007557807fffffffffffffffc000000000000000000000000000000006008557c07fffffff800000000000000000000000000000000000000000000000060095561ffff600a556103e0600b55601f600c553480156100b657600080fd5b50604051602080611f78833981018060405281019080805190602001909291905050506001600560146101000a81548160ff02191690831515021790555033600160006101000a81548173ffffffffffffffffffffffffffffffffffffffff021916908373ffffffffffffffffffffffffffffffffffffffff16021790555033600260006101000a81548173ffffffffffffffffffffffffffffffffffffffff021916908373ffffffffffffffffffffffffffffffffffffffff16021790555033600360006101000a81548173ffffffffffffffffffffffffffffffffffffffff021916908373ffffffffffffffffffffffffffffffffffffffff16021790555033600460006101000a81548173ffffffffffffffffffffffffffffffffffffffff021916908373ffffffffffffffffffffffffffffffffffffffff16021790555033600560006101000a81548173ffffffffffffffffffffffffffffffffffffffff021916908373ffffffffffffffffffffffffffffffffffffffff160217905550806000806101000a81548173ffffffffffffffffffffffffffffffffffffffff021916908373ffffffffffffffffffffffffffffffffffffffff16021790555050611cef806102896000396000f30060806040526004361061015f576000357c0100000000000000000000000000000000000000000000000000000000900463ffffffff1680630519ce79146101645780630a0f8168146101bb57806317c334b6146102125780631f5136601461025357806327d7874c146102aa5780632ba73c15146102ed5780633121db6414610330578063315ae4d41461035f5780633f4ba83a146103a25780634e0a3379146103b95780635c975abb146103fc5780636d5433e61461042b5780636f03addf146104765780637ae2b5c7146104c15780638456cb591461050c57806390937535146105235780639573a5b1146105645780639ebe8fe5146105ba578063a688e4c314610611578063b047fb5014610668578063bb0e8a37146106bf578063d33209cf14610714578063ec86e31814610743578063f2c8a32714610784578063f3d288f4146107af578063f83d742b146107f0578063fe1439b41461085d575b600080fd5b34801561017057600080fd5b506101796108a0565b604051808273ffffffffffffffffffffffffffffffffffffffff1673ffffffffffffffffffffffffffffffffffffffff16815260200191505060405180910390f35b3480156101c757600080fd5b506101d06108c6565b604051808273ffffffffffffffffffffffffffffffffffffffff1673ffffffffffffffffffffffffffffffffffffffff16815260200191505060405180910390f35b34801561021e57600080fd5b5061023d600480360381019080803590602001909291905050506108ec565b6040518082815260200191505060405180910390f35b34801561025f57600080fd5b5061026861095d565b604051808273ffffffffffffffffffffffffffffffffffffffff1673ffffffffffffffffffffffffffffffffffffffff16815260200191505060405180910390f35b3480156102b657600080fd5b506102eb600480360381019080803573ffffffffffffffffffffffffffffffffffffffff169060200190929190505050610983565b005b3480156102f957600080fd5b5061032e600480360381019080803573ffffffffffffffffffffffffffffffffffffffff169060200190929190505050610a5f565b005b34801561033c57600080fd5b50610345610b3b565b604051808215151515815260200191505060405180910390f35b34801561036b57600080fd5b506103a0600480360381019080803573ffffffffffffffffffffffffffffffffffffffff169060200190929190505050610b44565b005b3480156103ae57600080fd5b506103b7610c20565b005b3480156103c557600080fd5b506103fa600480360381019080803573ffffffffffffffffffffffffffffffffffffffff169060200190929190505050610d0c565b005b34801561040857600080fd5b50610411610de8565b604051808215151515815260200191505060405180910390f35b34801561043757600080fd5b506104606004803603810190808035906020019092919080359060200190929190505050610dfb565b6040518082815260200191505060405180910390f35b34801561048257600080fd5b506104ab6004803603810190808035906020019092919080359060200190929190505050610e14565b6040518082815260200191505060405180910390f35b3480156104cd57600080fd5b506104f66004803603810190808035906020019092919080359060200190929190505050610ef1565b6040518082815260200191505060405180910390f35b34801561051857600080fd5b50610521610f0a565b005b34801561052f57600080fd5b5061054e600480360381019080803590602001909291905050506110a7565b6040518082815260200191505060405180910390f35b34801561057057600080fd5b5061058f60048036038101908080359060200190929190505050611118565b6040518085815260200184815260200183815260200182815260200194505050505060405180910390f35b3480156105c657600080fd5b506105cf6111ae565b604051808273ffffffffffffffffffffffffffffffffffffffff1673ffffffffffffffffffffffffffffffffffffffff16815260200191505060405180910390f35b34801561061d57600080fd5b506106266111d4565b604051808273ffffffffffffffffffffffffffffffffffffffff1673ffffffffffffffffffffffffffffffffffffffff16815260200191505060405180910390f35b34801561067457600080fd5b5061067d6111f9565b604051808273ffffffffffffffffffffffffffffffffffffffff1673ffffffffffffffffffffffffffffffffffffffff16815260200191505060405180910390f35b3480156106cb57600080fd5b506106fe60048036038101908080359060200190929190803590602001909291908035906020019092919050505061121f565b6040518082815260200191505060405180910390f35b34801561072057600080fd5b50610729611242565b604051808215151515815260200191505060405180910390f35b34801561074f57600080fd5b5061076e60048036038101908080359060200190929190505050611255565b6040518082815260200191505060405180910390f35b34801561079057600080fd5b506107996112c6565b6040518082815260200191505060405180910390f35b3480156107bb57600080fd5b506107da600480360381019080803590602001909291905050506112ce565b6040518082815260200191505060405180910390f35b3480156107fc57600080fd5b5061083960048036038101908080359060200190929190803590602001909291908035906020019092919080359060200190929190505050611337565b60405180848152602001838152602001828152602001935050505060405180910390f35b34801561086957600080fd5b5061089e600480360381019080803573ffffffffffffffffffffffffffffffffffffffff16906020019092919050505061140f565b005b600360009054906101000a900473ffffffffffffffffffffffffffffffffffffffff1681565b600160009054906101000a900473ffffffffffffffffffffffffffffffffffffffff1681565b60008060009054906101000a900473ffffffffffffffffffffffffffffffffffffffff1673ffffffffffffffffffffffffffffffffffffffff163373ffffffffffffffffffffffffffffffffffffffff1614151561094957600080fd5b60c360095483169060020a90049050919050565b600260009054906101000a900473ffffffffffffffffffffffffffffffffffffffff1681565b600160009054906101000a900473ffffffffffffffffffffffffffffffffffffffff1673ffffffffffffffffffffffffffffffffffffffff163373ffffffffffffffffffffffffffffffffffffffff161415156109df57600080fd5b600073ffffffffffffffffffffffffffffffffffffffff168173ffffffffffffffffffffffffffffffffffffffff1614151515610a1b57600080fd5b80600160006101000a81548173ffffffffffffffffffffffffffffffffffffffff021916908373ffffffffffffffffffffffffffffffffffffffff16021790555050565b600160009054906101000a900473ffffffffffffffffffffffffffffffffffffffff1673ffffffffffffffffffffffffffffffffffffffff163373ffffffffffffffffffffffffffffffffffffffff16141515610abb57600080fd5b600073ffffffffffffffffffffffffffffffffffffffff168173ffffffffffffffffffffffffffffffffffffffff1614151515610af757600080fd5b80600460006101000a81548173ffffffffffffffffffffffffffffffffffffffff021916908373ffffffffffffffffffffffffffffffffffffffff16021790555050565b60006001905090565b600160009054906101000a900473ffffffffffffffffffffffffffffffffffffffff1673ffffffffffffffffffffffffffffffffffffffff163373ffffffffffffffffffffffffffffffffffffffff16141515610ba057600080fd5b600073ffffffffffffffffffffffffffffffffffffffff168173ffffffffffffffffffffffffffffffffffffffff1614151515610bdc57600080fd5b80600560006101000a81548173ffffffffffffffffffffffffffffffffffffffff021916908373ffffffffffffffffffffffffffffffffffffffff16021790555050565b600260009054906101000a900473ffffffffffffffffffffffffffffffffffffffff1673ffffffffffffffffffffffffffffffffffffffff163373ffffffffffffffffffffffffffffffffffffffff161480610cc95750600160009054906101000a900473ffffffffffffffffffffffffffffffffffffffff1673ffffffffffffffffffffffffffffffffffffffff163373ffffffffffffffffffffffffffffffffffffffff16145b1515610cd457600080fd5b600560149054906101000a900460ff161515610cef57600080fd5b6000600560146101000a81548160ff021916908315150217905550565b600160009054906101000a900473ffffffffffffffffffffffffffffffffffffffff1673ffffffffffffffffffffffffffffffffffffffff163373ffffffffffffffffffffffffffffffffffffffff16141515610d6857600080fd5b600073ffffffffffffffffffffffffffffffffffffffff168173ffffffffffffffffffffffffffffffffffffffff1614151515610da457600080fd5b80600360006101000a81548173ffffffffffffffffffffffffffffffffffffffff021916908373ffffffffffffffffffffffffffffffffffffffff16021790555050565b600560149054906101000a900460ff1681565b6000818311610e0a5781610e0c565b825b905092915050565b60008060008060008060009054906101000a900473ffffffffffffffffffffffffffffffffffffffff1673ffffffffffffffffffffffffffffffffffffffff163373ffffffffffffffffffffffffffffffffffffffff16141515610e7757600080fd5b610e856000606460016114eb565b9350610e956000606460026114eb565b925060328411610ea957600c548716610eb7565b6005600b5488169060020a90045b915060328311610ecb57600c548616610ed9565b6005600b5487169060020a90045b9050806005839060020a021794505050505092915050565b6000818311610f005782610f02565b815b905092915050565b600160009054906101000a900473ffffffffffffffffffffffffffffffffffffffff1673ffffffffffffffffffffffffffffffffffffffff163373ffffffffffffffffffffffffffffffffffffffff161480610fb35750600260009054906101000a900473ffffffffffffffffffffffffffffffffffffffff1673ffffffffffffffffffffffffffffffffffffffff163373ffffffffffffffffffffffffffffffffffffffff16145b8061100b5750600360009054906101000a900473ffffffffffffffffffffffffffffffffffffffff1673ffffffffffffffffffffffffffffffffffffffff163373ffffffffffffffffffffffffffffffffffffffff16145b806110635750600460009054906101000a900473ffffffffffffffffffffffffffffffffffffffff1673ffffffffffffffffffffffffffffffffffffffff163373ffffffffffffffffffffffffffffffffffffffff16145b151561106e57600080fd5b600560149054906101000a900460ff1615151561108a57600080fd5b6001600560146101000a81548160ff021916908315150217905550565b60008060009054906101000a900473ffffffffffffffffffffffffffffffffffffffff1673ffffffffffffffffffffffffffffffffffffffff163373ffffffffffffffffffffffffffffffffffffffff1614151561110457600080fd5b608260085483169060020a90049050919050565b60008060008060008061112d60648801611636565b955061113b60c88801611636565b945061114d60006002600a8a016114eb565b600161115f60016005600a8c016114eb565b9060020a021791506111776000600260148a016114eb565b60016111896001600560148c016114eb565b9060020a02179050806005839060020a02179350600661ffff16925050509193509193565b600560009054906101000a900473ffffffffffffffffffffffffffffffffffffffff1681565b6000809054906101000a900473ffffffffffffffffffffffffffffffffffffffff1681565b600460009054906101000a900473ffffffffffffffffffffffffffffffffffffffff1681565b6000611239600284860181151561123257fe5b0483610ef1565b90509392505050565b600060149054906101000a900460ff1681565b60008060009054906101000a900473ffffffffffffffffffffffffffffffffffffffff1673ffffffffffffffffffffffffffffffffffffffff163373ffffffffffffffffffffffffffffffffffffffff161415156112b257600080fd5b604160075483169060020a90049050919050565b600042905090565b60008060009054906101000a900473ffffffffffffffffffffffffffffffffffffffff1673ffffffffffffffffffffffffffffffffffffffff163373ffffffffffffffffffffffffffffffffffffffff1614151561132b57600080fd5b60065482169050919050565b60008060008060008060008060009054906101000a900473ffffffffffffffffffffffffffffffffffffffff1673ffffffffffffffffffffffffffffffffffffffff163373ffffffffffffffffffffffffffffffffffffffff1614151561139d57600080fd5b6113ab6000606460016114eb565b93506113bb6000606460026114eb565b9250603284116113cb57896113cd565b8a5b9150603283116113dd57876113df565b885b90506113eb8285611695565b96506113f78184611695565b9550600661ffff169450505050509450945094915050565b600160009054906101000a900473ffffffffffffffffffffffffffffffffffffffff1673ffffffffffffffffffffffffffffffffffffffff163373ffffffffffffffffffffffffffffffffffffffff1614151561146b57600080fd5b600073ffffffffffffffffffffffffffffffffffffffff168173ffffffffffffffffffffffffffffffffffffffff16141515156114a757600080fd5b80600260006101000a81548173ffffffffffffffffffffffffffffffffffffffff021916908373ffffffffffffffffffffffffffffffffffffffff16021790555050565b60008082438115156114f957fe5b068360405160200180838152602001828152602001925050506040516020818303038152906040526040518082805190602001908083835b6020831015156115565780518252602082019150602081019050602083039250611531565b6001836020036101000a03801982511681845116808217855250505050505090500191505060405180910390206001900461040043014260405160200180838152602001828152602001925050506040516020818303038152906040526040518082805190602001908083835b6020831015156115e857805182526020820191506020810190506020830392506115c3565b6001836020036101000a038019825116818451168082178552505050505050905001915050604051809103902060019004019050848585038281151561162a57fe5b06019150509392505050565b600080600080600061164c600a87016000611734565b935061165c601487016000611734565b925061166c601e87016000611734565b915061167c602887016001611734565b905061168a8484848461186a565b945050505050919050565b6000806000806000806000806000806116b1606460838d6114eb565b98506116bc8c6112ce565b97506116c78c611255565b96506116d28c6110a7565b95506116dd8c6108ec565b94506116eb888a6000611897565b93506116f9878a6000611897565b9250611707868a6000611897565b9150611715858a6001611897565b90506117238484848461186a565b995050505050505050505092915050565b60008060008060008060008060008060008060018e019a5061175a60016103e88d611922565b809a50819b50829c50839d50849e50859f5050505050505061178060016103e88d6114eb565b9350600092506001915060328a1115156117a1576001925060159150611800565b60968a1115156117b85760029250601b91506117ff565b61012c8a1115156117d05760039250602191506117fe565b6102588a1115156117e85760049250602791506117fd565b6103e88a1115156117fc5760059250602d91505b5b5b5b5b8990506118108184848c88611b25565b905061181f8184848b88611b25565b90508c1515611856576118358184848a88611b25565b90506118448184848988611b25565b90506118538184848888611b25565b90505b809b50505050505050505050505092915050565b600080856041869060020a026082869060020a0260c3869060020a02171717905080915050949350505050565b6000806000806000806000806118ad8b8a611b6a565b809750819850829950839a50849b50859c505050505050508690508815156118f7576118da81878c611c00565b90506118e781868c611c00565b90506118f481858c611c00565b90505b61190281848c611c00565b905061190f81838c611c00565b9050809750505050505050509392505050565b6000806000806000806000620100008910151561193e57600080fd5b874381151561194957fe5b068860405160200180838152602001828152602001925050506040516020818303038152906040526040518082805190602001908083835b6020831015156119a65780518252602082019150602081019050602083039250611981565b6001836020036101000a03801982511681845116808217855250505050505090500191505060405180910390206001900461040043014260405160200180838152602001828152602001925050506040516020818303038152906040526040518082805190602001908083835b602083101515611a385780518252602082019150602081019050602083039250611a13565b6001836020036101000a038019825116818451168082178552505050505050905001915050604051809103902060019004019050898a8a03600a548316811515611a7e57fe5b06019650898a8a03600a546010849060020a900416811515611a9c57fe5b06019550898a8a03600a546020849060020a900416811515611aba57fe5b06019450898a8a03600a546030849060020a900416811515611ad857fe5b06019350898a8a03600a546040849060020a900416811515611af657fe5b06019250898a8a03600a546050849060020a900416811515611b1457fe5b060191505093975093979195509350565b600080611b33868686611c57565b9050828411611b43576000611b46565b60015b60ff166001829060020a02600b899060020a02171796508691505095945050505050565b6000806000806000808615611ba3576107ff881690506107ff600b899060020a90041691506103ff6016899060020a9004169550611bf6565b6107ff881690506107ff600b899060020a90041691506107ff6016899060020a90041692506107ff6021899060020a90041693506107ff602c899060020a90041694506103ff6037899060020a90041695505b9295509295509295565b600080611c246064846001879060020a900402811515611c1c57fe5b046001610dfb565b9050611c32816103e7610ef1565b9050600184166001829060020a02600b879060020a0217179450849150509392505050565b6000806000808692508691505b8582111515611c9c5785826103e802811515611c7c57fe5b0485111515611c8a57611c9c565b82806001019350508282019150611c64565b6001606486811515611caa57fe5b06606460018603020101905080935050505093925050505600a165627a7a723058205afd718da6bbcc5cddc2efbbb94ed57e150c0be2eab1ae73f17e75bcbe7746930029",
  "source": "pragma solidity ^0.4.18;\n\nimport \"./GeneticAlgorithmInterface.sol\";\nimport \"../ControlCenter.sol\";\n\n/**\n * The GeneticAlgorithm contract\n */\ncontract GeneticAlgorithm is GeneticAlgorithmInterface, ControlCenter {\n\n    // \n    uint256 STRENGTH_MASK     = 0x000000000000000000000000000000000000000000000001FFFFFFFFFFFFFFFF;\n    uint256 INTELLIGENCE_MASK = 0x00000000000000000000000000000003FFFFFFFFFFFFFFFE0000000000000000;\n    uint256 AGILE_MASK        = 0x0000000000000007FFFFFFFFFFFFFFFC00000000000000000000000000000000;\n    uint256 LUCKY_MASK        = 0x00000007FFFFFFF8000000000000000000000000000000000000000000000000;\n\n    uint256 MULTIPLE_RAND_MASK = 0x0000000000000000000000000000FFFF;\n\n    uint256 KIND1_MASK = 0x3E0;\n    uint256 KIND2_MASK = 0x01F;\n\n    uint16 constant HATCHING_CD_INDEX = 6;\n    uint16 constant SEEKING_CD_INDEX = 7;\n\n    // 4\n    uint256 constant KIND_COUNT = 4;\n\n    constructor(address _jurassic) public {\n        jurassicAddr = _jurassic;\n    }\n\n    function implementsGenetic() public pure returns (bool) {\n        return true;\n    }\n\n    // function buildAttributes (uint256 _genesF, uint256 _genesM) public view onlyJurassic returns (uint256 _attr, uint256 _seekingCDIndex, uint256 _breedingCDIndex) {\n    //     _attr = _genesF;\n    //     _attr = _genesM;\n\n    //     // \n    //     _attr = 10;\n\n    //     _seekingCDIndex = unit_test ? 0 : 4 hours;\n    //     _breedingCDIndex = unit_test ? 0 : 2 hours;\n    // }\n\n    /**\n     *  \n     */\n    function buildKind (uint256 _motherKind, uint256 _fatherKind)\n        public view onlyJurassic\n        returns (uint256)\n    {\n        uint256 rand1 = _randBetween(0, 100, 1);\n        uint256 rand2 = _randBetween(0, 100, 2);\n\n        // \n        uint256 kind1 = rand1 > 50 ? (_motherKind & KIND1_MASK) >> 5 : (_motherKind & KIND2_MASK);\n        uint256 kind2 = rand2 > 50 ? (_fatherKind & KIND1_MASK) >> 5 : (_fatherKind & KIND2_MASK);\n\n        return (kind1 << 5 | kind2);\n    }\n\n    function inheritedGenes (uint256 _motherGenesF,\n                             uint256 _motherGenesM,\n                             uint256 _fatherGenesF,\n                             uint256 _fatherGenesM)\n        public view onlyJurassic\n        returns (uint256 _genesF, uint256 _genesM, uint256 _hatchCDIndex)\n    {\n        uint256 rand1 = _randBetween(0, 100, 1);\n        uint256 rand2 = _randBetween(0, 100, 2);\n\n        uint256 usedGenes1 = rand1 > 50 ? _motherGenesF : _motherGenesM;\n        uint256 usedGenes2 = rand2 > 50 ? _fatherGenesF : _fatherGenesM;\n\n        _genesF = _inheritedOneGenes(usedGenes1, rand1);\n        _genesM = _inheritedOneGenes(usedGenes2, rand2);\n\n        _hatchCDIndex = HATCHING_CD_INDEX;//_randBetween(0, 14, 3);\n    }\n\n\n    function _inheritedOneGenes (uint256 _genes, uint256 _seed) private view returns (uint256) {\n        uint256 heredityValue = _randBetween(100, 131, _seed);\n\n        uint256 s = parseStrength(_genes);\n        uint256 i = parseIntelligence(_genes);\n        uint256 a = parseAgile(_genes);\n        uint256 l = parseLucky(_genes);\n\n        uint256 _strength     = _inheritedSingleAttribute(s, heredityValue, false);\n        uint256 _intelligence = _inheritedSingleAttribute(i, heredityValue, false);\n        uint256 _agile        = _inheritedSingleAttribute(a, heredityValue, false);\n        uint256 _lucky        = _inheritedSingleAttribute(l, heredityValue, true);\n\n        return _packGenes(_strength, _intelligence, _agile, _lucky);\n\n    }\n\n    function _inheritedSingleAttribute (uint256 _genes, uint256 _randValue, bool _isLucky) private pure returns (uint256) {\n        uint256 gene0;\n        uint256 gene1;\n        uint256 gene2;\n        uint256 gene3;\n        uint256 gene4;\n        uint256 gene5;\n        (gene0, gene1, gene2, gene3, gene4, gene5) = _parseOneGene(_genes, _isLucky);\n\n        uint256 genes = gene0;\n        if (!_isLucky) {\n            genes = _inheritedSignleGene(genes, gene1, _randValue);\n            genes = _inheritedSignleGene(genes, gene2, _randValue);\n            genes = _inheritedSignleGene(genes, gene3, _randValue);\n        }\n        genes = _inheritedSignleGene(genes, gene4, _randValue);\n        genes = _inheritedSignleGene(genes, gene5, _randValue);\n\n        return genes;\n    }\n\n    function _inheritedSignleGene (uint256 genes, uint256 _gene, uint256 _randValue) private pure returns (uint256) {\n        uint256 gene = max((_gene >> 1) * _randValue / 100, 1);\n        gene = min(gene, 999);\n        genes = (genes << 11) | gene << 1 | _gene & 0x01;\n\n        return genes;\n    }\n\n    // gene0 \n    function _parseOneGene (uint256 _gene, bool _isLucky) private pure\n        returns (uint256 gene0, uint256 gene1, uint256 gene2, uint256 gene3, uint256 gene4, uint256 gene5)\n    {\n        if (_isLucky) {\n            gene5 = (_gene) & 0x7FF;\n            gene4 = (_gene >> 11) & 0x7FF;\n            gene0 = (_gene >> 22) & 0x3FF;\n        } else {\n            gene5 = (_gene) & 0x7FF;\n            gene4 = (_gene >> 11) & 0x7FF;\n            gene3 = (_gene >> 22) & 0x7FF;\n            gene2 = (_gene >> 33) & 0x7FF;\n            gene1 = (_gene >> 44) & 0x7FF;\n            gene0 = (_gene >> 55) & 0x3FF;\n        }\n    }\n\n    function parseStrength (uint256 _genes) public view onlyJurassic returns (uint256) {\n        return (_genes & STRENGTH_MASK);\n    }\n\n    function parseIntelligence (uint256 _genes) public view onlyJurassic returns (uint256) {\n        return ((_genes & INTELLIGENCE_MASK) >> 65);\n    }\n\n    function parseAgile (uint256 _genes) public view onlyJurassic returns (uint256) {\n        return ((_genes & AGILE_MASK) >> 130);\n    }\n\n    function parseLucky (uint256 _genes) public view onlyJurassic returns (uint256) {\n        return ((_genes & LUCKY_MASK) >> 195);\n    }\n\n    /**\n     * \n     */\n\n    function calcBreedingIndex (uint256 generationF, uint256 generationM, uint256 maxIndex) public pure returns (uint256) {\n         return min((generationF + generationM) / 2, maxIndex);\n    }\n\n\n    /**\n     *  0\n     */\n    function buildGen0Genes (uint256 _randSeed) public view\n            returns (uint256 _genesF, uint256 _genesM, uint256 _kind, uint256 _hatchCDIndex)\n    {\n        _genesF = _buildOneGenes(_randSeed + 100);\n        _genesM = _buildOneGenes(_randSeed + 200);\n\n        uint256 kind1 = _randBetween(1, 5, _randSeed + 10) << 1 | _randBetween(0, 2, _randSeed + 10);\n        uint256 kind2 = _randBetween(1, 5, _randSeed + 20) << 1 | _randBetween(0, 2, _randSeed + 20);\n        _kind = kind1 << 5 | kind2;\n\n        _hatchCDIndex = HATCHING_CD_INDEX;\n    }\n\n    function _buildOneGenes (uint256 _seed) private view returns (uint256) {\n        uint256 _strength     = _buildSingleAttribute(_seed + 10, false);\n        uint256 _intelligence = _buildSingleAttribute(_seed + 20, false);\n        uint256 _agile        = _buildSingleAttribute(_seed + 30, false);\n        uint256 _lucky        = _buildSingleAttribute(_seed + 40, true);\n\n        return _packGenes(_strength, _intelligence, _agile, _lucky);\n    }\n\n    // \n    // (10) + 1(10) + 1(1) + ...\n    //  65 32, 65 * 3 + 32 = 227\n    function _buildSingleAttribute (uint256 _seed, bool _isLucky) private view returns (uint256) {\n        uint256 seedP = _seed + 1;\n        uint256 gene0;\n        uint256 rand1;\n        uint256 rand2;\n        uint256 rand3;\n        uint256 rand4;\n        uint256 rand5;\n        (gene0, rand1, rand2, rand3, rand4, rand5) = _multipleRand2E14(1, 1000, seedP);\n\n        // \n        uint256 hideOrShowBounds = _randBetween(1, 1000, seedP);\n\n        uint256 ratioStart = 0;\n        uint256 ratioEnd = 1;\n        if (gene0 <= 50) {\n            ratioStart = 1;\n            ratioEnd = 21;\n        } else if (gene0 <= 150) {\n            ratioStart = 2;\n            ratioEnd = 27;\n        } else if (gene0 <= 300) {\n            ratioStart = 3;\n            ratioEnd = 33;\n        } else if (gene0 <= 600) {\n            ratioStart = 4;\n            ratioEnd = 39;\n        } else if (gene0 <= 1000) {\n            ratioStart = 5;\n            ratioEnd = 45;\n        }\n\n        uint256 genes = gene0;\n\n        genes = _packSingleGene(genes, ratioStart, ratioEnd, rand1, hideOrShowBounds);\n        genes = _packSingleGene(genes, ratioStart, ratioEnd, rand2, hideOrShowBounds);\n        if (!_isLucky) {\n            genes = _packSingleGene(genes, ratioStart, ratioEnd, rand3, hideOrShowBounds);\n            genes = _packSingleGene(genes, ratioStart, ratioEnd, rand4, hideOrShowBounds);\n            genes = _packSingleGene(genes, ratioStart, ratioEnd, rand5, hideOrShowBounds);\n        }\n\n        return genes;\n    }\n\n    // \n    function _packSingleGene (uint256 genes,\n                              uint256 ratioStart,\n                              uint256 ratioEnd,\n                              uint256 randValue,\n                              uint256 hideOrShowBounds)\n        private pure returns (uint256)\n    {\n        uint256 gene = _calcGeneValueByRatio(ratioStart, ratioEnd, randValue);\n        genes = (genes << 11) | gene << 1 | (randValue > hideOrShowBounds ? 1 : 0);\n\n        return genes;\n    }\n\n    // \n    // _randValue: in 1000 unit\n    function _calcGeneValueByRatio (uint256 _start, uint256 _end, uint256 _randValue) private pure returns(uint256) {\n        uint256 id = _start;\n        uint256 ratio = _start;\n        while (ratio <= _end) {\n\n            if (_randValue <= 1000 * ratio / _end) {\n                break;\n            }\n\n            id++;\n\n            ratio += id;\n        }\n\n        uint256 value = (id - 1) * 100 + (_randValue % 100) + 1;\n        return value;\n    }\n\n    /**\n     * \n     */\n\n\n    // _lower_upper\n    function _randBetween (uint256 _lower, uint256 _upper, uint256 _seed) private view returns (uint256) {\n        uint256 rand = uint256(keccak256(abi.encodePacked(block.number + 1024, now))) + uint256(keccak256(abi.encodePacked(block.number % _seed, _seed)));\n\n        return (rand % (_upper - _lower)) + _lower;\n    }\n\n    // 16216_upper65536\n    function _multipleRand2E14(uint256 _lower, uint256 _upper, uint256 _seed) private view\n            returns (uint256 rand1, uint256 rand2, uint256 rand3, uint256 rand4, uint256 rand5, uint256 rand6)\n    {\n        require(_upper < 65536);\n\n        uint256 rand = uint256(keccak256(abi.encodePacked(block.number + 1024, now))) + uint256(keccak256(abi.encodePacked(block.number % _seed, _seed)));\n\n        rand1 = ((rand & MULTIPLE_RAND_MASK) % (_upper - _lower)) + _lower;\n        rand2 = (((rand >> 16) & MULTIPLE_RAND_MASK) % (_upper - _lower)) + _lower;\n        rand3 = (((rand >> 32) & MULTIPLE_RAND_MASK) % (_upper - _lower)) + _lower;\n        rand4 = (((rand >> 48) & MULTIPLE_RAND_MASK) % (_upper - _lower)) + _lower;\n        rand5 = (((rand >> 64) & MULTIPLE_RAND_MASK) % (_upper - _lower)) + _lower;\n        rand6 = (((rand >> 80) & MULTIPLE_RAND_MASK) % (_upper - _lower)) + _lower;\n    }\n\n    function _packGenes (uint256 _strength,\n                         uint256 _intelligence,\n                         uint256 _agile,\n                         uint256 _lucky) private pure returns (uint256)\n    {\n        uint256 genes = (_lucky << 195) | (_agile << 130) | (_intelligence << 65) | _strength;\n\n        return genes;\n    }\n\n\n}\n",
  "sourcePath": "D:\\codebase\\blockchain\\ganacheDemo\\dinosaur\\contracts\\Genetic\\GeneticAlgorithm.sol",
  "compiler": {
    "name": "solc",
    "version": "0.4.24+commit.e67f0147.Emscripten.clang"
  },
  "schemaVersion": "2.0.1",
  "updatedAt": "2018-09-06T12:08:45.158Z"
}