{
  "contractName": "Jurassic",
  "abi": [
    {
      "constant": true,
      "inputs": [],
      "name": "cfoAddress",
      "outputs": [
        {
          "name": "",
          "type": "address"
        }
      ],
      "payable": false,
      "stateMutability": "view",
      "type": "function"
    },
    {
      "constant": true,
      "inputs": [],
      "name": "promoCreatedCount",
      "outputs": [
        {
          "name": "",
          "type": "uint256"
        }
      ],
      "payable": false,
      "stateMutability": "view",
      "type": "function"
    },
    {
      "constant": true,
      "inputs": [],
      "name": "name",
      "outputs": [
        {
          "name": "",
          "type": "string"
        }
      ],
      "payable": false,
      "stateMutability": "view",
      "type": "function"
    },
    {
      "constant": false,
      "inputs": [
        {
          "name": "_to",
          "type": "address"
        },
        {
          "name": "_tokenId",
          "type": "uint256"
        }
      ],
      "name": "approve",
      "outputs": [],
      "payable": false,
      "stateMutability": "nonpayable",
      "type": "function"
    },
    {
      "constant": true,
      "inputs": [],
      "name": "ceoAddress",
      "outputs": [
        {
          "name": "",
          "type": "address"
        }
      ],
      "payable": false,
      "stateMutability": "view",
      "type": "function"
    },
    {
      "constant": true,
      "inputs": [],
      "name": "geneticAlgorithm",
      "outputs": [
        {
          "name": "",
          "type": "address"
        }
      ],
      "payable": false,
      "stateMutability": "view",
      "type": "function"
    },
    {
      "constant": true,
      "inputs": [],
      "name": "implementsERC721",
      "outputs": [
        {
          "name": "",
          "type": "bool"
        }
      ],
      "payable": false,
      "stateMutability": "pure",
      "type": "function"
    },
    {
      "constant": false,
      "inputs": [
        {
          "name": "_addr",
          "type": "address"
        }
      ],
      "name": "setSiringAuctionAddress",
      "outputs": [],
      "payable": false,
      "stateMutability": "nonpayable",
      "type": "function"
    },
    {
      "constant": false,
      "inputs": [
        {
          "name": "_addr",
          "type": "address"
        }
      ],
      "name": "setGeneticAlgorithmAddress",
      "outputs": [],
      "payable": false,
      "stateMutability": "nonpayable",
      "type": "function"
    },
    {
      "constant": true,
      "inputs": [],
      "name": "totalSupply",
      "outputs": [
        {
          "name": "",
          "type": "uint256"
        }
      ],
      "payable": false,
      "stateMutability": "view",
      "type": "function"
    },
    {
      "constant": true,
      "inputs": [],
      "name": "ctoAddress",
      "outputs": [
        {
          "name": "",
          "type": "address"
        }
      ],
      "payable": false,
      "stateMutability": "view",
      "type": "function"
    },
    {
      "constant": false,
      "inputs": [
        {
          "name": "_from",
          "type": "address"
        },
        {
          "name": "_to",
          "type": "address"
        },
        {
          "name": "_tokenId",
          "type": "uint256"
        }
      ],
      "name": "transferFrom",
      "outputs": [],
      "payable": false,
      "stateMutability": "nonpayable",
      "type": "function"
    },
    {
      "constant": false,
      "inputs": [
        {
          "name": "_newCEO",
          "type": "address"
        }
      ],
      "name": "setCEO",
      "outputs": [],
      "payable": false,
      "stateMutability": "nonpayable",
      "type": "function"
    },
    {
      "constant": false,
      "inputs": [
        {
          "name": "_newCOO",
          "type": "address"
        }
      ],
      "name": "setCOO",
      "outputs": [],
      "payable": false,
      "stateMutability": "nonpayable",
      "type": "function"
    },
    {
      "constant": true,
      "inputs": [
        {
          "name": "_owner",
          "type": "address"
        },
        {
          "name": "_index",
          "type": "uint256"
        }
      ],
      "name": "tokenOfOwnerByIndex",
      "outputs": [
        {
          "name": "tokenId",
          "type": "uint256"
        }
      ],
      "payable": false,
      "stateMutability": "view",
      "type": "function"
    },
    {
      "constant": false,
      "inputs": [
        {
          "name": "_newSYS",
          "type": "address"
        }
      ],
      "name": "setSYS",
      "outputs": [],
      "payable": false,
      "stateMutability": "nonpayable",
      "type": "function"
    },
    {
      "constant": false,
      "inputs": [
        {
          "name": "_tokenId",
          "type": "uint256"
        },
        {
          "name": "_startingPrice",
          "type": "uint256"
        },
        {
          "name": "_endingPrice",
          "type": "uint256"
        },
        {
          "name": "_duration",
          "type": "uint256"
        }
      ],
      "name": "createSaleAuction",
      "outputs": [],
      "payable": false,
      "stateMutability": "nonpayable",
      "type": "function"
    },
    {
      "constant": false,
      "inputs": [],
      "name": "unpause",
      "outputs": [],
      "payable": false,
      "stateMutability": "nonpayable",
      "type": "function"
    },
    {
      "constant": true,
      "inputs": [],
      "name": "gen0CreationLimit",
      "outputs": [
        {
          "name": "",
          "type": "uint256"
        }
      ],
      "payable": false,
      "stateMutability": "view",
      "type": "function"
    },
    {
      "constant": true,
      "inputs": [
        {
          "name": "",
          "type": "uint256"
        }
      ],
      "name": "sireAllowedToAddress",
      "outputs": [
        {
          "name": "",
          "type": "address"
        }
      ],
      "payable": false,
      "stateMutability": "view",
      "type": "function"
    },
    {
      "constant": false,
      "inputs": [
        {
          "name": "_kind",
          "type": "uint256"
        },
        {
          "name": "_genesF",
          "type": "uint256"
        },
        {
          "name": "_genesM",
          "type": "uint256"
        },
        {
          "name": "_hatchCDIndex",
          "type": "uint256"
        },
        {
          "name": "_owner",
          "type": "address"
        }
      ],
      "name": "createPromoEgg",
      "outputs": [],
      "payable": false,
      "stateMutability": "nonpayable",
      "type": "function"
    },
    {
      "constant": false,
      "inputs": [
        {
          "name": "_tokenId",
          "type": "uint256"
        },
        {
          "name": "_startingPrice",
          "type": "uint256"
        },
        {
          "name": "_endingPrice",
          "type": "uint256"
        },
        {
          "name": "_duration",
          "type": "uint256"
        }
      ],
      "name": "createSiringAuction",
      "outputs": [],
      "payable": false,
      "stateMutability": "nonpayable",
      "type": "function"
    },
    {
      "constant": false,
      "inputs": [
        {
          "name": "_newCFO",
          "type": "address"
        }
      ],
      "name": "setCFO",
      "outputs": [],
      "payable": false,
      "stateMutability": "nonpayable",
      "type": "function"
    },
    {
      "constant": true,
      "inputs": [
        {
          "name": "",
          "type": "uint256"
        }
      ],
      "name": "dinosaurs",
      "outputs": [
        {
          "name": "birthTime",
          "type": "uint64"
        },
        {
          "name": "seekingCDEndTime",
          "type": "uint64"
        },
        {
          "name": "breedingCDEndTime",
          "type": "uint64"
        },
        {
          "name": "seekingCDIndex",
          "type": "uint16"
        },
        {
          "name": "breedingCDIndex",
          "type": "uint16"
        },
        {
          "name": "siringWithId",
          "type": "uint32"
        },
        {
          "name": "attributes",
          "type": "uint256"
        }
      ],
      "payable": false,
      "stateMutability": "view",
      "type": "function"
    },
    {
      "constant": true,
      "inputs": [],
      "name": "paused",
      "outputs": [
        {
          "name": "",
          "type": "bool"
        }
      ],
      "payable": false,
      "stateMutability": "view",
      "type": "function"
    },
    {
      "constant": true,
      "inputs": [
        {
          "name": "_tokenId",
          "type": "uint256"
        }
      ],
      "name": "ownerOf",
      "outputs": [
        {
          "name": "owner",
          "type": "address"
        }
      ],
      "payable": false,
      "stateMutability": "view",
      "type": "function"
    },
    {
      "constant": true,
      "inputs": [
        {
          "name": "a",
          "type": "uint256"
        },
        {
          "name": "b",
          "type": "uint256"
        }
      ],
      "name": "max",
      "outputs": [
        {
          "name": "",
          "type": "uint256"
        }
      ],
      "payable": false,
      "stateMutability": "pure",
      "type": "function"
    },
    {
      "constant": false,
      "inputs": [
        {
          "name": "_addr",
          "type": "address"
        }
      ],
      "name": "setSaleAuctionAddress",
      "outputs": [],
      "payable": false,
      "stateMutability": "nonpayable",
      "type": "function"
    },
    {
      "constant": true,
      "inputs": [
        {
          "name": "_owner",
          "type": "address"
        }
      ],
      "name": "balanceOf",
      "outputs": [
        {
          "name": "balance",
          "type": "uint256"
        }
      ],
      "payable": false,
      "stateMutability": "view",
      "type": "function"
    },
    {
      "constant": false,
      "inputs": [
        {
          "name": "_cut",
          "type": "uint256"
        }
      ],
      "name": "setCut",
      "outputs": [],
      "payable": false,
      "stateMutability": "nonpayable",
      "type": "function"
    },
    {
      "constant": true,
      "inputs": [
        {
          "name": "a",
          "type": "uint256"
        },
        {
          "name": "b",
          "type": "uint256"
        }
      ],
      "name": "min",
      "outputs": [
        {
          "name": "",
          "type": "uint256"
        }
      ],
      "payable": false,
      "stateMutability": "pure",
      "type": "function"
    },
    {
      "constant": false,
      "inputs": [],
      "name": "pause",
      "outputs": [],
      "payable": false,
      "stateMutability": "nonpayable",
      "type": "function"
    },
    {
      "constant": true,
      "inputs": [],
      "name": "symbol",
      "outputs": [
        {
          "name": "",
          "type": "string"
        }
      ],
      "payable": false,
      "stateMutability": "view",
      "type": "function"
    },
    {
      "constant": false,
      "inputs": [
        {
          "name": "_startingPrice",
          "type": "uint256"
        },
        {
          "name": "_endingPrice",
          "type": "uint256"
        },
        {
          "name": "_duration",
          "type": "uint256"
        }
      ],
      "name": "createGen0SaleAuction",
      "outputs": [],
      "payable": false,
      "stateMutability": "nonpayable",
      "type": "function"
    },
    {
      "constant": true,
      "inputs": [
        {
          "name": "",
          "type": "uint256"
        }
      ],
      "name": "cooldowns",
      "outputs": [
        {
          "name": "",
          "type": "uint32"
        }
      ],
      "payable": false,
      "stateMutability": "view",
      "type": "function"
    },
    {
      "constant": true,
      "inputs": [],
      "name": "sysAddress",
      "outputs": [
        {
          "name": "",
          "type": "address"
        }
      ],
      "payable": false,
      "stateMutability": "view",
      "type": "function"
    },
    {
      "constant": false,
      "inputs": [
        {
          "name": "_to",
          "type": "address"
        },
        {
          "name": "_tokenId",
          "type": "uint256"
        }
      ],
      "name": "transfer",
      "outputs": [],
      "payable": false,
      "stateMutability": "nonpayable",
      "type": "function"
    },
    {
      "constant": true,
      "inputs": [],
      "name": "cooAddress",
      "outputs": [
        {
          "name": "",
          "type": "address"
        }
      ],
      "payable": false,
      "stateMutability": "view",
      "type": "function"
    },
    {
      "constant": true,
      "inputs": [],
      "name": "siringDutchAuction",
      "outputs": [
        {
          "name": "",
          "type": "address"
        }
      ],
      "payable": false,
      "stateMutability": "view",
      "type": "function"
    },
    {
      "constant": true,
      "inputs": [],
      "name": "promoCreationLimit",
      "outputs": [
        {
          "name": "",
          "type": "uint256"
        }
      ],
      "payable": false,
      "stateMutability": "view",
      "type": "function"
    },
    {
      "constant": true,
      "inputs": [],
      "name": "seekingTax",
      "outputs": [
        {
          "name": "",
          "type": "uint256"
        }
      ],
      "payable": false,
      "stateMutability": "view",
      "type": "function"
    },
    {
      "constant": true,
      "inputs": [],
      "name": "IS_JURASSIC",
      "outputs": [
        {
          "name": "",
          "type": "bool"
        }
      ],
      "payable": false,
      "stateMutability": "view",
      "type": "function"
    },
    {
      "constant": true,
      "inputs": [
        {
          "name": "",
          "type": "uint256"
        }
      ],
      "name": "eggs",
      "outputs": [
        {
          "name": "birthTime",
          "type": "uint64"
        },
        {
          "name": "hatchEndTime",
          "type": "uint64"
        },
        {
          "name": "hatchCDIndex",
          "type": "uint16"
        },
        {
          "name": "genesF",
          "type": "uint256"
        },
        {
          "name": "genesM",
          "type": "uint256"
        }
      ],
      "payable": false,
      "stateMutability": "view",
      "type": "function"
    },
    {
      "constant": true,
      "inputs": [
        {
          "name": "",
          "type": "uint256"
        }
      ],
      "name": "seekingIndexToOwner",
      "outputs": [
        {
          "name": "",
          "type": "address"
        }
      ],
      "payable": false,
      "stateMutability": "view",
      "type": "function"
    },
    {
      "constant": true,
      "inputs": [
        {
          "name": "",
          "type": "uint256"
        }
      ],
      "name": "dinosaurIndexToApproved",
      "outputs": [
        {
          "name": "",
          "type": "address"
        }
      ],
      "payable": false,
      "stateMutability": "view",
      "type": "function"
    },
    {
      "constant": true,
      "inputs": [
        {
          "name": "",
          "type": "uint256"
        }
      ],
      "name": "dinosaurIndexToOwner",
      "outputs": [
        {
          "name": "",
          "type": "address"
        }
      ],
      "payable": false,
      "stateMutability": "view",
      "type": "function"
    },
    {
      "constant": true,
      "inputs": [],
      "name": "unit_test",
      "outputs": [
        {
          "name": "",
          "type": "bool"
        }
      ],
      "payable": false,
      "stateMutability": "view",
      "type": "function"
    },
    {
      "constant": false,
      "inputs": [
        {
          "name": "_index",
          "type": "uint256"
        },
        {
          "name": "_value",
          "type": "uint256"
        }
      ],
      "name": "changeCooldownIndexForTesting",
      "outputs": [],
      "payable": false,
      "stateMutability": "nonpayable",
      "type": "function"
    },
    {
      "constant": false,
      "inputs": [
        {
          "name": "_motherId",
          "type": "uint256"
        },
        {
          "name": "_fatherId",
          "type": "uint256"
        }
      ],
      "name": "bidOnSiringAuction",
      "outputs": [],
      "payable": true,
      "stateMutability": "payable",
      "type": "function"
    },
    {
      "constant": true,
      "inputs": [],
      "name": "gen0CreatedCount",
      "outputs": [
        {
          "name": "",
          "type": "uint256"
        }
      ],
      "payable": false,
      "stateMutability": "view",
      "type": "function"
    },
    {
      "constant": true,
      "inputs": [],
      "name": "nowtime",
      "outputs": [
        {
          "name": "",
          "type": "uint256"
        }
      ],
      "payable": false,
      "stateMutability": "view",
      "type": "function"
    },
    {
      "constant": true,
      "inputs": [],
      "name": "saleDutchAuction",
      "outputs": [
        {
          "name": "",
          "type": "address"
        }
      ],
      "payable": false,
      "stateMutability": "view",
      "type": "function"
    },
    {
      "constant": false,
      "inputs": [
        {
          "name": "_newCTO",
          "type": "address"
        }
      ],
      "name": "setCTO",
      "outputs": [],
      "payable": false,
      "stateMutability": "nonpayable",
      "type": "function"
    },
    {
      "inputs": [],
      "payable": false,
      "stateMutability": "nonpayable",
      "type": "constructor"
    },
    {
      "payable": true,
      "stateMutability": "payable",
      "type": "fallback"
    },
    {
      "anonymous": false,
      "inputs": [
        {
          "indexed": true,
          "name": "owner",
          "type": "address"
        },
        {
          "indexed": false,
          "name": "dinosaurId",
          "type": "uint256"
        }
      ],
      "name": "StartSeeking",
      "type": "event"
    },
    {
      "anonymous": false,
      "inputs": [
        {
          "indexed": false,
          "name": "owner",
          "type": "address"
        },
        {
          "indexed": false,
          "name": "_tokenId",
          "type": "uint256"
        },
        {
          "indexed": false,
          "name": "_kindIndex",
          "type": "uint256"
        },
        {
          "indexed": false,
          "name": "_categoryIndex",
          "type": "uint256"
        }
      ],
      "name": "TrophiesCollected",
      "type": "event"
    },
    {
      "anonymous": false,
      "inputs": [
        {
          "indexed": false,
          "name": "owner",
          "type": "address"
        },
        {
          "indexed": true,
          "name": "id",
          "type": "uint256"
        },
        {
          "indexed": false,
          "name": "endTime",
          "type": "uint256"
        }
      ],
      "name": "HatchingEgg",
      "type": "event"
    },
    {
      "anonymous": false,
      "inputs": [
        {
          "indexed": false,
          "name": "owner",
          "type": "address"
        },
        {
          "indexed": false,
          "name": "motherId",
          "type": "uint256"
        },
        {
          "indexed": false,
          "name": "fatherId",
          "type": "uint256"
        }
      ],
      "name": "Pregnant",
      "type": "event"
    },
    {
      "anonymous": false,
      "inputs": [
        {
          "indexed": true,
          "name": "from",
          "type": "address"
        },
        {
          "indexed": true,
          "name": "to",
          "type": "address"
        },
        {
          "indexed": true,
          "name": "tokenId",
          "type": "uint256"
        }
      ],
      "name": "Transfer",
      "type": "event"
    },
    {
      "anonymous": false,
      "inputs": [
        {
          "indexed": true,
          "name": "owner",
          "type": "address"
        },
        {
          "indexed": true,
          "name": "approved",
          "type": "address"
        },
        {
          "indexed": true,
          "name": "tokenId",
          "type": "uint256"
        }
      ],
      "name": "Approval",
      "type": "event"
    },
    {
      "anonymous": false,
      "inputs": [
        {
          "indexed": true,
          "name": "owner",
          "type": "address"
        },
        {
          "indexed": false,
          "name": "eggId",
          "type": "uint256"
        },
        {
          "indexed": false,
          "name": "motherId",
          "type": "uint256"
        },
        {
          "indexed": false,
          "name": "fatherId",
          "type": "uint256"
        },
        {
          "indexed": false,
          "name": "genesF",
          "type": "uint256"
        },
        {
          "indexed": false,
          "name": "genesM",
          "type": "uint256"
        }
      ],
      "name": "EggBirth",
      "type": "event"
    },
    {
      "anonymous": false,
      "inputs": [
        {
          "indexed": true,
          "name": "owner",
          "type": "address"
        },
        {
          "indexed": false,
          "name": "dinosaursId",
          "type": "uint256"
        }
      ],
      "name": "DinosaurHatched",
      "type": "event"
    },
    {
      "anonymous": false,
      "inputs": [
        {
          "indexed": false,
          "name": "label",
          "type": "string"
        },
        {
          "indexed": false,
          "name": "value",
          "type": "uint256"
        }
      ],
      "name": "LogUint",
      "type": "event"
    },
    {
      "anonymous": false,
      "inputs": [
        {
          "indexed": false,
          "name": "label",
          "type": "string"
        },
        {
          "indexed": false,
          "name": "value",
          "type": "int256"
        }
      ],
      "name": "LogInt",
      "type": "event"
    },
    {
      "constant": true,
      "inputs": [
        {
          "name": "_id",
          "type": "uint256"
        }
      ],
      "name": "getDNSRToken",
      "outputs": [
        {
          "name": "kind",
          "type": "uint256"
        },
        {
          "name": "motherId",
          "type": "uint256"
        },
        {
          "name": "fatherId",
          "type": "uint256"
        },
        {
          "name": "generation",
          "type": "uint256"
        },
        {
          "name": "phase",
          "type": "uint256"
        }
      ],
      "payable": false,
      "stateMutability": "view",
      "type": "function"
    },
    {
      "constant": true,
      "inputs": [
        {
          "name": "_id",
          "type": "uint256"
        }
      ],
      "name": "getEgg",
      "outputs": [
        {
          "name": "birthTime",
          "type": "uint256"
        },
        {
          "name": "hatchEndTime",
          "type": "uint256"
        },
        {
          "name": "hatchCDIndex",
          "type": "uint256"
        },
        {
          "name": "genesF",
          "type": "uint256"
        },
        {
          "name": "genesM",
          "type": "uint256"
        }
      ],
      "payable": false,
      "stateMutability": "view",
      "type": "function"
    },
    {
      "constant": true,
      "inputs": [
        {
          "name": "_id",
          "type": "uint256"
        }
      ],
      "name": "getDinosaur",
      "outputs": [
        {
          "name": "birthTime",
          "type": "uint256"
        },
        {
          "name": "seekingCDEndTime",
          "type": "uint256"
        },
        {
          "name": "breedingCDEndTime",
          "type": "uint256"
        },
        {
          "name": "seekingCDIndex",
          "type": "uint256"
        },
        {
          "name": "breedingCDIndex",
          "type": "uint256"
        },
        {
          "name": "siringWithId",
          "type": "uint256"
        },
        {
          "name": "attributes",
          "type": "uint256"
        }
      ],
      "payable": false,
      "stateMutability": "view",
      "type": "function"
    },
    {
      "constant": false,
      "inputs": [
        {
          "name": "_id",
          "type": "uint256"
        }
      ],
      "name": "startHatchingEgg",
      "outputs": [],
      "payable": false,
      "stateMutability": "nonpayable",
      "type": "function"
    },
    {
      "constant": true,
      "inputs": [
        {
          "name": "_motherId",
          "type": "uint256"
        },
        {
          "name": "_fatherId",
          "type": "uint256"
        }
      ],
      "name": "canBreedWith",
      "outputs": [
        {
          "name": "",
          "type": "bool"
        }
      ],
      "payable": false,
      "stateMutability": "view",
      "type": "function"
    },
    {
      "constant": false,
      "inputs": [
        {
          "name": "_motherId",
          "type": "uint256"
        },
        {
          "name": "_fatherId",
          "type": "uint256"
        }
      ],
      "name": "breedWith",
      "outputs": [],
      "payable": false,
      "stateMutability": "nonpayable",
      "type": "function"
    },
    {
      "constant": false,
      "inputs": [
        {
          "name": "_motherId",
          "type": "uint256"
        }
      ],
      "name": "tryToLayTheEgg",
      "outputs": [],
      "payable": false,
      "stateMutability": "nonpayable",
      "type": "function"
    },
    {
      "constant": false,
      "inputs": [
        {
          "name": "_eggId",
          "type": "uint256"
        }
      ],
      "name": "tryToBirthFromEgg",
      "outputs": [],
      "payable": false,
      "stateMutability": "nonpayable",
      "type": "function"
    },
    {
      "constant": true,
      "inputs": [
        {
          "name": "_id",
          "type": "uint256"
        }
      ],
      "name": "isDinosaurReadyToHatched",
      "outputs": [
        {
          "name": "",
          "type": "bool"
        }
      ],
      "payable": false,
      "stateMutability": "view",
      "type": "function"
    },
    {
      "constant": true,
      "inputs": [
        {
          "name": "_id",
          "type": "uint256"
        }
      ],
      "name": "isEggReadyToLay",
      "outputs": [
        {
          "name": "",
          "type": "bool"
        }
      ],
      "payable": false,
      "stateMutability": "view",
      "type": "function"
    },
    {
      "constant": true,
      "inputs": [
        {
          "name": "_id",
          "type": "uint256"
        }
      ],
      "name": "isReadyForSeeking",
      "outputs": [
        {
          "name": "",
          "type": "bool"
        }
      ],
      "payable": false,
      "stateMutability": "view",
      "type": "function"
    },
    {
      "constant": true,
      "inputs": [
        {
          "name": "_id",
          "type": "uint256"
        }
      ],
      "name": "isReadyToBackHome",
      "outputs": [
        {
          "name": "",
          "type": "bool"
        }
      ],
      "payable": false,
      "stateMutability": "view",
      "type": "function"
    },
    {
      "constant": false,
      "inputs": [
        {
          "name": "_id",
          "type": "uint256"
        }
      ],
      "name": "seeking",
      "outputs": [],
      "payable": true,
      "stateMutability": "payable",
      "type": "function"
    },
    {
      "constant": true,
      "inputs": [],
      "name": "getSeekingTax",
      "outputs": [
        {
          "name": "",
          "type": "uint256"
        }
      ],
      "payable": false,
      "stateMutability": "view",
      "type": "function"
    },
    {
      "constant": false,
      "inputs": [
        {
          "name": "_id",
          "type": "uint256"
        }
      ],
      "name": "collectSeekingTrophies",
      "outputs": [],
      "payable": false,
      "stateMutability": "nonpayable",
      "type": "function"
    },
    {
      "constant": false,
      "inputs": [],
      "name": "withdrawBalance",
      "outputs": [],
      "payable": false,
      "stateMutability": "nonpayable",
      "type": "function"
    }
  ],
  "bytecode": "0x608060405260008060006101000a81548160ff0219169083151502179055506000600460146101000a81548160ff0219169083151502179055506101c060405190810160405280603c63ffffffff1663ffffffff168152602001607863ffffffff1663ffffffff16815260200161012c63ffffffff1663ffffffff16815260200161025863ffffffff1663ffffffff16815260200161070863ffffffff1663ffffffff168152602001610e1063ffffffff1663ffffffff168152602001611c2063ffffffff1663ffffffff16815260200161384063ffffffff1663ffffffff16815260200161708063ffffffff1663ffffffff16815260200161e10063ffffffff1663ffffffff1681526020016201518063ffffffff1663ffffffff1681526020016202a30063ffffffff1663ffffffff1681526020016205460063ffffffff1663ffffffff16815260200162093a8063ffffffff1663ffffffff16815250600590600e6200017092919062000887565b50612710600f55614e2060105560146016553480156200018f57600080fd5b506001600460146101000a81548160ff02191690831515021790555033600060016101000a81548173ffffffffffffffffffffffffffffffffffffffff021916908373ffffffffffffffffffffffffffffffffffffffff16021790555033600160006101000a81548173ffffffffffffffffffffffffffffffffffffffff021916908373ffffffffffffffffffffffffffffffffffffffff16021790555033600260006101000a81548173ffffffffffffffffffffffffffffffffffffffff021916908373ffffffffffffffffffffffffffffffffffffffff16021790555033600360006101000a81548173ffffffffffffffffffffffffffffffffffffffff021916908373ffffffffffffffffffffffffffffffffffffffff16021790555033600460006101000a81548173ffffffffffffffffffffffffffffffffffffffff021916908373ffffffffffffffffffffffffffffffffffffffff160217905550600060098054905014156200034557620003436000806000807fffffffffffffffffffffffffffffffffffffffffffffffffffffffffffffffff806000806200034b640100000000026401000000009004565b505b620009f6565b60006200035762000931565b60006200036362000978565b63ffffffff80168b111515156200037957600080fd5b63ffffffff80168a111515156200038f57600080fd5b61ffff80168911151515620003a357600080fd5b60a0604051908101604052808d61ffff1681526020018c63ffffffff1681526020018b63ffffffff1681526020018a61ffff168152602001600160ff168152509250600160098490806001815401808255809150509060018203906000526020600020016000909192909190915060008201518160000160006101000a81548161ffff021916908361ffff16021790555060208201518160000160026101000a81548163ffffffff021916908363ffffffff16021790555060408201518160000160066101000a81548163ffffffff021916908363ffffffff160217905550606082015181600001600a6101000a81548161ffff021916908361ffff160217905550608082015181600001600c6101000a81548160ff021916908360ff160217905550505003915063ffffffff80168211151515620004e157600080fd5b60a0604051908101604052804267ffffffffffffffff168152602001600067ffffffffffffffff1681526020016000809054906101000a900460ff166200052957876200052c565b60005b61ffff168152602001898152602001888152509050806007600084815260200190815260200160002060008201518160000160006101000a81548167ffffffffffffffff021916908367ffffffffffffffff16021790555060208201518160000160086101000a81548167ffffffffffffffff021916908367ffffffffffffffff16021790555060408201518160000160106101000a81548161ffff021916908361ffff16021790555060608201518160010155608082015181600201559050506200060a6000868462000692640100000000026401000000009004565b8473ffffffffffffffffffffffffffffffffffffffff167fff5fcd526f7b8177c4c59e304686a5ec6c7d8503ad40f5aef03e6c2447d3b1b6838d8d85606001518660800151604051808681526020018581526020018481526020018381526020018281526020019550505050505060405180910390a281935050505098975050505050505050565b600e60008373ffffffffffffffffffffffffffffffffffffffff1673ffffffffffffffffffffffffffffffffffffffff1681526020019081526020016000206000815480929190600101919050555081600a600083815260200190815260200160002060006101000a81548173ffffffffffffffffffffffffffffffffffffffff021916908373ffffffffffffffffffffffffffffffffffffffff160217905550600073ffffffffffffffffffffffffffffffffffffffff168373ffffffffffffffffffffffffffffffffffffffff161415156200082757600e60008473ffffffffffffffffffffffffffffffffffffffff1673ffffffffffffffffffffffffffffffffffffffff1681526020019081526020016000206000815480929190600190039190505550600b600082815260200190815260200160002060006101000a81549073ffffffffffffffffffffffffffffffffffffffff0219169055600c600082815260200190815260200160002060006101000a81549073ffffffffffffffffffffffffffffffffffffffff02191690555b808273ffffffffffffffffffffffffffffffffffffffff168473ffffffffffffffffffffffffffffffffffffffff167fddf252ad1be2c89b69c2b068fc378daa952ba7f163c4a11628f55a4df523b3ef60405160405180910390a4505050565b82600e6007016008900481019282156200091e5791602002820160005b83821115620008ea57835183826101000a81548163ffffffff021916908363ffffffff1602179055509260200192600401602081600301049283019260010302620008a4565b80156200091c5782816101000a81549063ffffffff0219169055600401602081600301049283019260010302620008ea565b505b5090506200092d9190620009c0565b5090565b60a060405190810160405280600061ffff168152602001600063ffffffff168152602001600063ffffffff168152602001600061ffff168152602001600060ff1681525090565b60a060405190810160405280600067ffffffffffffffff168152602001600067ffffffffffffffff168152602001600061ffff16815260200160008152602001600081525090565b620009f391905b80821115620009ef57600081816101000a81549063ffffffff021916905550600101620009c7565b5090565b90565b615e5e8062000a066000396000f30060806040526004361061032d576000357c0100000000000000000000000000000000000000000000000000000000900463ffffffff1680630519ce79146103e357806305e455461461043a57806306fdde031461046557806308ac989c146104f5578063095ea7b3146105155780630a0f8168146105625780630f293e45146105b95780631051db341461061057806314001f4c1461063f578063169365dd1461068257806318160ddd146106c55780631f513660146106f057806323b872dd1461074757806327d7874c146107b45780632ba73c15146107f75780632f745c591461083a578063315ae4d41461089b578063362f6646146108de5780633d7d3f5a146109235780633f4ba83a1461096e578063404d0e3e1461098557806346116e6f146109b0578063463c101914610a1d57806346d22c7014610a885780634ad8c93814610ad75780634c498ea814610b225780634e0a337914610b4f5780634ec9fe7c14610b925780635c975abb14610c555780635fd8c71014610c845780636352211e14610c9b5780636d5433e614610d085780636dd694be14610d535780636fbde40d14610d805780637004fb8414610dc357806370a0823114610dfa578063727cdf8714610e515780637ae2b5c714610e7e5780638456cb5914610ec9578063911c1b7014610ee057806395d89b4114610f4b5780639724417614610fdb5780639d6fac6f1461101c5780639ebe8fe514611069578063a81be54f146110c0578063a9059cbb146110ed578063b047fb501461113a578063b26c6fb214611191578063b5319335146111e8578063b56cfb9214611213578063b722756514611270578063baed13911461129b578063bb654efa146112ca578063bc9ed28514611357578063c37361ad146113c4578063c3d52b6114611431578063c83a30ce1461149e578063d33209cf146114cb578063e36d99f6146114fa578063ed56494114611525578063ed60ade61461155c578063efeb78dc14611586578063f0022114146115cb578063f1ca941014611610578063f2c8a3271461163b578063f64af64d14611666578063f8fd593d146116bd578063fe1439b414611702578063feb40f7e14611745575b601460009054906101000a900473ffffffffffffffffffffffffffffffffffffffff1673ffffffffffffffffffffffffffffffffffffffff163373ffffffffffffffffffffffffffffffffffffffff1614806103d65750601560009054906101000a900473ffffffffffffffffffffffffffffffffffffffff1673ffffffffffffffffffffffffffffffffffffffff163373ffffffffffffffffffffffffffffffffffffffff16145b15156103e157600080fd5b005b3480156103ef57600080fd5b506103f86117a2565b604051808273ffffffffffffffffffffffffffffffffffffffff1673ffffffffffffffffffffffffffffffffffffffff16815260200191505060405180910390f35b34801561044657600080fd5b5061044f6117c8565b6040518082815260200191505060405180910390f35b34801561047157600080fd5b5061047a6117ce565b6040518080602001828103825283818151815260200191508051906020019080838360005b838110156104ba57808201518184015260208101905061049f565b50505050905090810190601f1680156104e75780820380516001836020036101000a031916815260200191505b509250505060405180910390f35b6105136004803603810190808035906020019092919050505061180b565b005b34801561052157600080fd5b50610560600480360381019080803573ffffffffffffffffffffffffffffffffffffffff16906020019092919080359060200190929190505050611913565b005b34801561056e57600080fd5b506105776119f5565b604051808273ffffffffffffffffffffffffffffffffffffffff1673ffffffffffffffffffffffffffffffffffffffff16815260200191505060405180910390f35b3480156105c557600080fd5b506105ce611a1b565b604051808273ffffffffffffffffffffffffffffffffffffffff1673ffffffffffffffffffffffffffffffffffffffff16815260200191505060405180910390f35b34801561061c57600080fd5b50610625611a41565b604051808215151515815260200191505060405180910390f35b34801561064b57600080fd5b50610680600480360381019080803573ffffffffffffffffffffffffffffffffffffffff169060200190929190505050611a4a565b005b34801561068e57600080fd5b506106c3600480360381019080803573ffffffffffffffffffffffffffffffffffffffff169060200190929190505050611bf2565b005b3480156106d157600080fd5b506106da611d9a565b6040518082815260200191505060405180910390f35b3480156106fc57600080fd5b50610705611daa565b604051808273ffffffffffffffffffffffffffffffffffffffff1673ffffffffffffffffffffffffffffffffffffffff16815260200191505060405180910390f35b34801561075357600080fd5b506107b2600480360381019080803573ffffffffffffffffffffffffffffffffffffffff169060200190929190803573ffffffffffffffffffffffffffffffffffffffff16906020019092919080359060200190929190505050611dd0565b005b3480156107c057600080fd5b506107f5600480360381019080803573ffffffffffffffffffffffffffffffffffffffff169060200190929190505050611e7e565b005b34801561080357600080fd5b50610838600480360381019080803573ffffffffffffffffffffffffffffffffffffffff169060200190929190505050611f5a565b005b34801561084657600080fd5b50610885600480360381019080803573ffffffffffffffffffffffffffffffffffffffff16906020019092919080359060200190929190505050612036565b6040518082815260200191505060405180910390f35b3480156108a757600080fd5b506108dc600480360381019080803573ffffffffffffffffffffffffffffffffffffffff1690602001909291905050506120f6565b005b3480156108ea57600080fd5b50610909600480360381019080803590602001909291905050506121d2565b604051808215151515815260200191505060405180910390f35b34801561092f57600080fd5b5061096c60048036038101908080359060200190929190803590602001909291908035906020019092919080359060200190929190505050612237565b005b34801561097a57600080fd5b50610983612424565b005b34801561099157600080fd5b5061099a612510565b6040518082815260200191505060405180910390f35b3480156109bc57600080fd5b506109db60048036038101908080359060200190929190505050612516565b604051808273ffffffffffffffffffffffffffffffffffffffff1673ffffffffffffffffffffffffffffffffffffffff16815260200191505060405180910390f35b348015610a2957600080fd5b50610a8660048036038101908080359060200190929190803590602001909291908035906020019092919080359060200190929190803573ffffffffffffffffffffffffffffffffffffffff169060200190929190505050612549565b005b348015610a9457600080fd5b50610abd60048036038101908080359060200190929190803590602001909291905050506126ac565b604051808215151515815260200191505060405180910390f35b348015610ae357600080fd5b50610b20600480360381019080803590602001909291908035906020019092919080359060200190929190803590602001909291905050506126dd565b005b348015610b2e57600080fd5b50610b4d600480360381019080803590602001909291905050506128ef565b005b348015610b5b57600080fd5b50610b90600480360381019080803573ffffffffffffffffffffffffffffffffffffffff169060200190929190505050612ad4565b005b348015610b9e57600080fd5b50610bbd60048036038101908080359060200190929190505050612bb0565b604051808867ffffffffffffffff1667ffffffffffffffff1681526020018767ffffffffffffffff1667ffffffffffffffff1681526020018667ffffffffffffffff1667ffffffffffffffff1681526020018561ffff1661ffff1681526020018461ffff1661ffff1681526020018363ffffffff1663ffffffff16815260200182815260200197505050505050505060405180910390f35b348015610c6157600080fd5b50610c6a612c5a565b604051808215151515815260200191505060405180910390f35b348015610c9057600080fd5b50610c99612c6d565b005b348015610ca757600080fd5b50610cc660048036038101908080359060200190929190505050612da3565b604051808273ffffffffffffffffffffffffffffffffffffffff1673ffffffffffffffffffffffffffffffffffffffff16815260200191505060405180910390f35b348015610d1457600080fd5b50610d3d6004803603810190808035906020019092919080359060200190929190505050612e21565b6040518082815260200191505060405180910390f35b348015610d5f57600080fd5b50610d7e60048036038101908080359060200190929190505050612e3a565b005b348015610d8c57600080fd5b50610dc1600480360381019080803573ffffffffffffffffffffffffffffffffffffffff169060200190929190505050612f05565b005b348015610dcf57600080fd5b50610df860048036038101908080359060200190929190803590602001909291905050506130ad565b005b348015610e0657600080fd5b50610e3b600480360381019080803573ffffffffffffffffffffffffffffffffffffffff1690602001909291905050506130fc565b6040518082815260200191505060405180910390f35b348015610e5d57600080fd5b50610e7c60048036038101908080359060200190929190505050613145565b005b348015610e8a57600080fd5b50610eb36004803603810190808035906020019092919080359060200190929190505050613214565b6040518082815260200191505060405180910390f35b348015610ed557600080fd5b50610ede61322d565b005b348015610eec57600080fd5b50610f0b600480360381019080803590602001909291905050506133ca565b6040518088815260200187815260200186815260200185815260200184815260200183815260200182815260200197505050505050505060405180910390f35b348015610f5757600080fd5b50610f606134bc565b6040518080602001828103825283818151815260200191508051906020019080838360005b83811015610fa0578082015181840152602081019050610f85565b50505050905090810190601f168015610fcd5780820380516001836020036101000a031916815260200191505b509250505060405180910390f35b348015610fe757600080fd5b5061101a6004803603810190808035906020019092919080359060200190929190803590602001909291905050506134f9565b005b34801561102857600080fd5b5061104760048036038101908080359060200190929190505050613745565b604051808263ffffffff1663ffffffff16815260200191505060405180910390f35b34801561107557600080fd5b5061107e613774565b604051808273ffffffffffffffffffffffffffffffffffffffff1673ffffffffffffffffffffffffffffffffffffffff16815260200191505060405180910390f35b3480156110cc57600080fd5b506110eb6004803603810190808035906020019092919050505061379a565b005b3480156110f957600080fd5b50611138600480360381019080803573ffffffffffffffffffffffffffffffffffffffff16906020019092919080359060200190929190505050613b4d565b005b34801561114657600080fd5b5061114f613bc9565b604051808273ffffffffffffffffffffffffffffffffffffffff1673ffffffffffffffffffffffffffffffffffffffff16815260200191505060405180910390f35b34801561119d57600080fd5b506111a6613bef565b604051808273ffffffffffffffffffffffffffffffffffffffff1673ffffffffffffffffffffffffffffffffffffffff16815260200191505060405180910390f35b3480156111f457600080fd5b506111fd613c15565b6040518082815260200191505060405180910390f35b34801561121f57600080fd5b5061123e60048036038101908080359060200190929190505050613c1b565b604051808681526020018581526020018481526020018381526020018281526020019550505050505060405180910390f35b34801561127c57600080fd5b50611285613ccc565b6040518082815260200191505060405180910390f35b3480156112a757600080fd5b506112b0613cd2565b604051808215151515815260200191505060405180910390f35b3480156112d657600080fd5b506112f560048036038101908080359060200190929190505050613cd7565b604051808667ffffffffffffffff1667ffffffffffffffff1681526020018567ffffffffffffffff1667ffffffffffffffff1681526020018461ffff1661ffff1681526020018381526020018281526020019550505050505060405180910390f35b34801561136357600080fd5b5061138260048036038101908080359060200190929190505050613d43565b604051808273ffffffffffffffffffffffffffffffffffffffff1673ffffffffffffffffffffffffffffffffffffffff16815260200191505060405180910390f35b3480156113d057600080fd5b506113ef60048036038101908080359060200190929190505050613d76565b604051808273ffffffffffffffffffffffffffffffffffffffff1673ffffffffffffffffffffffffffffffffffffffff16815260200191505060405180910390f35b34801561143d57600080fd5b5061145c60048036038101908080359060200190929190505050613da9565b604051808273ffffffffffffffffffffffffffffffffffffffff1673ffffffffffffffffffffffffffffffffffffffff16815260200191505060405180910390f35b3480156114aa57600080fd5b506114c960048036038101908080359060200190929190505050613ddc565b005b3480156114d757600080fd5b506114e0613f35565b604051808215151515815260200191505060405180910390f35b34801561150657600080fd5b5061150f613f47565b6040518082815260200191505060405180910390f35b34801561153157600080fd5b5061155a6004803603810190808035906020019092919080359060200190929190505050614039565b005b6115846004803603810190808035906020019092919080359060200190929190505050614134565b005b34801561159257600080fd5b506115b16004803603810190808035906020019092919050505061431c565b604051808215151515815260200191505060405180910390f35b3480156115d757600080fd5b506115f660048036038101908080359060200190929190505050614507565b604051808215151515815260200191505060405180910390f35b34801561161c57600080fd5b50611625614599565b6040518082815260200191505060405180910390f35b34801561164757600080fd5b5061165061459f565b6040518082815260200191505060405180910390f35b34801561167257600080fd5b5061167b6145a7565b604051808273ffffffffffffffffffffffffffffffffffffffff1673ffffffffffffffffffffffffffffffffffffffff16815260200191505060405180910390f35b3480156116c957600080fd5b506116e8600480360381019080803590602001909291905050506145cd565b604051808215151515815260200191505060405180910390f35b34801561170e57600080fd5b50611743600480360381019080803573ffffffffffffffffffffffffffffffffffffffff1690602001909291905050506147ba565b005b34801561175157600080fd5b5061177060048036038101908080359060200190929190505050614896565b604051808681526020018581526020018481526020018381526020018281526020019550505050505060405180910390f35b600260009054906101000a900473ffffffffffffffffffffffffffffffffffffffff1681565b60115481565b60606040805190810160405280600e81526020017f43727970746f44696e6f73617572000000000000000000000000000000000000815250905090565b600080600460149054906101000a900460ff1615151561182a57600080fd5b611834338461492f565b151561183f57600080fd5b60086000848152602001908152602001600020915061185c613f47565b9050803414151561186c57600080fd5b611875836145cd565b1561190e5733600d600085815260200190815260200160002060006101000a81548173ffffffffffffffffffffffffffffffffffffffff021916908373ffffffffffffffffffffffffffffffffffffffff1602179055506118d58361499b565b600861ffff83600101541610156118fe576002826001016000828254019250508190555061190d565b600a61ffff1682600101819055505b5b505050565b600460149054906101000a900460ff1615151561192f57600080fd5b611939338261492f565b151561194457600080fd5b81600b600083815260200190815260200160002060006101000a81548173ffffffffffffffffffffffffffffffffffffffff021916908373ffffffffffffffffffffffffffffffffffffffff160217905550808273ffffffffffffffffffffffffffffffffffffffff163373ffffffffffffffffffffffffffffffffffffffff167f8c5be1e5ebec7d5bd14f71427d1e84f3dd0314c0f7b2291e5b200ac8c7c3b92560405160405180910390a45050565b600060019054906101000a900473ffffffffffffffffffffffffffffffffffffffff1681565b601360009054906101000a900473ffffffffffffffffffffffffffffffffffffffff1681565b60006001905090565b6000600160009054906101000a900473ffffffffffffffffffffffffffffffffffffffff1673ffffffffffffffffffffffffffffffffffffffff163373ffffffffffffffffffffffffffffffffffffffff161480611af55750600060019054906101000a900473ffffffffffffffffffffffffffffffffffffffff1673ffffffffffffffffffffffffffffffffffffffff163373ffffffffffffffffffffffffffffffffffffffff16145b1515611b0057600080fd5b8190508073ffffffffffffffffffffffffffffffffffffffff1663eed370d16040518163ffffffff167c0100000000000000000000000000000000000000000000000000000000028152600401602060405180830381600087803b158015611b6757600080fd5b505af1158015611b7b573d6000803e3d6000fd5b505050506040513d6020811015611b9157600080fd5b81019080805190602001909291905050501515611bad57600080fd5b80601560006101000a81548173ffffffffffffffffffffffffffffffffffffffff021916908373ffffffffffffffffffffffffffffffffffffffff1602179055505050565b6000600160009054906101000a900473ffffffffffffffffffffffffffffffffffffffff1673ffffffffffffffffffffffffffffffffffffffff163373ffffffffffffffffffffffffffffffffffffffff161480611c9d5750600060019054906101000a900473ffffffffffffffffffffffffffffffffffffffff1673ffffffffffffffffffffffffffffffffffffffff163373ffffffffffffffffffffffffffffffffffffffff16145b1515611ca857600080fd5b8190508073ffffffffffffffffffffffffffffffffffffffff16633121db646040518163ffffffff167c0100000000000000000000000000000000000000000000000000000000028152600401602060405180830381600087803b158015611d0f57600080fd5b505af1158015611d23573d6000803e3d6000fd5b505050506040513d6020811015611d3957600080fd5b81019080805190602001909291905050501515611d5557600080fd5b80601360006101000a81548173ffffffffffffffffffffffffffffffffffffffff021916908373ffffffffffffffffffffffffffffffffffffffff1602179055505050565b6000600160098054905003905090565b600160009054906101000a900473ffffffffffffffffffffffffffffffffffffffff1681565b600460149054906101000a900460ff16151515611dec57600080fd5b3373ffffffffffffffffffffffffffffffffffffffff16600b600083815260200190815260200160002060009054906101000a900473ffffffffffffffffffffffffffffffffffffffff1673ffffffffffffffffffffffffffffffffffffffff16141515611e5957600080fd5b611e63838261492f565b1515611e6e57600080fd5b611e79838383614a45565b505050565b600060019054906101000a900473ffffffffffffffffffffffffffffffffffffffff1673ffffffffffffffffffffffffffffffffffffffff163373ffffffffffffffffffffffffffffffffffffffff16141515611eda57600080fd5b600073ffffffffffffffffffffffffffffffffffffffff168173ffffffffffffffffffffffffffffffffffffffff1614151515611f1657600080fd5b80600060016101000a81548173ffffffffffffffffffffffffffffffffffffffff021916908373ffffffffffffffffffffffffffffffffffffffff16021790555050565b600060019054906101000a900473ffffffffffffffffffffffffffffffffffffffff1673ffffffffffffffffffffffffffffffffffffffff163373ffffffffffffffffffffffffffffffffffffffff16141515611fb657600080fd5b600073ffffffffffffffffffffffffffffffffffffffff168173ffffffffffffffffffffffffffffffffffffffff1614151515611ff257600080fd5b80600360006101000a81548173ffffffffffffffffffffffffffffffffffffffff021916908373ffffffffffffffffffffffffffffffffffffffff16021790555050565b60008060008060009250612048611d9a565b9150600190505b81811115156120e8578573ffffffffffffffffffffffffffffffffffffffff16600a600083815260200190815260200160002060009054906101000a900473ffffffffffffffffffffffffffffffffffffffff1673ffffffffffffffffffffffffffffffffffffffff1614156120db57848314156120d2578093508093506120ed565b82806001019350505b808060010191505061204f565b600080fd5b50505092915050565b600060019054906101000a900473ffffffffffffffffffffffffffffffffffffffff1673ffffffffffffffffffffffffffffffffffffffff163373ffffffffffffffffffffffffffffffffffffffff1614151561215257600080fd5b600073ffffffffffffffffffffffffffffffffffffffff168173ffffffffffffffffffffffffffffffffffffffff161415151561218e57600080fd5b80600460006101000a81548173ffffffffffffffffffffffffffffffffffffffff021916908373ffffffffffffffffffffffffffffffffffffffff16021790555050565b600080600160ff166121e384614c39565b1415156121f35760009150612231565b600760008481526020019081526020016000209050428160000160089054906101000a900467ffffffffffffffff1667ffffffffffffffff16111591505b50919050565b6000600460149054906101000a900460ff1615151561225557600080fd5b61225f338661492f565b151561226a57600080fd5b61227385614c74565b151561227e57600080fd5b600a600086815260200190815260200160002060009054906101000a900473ffffffffffffffffffffffffffffffffffffffff169050601460009054906101000a900473ffffffffffffffffffffffffffffffffffffffff16600b600087815260200190815260200160002060006101000a81548173ffffffffffffffffffffffffffffffffffffffff021916908373ffffffffffffffffffffffffffffffffffffffff160217905550601460009054906101000a900473ffffffffffffffffffffffffffffffffffffffff1673ffffffffffffffffffffffffffffffffffffffff166327ebe40a86868686866040518663ffffffff167c0100000000000000000000000000000000000000000000000000000000028152600401808681526020018581526020018481526020018381526020018273ffffffffffffffffffffffffffffffffffffffff1673ffffffffffffffffffffffffffffffffffffffff16815260200195505050505050600060405180830381600087803b15801561240557600080fd5b505af1158015612419573d6000803e3d6000fd5b505050505050505050565b600160009054906101000a900473ffffffffffffffffffffffffffffffffffffffff1673ffffffffffffffffffffffffffffffffffffffff163373ffffffffffffffffffffffffffffffffffffffff1614806124cd5750600060019054906101000a900473ffffffffffffffffffffffffffffffffffffffff1673ffffffffffffffffffffffffffffffffffffffff163373ffffffffffffffffffffffffffffffffffffffff16145b15156124d857600080fd5b600460149054906101000a900460ff1615156124f357600080fd5b6000600460146101000a81548160ff021916908315150217905550565b60105481565b600c6020528060005260406000206000915054906101000a900473ffffffffffffffffffffffffffffffffffffffff1681565b6000600360009054906101000a900473ffffffffffffffffffffffffffffffffffffffff1673ffffffffffffffffffffffffffffffffffffffff163373ffffffffffffffffffffffffffffffffffffffff1614806125f45750600060019054906101000a900473ffffffffffffffffffffffffffffffffffffffff1673ffffffffffffffffffffffffffffffffffffffff163373ffffffffffffffffffffffffffffffffffffffff16145b15156125ff57600080fd5b600073ffffffffffffffffffffffffffffffffffffffff168273ffffffffffffffffffffffffffffffffffffffff16141561265a57600360009054906101000a900473ffffffffffffffffffffffffffffffffffffffff1691505b600f5460115410151561266c57600080fd5b6011600081548092919060010191905055506001869060020a026006879060020a021790506126a381600080600089898989614e27565b50505050505050565b600080831115156126bc57600080fd5b6000821115156126cb57600080fd5b6126d58383615153565b905092915050565b6000600460149054906101000a900460ff161515156126fb57600080fd5b600a600086815260200190815260200160002060009054906101000a900473ffffffffffffffffffffffffffffffffffffffff1690508073ffffffffffffffffffffffffffffffffffffffff163373ffffffffffffffffffffffffffffffffffffffff1614151561276b57600080fd5b6127748561529d565b151561277f57600080fd5b601560009054906101000a900473ffffffffffffffffffffffffffffffffffffffff16600b600087815260200190815260200160002060006101000a81548173ffffffffffffffffffffffffffffffffffffffff021916908373ffffffffffffffffffffffffffffffffffffffff160217905550601560009054906101000a900473ffffffffffffffffffffffffffffffffffffffff1673ffffffffffffffffffffffffffffffffffffffff166327ebe40a86868686866040518663ffffffff167c0100000000000000000000000000000000000000000000000000000000028152600401808681526020018581526020018481526020018381526020018273ffffffffffffffffffffffffffffffffffffffff1673ffffffffffffffffffffffffffffffffffffffff16815260200195505050505050600060405180830381600087803b1580156128d057600080fd5b505af11580156128e4573d6000803e3d6000fd5b505050505050505050565b600080600080600460149054906101000a900460ff1615151561291157600080fd5b61291a856121d2565b15612acd5760098581548110151561292e57fe5b90600052602060002001935060098460000160069054906101000a900463ffffffff1663ffffffff1681548110151561296357fe5b90600052602060002001925060098460000160029054906101000a900463ffffffff1663ffffffff1681548110151561299857fe5b906000526020600020019150601360009054906101000a900473ffffffffffffffffffffffffffffffffffffffff1673ffffffffffffffffffffffffffffffffffffffff1663bb0e8a3784600001600a9054906101000a900461ffff1684600001600a9054906101000a900461ffff166001600e036040518463ffffffff167c0100000000000000000000000000000000000000000000000000000000028152600401808461ffff1681526020018361ffff1681526020018261ffff1681526020019350505050602060405180830381600087803b158015612a7957600080fd5b505af1158015612a8d573d6000803e3d6000fd5b505050506040513d6020811015612aa357600080fd5b81019080805190602001909291905050509050612acc85600a61ffff16600761ffff168461543d565b5b5050505050565b600060019054906101000a900473ffffffffffffffffffffffffffffffffffffffff1673ffffffffffffffffffffffffffffffffffffffff163373ffffffffffffffffffffffffffffffffffffffff16141515612b3057600080fd5b600073ffffffffffffffffffffffffffffffffffffffff168173ffffffffffffffffffffffffffffffffffffffff1614151515612b6c57600080fd5b80600260006101000a81548173ffffffffffffffffffffffffffffffffffffffff021916908373ffffffffffffffffffffffffffffffffffffffff16021790555050565b60086020528060005260406000206000915090508060000160009054906101000a900467ffffffffffffffff16908060000160089054906101000a900467ffffffffffffffff16908060000160109054906101000a900467ffffffffffffffff16908060000160189054906101000a900461ffff169080600001601a9054906101000a900461ffff169080600001601c9054906101000a900463ffffffff16908060010154905087565b600460149054906101000a900460ff1681565b600260009054906101000a900473ffffffffffffffffffffffffffffffffffffffff1673ffffffffffffffffffffffffffffffffffffffff163373ffffffffffffffffffffffffffffffffffffffff161480612d165750600060019054906101000a900473ffffffffffffffffffffffffffffffffffffffff1673ffffffffffffffffffffffffffffffffffffffff163373ffffffffffffffffffffffffffffffffffffffff16145b1515612d2157600080fd5b600260009054906101000a900473ffffffffffffffffffffffffffffffffffffffff1673ffffffffffffffffffffffffffffffffffffffff166108fc3073ffffffffffffffffffffffffffffffffffffffff16319081150290604051600060405180830381858888f19350505050158015612da0573d6000803e3d6000fd5b50565b600080600a600084815260200190815260200160002060009054906101000a900473ffffffffffffffffffffffffffffffffffffffff169050600073ffffffffffffffffffffffffffffffffffffffff168173ffffffffffffffffffffffffffffffffffffffff1614151515612e1857600080fd5b80915050919050565b6000818311612e305781612e32565b825b905092915050565b6000600460149054906101000a900460ff16151515612e5857600080fd5b63ffffffff80168211151515612e6d57600080fd5b612e768261431c565b15612f0157600860008381526020019081526020016000209050612e9e8282600101546156eb565b60008160000160086101000a81548167ffffffffffffffff021916908367ffffffffffffffff160217905550600d600083815260200190815260200160002060006101000a81549073ffffffffffffffffffffffffffffffffffffffff02191690555b5050565b6000600160009054906101000a900473ffffffffffffffffffffffffffffffffffffffff1673ffffffffffffffffffffffffffffffffffffffff163373ffffffffffffffffffffffffffffffffffffffff161480612fb05750600060019054906101000a900473ffffffffffffffffffffffffffffffffffffffff1673ffffffffffffffffffffffffffffffffffffffff163373ffffffffffffffffffffffffffffffffffffffff16145b1515612fbb57600080fd5b8190508073ffffffffffffffffffffffffffffffffffffffff1663fa7beda06040518163ffffffff167c0100000000000000000000000000000000000000000000000000000000028152600401602060405180830381600087803b15801561302257600080fd5b505af1158015613036573d6000803e3d6000fd5b505050506040513d602081101561304c57600080fd5b8101908080519060200190929190505050151561306857600080fd5b80601460006101000a81548173ffffffffffffffffffffffffffffffffffffffff021916908373ffffffffffffffffffffffffffffffffffffffff1602179055505050565b600460149054906101000a900460ff161515156130c957600080fd5b6130d3338361492f565b15156130de57600080fd5b6130e882826126ac565b156130f8576130f782826157c1565b5b5050565b6000600e60008373ffffffffffffffffffffffffffffffffffffffff1673ffffffffffffffffffffffffffffffffffffffff168152602001908152602001600020549050919050565b600260009054906101000a900473ffffffffffffffffffffffffffffffffffffffff1673ffffffffffffffffffffffffffffffffffffffff163373ffffffffffffffffffffffffffffffffffffffff1614806131ee5750600060019054906101000a900473ffffffffffffffffffffffffffffffffffffffff1673ffffffffffffffffffffffffffffffffffffffff163373ffffffffffffffffffffffffffffffffffffffff16145b15156131f957600080fd5b6103e8811115151561320a57600080fd5b8060168190555050565b60008183116132235782613225565b815b905092915050565b600060019054906101000a900473ffffffffffffffffffffffffffffffffffffffff1673ffffffffffffffffffffffffffffffffffffffff163373ffffffffffffffffffffffffffffffffffffffff1614806132d65750600160009054906101000a900473ffffffffffffffffffffffffffffffffffffffff1673ffffffffffffffffffffffffffffffffffffffff163373ffffffffffffffffffffffffffffffffffffffff16145b8061332e5750600260009054906101000a900473ffffffffffffffffffffffffffffffffffffffff1673ffffffffffffffffffffffffffffffffffffffff163373ffffffffffffffffffffffffffffffffffffffff16145b806133865750600360009054906101000a900473ffffffffffffffffffffffffffffffffffffffff1673ffffffffffffffffffffffffffffffffffffffff163373ffffffffffffffffffffffffffffffffffffffff16145b151561339157600080fd5b600460149054906101000a900460ff161515156133ad57600080fd5b6001600460146101000a81548160ff021916908315150217905550565b600080600080600080600080600860008a815260200190815260200160002090508060000160009054906101000a900467ffffffffffffffff1667ffffffffffffffff1697508060000160089054906101000a900467ffffffffffffffff1667ffffffffffffffff1696508060000160109054906101000a900467ffffffffffffffff1667ffffffffffffffff1695508060000160189054906101000a900461ffff1661ffff16945080600001601a9054906101000a900461ffff1661ffff16935080600001601c9054906101000a900463ffffffff1663ffffffff1692508060010154915050919395979092949650565b60606040805190810160405280600481526020017f444e535200000000000000000000000000000000000000000000000000000000815250905090565b6000600360009054906101000a900473ffffffffffffffffffffffffffffffffffffffff1673ffffffffffffffffffffffffffffffffffffffff163373ffffffffffffffffffffffffffffffffffffffff1614806135a45750600060019054906101000a900473ffffffffffffffffffffffffffffffffffffffff1673ffffffffffffffffffffffffffffffffffffffff163373ffffffffffffffffffffffffffffffffffffffff16145b15156135af57600080fd5b600460149054906101000a900460ff161515156135cb57600080fd5b6135d43061598b565b9050601460009054906101000a900473ffffffffffffffffffffffffffffffffffffffff16600b600083815260200190815260200160002060006101000a81548173ffffffffffffffffffffffffffffffffffffffff021916908373ffffffffffffffffffffffffffffffffffffffff160217905550601460009054906101000a900473ffffffffffffffffffffffffffffffffffffffff1673ffffffffffffffffffffffffffffffffffffffff166327ebe40a82868686306040518663ffffffff167c0100000000000000000000000000000000000000000000000000000000028152600401808681526020018581526020018481526020018381526020018273ffffffffffffffffffffffffffffffffffffffff1673ffffffffffffffffffffffffffffffffffffffff16815260200195505050505050600060405180830381600087803b15801561372757600080fd5b505af115801561373b573d6000803e3d6000fd5b5050505050505050565b600581600e8110151561375457fe5b60089182820401919006600402915054906101000a900463ffffffff1681565b600460009054906101000a900473ffffffffffffffffffffffffffffffffffffffff1681565b600080600080600080600080600080600080600460149054906101000a900460ff161515156137c857600080fd5b60098d8154811015156137d757fe5b906000526020600020019b506137ec8d614507565b15613b3e57600860008e81526020019081526020016000209a508a600001601c9054906101000a900463ffffffff1663ffffffff16995060008a1415151561383357600080fd5b60098a81548110151561384257fe5b9060005260206000200198506138848c600001600a9054906101000a900461ffff1661ffff168a600001600a9054906101000a900461ffff1661ffff16612e21565b97508780600101985050600760008e81526020019081526020016000209650600760008b81526020019081526020016000209550601360009054906101000a900473ffffffffffffffffffffffffffffffffffffffff1673ffffffffffffffffffffffffffffffffffffffff1663f83d742b8860010154896002015489600101548a600201546040518563ffffffff167c010000000000000000000000000000000000000000000000000000000002815260040180858152602001848152602001838152602001828152602001945050505050606060405180830381600087803b15801561397157600080fd5b505af1158015613985573d6000803e3d6000fd5b505050506040513d606081101561399b57600080fd5b81019080805190602001909291908051906020019092919080519060200190929190505050809550819650829750505050600a60008e815260200190815260200160002060009054906101000a900473ffffffffffffffffffffffffffffffffffffffff169150601360009054906101000a900473ffffffffffffffffffffffffffffffffffffffff1673ffffffffffffffffffffffffffffffffffffffff16636f03addf8d60000160009054906101000a900461ffff168b60000160009054906101000a900461ffff166040518363ffffffff167c0100000000000000000000000000000000000000000000000000000000028152600401808361ffff1681526020018261ffff16815260200192505050602060405180830381600087803b158015613ac757600080fd5b505af1158015613adb573d6000803e3d6000fd5b505050506040513d6020811015613af157600080fd5b81019080805190602001909291905050509050613b18818e8c8b61ffff1689898989614e27565b5060008b600001601c6101000a81548163ffffffff021916908363ffffffff1602179055505b50505050505050505050505050565b600460149054906101000a900460ff16151515613b6957600080fd5b600073ffffffffffffffffffffffffffffffffffffffff168273ffffffffffffffffffffffffffffffffffffffff1614151515613ba557600080fd5b613baf338261492f565b1515613bba57600080fd5b613bc5338383614a45565b5050565b600360009054906101000a900473ffffffffffffffffffffffffffffffffffffffff1681565b601560009054906101000a900473ffffffffffffffffffffffffffffffffffffffff1681565b600f5481565b600080600080600080600987815481101515613c3357fe5b9060005260206000200190508060000160009054906101000a900461ffff1661ffff1695508060000160029054906101000a900463ffffffff1663ffffffff1694508060000160069054906101000a900463ffffffff1663ffffffff16935080600001600a9054906101000a900461ffff1661ffff16925080600001600c9054906101000a900460ff1660ff1691505091939590929450565b60165481565b600181565b60076020528060005260406000206000915090508060000160009054906101000a900467ffffffffffffffff16908060000160089054906101000a900467ffffffffffffffff16908060000160109054906101000a900461ffff16908060010154908060020154905085565b600d6020528060005260406000206000915054906101000a900473ffffffffffffffffffffffffffffffffffffffff1681565b600b6020528060005260406000206000915054906101000a900473ffffffffffffffffffffffffffffffffffffffff1681565b600a6020528060005260406000206000915054906101000a900473ffffffffffffffffffffffffffffffffffffffff1681565b6000806000600460149054906101000a900460ff16151515613dfd57600080fd5b3373ffffffffffffffffffffffffffffffffffffffff16600a600086815260200190815260200160002060009054906101000a900473ffffffffffffffffffffffffffffffffffffffff1673ffffffffffffffffffffffffffffffffffffffff16141515613e6a57600080fd5b600984815481101515613e7957fe5b906000526020600020019250600160ff1683600001600c9054906101000a900460ff1660ff16141515613eab57600080fd5b339150613eb784615ad5565b9050837f3948d4171b91d629c5a44888931713036cc7e5d62b4609069cb21225f40876958383604051808373ffffffffffffffffffffffffffffffffffffffff1673ffffffffffffffffffffffffffffffffffffffff1681526020018267ffffffffffffffff1681526020019250505060405180910390a250505050565b6000809054906101000a900460ff1681565b600080601460009054906101000a900473ffffffffffffffffffffffffffffffffffffffff1673ffffffffffffffffffffffffffffffffffffffff1663eac9d94c6040518163ffffffff167c0100000000000000000000000000000000000000000000000000000000028152600401602060405180830381600087803b158015613fd057600080fd5b505af1158015613fe4573d6000803e3d6000fd5b505050506040513d6020811015613ffa57600080fd5b81019080805190602001909291905050509050600081141561402157662386f26fc1000090505b612710601654820281151561403257fe5b0491505090565b600160009054906101000a900473ffffffffffffffffffffffffffffffffffffffff1673ffffffffffffffffffffffffffffffffffffffff163373ffffffffffffffffffffffffffffffffffffffff1614806140e25750600060019054906101000a900473ffffffffffffffffffffffffffffffffffffffff1673ffffffffffffffffffffffffffffffffffffffff163373ffffffffffffffffffffffffffffffffffffffff16145b15156140ed57600080fd5b80600583600e811015156140fd57fe5b600891828204019190066004026101000a81548163ffffffff021916908363ffffffff1602179055506141306001615b81565b5050565b600080600460149054906101000a900460ff1615151561415357600080fd5b61415d338561492f565b151561416857600080fd5b601560009054906101000a900473ffffffffffffffffffffffffffffffffffffffff1673ffffffffffffffffffffffffffffffffffffffff1663c55d0f56846040518263ffffffff167c010000000000000000000000000000000000000000000000000000000002815260040180828152602001915050602060405180830381600087803b1580156141f957600080fd5b505af115801561420d573d6000803e3d6000fd5b505050506040513d602081101561422357600080fd5b8101908080519060200190929190505050915034905081811015151561424857600080fd5b601560009054906101000a900473ffffffffffffffffffffffffffffffffffffffff1673ffffffffffffffffffffffffffffffffffffffff1663454a2ab382856040518363ffffffff167c0100000000000000000000000000000000000000000000000000000000028152600401808281526020019150506000604051808303818588803b1580156142d957600080fd5b505af11580156142ed573d6000803e3d6000fd5b50505050506142fc3384615b9d565b6143068484615153565b156143165761431584846157c1565b5b50505050565b6000614326615d39565b600260ff1661433484614c39565b1415156143445760009150614501565b6008600084815260200190815260200160002060e060405190810160405290816000820160009054906101000a900467ffffffffffffffff1667ffffffffffffffff1667ffffffffffffffff1681526020016000820160089054906101000a900467ffffffffffffffff1667ffffffffffffffff1667ffffffffffffffff1681526020016000820160109054906101000a900467ffffffffffffffff1667ffffffffffffffff1667ffffffffffffffff1681526020016000820160189054906101000a900461ffff1661ffff1661ffff16815260200160008201601a9054906101000a900461ffff1661ffff1661ffff16815260200160008201601c9054906101000a900463ffffffff1663ffffffff1663ffffffff168152602001600182015481525050905042816020015167ffffffffffffffff1610151561448b5760009150614501565b600073ffffffffffffffffffffffffffffffffffffffff16600d600085815260200190815260200160002060009054906101000a900473ffffffffffffffffffffffffffffffffffffffff1673ffffffffffffffffffffffffffffffffffffffff1614156144fc5760009150614501565b600191505b50919050565b6000806000600260ff1661451a85614c39565b14151561452a5760009250614592565b6008600085815260200190815260200160002091506002600583600001601a9054906101000a900461ffff1661ffff16600e8110151561456657fe5b600891828204019190066004029054906101000a900463ffffffff16029050428163ffffffff16111592505b5050919050565b60125481565b600042905090565b601460009054906101000a900473ffffffffffffffffffffffffffffffffffffffff1681565b60006145d7615d39565b600260ff166145e584614c39565b1415156145f557600091506147b4565b6145fe83614c74565b151561460d57600091506147b4565b6008600084815260200190815260200160002060e060405190810160405290816000820160009054906101000a900467ffffffffffffffff1667ffffffffffffffff1667ffffffffffffffff1681526020016000820160089054906101000a900467ffffffffffffffff1667ffffffffffffffff1667ffffffffffffffff1681526020016000820160109054906101000a900467ffffffffffffffff1667ffffffffffffffff1667ffffffffffffffff1681526020016000820160189054906101000a900461ffff1661ffff1661ffff16815260200160008201601a9054906101000a900461ffff1661ffff1661ffff16815260200160008201601c9054906101000a900463ffffffff1663ffffffff1663ffffffff168152602001600182015481525050905042816020015167ffffffffffffffff16111580156147b15750600073ffffffffffffffffffffffffffffffffffffffff16600d600085815260200190815260200160002060009054906101000a900473ffffffffffffffffffffffffffffffffffffffff1673ffffffffffffffffffffffffffffffffffffffff16145b91505b50919050565b600060019054906101000a900473ffffffffffffffffffffffffffffffffffffffff1673ffffffffffffffffffffffffffffffffffffffff163373ffffffffffffffffffffffffffffffffffffffff1614151561481657600080fd5b600073ffffffffffffffffffffffffffffffffffffffff168173ffffffffffffffffffffffffffffffffffffffff161415151561485257600080fd5b80600160006101000a81548173ffffffffffffffffffffffffffffffffffffffff021916908373ffffffffffffffffffffffffffffffffffffffff16021790555050565b6000806000806000806007600088815260200190815260200160002090508060000160009054906101000a900467ffffffffffffffff1667ffffffffffffffff1695508060000160089054906101000a900467ffffffffffffffff1667ffffffffffffffff1694508060000160109054906101000a900461ffff1661ffff16935080600101549250806002015491505091939590929450565b60008273ffffffffffffffffffffffffffffffffffffffff16600a600084815260200190815260200160002060009054906101000a900473ffffffffffffffffffffffffffffffffffffffff1673ffffffffffffffffffffffffffffffffffffffff1614905092915050565b6000806008600084815260200190815260200160002091506149bc82615bf3565b600a600084815260200190815260200160002060009054906101000a900473ffffffffffffffffffffffffffffffffffffffff1690508073ffffffffffffffffffffffffffffffffffffffff167f99fa88ec8c03f9d0655f40d7873f347586997d95a2704384b431b5879a8fae65846040518082815260200191505060405180910390a2505050565b600e60008373ffffffffffffffffffffffffffffffffffffffff1673ffffffffffffffffffffffffffffffffffffffff1681526020019081526020016000206000815480929190600101919050555081600a600083815260200190815260200160002060006101000a81548173ffffffffffffffffffffffffffffffffffffffff021916908373ffffffffffffffffffffffffffffffffffffffff160217905550600073ffffffffffffffffffffffffffffffffffffffff168373ffffffffffffffffffffffffffffffffffffffff16141515614bd957600e60008473ffffffffffffffffffffffffffffffffffffffff1673ffffffffffffffffffffffffffffffffffffffff1681526020019081526020016000206000815480929190600190039190505550600b600082815260200190815260200160002060006101000a81549073ffffffffffffffffffffffffffffffffffffffff0219169055600c600082815260200190815260200160002060006101000a81549073ffffffffffffffffffffffffffffffffffffffff02191690555b808273ffffffffffffffffffffffffffffffffffffffff168473ffffffffffffffffffffffffffffffffffffffff167fddf252ad1be2c89b69c2b068fc378daa952ba7f163c4a11628f55a4df523b3ef60405160405180910390a4505050565b600080600983815481101515614c4b57fe5b90600052602060002001905080600001600c9054906101000a900460ff1660ff16915050919050565b6000614c7e615d39565b6008600084815260200190815260200160002060e060405190810160405290816000820160009054906101000a900467ffffffffffffffff1667ffffffffffffffff1667ffffffffffffffff1681526020016000820160089054906101000a900467ffffffffffffffff1667ffffffffffffffff1667ffffffffffffffff1681526020016000820160109054906101000a900467ffffffffffffffff1667ffffffffffffffff1667ffffffffffffffff1681526020016000820160189054906101000a900461ffff1661ffff1661ffff16815260200160008201601a9054906101000a900461ffff1661ffff1661ffff16815260200160008201601c9054906101000a900463ffffffff1663ffffffff1663ffffffff168152602001600182015481525050905060008160a0015163ffffffff161115614dc15760009150614e21565b6000600d600085815260200190815260200160002060009054906101000a900473ffffffffffffffffffffffffffffffffffffffff1673ffffffffffffffffffffffffffffffffffffffff161115614e1c5760009150614e21565b600191505b50919050565b6000614e31615da3565b6000614e3b615dea565b63ffffffff80168b11151515614e5057600080fd5b63ffffffff80168a11151515614e6557600080fd5b61ffff80168911151515614e7857600080fd5b60a0604051908101604052808d61ffff1681526020018c63ffffffff1681526020018b63ffffffff1681526020018a61ffff168152602001600160ff168152509250600160098490806001815401808255809150509060018203906000526020600020016000909192909190915060008201518160000160006101000a81548161ffff021916908361ffff16021790555060208201518160000160026101000a81548163ffffffff021916908363ffffffff16021790555060408201518160000160066101000a81548163ffffffff021916908363ffffffff160217905550606082015181600001600a6101000a81548161ffff021916908361ffff160217905550608082015181600001600c6101000a81548160ff021916908360ff160217905550505003915063ffffffff80168211151515614fb557600080fd5b60a0604051908101604052804267ffffffffffffffff168152602001600067ffffffffffffffff1681526020016000809054906101000a900460ff16614ffb5787614ffe565b60005b61ffff168152602001898152602001888152509050806007600084815260200190815260200160002060008201518160000160006101000a81548167ffffffffffffffff021916908367ffffffffffffffff16021790555060208201518160000160086101000a81548167ffffffffffffffff021916908367ffffffffffffffff16021790555060408201518160000160106101000a81548161ffff021916908361ffff16021790555060608201518160010155608082015181600201559050506150cb60008684614a45565b8473ffffffffffffffffffffffffffffffffffffffff167fff5fcd526f7b8177c4c59e304686a5ec6c7d8503ad40f5aef03e6c2447d3b1b6838d8d85606001518660800151604051808681526020018581526020018481526020018381526020018281526020019550505050505060405180910390a281935050505098975050505050505050565b600080600083851415151561516757600080fd5b6151708561529d565b151561517b57600080fd5b6151848461529d565b151561518f57600080fd5b600a600086815260200190815260200160002060009054906101000a900473ffffffffffffffffffffffffffffffffffffffff169150600a600085815260200190815260200160002060009054906101000a900473ffffffffffffffffffffffffffffffffffffffff1690508073ffffffffffffffffffffffffffffffffffffffff168273ffffffffffffffffffffffffffffffffffffffff16148061529357508173ffffffffffffffffffffffffffffffffffffffff16600c600086815260200190815260200160002060009054906101000a900473ffffffffffffffffffffffffffffffffffffffff1673ffffffffffffffffffffffffffffffffffffffff16145b9250505092915050565b60006152a7615d39565b6008600084815260200190815260200160002060e060405190810160405290816000820160009054906101000a900467ffffffffffffffff1667ffffffffffffffff1667ffffffffffffffff1681526020016000820160089054906101000a900467ffffffffffffffff1667ffffffffffffffff1667ffffffffffffffff1681526020016000820160109054906101000a900467ffffffffffffffff1667ffffffffffffffff1667ffffffffffffffff1681526020016000820160189054906101000a900461ffff1661ffff1661ffff16815260200160008201601a9054906101000a900461ffff1661ffff1661ffff16815260200160008201601c9054906101000a900463ffffffff1663ffffffff1663ffffffff16815260200160018201548152505090506153d783614c74565b15156153e257600080fd5b42816020015167ffffffffffffffff161015156153fe57600080fd5b42816040015167ffffffffffffffff1610151561541a57600080fd5b60008160a0015163ffffffff1614151561543357600080fd5b6001915050919050565b6000615447615d39565b600060098781548110151561545857fe5b906000526020600020019250600160ff1683600001600c9054906101000a900460ff1660ff1614151561548a57600080fd5b600283600001600c6101000a81548160ff021916908360ff16021790555060e0604051908101604052804267ffffffffffffffff168152602001600067ffffffffffffffff168152602001600067ffffffffffffffff1681526020016000809054906101000a900460ff166154ff5786615502565b60005b61ffff1681526020016000809054906101000a900460ff166155245785615527565b60005b61ffff168152602001600063ffffffff168152602001878152509150816008600089815260200190815260200160002060008201518160000160006101000a81548167ffffffffffffffff021916908367ffffffffffffffff16021790555060208201518160000160086101000a81548167ffffffffffffffff021916908367ffffffffffffffff16021790555060408201518160000160106101000a81548167ffffffffffffffff021916908367ffffffffffffffff16021790555060608201518160000160186101000a81548161ffff021916908361ffff160217905550608082015181600001601a6101000a81548161ffff021916908361ffff16021790555060a082015181600001601c6101000a81548163ffffffff021916908363ffffffff16021790555060c08201518160010155905050600a600088815260200190815260200160002060009054906101000a900473ffffffffffffffffffffffffffffffffffffffff1690508073ffffffffffffffffffffffffffffffffffffffff167f1fad4e73632594ac8c096146c72f29931547986ae355aca6888b35d287cb5ff6886040518082815260200191505060405180910390a250505050505050565b600080600080600a600087815260200190815260200160002060009054906101000a900473ffffffffffffffffffffffffffffffffffffffff169350600194506157348461598b565b925060009150600090507f7b7e329fc7c0a77b23cd38f0094e58bf7244bdd0ce65924c506cbc3a9ea9196084848484604051808573ffffffffffffffffffffffffffffffffffffffff1673ffffffffffffffffffffffffffffffffffffffff16815260200184815260200183815260200182815260200194505050505060405180910390a1505050505050565b600080600860008581526020019081526020016000209150600860008481526020019081526020016000209050600461ffff8360010154161015151561580657600080fd5b8282600001601c6101000a81548163ffffffff021916908363ffffffff16021790555061583282615c69565b61583b81615c69565b600c600085815260200190815260200160002060006101000a81549073ffffffffffffffffffffffffffffffffffffffff0219169055600c600084815260200190815260200160002060006101000a81549073ffffffffffffffffffffffffffffffffffffffff0219169055600a61ffff82600101541610156158cc57600181600101600082825401925050819055505b600482600101600082825403925050819055507f6b4808987a5cecdf67d54ca5dc20664fafca80ef7195097800c12549245ab20d600a600086815260200190815260200160002060009054906101000a900473ffffffffffffffffffffffffffffffffffffffff168585604051808473ffffffffffffffffffffffffffffffffffffffff1673ffffffffffffffffffffffffffffffffffffffff168152602001838152602001828152602001935050505060405180910390a150505050565b6000806000806000806010546012541015156159a657600080fd5b601360009054906101000a900473ffffffffffffffffffffffffffffffffffffffff1673ffffffffffffffffffffffffffffffffffffffff16639573a5b16012546040518263ffffffff167c010000000000000000000000000000000000000000000000000000000002815260040180828152602001915050608060405180830381600087803b158015615a3957600080fd5b505af1158015615a4d573d6000803e3d6000fd5b505050506040513d6080811015615a6357600080fd5b810190808051906020019092919080519060200190929190805190602001909291908051906020019092919050505080955081965082975083985050505050615ab48360008060008989888e614e27565b90506012600081548092919060010191905055508095505050505050919050565b60008060076000848152602001908152602001600020905060058160000160109054906101000a900461ffff1661ffff16600e81101515615b1257fe5b600891828204019190066004029054906101000a900463ffffffff1663ffffffff1642018160000160086101000a81548167ffffffffffffffff021916908367ffffffffffffffff1602179055508060000160089054906101000a900467ffffffffffffffff16915050919050565b806000806101000a81548160ff02191690831515021790555050565b81600c600083815260200190815260200160002060006101000a81548173ffffffffffffffffffffffffffffffffffffffff021916908373ffffffffffffffffffffffffffffffffffffffff1602179055505050565b60058160000160189054906101000a900461ffff1661ffff16600e81101515615c1857fe5b600891828204019190066004029054906101000a900463ffffffff1663ffffffff1642018160000160086101000a81548167ffffffffffffffff021916908367ffffffffffffffff16021790555050565b600581600001601a9054906101000a900461ffff1661ffff16600e81101515615c8e57fe5b600891828204019190066004029054906101000a900463ffffffff1663ffffffff1642018160000160106101000a81548167ffffffffffffffff021916908367ffffffffffffffff1602179055506001600e0361ffff1681600001601a9054906101000a900461ffff1661ffff161015615d3657600181600001601a8282829054906101000a900461ffff160192506101000a81548161ffff021916908361ffff1602179055505b50565b60e060405190810160405280600067ffffffffffffffff168152602001600067ffffffffffffffff168152602001600067ffffffffffffffff168152602001600061ffff168152602001600061ffff168152602001600063ffffffff168152602001600081525090565b60a060405190810160405280600061ffff168152602001600063ffffffff168152602001600063ffffffff168152602001600061ffff168152602001600060ff1681525090565b60a060405190810160405280600067ffffffffffffffff168152602001600067ffffffffffffffff168152602001600061ffff168152602001600081526020016000815250905600a165627a7a72305820dee323ddd720b6fee1ae89b521155d0f9ad46a24569d9e4209cc1e40912ca36d0029",
  "source": "pragma solidity ^0.4.18;\n\nimport \"./Auction.sol\";\nimport \"./DinosaurSeeking.sol\";\nimport \"./EggNFT.sol\";\n\n\n// \n\ncontract Jurassic is Auction, DinosaurSeeking {\n    // \n    bool public constant IS_JURASSIC = true;\n\n    constructor() public {\n\n        // 0\n        if (dnsrToken.length == 0) {\n            _createEgg(0, 0, 0, 0, uint256(-1), uint256(-1), 0, address(0));\n        }\n    }\n\n    function () external payable {\n        require(msg.sender == address(saleDutchAuction) ||\n                msg.sender == address(siringDutchAuction));\n    }\n\n\n    /**  **/\n\n    function getDNSRToken (uint256 _id) public view returns(\n        uint256 kind,\n        uint256 motherId,\n        uint256 fatherId,\n        uint256 generation,\n        uint256 phase\n    ) {\n        DNSRToken storage _dnsrToken = dnsrToken[_id];\n\n        kind         = _dnsrToken.kind;\n\n        motherId          = _dnsrToken.motherId;\n        fatherId          = _dnsrToken.fatherId;\n\n        generation        = _dnsrToken.generation;\n        phase             = _dnsrToken.phase;\n    }\n\n    function getEgg (uint256 _id) public view returns(\n        uint256 birthTime,\n        uint256 hatchEndTime,\n        uint256 hatchCDIndex,\n        uint256 genesF,\n        uint256 genesM\n    ) {\n        DinosaurEgg storage _egg = eggs[_id];\n\n        birthTime    = _egg.birthTime;\n\n        hatchEndTime = _egg.hatchEndTime;\n        hatchCDIndex = _egg.hatchCDIndex;\n\n        genesF       = _egg.genesF;\n        genesM       = _egg.genesM;\n    }\n\n\n\n    function getDinosaur(uint256 _id) public view returns(\n        uint256 birthTime,\n        uint256 seekingCDEndTime,\n        uint256 breedingCDEndTime,\n        uint256 seekingCDIndex,\n        uint256 breedingCDIndex,\n        uint256 siringWithId,\n        uint256 attributes\n    ) {\n        Dinosaur storage _dinosaur = dinosaurs[_id];\n        // require(_dinosaur != 0);\n        birthTime         = _dinosaur.birthTime;\n        seekingCDEndTime  = _dinosaur.seekingCDEndTime;\n        breedingCDEndTime = _dinosaur.breedingCDEndTime;\n        seekingCDIndex    = _dinosaur.seekingCDIndex;\n        breedingCDIndex   = _dinosaur.breedingCDIndex;\n\n        siringWithId      = _dinosaur.siringWithId;\n\n        attributes        = _dinosaur.attributes;\n    }\n\n    /**  **/\n\n    function startHatchingEgg(uint256 _id) public whenNotPaused {\n        require(dinosaurIndexToOwner[_id] == msg.sender);\n\n        DNSRToken storage _dnsrToken = dnsrToken[_id];\n        require(_dnsrToken.phase == EGG_PHASE);\n\n        address _own = msg.sender;\n\n        uint64 hatchEndTime = _startHatchingEgg(_id);\n\n        // \n        emit HatchingEgg(_own, _id, hatchEndTime);\n    }\n\n    // //  _addr  _fatherId \n    // function approveSiring (address _addr, uint256 _fatherId) public whenNotPaused {\n    //     require(_owns(msg.sender, _fatherId));\n\n    //     _approveSiring(_addr, _fatherId);\n    // }\n\n    function canBreedWith (uint256 _motherId, uint256 _fatherId) public view returns(bool) {\n        require(_motherId > 0);\n        require(_fatherId > 0);\n\n        return _canBreedWith(_motherId, _fatherId);\n    }\n\n    function breedWith(uint256 _motherId, uint256 _fatherId) public whenNotPaused {\n        require(_owns(msg.sender, _motherId));\n\n        if (canBreedWith(_motherId, _fatherId)) {\n            _breedWith(_motherId, _fatherId);\n        }\n    }\n\n    // \n    // gas\n    function tryToLayTheEgg(uint256 _motherId) public whenNotPaused {\n        DNSRToken storage _motherToken = dnsrToken[_motherId];\n\n        // \n        if (isEggReadyToLay(_motherId)) {\n\n            Dinosaur storage _motherDinosaur = dinosaurs[_motherId];\n\n            uint256 _fatherId = _motherDinosaur.siringWithId;\n            require(_fatherId != 0);\n\n            DNSRToken storage _fatherToken = dnsrToken[_fatherId];\n\n            uint16 generation = uint16(max(_motherToken.generation, _fatherToken.generation));\n            generation++;\n\n            // TODO: packing the genes\n\n            DinosaurEgg storage _eggM = eggs[_motherId];\n            DinosaurEgg storage _eggF = eggs[_fatherId];\n            uint256 _genesF;\n            uint256 _genesM;\n            uint256 _hatchCDIndex;\n            (_genesF, _genesM, _hatchCDIndex) = geneticAlgorithm.inheritedGenes(_eggM.genesF, _eggM.genesM, _eggF.genesF, _eggF.genesM);\n\n            address _owner = dinosaurIndexToOwner[_motherId];\n\n            uint256 kind = geneticAlgorithm.buildKind(_motherToken.kind, _fatherToken.kind);\n            _createEgg(kind, _motherId, _fatherId, generation, _genesF, _genesM, _hatchCDIndex, _owner);\n\n            _motherDinosaur.siringWithId = 0;\n            // _motherDinosaur.breedingCDEndTime = 0;\n//\n            // Dinosaur storage _fatherDinosaur = dinosaurs[_fatherId];\n            // _fatherDinosaur.breedingCDEndTime = 0;\n        }\n    }\n\n    function tryToBirthFromEgg (uint256 _eggId) public whenNotPaused {\n        if (isDinosaurReadyToHatched(_eggId)) {\n            DNSRToken storage _dnsrToken = dnsrToken[_eggId];\n\n            DNSRToken storage _dnsrTokenF = dnsrToken[_dnsrToken.fatherId];\n            DNSRToken storage _dnsrTokenM = dnsrToken[_dnsrToken.motherId];\n\n            uint256 _breedingCDIndex = geneticAlgorithm.calcBreedingIndex(_dnsrTokenF.generation, _dnsrTokenM.generation, COOLDOWN_TABLE_SIZE - 1);\n            _hatched(_eggId, MAX_PLEASURE, SEEKING_CD_INDEX, _breedingCDIndex);\n        }\n    }\n\n    // \n    function isDinosaurReadyToHatched(uint256 _id) public view returns (bool) {\n        if (_getDinosaurPhase(_id) != EGG_PHASE) {\n            return false;\n        }\n\n\n        DinosaurEgg storage _egg = eggs[_id];\n\n        return (_egg.hatchEndTime <= now);\n    }\n\n    // \n    // @_id ID\n    function isEggReadyToLay(uint256 _id) public view returns (bool) {\n        if (_getDinosaurPhase(_id) != DINOSAUR_PHASE) {\n            return false;\n        }\n\n        Dinosaur storage _dinosaur = dinosaurs[_id];\n\n        uint32 layTime = cooldowns[_dinosaur.breedingCDIndex] * 2;\n        return (layTime <= now);\n    }\n\n    /***  ***/\n    // gas\n    function isReadyForSeeking (uint256 _id) public view returns (bool) {\n        if (_getDinosaurPhase(_id) != DINOSAUR_PHASE) {\n            return false;\n        }\n\n        if (!_isDinosaurInFree(_id)) {\n            return false;\n        }\n\n        Dinosaur memory _dinosaur = dinosaurs[_id];\n\n        return (_dinosaur.seekingCDEndTime <= now &&\n                seekingIndexToOwner[_id] == address(0));\n    }\n\n    function isReadyToBackHome (uint256 _id) public view returns (bool) {\n        if (_getDinosaurPhase(_id) != DINOSAUR_PHASE) {\n            return false;\n        }\n\n        Dinosaur memory _dinosaur = dinosaurs[_id];\n\n        if (_dinosaur.seekingCDEndTime >= now) {\n            // \n            return false;\n        }\n\n        if (seekingIndexToOwner[_id] == address(0)) {\n            // \n            return false;\n        }\n\n        return true;\n    }\n\n    function seeking (uint256 _id) public payable whenNotPaused {\n        require(_owns(msg.sender, _id));\n\n        Dinosaur storage _dinosaur = dinosaurs[_id];\n\n        uint256 tax = getSeekingTax();\n        require(msg.value == tax);\n\n        if (isReadyForSeeking(_id)) {\n\n            seekingIndexToOwner[_id] = msg.sender;\n\n            _startSeeking(_id);\n\n            // < (MAX_PLEASURE - 2)gas\n            if ((_dinosaur.attributes & PLEASURE_MASK) < 8) {\n                _dinosaur.attributes += 2;\n            } else {\n                _dinosaur.attributes = MAX_PLEASURE;\n            }\n        }\n    }\n\n    function getSeekingTax () public view returns (uint256) {\n        uint256 avgPrice = saleDutchAuction.averageGen0SalePrice();\n        if (avgPrice == 0) {\n            avgPrice = 0.01 ether;\n        }\n        return avgPrice * seekingTax / 10000;\n    }\n\n\n    // \n    // \n    // gas\n    function collectSeekingTrophies (uint256 _id) public whenNotPaused {\n        require(_id <= MAX_IDS);\n\n        if (isReadyToBackHome(_id)) {\n            Dinosaur storage _dinosaur = dinosaurs[_id];\n\n            _createTrophies(_id, _dinosaur.attributes);\n\n            _dinosaur.seekingCDEndTime = 0;\n\n            delete seekingIndexToOwner[_id];\n        }\n    }\n\n\n    /*** FINANCE ***/\n\n    // CFO \n    function withdrawBalance() external onlyCFO {\n        cfoAddress.transfer(address(this).balance);\n    }\n}\n",
  "sourcePath": "D:\\codebase\\blockchain\\ganacheDemo\\dinosaur\\contracts\\Jurassic\\Jurassic.sol",
  "compiler": {
    "name": "solc",
    "version": "0.4.24+commit.e67f0147.Emscripten.clang"
  },
  "schemaVersion": "2.0.1",
  "updatedAt": "2018-09-05T10:51:01.751Z"
}