{
  "contractName": "Utils",
  "abi": [
    {
      "constant": true,
      "inputs": [
        {
          "name": "a",
          "type": "uint256"
        },
        {
          "name": "b",
          "type": "uint256"
        }
      ],
      "name": "min",
      "outputs": [
        {
          "name": "",
          "type": "uint256"
        }
      ],
      "payable": false,
      "stateMutability": "pure",
      "type": "function"
    },
    {
      "constant": true,
      "inputs": [
        {
          "name": "a",
          "type": "uint256"
        },
        {
          "name": "b",
          "type": "uint256"
        }
      ],
      "name": "max",
      "outputs": [
        {
          "name": "",
          "type": "uint256"
        }
      ],
      "payable": false,
      "stateMutability": "pure",
      "type": "function"
    }
  ],
  "bytecode": "0x608060405234801561001057600080fd5b50610145806100206000396000f30060806040526004361061004c576000357c0100000000000000000000000000000000000000000000000000000000900463ffffffff1680636d5433e6146100515780637ae2b5c71461009c575b600080fd5b34801561005d57600080fd5b5061008660048036038101908080359060200190929190803590602001909291905050506100e7565b6040518082815260200191505060405180910390f35b3480156100a857600080fd5b506100d16004803603810190808035906020019092919080359060200190929190505050610100565b6040518082815260200191505060405180910390f35b60008183116100f657816100f8565b825b905092915050565b600081831161010f5782610111565b815b9050929150505600a165627a7a7230582002a37558b739c63776c200ac9f0fa9f3714df76a82d829ee48bf7de70dcd1d650029",
  "source": "pragma solidity ^0.4.18;\n\ncontract Utils {\n\n    function min (uint256 a, uint256 b) public pure returns (uint256) {\n        return a > b ? b : a;\n    }\n\n    function max (uint256 a, uint256 b) public pure returns (uint256) {\n        return a > b ? a : b;\n    }\n\n}\n",
  "sourcePath": "D:\\codebase\\blockchain\\ganacheDemo\\dinosaur\\contracts\\Utils.sol",
  "compiler": {
    "name": "solc",
    "version": "0.4.24+commit.e67f0147.Emscripten.clang"
  },
  "schemaVersion": "2.0.1",
  "updatedAt": "2018-09-05T10:51:01.710Z"
}